:020000040800F2
:100000000050002065890008B5890008697600085D
:1000100000000000000000000000000000000000E0
:10002000000000000000000000000000B58900088A
:100030000000000000000000B589000845760008B7
:10004000B5890008B589000831790008B58900082C
:10005000B58900081D7200082D7200083D72000865
:1000600000000000B5890008B5890008B9800008C3
:10007000B5890008F17D0008B5890008B589000838
:10008000B5890008B5890008B5890008000000009E
:10009000B5890008B5890008B5890008B589000848
:1000A000B5890008B5890008B5890008B589000838
:1000B000C9800008B58900080000000000000000A9
:1000C0000448054B10B5834203D0044B002B00D0ED
:1000D000984710BDE8020020E80200200000000060
:1000E00006480749091A8B10C90FC91810B54910DD
:1000F00003D0044B002B00D0984710BDE80200202D
:10010000E80200200000000010B5074C2378002B07
:1001100009D1FFF7D5FF054B002B02D0044800E0C2
:1001200000BF0123237010BDE80200200000000082
:1001300070A50108054B10B5002B03D004490548F4
:1001400000E000BFFFF7CCFF10BDC046000000007C
:10015000EC02002070A5010870B50C4D0C4E761B0A
:10016000B61005D0002408CD01349847A642FAD134
:100170001AF0FEF9074D084E761BB61005D0002484
:1001800008CD01349847A642FAD170BD88FD010818
:1001900088FD010888FD01088CFD0108F0B5C64600
:1001A00000B50F2A41D903270D003E0005430C007E
:1001B00003002E402F423DD11500103D2D09A846C9
:1001C0002D01AC46844427681D001F6067685F608E
:1001D000A7689F60E7681034DF6010336545F2D18F
:1001E00045460F230C2401352D01491913404519AB
:1001F000144222D08C59AC5104369C1B032CF9D8E4
:10020000043B9B0801339B00ED18C91803231A40D7
:10021000561E002A06D00023CC5C1A00EC54013391
:100220009642F9D180BCB846F0BD0500561E002AA2
:10023000F1D1F7E70500561EEDE71A00F6E7C046D4
:10024000F0B588420AD98B18984207D2531E002A6B
:1002500003D0CA5CC254013BFBD2F0BD0F2A0BD8BD
:100260000500561E002AF8D00023CC5C1A00EC547E
:1002700001339642F9D1F0E703270D003E00054314
:100280000C0003002E402F422BD11500103D2D09EC
:10029000AC462F013F1825681D6065685D60A56844
:1002A0009D60E5681034DD601D001033BD42F2D161
:1002B00065460F230C2401352D01491913404519BA
:1002C000144211D08C59AC5104369C1B032CF9D824
:1002D000043B9B0801339B00ED18C91803231A4007
:1002E000BFE70500561EBFE71A00BAE7F0B50500E4
:1002F000830749D0541E002A45D003000326CAB202
:1003000002E00135013C3ED301332A703342F8D17B
:10031000032C30D9FF220A40150215432A04154345
:100320000F2C34D92700103F3F093E01B4461E0070
:100330001A0010366644156055609560D56010321D
:10034000B242F8D101373F01DB190F270C222740B9
:1003500022403C00002A0ED03E1FB608B400A4463E
:100360001A001C1D644420C2A242FCD103240136A1
:10037000B6009B193C40002C05D0C9B21C1919705D
:1003800001339C42FBD1F0BD03001400C0E72700FD
:10039000E2E7C046114B70B51C680500A36B002B4B
:1003A00003D000221D615A6170BD182000F062F96F
:1003B000031EA0630CD00A4A00210260094A426071
:1003C000094A82600B228281012018615961E8E7A5
:1003D00000224221054B064800F008F900000020E9
:1003E0000E33CDAB34126DE6ECDE0500B8FC01082F
:1003F000D0FC0108184B70B51D68AC6B002C0ED0FA
:1004000020696169154A164B02F026FA0122002381
:1004100012184B41580040082261636170BD1820DA
:1004200000F028F9041EA8630FD00E4B01220360D0
:100430000D4B43600D4B83600B23838100230261CE
:10044000436107480A4A064BE6E700224E21094B62
:10045000094800F0CBF8C046000000202D7F954CE5
:100460002DF451580E33CDAB34126DE6ECDE0500A1
:100470002E7F954CB8FC0108D0FC0108024670B5EF
:100480000A4392072AD11E4DEE0104C808C9541B25
:100490009443344017D0D0B2D9B2401A2106014358
:1004A00010D190B299B2401A210401430AD110022E
:1004B0001902000A090A401A2102014302D1100E52
:1004C000190E401A70BD9A42DFD010BA19BA88428C
:1004D00001D9012070BD0020C04370BD02780B78A7
:1004E00001300131002A09D09A4207D102780B78F5
:1004F00001300131002A01D09A42EFD0D01A70BDEC
:100500000101010110B583070AD00300032102E0B5
:1005100001330B4205D01A78002AF9D1181A10BD00
:10052000030019680C4A0D4C8A188A4322420FD1E5
:100530005968094A04338A188A43224208D1596803
:10054000054A04338A188A432242F1D000E001337D
:100550001A78002AFBD1E1E7FFFEFEFE8080808052
:1005600070B50C000025002902D108E01D00581CC0
:10057000210000F0FFFE031EF8D1280070BD00210D
:1005800000F0F8FE0500F8E710B504001300094A72
:100590009AB01068084A009405920292074A04949F
:1005A00003920A00694600F031FA0023009A1370A2
:1005B0001AB010BD00000020FFFFFF7F0802FFFF00
:1005C00000B59BB00091049106490591029106493E
:1005D0000391694600F01AFA0023009A13701BB0C9
:1005E00000BDC046FFFFFF7F0802FFFF30B51400CB
:1005F0001A000A4B05001B6885B0D868002C09D08A
:10060000074B019300912B000649029400F020F85B
:1006100001F00CF8044B1C00F3E7C046000000207A
:1006200004FD010814FD010810FD0108130010B5B8
:100630000022FFF7DBFFC0460CB400B583B004AB6B
:1006400004CB019300F038FB03B008BC02B018479C
:100650000EB400B582B003AB0100054804CB0068BE
:10066000019300F029FB02B008BC03B01847C04654
:100670000000002010B5034B0100186800F06EF870
:1006800010BDC0460000002010B5034B01001868E3
:1006900000F004F810BDC0460000002070B5050051
:1006A000002915D00C1F2368002B23DB280001F044
:1006B00077FC294A1368002B05D0A3420BD9216887
:1006C000601883422DD063602800146001F06AFC3A
:1006D00070BDA34210D81A005B68002BF9D11068D6
:1006E00011188C4219D030D363605460280001F097
:1006F00059FCEDE7E418D9E711685018A04217D06B
:1007000023D8216860188342EED118685B6884465C
:100710006144216063605460E8E723681818106042
:10072000E4E718685B688446614421606360CBE756
:1007300020680918501811608342D7D118685B6887
:100740008446614411605360D0E70C2328002B607D
:1007500001F028FCBCE7C04604030020F8B50323E1
:10076000CD1C9D43083506000C2D27D20C25A9422F
:1007700026D8300001F014FC284F3A68002A27D010
:10078000140004E063682200002B21D01C002368C1
:100790005B1BF7D40B2B17D86368944235D053609A
:1007A000300001F0FFFB200007220B30231D904397
:1007B000C21A984207D01B1AA35004E0002DD6DAC3
:1007C0000C2300203360F8BD2360E4182560E7E7C0
:1007D0007B68002B1BD02900300000F0B9FD431CC2
:1007E0000CD00323C41C9C43A04205D0211A300026
:1007F00000F0AEFD431C01D02560D1E70C23300092
:10080000336001F0CFFB0020DDE73B60C8E700214B
:10081000300000F09DFD7860DDE7C0460403002055
:10082000F0B5D6464F464646C0B58F6882460C00A6
:1008300016001D009F423BD890228B89D2001342A4
:1008400012D13D0008682A003100FFF7F9FCA368C7
:100850000020DF1B2368A7609C4665442560E0BC40
:10086000BA46B146A846F0BD096922686069521AC5
:10087000914642001218D00F8218681C521048444A
:100880009046904201D9804602005B0513D51100C5
:100890005046FFF763FF071E21D04A462169FFF744
:1008A0007DFCA389134A134080221343A38107E0F0
:1008B0001F000868C7E7504601F076FB071E0AD004
:1008C000380043464A46484463619B1A27612060CA
:1008D0002F00A360B7E750462169FFF7DFFE0C2326
:1008E0005246136040220120A38940421343A38152
:1008F000B5E7C0467FFBFFFFF0B54E464546DE46F6
:100900005746E0B5936883B00D0091460190002BE7
:100910006AD0176808688C6843E09022AB89D200DF
:1009200013422ED02969421A934668694200121870
:10093000D00F8218701C521058449046904201D932
:10094000804602008020C000034236D0110001988A
:10095000FFF704FF041E52D05A462969FFF71EFC18
:10096000AB89294A134080221343AB8143462000C0
:100970005A462C61B046340058446B619B1A28607B
:10098000AB6042465146FFF75BFCAB6828681C1B16
:100990004B469B6840449E1B4B46AC6028609E6063
:1009A00022D03B687E689A460837002EF9D0A046D0
:1009B000B442B2D93400B046E3E7019801F0F4FA4A
:1009C000041ED3D1019C29692000FFF767FE0C2388
:1009D00023604022AB8901201343AB814A460023A8
:1009E00040429360536003E000234A460020536076
:1009F00003B0F0BCBB46B246A946A046F0BD0C23EE
:100A0000019A1360E5E7C0467FFBFFFFF0B5DE46C5
:100A1000574645464E46E0B51C008B8982468B46BC
:100A200090469DB01B0603D50B69002B00D1EDE06D
:100A3000002304AD6B6120336B761033AB764346F5
:100A40001B787C4E0394002B74D0444604E06378FA
:100A50000134002B00D17AE0252BF8D14346E71A68
:100A6000444500D077E02378002B63D00122002397
:100A700052426A604432671C2B60EB60AB60AB543F
:100A8000AB6506E00123801B83402A6801371343CE
:100A90002B6005223000397801F048FA0028F1D1A6
:100AA0002B68DA0602D543222021A9541A0702D561
:100AB00043222B21A95439782A2958D1039A111D90
:100AC00012680391002A00DA7CE0EA6079787C1CE5
:100AD0002E295FD0584B03221800984601F026FAC1
:100AE000002807D04346C01A402383402A680134B7
:100AF00013432B602178631C0622504898462976C0
:100B000001F014FA002863D04D4B002B53D003ABF7
:100B100000935A46290050464A4B00E000BF8146E8
:100B20004B46013306D06B694B446B6143461B78DF
:100B3000002B8AD15B469B895B0600D572E0686911
:100B40001DB0F0BCBB46B246A946A046F0BD434628
:100B5000E71A4445EED03B00424659465046FFF75F
:100B60005FFE431CE6D06B69DB196B617BE7080015
:100B7000303809280BD8EB689A00D31879785B00D5
:100B80001B180800303801370928F5D9EB603C0004
:100B90002E299FD161782A2924D1039BA01C1A1DDC
:100BA0001B6803926B60002B02DA01235B426B60CF
:100BB000A17804008EE70722039B07339343083391
:100BC0000393B0E75242EA60022213432B607DE7B1
:100BD00003AB00935A46290050461A4B00F074FAB2
:100BE00081469DE708000023303801346B600928F6
:100BF00000D96FE79A00D31861785B001B180800D2
:100C0000303801340928F5D96B6063E74021FFF7DC
:100C1000A5FD5B4618601861002806D040235A469F
:100C2000536105E7012040428AE70C235246013810
:100C3000136085E744FD01084CFD010850FD0108E3
:100C40000000000021080008936810B5013B936084
:100C5000002B04DA9469A34207DB0A2905D0136844
:100C6000581C10600800197010BD00F0E3FBFBE792
:100C7000F8B505000E00002B0DD01400D71802E0C7
:100C80000134BC4207D0320028002178FFF7DCFF96
:100C9000431CF5D1F8BD0020FCE7C046936810B5B1
:100CA0001400002B02D10020536010BD00F0FAFEAA
:100CB0000023A3606360F8E7F0B5DE4657464E4672
:100CC0004546E0B583468A4691461C009FB0002801
:100CD00003D08369002B00D1ABE09E4B9A4500D135
:100CE000ADE09D4B9A4500D1BBE09C4B9A4500D1AD
:100CF0002BE153469B891B0700D4A8E053461B6990
:100D0000002B00D1A3E0002306AD6B6120336B768E
:100D10001033AB762F3B98464B461978904E05948E
:100D200000297AD04C460B0004E063780134002B94
:100D300000D19AE0252BF8D14B46E31A02934C459B
:100D400000D097E02378002B67D001220023524285
:100D50006A60443201342B60EB60AB60AB54AB652E
:100D600006E04346801B83402A68013413432B600E
:100D700005223000217801F0D9F80028F1D12B6844
:100D8000DA0602D543222021A9541A0702D54322AC
:100D90002B21A95421782A2900D07DE0059A111D24
:100DA00012680591002A00DAABE0EA606178671CFE
:100DB0002E2900D184E06B4C0322200001F0B6F80C
:100DC000002806D04023001B83402A6801371343C4
:100DD0002B6039787B1C062263489946297601F0FE
:100DE000A5F8002800D192E0604B002B00D178E0FC
:100DF00005AB00935246290058465D4B00E000BF0A
:100E00000390039B013308D0039A6B6994466344B3
:100E10006B614B461978002984D153469B895B0648
:100E20001CD468691FB0F0BCBB46B246A946A046B8
:100E3000F0BD00F00FFE474B9A4500D051E75B46EE
:100E40005B689A4653469B891B0700D556E7514677
:100E5000584600F065FB002800D154E701204042CD
:100E6000E0E75B469B689A4643E74B46E31A0293EA
:100E70004C45D2D05B460027A3461C0005E0029BF0
:100E80000137BB4234D94B46D95D52462000FFF7AB
:100E9000DBFE431CF3D1C0E70800303809280BD82B
:100EA000EB689A00D31861785B001B180800303893
:100EB00001340928F5D9EB6027002E2900D07AE704
:100EC00079782A292DD1059BB81C1A1D1B6805921B
:100ED0006B60002B02DA01235B426B60B97807007C
:100EE00069E70722059B07339343083305938BE794
:100EF00023006A695C4694469B46029B63446B618F
:100F000020E75242EA60022213432B604EE705AB12
:100F10000093524629005846154B00F0D5F803902F
:100F20006FE708000023303801376B60092800D9CB
:100F300041E79A00D31879785B001B180800303815
:100F400001370928F5D96B6035E75B46DB689A46BF
:100F5000CFE6C04698A8010878A8010858A801085B
:100F600044FD01084CFD010850FD0108000000008F
:100F7000710C000810B504001300034A10680A0041
:100F80002100FFF799FE10BD00000020F8B557467C
:100F90004E46DE464546E0B51F000A9B92469946FE
:100FA0000A698B6806000C009A4200DA1A00534660
:100FB0001A604323E35C002B02D0514601320A60E1
:100FC00021688A065ED55346524606201B680233C6
:100FD000136021680A00084209D1E268D31A192275
:100FE00093460022A34490460A00002B42DC432390
:100FF000E35C591E8B4192060AD53020E11843313B
:10100000087045215A1C615CA218433202331170EA
:101010002200390030004332C847431C19D0062350
:1010200022681340042B33D0A368226993423DDD2C
:10103000002188469B1A984400251A3402E00135A5
:10104000454533DA0123220039003000C847431CEC
:10105000F5D101204042F0BCBB46B246A946A046AD
:10106000F8BD01239C465346E2681B68E044D51A4C
:10107000454520DD01235A4639003000C847431C4E
:10108000EFD1E6E706220A4212D05A1E9341BFE78B
:1010900053461968E3682269591ACB43DB170B40A2
:1010A0009846A3689342C5DC0029C5DC0020D2E73E
:1010B00053461B6891E743232268E35C591E8B412A
:1010C00092069AD4A4E7C046F0B54E46994643230B
:1010D0009C4657464546DE468C446346E0B587B09D
:1010E00003930C00097E90460700109A002914D043
:1010F0000B00583BDBB2202B4BD892489B00C358C7
:101100009F462368190602D45B0600D501E11368E7
:10111000191D11601B6862691A600023039D236119
:101120004B46210000933800434605AAFFF72EFFE7
:10113000431C1FD023692A0041463800C847431C7E
:1011400018D023689B071ED5E36805981A1A002A51
:101150001BDD26000025193605E0E36805980135FA
:101160001A1AAA4211DD0123320041463800C8474D
:10117000431CF2D10120404207B0F0BCBB46B2464E
:10118000A946A046F0BDE36805989842F4DA180035
:10119000F2E742232500E154413B423523614323DA
:1011A0000022E254BCE72368190602D4590600D590
:1011B000BBE01168081D10600A681600002A75DB84
:1011C000614B9B460A239A464DE02368180602D4D9
:1011D0005B0600D5A4E01368181D10601E685A4B0A
:1011E0009B466F2900D1A7E00A239A4638E013688E
:1011F0002500191D11601A684223E254413B423513
:101200002361CCE71368191D11601D6800212800B7
:10121000626800F08BFE002800D190E0401B606007
:101220002061BCE7202321680B43236045217820FF
:10123000605446498B46190631D459062FD511689A
:10124000081D0E881060DA0702D5202213432360A0
:1012500010239A46002E03D1226810339A4322604D
:1012600043230022E2546368A360002B48DB04227E
:10127000216891432160002E27D1002B42D1039D8C
:101280005346082B31D0039B5B1B236148E7452362
:101290005821E15423682C498B461906CDD5116895
:1012A000081D10600E68CEE72368BFE743222D219A
:1012B000A15462687642A260002A02DB04229343B2
:1012C0002360214B9B460A239A46039D30005146DA
:1012D00001F0B2F95B465B5C013D2B703300060008
:1012E0005345F3D25346082BCDD12368DB07CAD52B
:1012F000636822699342C6DC3023013D2B70C2E74C
:10130000002EE2D15B4625001A7842234235E25492
:10131000B6E713686169181D10601B681980FCE648
:101320001368181D1E88106059E71168081D1060A9
:1013300000228E5E320041E708239A4690E76068FB
:1013400020612CE7D4A7010858FD01086CFD0108B5
:10135000002370B5064D040008002B6001F0A6F8CC
:10136000431C00D070BD2B68002BFBD02360F9E735
:101370000C030020CAB2F0B5002A35D0032483073D
:101380002DD1FF2529400D0229430D040D432900CD
:101390000468264E61408B198B43A119A143244E4A
:1013A0000B43334211D14168204F0C00CB196C40E4
:1013B0008B43E119A1430B4304303342F3D003784C
:1013C000002B05D09A4204D001300378002BF9D1CC
:1013D0000020F0BD9342FCD001302042D1D00378F0
:1013E000002BF7D10020F4E7830708D0032202E0A6
:1013F0000130104203D00378002BF9D1E9E70268ED
:101400000A4B0B49D31893430B4206D14268074B52
:101410000430D31893430B42F8D00378002BD8D074
:1014200043780130002BFBD1D3E7C046FFFEFEFE20
:1014300080808080F8B505000E001400002802D0DE
:101440008369002B29D02D4B9C422BD02C4B9C42E6
:1014500046D02C4B9C424ED0A369A360A3891B07A6
:1014600026D52369002B23D0FF212268F7B20E4036
:101470006169D31A99422ADD0133A1680139A1605B
:10148000511C2160177062699A422BD0A389DB0737
:1014900001D50A2E26D03000F8BD00F0DBFA174B3C
:1014A0009C42D3D16C68A369A360A3891B07D8D4DD
:1014B0002100280000F034F8002819D1FF21236909
:1014C0002268F7B20E406169D31A9942D4DC210038
:1014D000280000F041F900280AD101232268CCE756
:1014E000AC68B9E72100280000F036F90028D2D016
:1014F00001267642CFE7EC68AEE7C04698A801081F
:1015000078A8010858A80108030010B50A0003498B
:1015100008681900FFF78EFF10BDC04600000020CC
:101520003E4B70B51D6806000C00002D02D0AB6963
:10153000002B1BD03A4B9C421ED03A4B9C424CD0C5
:10154000394B9C4260D00C23E25EA389190719D560
:101550002169002921D0D80730D50020A06060691A
:101560004042A0610020002930D070BD280000F06A
:1015700071FA2B4B9C42E0D16C680C23E25EA3898C
:101580001907E5D4D90641D55B0728D4216908237A
:101590001A43A28193B20029DDD1A02080258000CA
:1015A000AD001840A842D6D02100300000F038FC31
:1015B0000C23E25EA3892169D807CED400209D07C1
:1015C00000D46069A06000200029CED11B06CCD5D4
:1015D00040231A43A2810138C7E7AC68B3E7616BC7
:1015E00000290AD023004433994204D03000FFF789
:1015F00055F80C23E25E0023636324239A430023FF
:10160000216963602160C2E7EC689CE709233360CD
:10161000402301201A43A2814042A6E70000002097
:1016200098A8010878A8010858A80108062010B554
:1016300000F078FD012000F04FFFC046F0B5C6462F
:1016400000B58B8980460C001A0743D44A68002AEB
:1016500061DDE56A002D39D0424641461668002218
:101660000A60DA045BD4012300224046216AA847BD
:10167000431C5FD0A389E56A5B0706D56368C01A7F
:10168000636B002B01D0236CC01A00230200216A77
:101690004046A847431C44D143461B68002B40D01A
:1016A0001D2B01D0162B4DD10023636023692360CD
:1016B0004346616B1E60002908D0230044339942E1
:1016C00002D04046FEF7EAFF00236363002080BC9F
:1016D000B846F0BD0E69002EF8D00A680E60951B62
:1016E00000229B0700D14A69A260002D04DCEDE7CF
:1016F00036182D1A002DE9DD2B0032004046216AF4
:10170000A76AB8470028F3DC40220120A3894042A1
:101710001343A381DBE70A6C002A9ADCD6E7606DED
:10172000AAE70023636023692360A389DB04BFD594
:101730006065BDE743461B68002B9BD01D2B06D080
:10174000162B04D04022A3891343A381BFE743464D
:1017500000201E60BBE7C0460B6970B505000C0099
:10176000002B16D0002802D08369002B15D00E4B19
:101770009C4210D00D4B9C4212D00D4B9C4211D07C
:101780000C22A35E002B04D021002800FFF756FF97
:1017900000E0002070BD6C68F2E700F05BF9E6E75E
:1017A000AC68EDE7EC68EBE798A8010878A80108B9
:1017B00058A8010870B5041E29D00369002B1DD05C
:1017C000184B1D68002D02D0AB69002B18D0164BAA
:1017D0009C420ED0154B9C421FD0154B9C421ED0F4
:1017E0000C22A35E002B09D021002800FFF726FF62
:1017F00070BD6C680C22A35E002BF5D10020F7E7CA
:10180000280000F027F9084B9C42E3D1F1E7094B8F
:101810000949186800F0E0FAEAE7AC68E0E7EC682C
:10182000DEE7C0460000002098A8010878A801085B
:1018300058A80108D0A701085917000800207047D0
:1018400010B5024900F0C8FA10BDC046591700088B
:101850000020704770B568254A1E55430E002900C8
:101860007431FEF77BFF041E09D000232A000360B9
:1018700046600C300021A0606832FEF737FD200082
:1018800070BDC046F0B5C646274B07001E6800B5C0
:10189000B369002B2AD00423984648367368B4688D
:1018A000013B03D51DE06834013B1AD30C22A55E31
:1018B000002DF8D120001D4B08220021656625600F
:1018C0006560A560E36025616561A5615C30FEF738
:1018D0000DFD6563A563A564E564200080BCB84682
:1018E000F0BD3568002D05D02E00D7E7300000F0A0
:1018F0001FF8D0E7D62138004900FEF72FFF041E5D
:101900000DD04346D0220560250043600C300021F5
:10191000A0605200FEF7EAFC34602E00BEE70C2304
:1019200030603B60D9E7C046D0A701080100FFFF47
:10193000F0B5D6464F464646384BC0B583620023C5
:101940008364C3640365364B82B01B680500019352
:10195000984260D02800FFF795FF68602800FFF7E5
:1019600091FFA8602800FFF78DFF6E680024E860F3
:1019700004233000746634607460B460F3603461D2
:101980007461B461082200215C30FEF7AFFC254B86
:10199000254F9A467362254B37639946B362244BB1
:1019A0003662F362AE6898463000224B746634604B
:1019B0007460B460F36034617461B4610822002122
:1019C0005C30FEF793FC534673624B46B36243466A
:1019D0003763F3623662EE68174B3000F36008221B
:1019E0000021746634607460B46034617461B46101
:1019F0005C30FEF77BFC534673624B46B362434652
:101A0000F362012336623763AB6102B0E0BCBA46D1
:101A1000B146A846F0BD012383619BE74118000849
:101A2000D0A701089D22000835230008C92200081C
:101A300009230008090001001200020010B5034B41
:101A40000349186800F0C8F910BDC046D0A70108C6
:101A500059170008836910B5002B01D1FFF768FF03
:101A600010BDC0467047C0467047C0467047C0466C
:101A70007047C04610B5034B0349186800F08CF955
:101A800010BDC046000000203D18000810B5034BF3
:101A90000349186800F080F910BDC046000000201E
:101AA00051180008F0B5DE46454657464E46E0B5AB
:101AB000936883460C00904683B0002B23D08B891B
:101AC0001A0728D50A69002A25D0424616689A07BF
:101AD0002DD50027AC4B00259946BA46002D58D08D
:101AE0002B004D4500D9A84B52465846216AA76A9B
:101AF000B847002858DD43469B6882442D1A181ABF
:101B000043469860EAD1002003B0F0BCBB46B24621
:101B1000A946A046F0BD21005846FFF701FD002868
:101B200000D02DE14246A38916689A07D1D4DA077E
:101B300042D4002200279146002F25D08022920017
:101B4000A568134200D180E0AA46BD4200D9AFE0AB
:101B50009022D200134200D0BBE020685246494692
:101B6000FEF76EFBA3685D1BA5603D0000272368A0
:101B70005344236043469B68A9445D1B43469D60D4
:101B8000C1D0A389002FD9D1326877689146083631
:101B9000D2E7336875689A4608369FE721000198B6
:101BA000FFF7DAFD00282FD00C22A35E402201208F
:101BB0001343A3814042A7E700230022B146002738
:101BC0001E005B46002092460193002F27D000287C
:101BD0002FD03300BB469F4200D99B462068226924
:101BE0006369904204D9A2689D18AB4500DD9EE070
:101BF0005B4561DCA56A5246216A0198A847051E2B
:101C0000D2DD0120761BC9D043469B68AA447F1BC6
:101C10005D1B43469D6000D175E7002FD7D14B4631
:101C20001B689A464B465F6808239C46E144002F98
:101C3000F5D03A000A21504600F078F9002800D18A
:101C400095E053460130C61AC3E7206823699842DD
:101C500016D863699A46BB4212D84C4B38009F4253
:101C600000D94B48514600F0EBFC5346A56A43436C
:101C70004A465846216AA847051E95DD7F1B79E72D
:101C8000BD4200D93D002A004946FEF7D9FAA368B3
:101C900022685B1B5219A3602260002BEED1210049
:101CA0005846FFF759FD002800D07DE77F1B61E70C
:101CB0003D00BA46206851E75A465146FEF7C0FA41
:101CC0005A46A3685D469B1AA36023685B44236061
:101CD00097E7606922682169551A42001218D00FEF
:101CE0008218681C5210C01992460195904201D981
:101CF000824602005B0529D511005846FEF72EFDED
:101D0000051E37D0019A2169FEF748FAA389214AB6
:101D1000134080221343A3815246019B2561E8189A
:101D2000D31A3D00BA4620606261A36016E75146AF
:101D30002A00FEF785FA236821005B1901982360C9
:101D4000FFF70AFD002800D15BE72DE7584600F0B9
:101D50002BF9051EE0D121695846FEF79FFC802231
:101D60005946A3899343743A1BB20A601EE77B1C51
:101D70001E002FE70C235A4613600C22A35E15E7C2
:101D800001204042C0E6C04600FCFF7FFEFFFF7F0F
:101D9000FFFFFF7F7FFBFFFFF0B5C6464830884658
:101DA0000700002600B57B68BC685D1E0CD4A389C3
:101DB000012B06D90E22A35E013302D02000C047BA
:101DC00006436834013DF2D23F68002FEBD130006A
:101DD00080BCB846F0BDC046F8B54746CE4680B593
:101DE000070080468946002648377B68BC685D1E30
:101DF0000DD4A389012B07D90E22A35E013303D092
:101E000021004046C84706436834013DF1D23F688F
:101E1000002FEAD13000C0BCB946B046F8BDC0467C
:101E2000F0B58B8906000C0097B09A0707D5230000
:101E30004733236023610123636117B0F0BD0E2295
:101E4000895E00292FDB6A4600F0A0FA002829DB12
:101E5000F023019D1B021D401D4B9C4665446B42B7
:101E60005D418027FF0039003000FEF777FC002835
:101E700023D08021174AB262A28920600A43A2813E
:101E800020616761002DD8D030000E23E15E00F0A4
:101E900091FA0028D1D00322A3899343012213434E
:101EA000A381CAE7A389002540271B06D9D539009D
:101EB0003000FEF753FC0028DBD10C22A35E9A050C
:101EC000BBD40322934302221343A381AFE7C0464E
:101ED00000E0FFFF4118000870B50C001D000E2344
:101EE000C95E160096B0002914DB6A4600F04EFA6F
:101EF00000280FDBF022019B120213400A4A94468D
:101F000063445A4253412B608023DB00336000203E
:101F100016B070BD0C22A35E00222A601B06F3D50A
:101F200040233360F3E7C04600E0FFFF70B5CCB25A
:101F300083070DD0531E002A0FD0032504E0013083
:101F4000284206D0013B08D30278A242F7D170BDE7
:101F50001300032B0CD8002B01D10020F7E7C31886
:101F600002E001308342F8D00278A242F9D1EEE7D4
:101F7000FF2529400D0229430D04074E0D43026839
:101F800006496A40511891433142E8D1043B04307C
:101F9000032BF4D8DFE7C04680808080FFFEFEFE82
:101FA0007047C0467047C046F8B506000C001500E3
:101FB00000291BD0002A15D000F022FA2700A842E1
:101FC00001D33800F8BD29003000FEF7C7FB071E1B
:101FD000F7D021002A00FEF7E1F821003000FEF7DB
:101FE0005DFBEEE7FEF75AFB0027EAE71100FEF77C
:101FF000B5FB0700E5E7C046436C10B50400002BB5
:1020000001D0002010BD8021FEF7A8FB60640028ED
:1020100006D002000023803208C09042FCD1F0E7D5
:1020200001204042EEE7C046F8B506000C0017005C
:102030001F2907D8456C002D09D0A4002D19286848
:102040002F60F8BD1623036001204042F9E780218C
:10205000FEF784FB051E706407D001000300002218
:10206000803104C38B42FCD1E7E701204042E8E71E
:1020700070B505000C001F2920D8436C002B0ED032
:102080008A009B181A68002A09D0012A14D0511C12
:102090000ED00021200019609047002070BD28005C
:1020A00000F0F8F822000100280000F0DFF8F5E762
:1020B000162303600120F1E70020EFE716230360F9
:1020C00001204042EAE7C04670B504000D001F2918
:1020D00025D8426C002A10D0A80012181368002BD3
:1020E00009D0591C19D0012B15D0002128001160EE
:1020F0009847002070BD0120FCE78021FEF72EFBF1
:10210000021E60640BD0040003000020803401C371
:10211000A342FCD1E0E70320ECE70220EAE701203C
:102120004042E7E7154B70B504001D681F281FD813
:102130006B6C002B0DD082009B181A68002A08D007
:10214000012A13D0511C0DD00021196090470020A6
:1021500070BD280000F09EF822000100280000F069
:1021600085F8F5E7162301202B60F1E70020EFE763
:10217000162301202B604042EAE7C0460000002001
:10218000124B70B504000D001E681F2807D8706C34
:10219000002809D0A40004192068256070BD16230A
:1021A000012033604042F9E780213000FEF7D6FA83
:1021B0007064002807D0010003000022803104C3AE
:1021C0009942FCD1E6E701204042E7E70000002009
:1021D0000C4B10B51C68636C002B01D0002010BDA7
:1021E00080212000FEF7BAFA6064002806D00200C1
:1021F0000023803208C09042FCD1EFE7012040422A
:10220000EDE7C04600000020174B70B505001C68C4
:102210001F2826D8626C002A10D0A8001218136854
:10222000002B09D0591C1AD0012B16D000212800F0
:1022300011609847002070BD0120FCE7802120003C
:10224000FEF78CFA021E60640BD00400030000212C
:10225000803402C3A342FCD1DFE70320EBE7022076
:10226000E9E701204042E6E700000020002370B5C6
:10227000074D0400080011002B6000F0FFF8431C1C
:1022800000D070BD2B68002BFBD02360F9E7C0465F
:102290000C03002010B500F0E1F810BD70B50C0083
:1022A0000E25495F00F0B6F8002803DB636D1B18AC
:1022B000636570BDA389024A1340A381F9E7C04654
:1022C000FFEFFFFF00207047F8B50C001F000C2344
:1022D000C95E05001600CB050AD40A4B320019402E
:1022E0002800A1810E23E15E3B0000F029F8F8BD33
:1022F0000E23E15E0022022300F06EF80C23E15E63
:10230000EBE7C046FFEFFFFF70B50C000E25495FFD
:1023100000F062F8431C06D08023A2895B011343BE
:10232000A381606570BDA389014A1340A381F9E7C9
:10233000FFEFFFFF10B50E23C95E00F015F810BDCA
:1023400070B50400080011001A000023054D2B6031
:1023500000F0BAF8431C00D070BD2B68002BFBD0F6
:102360002360F9E70C030020002370B5064D04003C
:1023700008002B6000F062F8431C00D070BD2B6891
:10238000002BFBD02360F9E70C030020002370B57D
:10239000074D0400080011002B6000F057F8431CA3
:1023A00000D070BD2B68002BFBD02360F9E7C0463E
:1023B0000C030020002370B5064D040008002B60BC
:1023C00000F054F8431C00D070BD2B68002BFBD0EC
:1023D0002360F9E70C03002070B504000800110029
:1023E0001A000023054D2B6000F050F8431C00D06C
:1023F00070BD2B68002BFBD02360F9E70C03002095
:102400000B1F1B68181F002B00DB70470B58C018F0
:10241000FBE7C04670B50400080011001A00002355
:10242000054D2B6000F03AF8431C00D070BD2B68BE
:10243000002BFBD02360F9E70C0300205822012079
:10244000014B40421A6070470C03002058220120C3
:10245000014B40421A6070470C03002058220120B3
:10246000014B40421A6070470C0300205822024B77
:1024700000201A607047C0460C030020582201203B
:10248000014B40421A6070470C0300205822012083
:10249000014B40421A6070470C0300205822012073
:1024A000014B40421A6070470C030020044A0300AD
:1024B0001068002802D0C318136070470148FAE77B
:1024C00010030020AC2E002058220120014B404276
:1024D0001A6070470C030020FEE7C04602B4714644
:1024E00049084900095649008E4402BC7047C0465D
:1024F00002B4714649084900095C49008E4402BC97
:102500007047C04603B47146490840004900095E5F
:1025100049008E4403BC704703B47146490840002B
:102520004900095A49008E4403BC70470022430801
:102530008B4274D303098B425FD3030A8B4244D38B
:10254000030B8B4228D3030C8B420DD3FF220902CD
:1025500012BA030C8B4202D31212090265D0030B8C
:102560008B4219D300E0090AC30B8B4201D3CB0382
:10257000C01A5241830B8B4201D38B03C01A5241C4
:10258000430B8B4201D34B03C01A5241030B8B42C6
:1025900001D30B03C01A5241C30A8B4201D3CB02B1
:1025A000C01A5241830A8B4201D38B02C01A524196
:1025B000430A8B4201D34B02C01A5241030A8B4299
:1025C00001D30B02C01A5241CDD2C3098B4201D3B1
:1025D000CB01C01A524183098B4201D38B01C01A2F
:1025E000524143098B4201D34B01C01A52410309A6
:1025F0008B4201D30B01C01A5241C3088B4201D355
:10260000CB00C01A524183088B4201D38B00C01A01
:10261000524143088B4201D34B00C01A5241411A28
:1026200000D20146524110467047FFE701B5002035
:1026300000F0F0F802BDC0460029F7D076E77047F9
:1026400003460B437FD4002243088B4274D3030913
:102650008B425FD3030A8B4244D3030B8B4228D3B4
:10266000030C8B420DD3FF22090212BA030C8B42DA
:1026700002D31212090265D0030B8B4219D300E07A
:10268000090AC30B8B4201D3CB03C01A5241830BFF
:102690008B4201D38B03C01A5241430B8B4201D3AF
:1026A0004B03C01A5241030B8B4201D30B03C01AD8
:1026B0005241C30A8B4201D3CB02C01A5241830A52
:1026C0008B4201D38B02C01A5241430A8B4201D381
:1026D0004B02C01A5241030A8B4201D30B02C01AAB
:1026E0005241CDD2C3098B4201D3CB01C01A524112
:1026F00083098B4201D38B01C01A524143098B429B
:1027000001D34B01C01A524103098B4201D30B0183
:10271000C01A5241C3088B4201D3CB00C01A5241A8
:1027200083088B4201D38B00C01A524143088B426D
:1027300001D34B00C01A5241411A00D20146524106
:10274000104670475DE0CA0F00D04942031000D325
:102750004042534000229C4603098B422DD3030A7A
:102760008B4212D3FC22890112BA030A8B420CD38A
:10277000890192118B4208D3890192118B4204D3B3
:1027800089013AD0921100E08909C3098B4201D333
:10279000CB01C01A524183098B4201D38B01C01A6D
:1027A000524143098B4201D34B01C01A52410309E4
:1027B0008B4201D30B01C01A5241C3088B4201D393
:1027C000CB00C01A524183088B4201D38B00C01A40
:1027D0005241D9D243088B4201D34B00C01A524117
:1027E000411A00D20146634652415B10104601D3A4
:1027F0004042002B00D54942704763465B1000D32E
:10280000404201B5002000F005F802BD0029F8D0D3
:1028100016E770477047C046002B11D1002A0FD130
:10282000002900D1002802D00021C943080007B4C4
:10283000024802A14018029003BDC046D9FFFFFF25
:1028400003B4684601B5029800F034F8019B9E4637
:1028500002B00CBC7047C046F0B5CE46474680B5C6
:10286000070099463B0C9C4613041B0C1D000E00F0
:1028700061460004140C000C45434B436043614324
:10288000C0182C0C20188C46834203D980235B028D
:102890009846C444494679437243030C63442D046B
:1028A0002D0CC918000440198918C0BCB946B0469F
:1028B000F0BDC046F0B557464E464546DE46E0B54B
:1028C00004000D009246994683B08B4230D82DD03B
:1028D0004946504600F06CFA29000600200000F03E
:1028E00067FA331A9846203B9B4633D45A465346E0
:1028F000934042461F00534693401E00AF423AD8D1
:10290000AF4200D178E05B46A41BBD41002B00DA4A
:1029100075E0002200230092019301235A46934060
:102920000193012342469340009328E08242CFD98D
:1029300000220023009201930C9B002B01D01C600D
:102940005D600098019903B0F0BCBB46B246A94651
:10295000A046F0BD424620239B1A5246DA4041462B
:1029600013004A468A40170042461F43534693408D
:102970001E00AF42C4D900220023009201934346B7
:10298000002BD9D0FB0772081A4346467B080EE09D
:10299000AB4201D1A2420CD8A41A9D4101202419B6
:1029A0006D410021013E24184D41002E06D0AB425E
:1029B000EED9013E24196D41002EF8D100980199FD
:1029C0005B4600196941002B24DB2B005A46444624
:1029D000D3402A00E2401C005B461500002B2ADB96
:1029E00026009E40330026004746BE403200801A33
:1029F0009941009001919FE7A342BCD883E74246EA
:102A0000202300219B1A0022009101920122DA402A
:102A1000019286E7424620239B1A2A0046469A40A6
:102A20002300F340444613432A00E2401C005B4667
:102A30001500002BD4DA42462F00202326009740B1
:102A40009B1ADE403B003343CDE7C046F0B54F460E
:102A50004646D64644024500C0B5640A0F1C2D0EFA
:102A6000C60F002D00D18DE0FF2D00D192E0002394
:102A7000802099469A46E400C00404437F3D7802D2
:102A8000430A98467B001B0EFF0F002B00D170E01D
:102A9000FF2B00D186E04246D00080227F3BED181C
:102AA0000023D204024390469C4631004B467940B5
:102AB000681C0F2B1CD8764A9B00D3589F463900C0
:102AC0004446E2465346022B0FD0032B00D1D7E0F9
:102AD000012B37D100200024C0052043C90708433B
:102AE000E0BCBA46B146A846F0BDFF200024F3E79B
:102AF000260C2404220C44462404240C43462700BC
:102B00001B0C574374435A435E4312193B0C9B18EA
:102B10009C4203D980225202944666443F041A0420
:102B20003F0CD2199401671EBC411B0C920E9B19DD
:102B300014439B011C431B0100D49BE0012362084A
:102B40001C40144302007F32002A64DD630704D076
:102B50000F232340042B00D00434230103D50200AB
:102B60004C4B80321C40FE2ABFDCA401640AD0B268
:102B7000B2E74346002B3DD14A4601331A43914602
:102B80009C4692E7002C29D104239946033B00255B
:102B90009A4674E7002C1BD108239946063BFF2573
:102BA0009A466CE74346FF35002B0BD102234A4679
:102BB0001A4391469C4678E753463100022B00D0D9
:102BC00083E792E703234A461A4391469C466CE703
:102BD0000C239946093BFF259A4650E7200000F058
:102BE000C9F87625431F9C4000236D4299469A46BA
:102BF0002D1A44E7404600F0BDF84246431F9A4074
:102C000000232D1A90469C46763D4EE780240021F5
:102C1000FF20E40360E701239B1A1B2B00DD59E72B
:102C200022009E30DA4084401300621E94411C430F
:102C3000630704D00F232340042B00D00434630126
:102C40001AD50120002447E78020C003044209D0A0
:102C50004346034206D14446044364023900FF2040
:102C6000640A39E78020C003044364023100FF2076
:102C7000640A31E7280065E7A4010020640A2BE715
:102C80008020C00304436402FF20640A24E7C04696
:102C9000B8A80108FFFFFFF741024200C30F490A2D
:102CA0000020120E7E2A03DD9D2A02DD094A9818B3
:102CB0007047802000040143952A07DC9620821A81
:102CC000D1404842002BF3D10800F1E7963A9140F9
:102CD000F7E7C046FFFFFF7FF8B5002813D0C31702
:102CE000C6185E40C40F300000F044F89E23050073
:102CF0001B1A962B0FDC082801DD083DAE4076023A
:102D0000760AD8B202E0002400200026C005304335
:102D1000E4072043F8BD992B0CDD05223100121A7F
:102D2000D1400A00010030001B318840411E88411B
:102D300002431600052D12DC31000D4F3940720799
:102D400009D00F203040042805D004314A0102D5B3
:102D50009F2339405B1B89014E0AD8B2D6E76A1F10
:102D600096403100024F39407207F4D0E9E7C0467F
:102D7000FFFFFFFB1C2101231B04984201D3000C21
:102D800010391B0A984201D3000A08391B099842DE
:102D900001D30009043902A2105C40187047C046F4
:102DA0000403020201010101000000000000000014
:102DB00010B5002903D1FFF7DDFF203002E0080045
:102DC000FFF7D8FF10BDC04610B5054805F04EF816
:102DD0000122044B04481A7005F0B4FB10BDC04634
:102DE000F8A80108E4030020E8030020F0B5C9B00A
:102DF0000B2606AC6E443100200006F033FE6178ED
:102E0000724D142900D9DDE00800FFF771FB0B2794
:102E10002C506090929496DB98DBDBA0A2A4A6D302
:102E2000D5D7D9006A4805F021F8280005F01EF82A
:102E3000684C0020210006F0B3FC6749002006F032
:102E400089FC01346549002006F0D0FC0020E17FB8
:102E500006F0F2FC002006F075FD23E0604805F066
:102E600005F8280052E05F4805F000F8280004F05B
:102E7000FDFF5D4804F0FAFF280004F0F7FF5B480F
:102E800004F0F4FF280004F0F1FF0C22584903A8D5
:102E9000FDF784F90C23002200936621100003AB98
:102EA00006F099FD3378002BA2D149B0F0BD51480E
:102EB00004F0DCFF280004F0D9FF4F4804F0D6FFEF
:102EC000280004F0D3FF00224C4B1A60EAE74C487C
:102ED00004F0CCFF280004F0C9FF89235B006B4499
:102EE000484F1A78484D08A938002A70FDF756F95E
:102EF000E179464804F0BAFF2A784549454804F08C
:102F0000B5FF00242B78A34203D8434804F0AEFF5A
:102F1000C8E70F231C4204D1002C02D03E4804F025
:102F2000A5FF395D3D4804F0A1FF0134EAE73C48C4
:102F300095E73C4893E73C4891E73C488FE73C489D
:102F400004F094FF280004F091FF3A4887E73A48DC
:102F500085E73A4883E73A4881E73A4804F086FF34
:102F6000280004F083FF2379374C012B08D1374820
:102F700004F07CFF280004F079FF0023236091E730
:102F8000334804F073FF280004F070FF2368591CD5
:102F90002160092900D885E72E4804F067FF280042
:102FA00004F064FF002006F00BFD01212A4800F028
:102FB00051FA4FE7294852E7294850E729484EE798
:102FC00029484CE7294804F051FF4AE798E60108F0
:102FD0000BA90108040800200C0800201408002098
:102FE00028A9010845A9010863A901087FA90108CA
:102FF00090AC0108A0A90108BEA90108080500209D
:10300000D8A901080404002003050020F8A901083C
:1030100012AA010823AA01080FAD010836AA010867
:103020003CAA01085EAA01087DAA010899AA010824
:10303000BBAA0108DBAA0108F7AA010813AB010823
:103040003EAB010862AB0108E003002084AB01083D
:10305000A2AB0108BBAB010850030020EDAB010897
:1030600013AC01083CAC01086AAC010803BA0108C2
:1030700010B5094804F0FAFE084804F0F7FE084CC1
:103080000021200000F0E6F9FA22642120009200DD
:1030900000F016FA10BDC0469CAC010898E6010885
:1030A0005003002007B5002001A9019006F030FB75
:1030B000019B1807C00F0EBDF0B593B004F035F9B1
:1030C00004F046F9B94804F0D1FEB94804F0CEFE48
:1030D000B849B94804F0CAFEB849B94804F0C6FE78
:1030E000B649B84804F0C2FE04ACB749B74806F088
:1030F00053FA200006F0BEFAA37862782178B4482B
:1031000004F0B4FEAD4804F0B1FE04F010F9012162
:10311000212003F0F5FF002301221800110003F025
:10312000FFFF002004F051F8AA4C01002060AA48DB
:1031300004F09CFE2568002D0ED1A84804F096FEF0
:103140002900212004F02EF82568002D00D111E17E
:103150000121212004F026F805F0A0FA05F0BEFABE
:103160009F4F00221C21380000F082F99D4E002262
:103170007021300000F07CF99B4D00227121280065
:1031800000F076F9994C00222121200000F070F91E
:103190000021974B0A000091964800F0CFF996481D
:1031A00004F064FE8A21012000F01EFA002800D1FC
:1031B000E8E0924804F05AFE012300223221180070
:1031C00000F0B2FA002800D1DEE08D4804F04EFE97
:1031D0008C4804F04BFE794804F048FE0121380089
:1031E00000F038F9FA20400004F03AFA00213800E3
:1031F00000F030F90121300000F02CF9FA204000F5
:1032000004F02EFA0021300000F024F901212800FA
:1032100000F020F9FA20400004F022FA00212800F2
:1032200000F018F90121200000F014F9FA20400004
:1032300004F016FA2000002100F00CF9724C7349DA
:10324000200005F075F92000714905F015FA2000FD
:10325000002105F075F9200005F074F904F022FB57
:1032600006F0F4F96B4B1A78002A7ED000226A48E7
:103270001A7004F0FBFD694F694D3900280000F019
:10328000DBF9002800D181E0FA213E688900300096
:10329000FFF7D6F9FA212C68029089002000FFF789
:1032A000B5FA0391FA2120008900FFF7C9F9FA2144
:1032B000040089003000FFF7A9FA029B0091039AED
:1032C0002100584804F0D2FD574C200000F07AFA53
:1032D00000285FD00422A35E0221625E0020215EEE
:1032E000524804F0C3FD524B1A68312A0AD900240F
:1032F00050481C6004F0BAFD304804F0B7FD2000CF
:1033000006F094FBFFF7CEFE00282ED04A4E4B4825
:103310003368012B43D0012305AC63702B680C2567
:103320001A12E3703B68A27063711A123E4B22714D
:1033300000215A5E1112A171E27102215A5E11122E
:103340006272217204229B5E25701A12A272E372CD
:10335000FFF7A8FE002821D000222300072110003B
:10336000009506F038FB00281CD006F06FF904F039
:10337000ABF873E7642004F073F9280003F025FF2D
:103380002060E1E62E4815E72E481FE72E4804F09E
:103390006DFD99E72D4804F069FDA4E72C4804F081
:1033A00065FDE2E701233360DFE7C046B1AC010809
:1033B00002AD010811AD010818AD010898E6010839
:1033C00022AD01083BAD0108ED2D0008ECAE01086F
:1033D0004BAD01081005002071AD010886AD010854
:1033E00074030020BC030020980300205003002039
:1033F000713000081C0300209AAD0108ABAD010834
:10340000CFAD0108F5AD0108E8030020C92D000883
:10341000204E0000E403002005AE01080004002057
:10342000040500201EAE0108140300205AAE010856
:103430000C05002084AE0108080500209BAE0108A1
:10344000BCAD0108E1AD010847AE010870AE01084E
:10345000D6AE010870B50400002063780D00205638
:10346000002B01D10121694003F09CFEA57070BDC5
:1034700010B504000800217001216270514003F072
:103480003FFE00212000FFF7E5FF10BD012110B530
:1034900083785940FFF7DEFF10BD436810B5040084
:1034A000002B03DC0021FFF7D5FF10BD82689B1ABB
:1034B0004360FFF7EBFF20000C3005F043F8F4E722
:1034C00070B506000D0004000C36426081603000CB
:1034D000094905F02DF82900300005F0CDF830003D
:1034E000210005F02DF801212000FFF7B3FF200097
:1034F000FFF7D3FF70BDC0469B34000870B50500D0
:1035000030352B780400012B09D10020205603F020
:103510005CFE6378984202D1E369206A98470023F1
:103520002B7070BD030010B530331A78002A04D117
:1035300001321A70043005F005F810BD70B50400B2
:10354000E361049B21702362114B0800E362322384
:1035500063862300002130336270A46219708A42AE
:1035600013D10222013123002433251D03F0D8FD9D
:103570002800084904F0DCFF2800210004F0E0FFE7
:103580002800618E05F078F870BD02210122EAE77B
:1035900025350008FD34000830B503780822DB43E8
:1035A0003124DBB259005DB223004B40DBB2002D69
:1035B00000DBCBB2013AD2B2002AF3D142783124F7
:1035C0005340082259005DB223004B40DBB2002D6E
:1035D00000DBCBB2013AD2B2002AF3D18078C01A14
:1035E00042425041C0B230BD30B50F4C0F4D85B096
:1035F00020600120297004F05FFF02220C4903A81B
:10360000FCF7CCFD0E2300226B441A7003232978AB
:103610000093084A03AB206804F032FF03A8FFF7C9
:10362000BBFF05B030BDC0461805002014050020C2
:1036300088A501082DF3000030B5050085B00120F4
:103640000C0004F039FF00236A4602939381164B65
:103650001648197806230093154A006802AB04F057
:103660000FFF02A8FFF798FF00281BD00B236B4425
:103670001800FFF791FF002814D06B466A46D97AEC
:1036800012891B7B52BA1B020B4391B2094A5BBAE7
:103690004A430949521352182A60084A9BB25343BD
:1036A0005B13236005B030BD140500201805002011
:1036B000062C0000735500003850FFFFD430000086
:1036C00037B5040000200D0004F0F6FE064B074855
:1036D000197801230093A2B22B00006804F0D0FEF9
:1036E00043425841C0B23EBD1C05002020050020C9
:1036F00030B50F2585B004006D440020297004F01A
:10370000DBFE074B0748197801230093A2B22B0078
:10371000006804F099FE43425841C0B205B030BD84
:103720001C05002020050020F7B51400204D214A7B
:103730002B70214B10601C706B46204A9E1D11702F
:103740000F203100FFF7BCFF002801D10020FEBD93
:103750003378442BFAD140212120FFF7C9FF0028FC
:10376000F4D040276B46DE1D31002120FFF7A8FF73
:10377000134803F0A9FD33783B42F3D120212B7885
:10378000A0201943FFF7B4FF0028DFD00121222039
:10379000FFF7AEFF0028D9D021012520C9B2FFF7DD
:1037A000A7FF0028D2D004212120FFF7A1FFCEE7F8
:1037B00024050020200500201D0500201C050020F8
:1037C00088130000F0B587B0039002212220FFF794
:1037D0008FFF071E03D10027380007B0F0BD6248F5
:1037E00003F072FD002004F067FE604B604819781A
:1037F000062304AC009328222300006804F040FE56
:103800000028E8D10023E65E0223E55E0423E45E9F
:10381000584B1878584B1B78002B3FD136112D117F
:10382000241103281ED8FEF763FE708702223000A1
:10383000FFF752FA5149FFF709F9FFF72DFA06B2DF
:103840002800FFF749FA4D49FFF700F9FFF724FA7E
:1038500005B22000FFF740FA4849FFF7F7F8FFF7F5
:103860001BFA04B2039B1E805D809C80B4E730008D
:10387000FFF732FA4249FFF7E9F8FFF70DFA06B20F
:103880002800FFF729FA3E49FFF7E0F8FFF704FAAE
:1038900005B22000FFF720FA3949DEE7B610AD1077
:1038A000A4100328DED8FEF723FE021930473000AB
:1038B000FFF712FA3349FFF7C9F8FFF7EDF906B23F
:1038C0002800FFF709FA2F49FFF7C0F8FFF7E4F9DE
:1038D00005B22000FFF700FA2A49BEE73000FFF7E3
:1038E000FBF92949FFF7B2F8FFF7D6F906B228002D
:1038F000FFF7F2F92449FFF7A9F8FFF7CDF905B270
:103900002000FFF7E9F92049A7E73000FFF7E4F9C5
:103910001E49FFF79BF8FFF7BFF906B22800FFF733
:10392000DBF91A49FFF792F8FFF7B6F905B2200064
:10393000FFF7D2F9154990E73000FFF7CDF91449A8
:10394000FFF784F8FFF7A8F906B22800FFF7C4F9DB
:103950000F49FFF77BF8FFF79FF905B22000FFF74B
:10396000BBF90B4979E7C046881300001C0500200D
:10397000200500201D0500202405002023DB7940C0
:1039800023DBF94023DB793E23DBF93E23DB793F60
:1039900023DBF93F03689A69920701D500229A62F6
:1039A00001229969114202D199690A439A617047CB
:1039B00030B5039C1204006822431A43054B456846
:1039C0008905640D890D1C43A5430A432A434260BF
:1039D00030BDC046FF63FF03F8B5036816009A695F
:1039E00004000D000020D20636D55A68920104D496
:1039F00080225968D2010A435A60202723689A69B5
:103A00003A4212D010222000DA61DF61FFF7C2FFD4
:103A10002268124953680B4053600423626C1343BD
:103A20006364230041331F700FE06A1CE7D001F08C
:103A300033FD801B854201D3002DDFD12022636C32
:103A400013436364230041331A70220000230120D2
:103A50004232403413702370F8BDC04600E800FEC7
:103A6000F8B504000D001600022723689B693B424D
:103A700001D00020F8BD320029002000FFF7ACFF84
:103A8000002815D16B1CF0D001F006FD801BA84268
:103A900001D8002DE9D12022636C13436364230015
:103AA00041331A70220000234232403413702370D5
:103AB0000120DFE7F8B504000E0017001D002268A2
:103AC000936933409B1B59424B41BB4201D00020BC
:103AD00017E06B1CF4D001F0DFFC069BC01AA84273
:103AE00001D8002DEBD12022636C012013436364C5
:103AF000230041331A7022000023423240341370F5
:103B00002370F8BDF7B514001E00DAB2164B05009D
:103B100000938023089F5B04FFF74AFF39002800C9
:103B2000099AFFF79DFF002801D00120FEBD2B68F8
:103B3000012E0DD1E4B29C62099B002200938021EA
:103B40003B002800FFF7B6FF431E9841C0B2EDE7E7
:103B5000220A9A6239002800099AFFF781FF00289B
:103B6000E3D12B68E6E7C04600200080F7B50500EA
:103B700014001E00DAB2154B089F00930023FFF7D4
:103B800017FF39002800099AFFF76AFF002801D0C3
:103B90000120FEBD2B68012E0DD1E4B29C62099B71
:103BA0000022009340213B002800FFF783FF431EC3
:103BB0009841C0B2EDE7220A9A6239002800099ABA
:103BC000FFF74EFF0028E3D12B68E6E700200080D6
:103BD000F8B504000D001600202723689B693B42BE
:103BE00001D00020F8BD320029002000FFF7F4FECC
:103BF000002813D101F050FC801BA84201D8002DF1
:103C0000EBD12022636C13436364230041331A70A9
:103C10002200002342324034137023700120E1E778
:103C200070B504000120002C3FD0250041352B78D1
:103C3000DAB2002B05D12300403320001A7004F0C3
:103C40000BFB242301212B7023681D481A68A668EA
:103C50008A431A6061681B4A0A401A619A680240E6
:103C60009A60E268012A21D18021090231439960DA
:103C70005A68154911435960DA6861690240DA608F
:103C8000226900200A43A16909020A43DA60216A15
:103C9000E2690A431A60012219680A431A60202364
:103CA00060642B7020634234207070BD842109024F
:103CB00031439960022ADBD1802212015A60D7E792
:103CC000FF7FFFFFFFFFFFF00080000270B50400E0
:103CD0000120002C13D02500242341352B702268AD
:103CE000136883431360200004F04AFB0020230084
:103CF000606442332870206340341870207070BDB7
:103D0000F0B589B007930EAB069204CB04001B8874
:103D1000039204930300413305931B780F000220A4
:103D2000202B08D1002A02D0049B002B05D1802330
:103D30009B006364012009B0F0BD2300403302936F
:103D40001B780220012BF6D00122029B1A7001F091
:103D5000A3FB802100900500192301222000090205
:103D6000FFF7A8FE061EE5D12123059A390013703E
:103D70002300423305934023059A1370039B60642C
:103D80006362049B60636385109B20000093069A26
:103D9000079B0195FFF7B6FE002802D0029B1E701C
:103DA000C8E7638DFF2B54D9FF22802322855B0453
:103DB0000090390020008026FFF7FAFDB6042A00A3
:103DC00020001099FFF74CFE0028B3D1636A2268E7
:103DD0001978013391626362638D228D013B9BB23E
:103DE0006385013A638D92B22285002B17D0002A99
:103DF00015D180212000109B0095FFF75BFE002865
:103E000000D097E7638DFF2B2BD9FF2323858023D9
:103E1000FF2200905B0439002000FFF7C9FD638D8D
:103E2000002BCCD12A0020001099FFF7D1FE0028EA
:103E300000D07FE7202123680D4DD9615A682A40C0
:103E40005A60230041331970059B4034187020706C
:103E500071E78023628D9B0492B22285D2B20090DA
:103E6000A7E7628D330092B22285D2B20090D2E7EA
:103E700000E800FEF0B58BB0099310AB089204CBBC
:103E800004001B88059206930300413307931B78B7
:103E90000D000220202B08D1002A02D0069B002B07
:103EA00005D180239B00636401200BB0F0BD23008B
:103EB000403304931B780220012BF6D00127049B8A
:103EC0001F7001F0E9FA80210390009019233A0055
:103ED00020000902FFF7EEFD061EE5D12223079A16
:103EE000290013702300423307934023079A13706D
:103EF000059B60646362069B60636385039B20008F
:103F00000193129B089A0093099BFFF72FFE00284C
:103F100002D0049B1E70C7E7628D364BFF2A59D929
:103F2000FF222285009380235B0429002000802645
:103F3000FFF73EFDFF27B604039B002200930421F8
:103F40002000129BFFF7B6FD0028ADD12368626AFE
:103F50005B6A1370636A228D01336362638D013A79
:103F6000013B9BB26385638D92B22285002B17D0F3
:103F7000002A15D1039B802100932000129BFFF79C
:103F800099FD002800D08FE7638DFF2B2AD980236D
:103F9000FF2227855B04009029002000FFF708FD21
:103FA000638D002BC8D12000039A1299FFF710FEF1
:103FB000002800D078E7202123680F4DD9615A6886
:103FC0002A405A60230041331970079B403418700F
:103FD00020706AE7628D92B2228500938023D2B26C
:103FE0009B04A2E7628D330092B22285D2B2009088
:103FF000D2E7C0460024008000E800FEF0B50400CF
:104000004134227803000F000220D6B2202A18D1B2
:104010001D0040352A78012A13D0242222701B6803
:10402000233A196807489143196019680140002034
:10403000196019683943196019680A431A602670B3
:104040002870F0BDFFEFFFFF0200F0B54132147899
:104050000300E5B20220202C17D11C004034267842
:10406000012E12D0223010701B6823381E68074FB3
:1040700086431E601E6809023E403143196019687C
:1040800008431860002015702070F0BDFFF0FFFF9E
:104090000C4B70B505000C0018680B49FEF746FA8A
:1040A000FA239B004343296800200325013B002B92
:1040B00000D128000A682240A24201D0002BF5D18D
:1040C00070BDC0466C000020204E0000F8B5040012
:1040D0000120002C42D025002E352B78DAB2002B9F
:1040E00005D123002D3320001A7003F095FE022322
:1040F0002B7026686168F368A06A012903D08022CA
:104100001204904201D11E2293436269174FBA42B2
:1041100001D0174F3B40174F1F400B00BC46A7680C
:1041200003433B43276A3B43676A3B4367463B4342
:10413000002914D1E169276939430B43802109041F
:1041400088420ED009498A4204D0A1690A43E16934
:104150000A431343F360012300202B70F8BD0129AB
:10416000ECD1E168206901430B43EBE7FFFF00005E
:104170003F1FFFFFFEF119FF704770477047704700
:104180007047704770470122036810B51968040032
:10419000114205D09968114202D05A60FFF7ECFF36
:1041A000022223681968114206D09968114203D08F
:1041B00020005A60FFF7E1FF0422236819681142CA
:1041C00006D09968114203D020005A60FFF7D6FF4D
:1041D000082223681968114206D09968114203D059
:1041E00020005A60FFF7CBFF1022236819681142A4
:1041F00006D09968114203D020005A60FFF7C0FF33
:10420000202223681968114206D09968114203D010
:1042100020005A60FFF7B5FF402223681968114259
:1042200006D09968114203D020005A60FFF7AAFF18
:1042300010BD0000F0B5040085B072B6002203681E
:10424000324E0192B34205D1314AD56CC0221203DD
:10425000154001959A680292DA68586903929F693D
:10426000B3420BD12A498A6A9446802265461206D7
:104270002A438A628A6A520052088A6202003A43DA
:1042800037D0B34204D12249224DCA6C2A40CA64B5
:10429000002810D0012219690A431A6108215861C7
:1042A0002000FFF7F5FE032802D123002E331870FB
:1042B000082223685A60002F11D0012223682000B1
:1042C00019690A431A6110219F61FFF7E1FE032873
:1042D00002D123002E331870102223685A602368FD
:1042E000B34206D10A4A0B49D36C019D0B401D43D2
:1042F000D564012123681A698A431A61029A9A6077
:10430000039ADA6062B605B0F0BDC046007C00409A
:1043100000100240FFFFF3FF70B5050002232E35A9
:104320002B700400FFF786FF2B78D8B2032B07D041
:1043300022680449D36800200B40D36001232B700E
:1043400070BDC046FFFFF7FFF8B50400260002234A
:104350002E363370802317001B4A080011689B0516
:104360000B431360802223680125D96812030A4396
:104370001021DA601A692A431A6159609861200095
:10438000FFF786FE032801D10320F8BD082123682A
:10439000200059605F61FFF77BFE0328F4D0200006
:1043A000FFF748FF3378032BEED0236800209A688C
:1043B0002A439A601A692A431A61042219690A4336
:1043C0001A613570E1E7C0460004014070B5050090
:1043D00002230D4A2E352B7013680C4904000B4044
:1043E0001360FFF727FF2B78D8B2032B0AD023687E
:1043F0000749DA6800200A400121DA609A688A4396
:104400009A60297070BDC04600040140FFFFFFDFC5
:10441000FFFFF7FFA0210268F8B5D36804008B43C3
:10442000D36001F039F8FA2705002026BF00236881
:10443000DB68334201D00020F8BD01F02DF8401BAD
:10444000B842F4D90320F7E7F8B540260368040022
:10445000DA68324201D00020F8BD01225242DA600F
:1044600001F01AF8FA270500BF002368DB68334221
:10447000F1D101F011F8401BB842F6D90320EBE767
:1044800070B50400012500281AD0861CF37FDAB22B
:10449000002B03D14319DA7703F06CFA0223CA2206
:1044A000F377236820005A62773A5A62FFF7CCFF0D
:1044B0002368051E06D0FF225A620423F3770125E4
:1044C000280070BD9A681B4920690A409A6062689A
:1044D00099680243A06902430A439A60E2686069EE
:1044E0001A61A268196912040A4380211A61DA6804
:1044F0008A43DA60DA6C7D398A43DA64E269D96C1E
:1045000002430A43DA649B689B060CD42000FFF741
:1045100081FF002807D0FF22236801345A62042358
:10452000F377E577CBE7FF2223685A620123F3771D
:10453000C6E7C046BFFF8FFF0023092803D81B0131
:104540001843C0B270470A380133C0B2F5E7000023
:10455000F0B5431C85B001930C00D97F0223050000
:104560001F00012936D001214018C177E918CB7707
:104570002F682078667802913E33002A2DD1BA68E0
:10458000110019401A4200D1E170FFF7D5FF0390E6
:104590003000FFF7D1FF0600A078FFF7CDFFE378EA
:1045A000039A1B0403431204134336021E43CA2317
:1045B0007B62773B7B622800FFF746FF2B68071E74
:1045C00019D0FF225A620423029AD3770023019A5A
:1045D000D3770127380005B0F0BDBA681100194043
:1045E0001A4200D1E170000436020643E378A07855
:1045F0001B040643DAE71648164906401E609A680F
:1046000020690A409A60E268996802430A4380215F
:104610009A60DA688A43DA609B689B060DD42800AA
:10462000FFF7F8FE002808D0FF222B685A62042307
:10463000029AD377019BDF77CBE7FF222B685A6280
:104640000123029AD3770023019AD377C2E7C046A9
:104650007F7F7F00FFFFFBFF0223F0B5471C0E00AA
:10466000F97F04001D0085B0012936D00121F977BA
:10467000C118CB7701913178F07849037378B57818
:104680000291002A4CD11032134202D093430A33D4
:104690007370FFF751FF03907078FFF74DFF06002E
:1046A0002800FFF749FF039B36021D04029B1843B5
:1046B0000543CA22236820005A62773A5A62FFF7FC
:1046C000C3FE2E432368051E0AD0FF225A6204232C
:1046D000019AD3770023FB770125280005B0F0BDB0
:1046E0008021124806405E60DA688A43DA609B687F
:1046F0009B060CD42000FFF78DFE002807D0FF2278
:1047000023685A620423019AD377FD77E4E7FF22F6
:1047100023685A620123019AD3770023FB77DCE7F1
:10472000029A0604164335431E02C2E73FFFFF000C
:10473000020903000A2050430F221340C018C0B2E0
:104740007047000070B50C0001683F208B6A636001
:104750000B695B045B0CA3600B680E490B40190CE2
:104760001E0ADDB240230840F6B219402070667080
:10477000A570E170002A0AD1FFF7DAFF207030003F
:10478000FFF7D6FF60702800FFF7D2FFA07000206F
:1047900070BDC0467F7F7F0070B50C0003680E4976
:1047A0005B680B40180CDD04DEB21B04ED0E5B0FE2
:1047B000E0706570A6702370002A0AD1FFF7B8FF79
:1047C000E0702800FFF7B4FF60703000FFF7B0FF23
:1047D000A070002070BDC0463FFFFF000223F0B56F
:1047E00085B0461C01910292F27F04001800012A54
:1047F0005AD00122E718F277FB772368C9325A6250
:10480000773A5A629B685B0538D423682F499A68C7
:1048100004250A409A60D9682D4AC9B20A43DA6071
:1048200000F03AFE00902368DA68110029400391F5
:104830002A423BD00721019A5A619A688A439A60BA
:104840009A6802990A4380219A60224A49031068B3
:104850000843106090680143916080229968D201FA
:104860000A439A6080229968D2000A439A60FF2224
:1048700000205A620123FB77F07715E000F00CFE70
:10488000050004222368DB681342BED000F004FE5A
:10489000FA23401B9B009842F3D9FF222368032090
:1048A0005A620023F877F37705B0F0BD00F0F4FD0D
:1048B000009BC01AFA239B009842B4D9FF22032020
:1048C00023685A62039BF877EDE7C046FFFBFFFFC2
:1048D0007FFBFFFF000401400223F7B5451CEA7F80
:1048E00004001800012A31D00122E618EA77F37794
:1048F0002368C9325A62773A5A629A68144904277F
:104900000A409A609A6813490A409A6000F0C4FD10
:1049100000902368DA681100394001913A4206D0CC
:10492000FF2200205A620123F377E8770EE000F0BF
:10493000B3FD009BC01AFA239B009842E9D9FF22DD
:10494000032023685A62019BF077EB77FEBDC046D7
:10495000FFFBFFFFFFBFFFFF70470000036810B5BC
:10496000DB6804005B0507D5FFF7F6FF2168064BFF
:10497000CA68D2B21343CB608022044B52035A61FF
:1049800001230234E37710BD7FFBFFFF00040140E9
:10499000022210B5411CCC7F03001000012C10D066
:1049A0009818C2771B68C8325A62773A5A629C6874
:1049B000333A22439A60FF225A620123C3770020D0
:1049C000C87710BDF8B504000120002C54D0636AEC
:1049D000002B52D1822261685200914200D0E361E3
:1049E00000232500A36251352B78DAB2002B05D1C4
:1049F0002300503320001A7003F040F802204022B8
:104A00002870216866680B68A76893430B6082234F
:104A10005B003340842636023E4033438026E768FD
:104A200036013E4033432669A269304001260343E4
:104A30006069E769304003438020800010400343F1
:104A40003820384003438020276A120C3840034343
:104A50008020A76A8001384003430B600423606A0A
:104A60001A400C33034000201A434A60CB69054AC0
:104A70001340CB6160652E70F8BD00232361636134
:104A8000AEE7C046FFF7FFFF70B504000120002C21
:104A900010D025000223402151352B7022682000C0
:104AA000136850348B43136003F0A0F8002060605B
:104AB0002870207070BD000030B5EFF31084012223
:104AC00082F310880168124D0B682B400B6084F351
:104AD0001088EFF3108482F3108801688B68934389
:104AE0008B6084F31088036E93420AD1EFF3108138
:104AF00083F31088102402681368A343136081F3C2
:104B000010882023C36700230366436630BDC04678
:104B1000DFFEFFFF70B504000120002C14D0242319
:104B20000025A36723681A6882431A6020001D606D
:104B30005D609D6003F084FA2800231DDD67A56792
:104B4000E56725667434257070BD70477047806ACC
:104B50000023020010B55A321380083A1380FFF781
:104B6000F5FF10BD70470000F7B504000068A74BC3
:104B7000C1690668856819420BD12023194200D10A
:104B80007FE01E4200D17CE0636E2000002B6ED1DE
:104B90006EE001232F009E4A1F4032403A4300D16D
:104BA0006FE0251D194205D0F20503D50362EA6FB7
:104BB0001343EB670223194206D0002F04D003628F
:104BC000EA6FDB181343EB670423194206D0002F6A
:104BD00004D00362EA6F023B1343EB6708231942D8
:104BE00007D0202232403A4303D00362EA6F1343D6
:104BF000EB6780231B01194206D0720104D50362C2
:104C00002023EA6F1343EB67EB6F002B30D0202398
:104C1000194206D01E4204D0636E002B01D0200042
:104C200098472268EB6F4027966828223E40134041
:104C300020001E4321D0FFF73FFF23689B683B42C3
:104C400017D0EFF31081012383F310882268936853
:104C5000BB43936081F31088206F002809D06D4B0F
:104C6000836301F01BFB002802D0206F836B984701
:104C7000F7BD2000FFF76AFFFAE7FFF767FFEE676F
:104C8000F6E7236E012B00D094E01022114200D1F0
:104C900090E0164200D18DE00262816840200D0054
:104CA0000540014250D0216F0D68696889B2002922
:104CB000DED02600583636888E42D9D926005A369C
:104CC00031802D6820212E000E4001960D422FD1FB
:104CD000EFF3108783F3108826684F4A3568154034
:104CE000356087F31088EFF3108783F31088266808
:104CF000B5689D43B56087F31088EFF3108683F3A2
:104D000010882568AF688743AF6086F31088019AE2
:104D1000E1672266EFF3108083F310881022216888
:104D20000B6893430B6080F31088206F01F096FAB4
:104D3000230022005A3358321B881188C91A89B2BD
:104D40002000FFF70FFF93E726005A36308831889E
:104D500080B2002900D18BE7210058310988091A57
:104D600089B2002900D183E7EFF3108783F310881D
:104D700026682A4A30681040306087F31088EFF3C5
:104D8000108783F310882668B0689843B06087F373
:104D9000108820206566E0672566EFF3108583F3B1
:104DA0001088206832320368FF329343036085F332
:104DB0001088C5E780235B03194206D06A0204D538
:104DC0000362200000F0E8FA52E78023194203D082
:104DD0001E4201D0A36ED8E64022114200D147E71F
:104DE000164200D144E7EFF31080012383F31088CB
:104DF00021680B6893430B6080F310882023A3671E
:104E000000232000A366FFF7A0FE31E70F08000093
:104E1000200100044F4B0008FFFEFFFFDFFEFFFFF5
:104E2000F8B504002569A168026829436569C3696A
:104E300029431068784D1943284001431160516897
:104E40007648774D0140E06801435160A069AA426D
:104E500001D0216A08439168724E3140014391604C
:104E600071498A420FD10321704AD26C0A40013A3B
:104E70006F49022A0FD980221202934200D0A2E089
:104E800000F0A6FEC4E06B498A4217D10C21674AA4
:104E9000D26C0A406849885C80221202934200D09A
:104EA00083E0082824D8FDF72DFBB100EBFF5C0060
:104EB00023007D0023002300230067005F498A420E
:104EC00000D19FE05E498A4200D19BE0AA420FD107
:104ED000C0218020554A0901D36C00010B40834258
:104EE00016D007D8002B0AD08022D200934235D0AA
:104EF000012009E08B42FBD18020000212E000F08B
:104F000057FE00280ED1002000236366A366F8BD7B
:104F1000102310681840434258414A4B4042184001
:104F2000494BC018032263685A439042E0D31A03E6
:104F30009042DDD80027020E01025E0889197A41ED
:104F4000080011001A003B00FDF766FC3F4BC21839
:104F50003F4B9A42CCD82368D860D4E700F0C4FA1B
:104F6000CFE7324B384A1868102318404342584163
:104F7000344B404203409B185800636861685B08EB
:104F8000C018FDF7D3FA334982B2103A03048A42BB
:104F9000AED80F221B03904380B222685B0F1843E8
:104FA000D060B0E700F0A0FA32E00828A0D8FDF702
:104FB00095FA050A0D9F239F9F9F260000F0F8FD9C
:104FC0000028A0D00DE000F003FEF9E7174B1868A9
:104FD00010231840434258411A4B404218401A4B84
:104FE000C018636861685B081818FDF79FFA80B203
:104FF0000200184B103AACE700F076FAE0E78020A8
:105000000002EEE7802212029342D7D100F0D0FDD9
:10501000031E00D177E7AFE7F369FFEFFFCFFFFF94
:1050200000480040FFF4FFFF00380140001002403C
:10503000E8AF010800440040EBAF0108004C00401D
:1050400000500040001BB70000093D0000FDFFFFBD
:10505000FFFC0F00EFFF0000436A30B5DA0706D50A
:105060000168284C4A682240846A22434A609A07B1
:1050700006D50168244C4A682240C46A22434A602B
:105080005A0706D50168214C4A682240046B224326
:105090004A601A0706D501681D4C4A682240446BD5
:1050A00022434A60DA0606D501681A4C8A68224013
:1050B000846B22438A609A0606D50168164C8A687A
:1050C0002240C46B22438A605A0610D50168134DF2
:1050D0004A68046C2A4022434A6080225203944268
:1050E00005D14A680E4C2240446C22434A601B069C
:1050F00006D502680B4953680B40816C0B43536023
:1051000030BDC046FFFFFDFFFFFFFEFFFFFFFBFFBF
:10511000FF7FFFFFFFEFFFFFFFDFFFFFFFFFEFFF5F
:10512000FFFF9FFFFFFFF7FFF7B5802704000D008B
:10513000160001933F012268D3692B405B1B594243
:105140004B41B34201D0002028E0089B0133F3D04B
:1051500000F0A2F9019BC01A089B984201D8002BCD
:105160001DD1EFF31080012282F3108821681E4DBB
:105170000B682B400B6080F31088EFF3108082F3F4
:10518000108821688B6893438B6080F310882023FC
:10519000A367E3670023032074342370FEBD04215A
:1051A00023681A680A42C6D0DA693A42C3D01F623D
:1051B000EFF31080012282F3108821680A4D0B68FA
:1051C0002B400B6080F31088EFF3108082F310887F
:1051D00021688B6893438B6080F310882023221D05
:1051E000A367E367D367D5E75FFEFFFFF0B587B03E
:1051F0000593836F04000D0016000220202B51D16F
:10520000013800294ED0002A4CD08023A2685B01CF
:105210009A4204D12369002B01D1014242D12300DB
:10522000743303931B780220012B3BD00123039A94
:1052300013700022231DDA672123A36700F02CF9E5
:10524000230050331E8002331E8004938023A26803
:10525000070000265B019A4204D12369B34201D1C1
:105260002E001D000023039A1370230052331B8865
:105270009AB2002B0BD1059B4021009320003B00EC
:10528000FFF752FF00280CD12023A3670AE0059BFB
:105290000022009380213B002000FFF745FF0028FB
:1052A00002D0032007B0F0BD2268002D0BD1338857
:1052B0000236DB05DB0D9362049B049A1B88013BDD
:1052C0009BB21380D1E72B7801359362F4E700009D
:1052D00073B500260400031DDE6700F0DDF82368C7
:1052E00005001B681B0716D423681B685B070AD5DB
:1052F00080210F4B0022009320002B00C903FFF7F1
:1053000013FF002812D120230020A367E367206643
:10531000743420700BE08021054B32000093890328
:1053200003002000FFF700FF0028DDD0032076BD3A
:10533000FFFFFF0110B5041E01D1012010BD836FD6
:10534000002B04D102007432137002F0E1FD24231B
:1053500001212268A367136820008B431360FFF7C5
:105360005FFD0128E9D0636A002B02D02000FFF71F
:1053700073FE236807495A6820000A402A215A60B0
:105380009A688A439A60012219680A431A60FFF7F3
:105390009FFFD3E7FFB7FFFF7047000070B5040021
:1053A0000120002C17D02368124A07251A60124AE0
:1053B0001A6062685A60A2689A6000F06DF8060090
:1053C0002368DA68100028402A4205D11969E2688A
:1053D00091420CD01A6170BD00F05EF8801B2A2843
:1053E000EED92368DB682B42EAD00320F3E7034AB7
:1053F0001A60F0E7CCCC000055550000AAAA0000C6
:105400000368024A00201A607047C046AAAA00003A
:1054100070B50500FA200D4B80001978FDF786F86D
:105420000B4B01001868FDF781F801F033F8040018
:105430000120002C09D1032D07D8023822002900B1
:1054400000F0E2FF2000034B1D6070BD64000020EF
:105450006C000020680000204023084A10B5116845
:1054600000200B431360FFF7D3FF041E03D102F0AB
:10547000EFF8200010BD0124FBE7C04600200240E9
:10548000034A044B11681B785B1813607047C046D1
:105490002805002064000020014B18687047C046B2
:1054A0002805002070B50400FFF7F6FF0500631C17
:1054B00002D0044B1B78E418FFF7EEFF401BA0421C
:1054C000FAD370BD640000200221024A13688B43A6
:1054D0001360704710E000E00223024A11680B439A
:1054E0001360704710E000E00C221D4B70B5DC68C3
:1054F0002240082A31D00C2A09D0042A25D1186864
:10550000184BC006C0171840174BC01870BDA20238
:105510001648120F805C80222402D968A40F520220
:105520000134114209D0124A00230021FDF794F9F9
:1055300022000023FDF770F9E8E71A6810231A42E9
:1055400001D00C4AF0E7084AEEE780205B680002D1
:105550001B045B0F01339840D8E70548D6E7C046E7
:105560000010024000E548FF0024F40080B001086C
:1055700000127A0000093D00F0B5050085B0002852
:1055800056D00C23B64C0268E668E7681E408023BC
:105590005B0219001F40D2073ED42B689B0700D541
:1055A00087E02B68DB0629D5002E00D0E0E02368D9
:1055B0009B0502D5AB69002B3AD06268A9492B6ADA
:1055C0000A401A4362606168EA690902090A120620
:1055D0000A43626080225B0B013312029A4013007F
:1055E000E1680A06A049120F8A5CD3409F4A136003
:1055F0009F4B1868FFF70CFF002830D12B681B0762
:1056000000D5ECE02B685B0700D50EE16B6A002B40
:1056100000D092E1002022E0082E03D00C2E09D108
:10562000002F07D023689B03B7D56B68002BB4D13C
:10563000012014E06A688A4213D122681343236070
:10564000FFF72AFF00908022236892021342A4D120
:10565000FFF722FF009BC01A6428F4D9032005B08D
:10566000F0BDA021C9028A4205D180222168D20260
:105670000A432260E1E721687E48014021602168F9
:105680000B400393039B7C4923680B402360002A53
:10569000D6D1FFF701FF00908022236892021342C7
:1056A00000D17AE7FFF7F8FE009BC01A6428F3D90F
:1056B000D4E72022EB68134203D0216893431143BF
:1056C0002160042E03D00C2E24D1002F22D1226879
:1056D000520701D5002BABD061682A6967481202D6
:1056E00001400A430921626022688A431343236010
:1056F000FFF7FAFEE3685C4A1B061B0FD35CD84039
:105700005A4B18605A4B1868FFF782FE002800D1E8
:1057100047E7A4E7002B19D0092122688A431343E5
:105720002360FFF7B9FE070004222368134207D065
:1057300062682B6951491B020A401343636030E7DA
:10574000FFF7AAFEC01B0228EED987E701222368D3
:1057500093432360FFF7A0FE07000422236813424F
:1057600000D11EE7FFF798FEC01B0228F5D975E7A8
:10577000AB69002B20D0802322685B001343236099
:10578000FFF78AFE070080222368920013420DD0A3
:105790006368344A13402A6A134363606268EB69A2
:1057A00012021B06120A1343636027E7FFF774FE19
:1057B000C01B0228E7D951E72368314A1340236010
:1057C000FFF76AFE0700802223689200134200D18F
:1057D00014E7FFF761FEC01B0228F4D93EE76A69AF
:1057E0000123002A10D0226D13432365FFF754FED6
:1057F00007000222236D134200D003E7FFF74CFE9F
:10580000C01B0228F5D929E7226D9A432265FFF7CC
:1058100043FE07000222236D134200D1F2E6FFF798
:105820003BFEC01B0228F5D918E780230021A26B9C
:105830005B0500911A4204D1A26B1343A3630123B9
:10584000009380220F4F52003B6813421CD08022ED
:10585000AB68520093422BD1226D134323654CE079
:1058600000100240FF1FFFFF68B001086C0000201D
:1058700068000020FFFFFEFFFFFFFBFFFFE0FFFFD0
:10588000FFFEFFFF0070004080223B685200134380
:105890003B60FFF701FE019080223B6852001342FB
:1058A000D5D1FFF7F9FD019BC01A6428F4D9D5E6DC
:1058B000002B16D1236D514A13402365236D504AA6
:1058C00013402365FFF7E8FD07008022236D920057
:1058D00013421AD0FFF7E0FD4A4BC01B9842F4D99F
:1058E000BCE6A021C9008B4218D18023216DDB00CA
:1058F0000B432365236D1A432265FFF7CDFD070097
:105900008022236D9200134210D0009B012B00D007
:105910007CE6A36B3C4A1340A36377E6236D374ACA
:1059200013402365236D364A134097E7FFF7B4FD14
:10593000344BC01B9842E3D990E60C2E43D0334A37
:10594000022B2ED12368802713402360FFF7A4FD8C
:105950000600BF0423683B421DD1E96AAB6AE268D6
:105960000B432B4980260A4013432A6BB60413438A
:10597000E360802322685B0413432360FFF78CFD00
:1059800005002368334200D044E6FFF785FD401B45
:105990000228F6D962E6FFF77FFD801B0228D9D9DD
:1059A0005CE62368802613402360FFF775FD050041
:1059B000B6042368334200D12CE6FFF76DFD401B8F
:1059C0000228F6D94AE61800012B00D147E68022CA
:1059D000E368A96A52021A408A4200D028E6F022FF
:1059E000E96A92031A408A4200D021E6C0221204DA
:1059F00013402A6B934200D10CE619E6FFFEFFFF2D
:105A0000FFFBFFFF88130000FFFFFFEFFFFFFFFE1C
:105A1000FFFF02FFF7B5041E019101D10120FEBD79
:105A200001255B4E019A33682B40934231D32268A3
:105A3000930743D4D30749D401253368019A2B40F7
:105A4000934209D93368AB433360FFF725FD070064
:105A500033682B4200D08CE022684E4D530700D5AE
:105A60008FE0130706D5E96823694B4ADB000A403B
:105A70001343EB60FFF738FDEB68484A1B061B0F2A
:105A8000D35CD840464B1860464B1868FFF7C0FC03
:105A9000C5E73368019AAB4313433360FFF7FCFC5F
:105AA00007003368019A2B409342C0D0FFF7F4FC03
:105AB0003D4BC01B9842F4D90320B0E7F020354994
:105AC000CB688343A0680343CB60B3E7314D626882
:105AD0002B68022A18D19B03A0D50321EB688B43C6
