:020000040800F2
:1000000000800120910E0108E10E010849900008CE
:10001000E10E0108E10E0108E10E010800000000F8
:10002000000000000000000000000000E10E0108D8
:10003000E10E010800000000E10E0108198B000824
:10004000E10E01087D900008E10E0108C596000848
:10005000E10E0108E10E0108F5840008038500089F
:10006000118500081F8500082D850008E10E010894
:10007000E10E0108E10E0108E10E0108E10E0108A0
:10008000E10E0108E10E0108E10E0108E10E010890
:10009000E10E0108E10E0108E10E01083B850008B0
:1000A000E10E0108E10E0108E10E0108E10E010870
:1000B000E10E0108E10E0108E10E0108E10E010860
:1000C000E10E0108E10E0108E10E0108E10E010850
:1000D000E10E010825A6000839A600084DA6000873
:1000E0006585000821950008E10E0108E10E010870
:1000F000E10E0108E10E0108E10E0108E10E010820
:10010000E10E0108E10E0108E10E0108E10E01080F
:10011000E10E0108E10E0108E10E0108E10E0108FF
:10012000E10E0108E10E0108E10E0108E10E0108EF
:10013000E10E0108E10E0108E10E0108E10E0108DF
:10014000E10E0108C19C0008E10E0108E10E010862
:10015000E10E0108E10E0108E10E0108E10E0108BF
:10016000E10E0108E10E0108E10E0108E10E0108AF
:10017000E10E0108E10E0108E10E01080000000097
:08018000E10E0108E10E010887
:1001C0000348044B834202D0034B03B118477047E6
:1001D000400D0020400D00200000000005480649A9
:1001E0000B1AD90F01EBA301491002D0034B03B145
:1001F00018477047400D0020400D0020000000000F
:1002000010B5064C237843B9FFF7DAFF044B13B15E
:100210000448AFF300800123237010BD400D00207F
:1002200000000000F80E010808B5044B1BB104499A
:100230000448AFF30080BDE80840CFE700000000AD
:10024000440D0020F80E0108002301461A46184606
:1002500000F034B938B5084B084D5B1B9C1007D033
:10026000043B1D44013C55F804399847002CF9D152
:10027000BDE8384010F046BE641D0108601D01084D
:1002800070B50D4E0D4D761BB61006D0002455F8F6
:10029000043B01349847A642F9D1094E094D761B1B
:1002A00010F02AFEB61006D0002455F8043B0134A5
:1002B0009847A642F9D170BD581D0108581D010884
:1002C000601D0108581D0108830730B548D0541E31
:1002D000002A3FD0CAB2034601E0013C3AD303F8FA
:1002E000012B9D07F9D1032C2DD9CDB245EA052567
:1002F0000F2C45EA054536D9A4F1100222F00F0C67
:1003000003F1200EE6444FEA121C03F1100242E909
:10031000045542E9025510327245F8D10CF1010240
:1003200014F00C0F03EB021204F00F0C13D0ACF11D
:10033000040323F003030433134442F8045B9342A1
:10034000FBD10CF003042CB1CAB21C4403F8012BFE
:100350009C42FBD130BD64461346002CF4D1F9E732
:1003600003461446BFE71A46A446E0E70000000033
:10037000000000000000000000000000000000007D
:1003800090F800F06DE9024520F007016FF0000CD5
:1003900010F0070491F820F040F049804FF000047D
:1003A0006FF00700D1E9002391F840F000F1080058
:1003B00082FA4CF2A4FA8CF283FA4CF3A2FA8CF390
:1003C0004BBBD1E9022382FA4CF200F10800A4FAF7
:1003D0008CF283FA4CF3A2FA8CF3E3B9D1E904234B
:1003E00082FA4CF200F10800A4FA8CF283FA4CF382
:1003F000A2FA8CF37BB9D1E9062301F1200182FA3C
:100400004CF200F10800A4FA8CF283FA4CF3A2FA41
:100410008CF3002BC6D0002A04BF04301A4612BA4F
:10042000B2FA82F2FDE8024500EBD2007047D1E952
:10043000002304F00305C4F100004FEAC50514F0E1
:10044000040F91F840F00CFA05F562EA05021CBFB2
:1004500063EA050362464FF00004A9E770B50B4E4E
:100460009AB004466FF00045CDE904451346009468
:100470000A463068064C02956946039400F054F829
:10048000009B00221A701AB070BD00BF000000204F
:100490000802FFFF10B59AB06FF00044CDE90414D4
:1004A000009102946946044C039400F03DF8009BCF
:1004B00000221A701AB010BD0802FFFF70B4184C69
:1004C0002568D5F848411CB365681F2D25DC38B96F
:1004D000AB1C0135656044F82310002070BC7047E8
:1004E00004EB850C0228CCF88820D4F888614FF002
:1004F000010202FA05F246EA0206C4F88861CCF865
:100500000831E5D1D4F88C311343C4F88C31DFE7DE
:1005100005F5A674C5F84841D6E74FF0FF30DDE792
:100520002C190108000000002DE9F04F2DED068B7D
:10053000BBB088469146099309EE100A02F088FA8A
:10054000036810931846FFF71BFFB8F80C300F90A4
:10055000180604D5D8F81030002B00F0E7869FED80
:10056000867B0023CDE91E338DED0C7B2AAA0B93ED
:100570001D9292460E931193069399F80030002B2A
:1005800000F087814C4604E014F8013F002B00F096
:10059000C580252BF8D1B4EB090540F0C380237842
:1005A000002B00F0768100234FF0FF3265788DF844
:1005B000573004F101091846059207939B4609F14B
:1005C0000109A5F12002582A00F2DA80DFE812F0D2
:1005D0005E02D800D8005902D800D800D800D80050
:1005E000D800D8000C025402D80017021C02D80010
:1005F0004F0259005900590059005900590059003B
:1006000059005900D800D800D800D800D800D80028
:10061000D800D800D800D80036026C01D8006C0190
:10062000D800D800D800D8006602D800D8007800DA
:10063000D800D800D800D800D8006800D800D8006A
:100640007902D800D800D800D800D800D800D80047
:10065000D800D800D8006B02CF016C016C016C018E
:100660009A02CF01D800D8000E03D800F8027A0011
:10067000DD02D802D800B602D8006A00D800D8003F
:100680009F02A5F13002002119F8015B01EB810105
:1006900002EB4101A5F13002092AF5D9079190E753
:1006A0004BF0100B1BF0200100F05381099B073326
:1006B00023F00703596853F8080B099301230EE050
:1006C0004BF0100B1BF0200100F03681099B073323
:1006D00023F00703596853F8080B099300230024FB
:1006E0008DF85740059A561C00F08F822BF080063B
:1006F000039650EA010640F08682002A40F00E83FD
:10070000002B40F03C851BF00103089300F0AF85FF
:1007100030238DF8A7300DF1A7069BE2B4EB090555
:1007200000F0B7801F9B2B441F931E9B0133072BA8
:10073000CAE900951E9305DC0AF1080A069B2B44C2
:1007400006932CE719EE100A1DAA414603F088FA19
:1007500018B90DF1A80AF1E7B046B8F80C3013F05B
:10076000400F069B18BF4FF0FF33069306983BB02F
:10077000BDEC068BBDE8F08F00000000000000001B
:10078000002B40F0E987002D00F0838000238DF8D6
:10079000573001238DF880500493089320AE002336
:1007A000CDF80CB005930A93039B13F0020302D01B
:1007B000049A02320492039A12F0840B05D1079A2C
:1007C0000499571A002F00F3A0831F9C9DF857200F
:1007D0008AB11E9A0DF1570101320134CAF8001096
:1007E000072A4FF001011F941E92CAF8041000F36B
:1007F000D9830AF1080A83B11E9B16AA0133023479
:10080000CAF80020072B4FF002021F941E93CAF86B
:10081000042000F3D6830AF1080ABBF1800F00F030
:100820009982059B089AA3EB020BBBF1000F00F322
:10083000D482039BDF0500F11682089BCAF80430BE
:100840001C441E9BCAF800600133072B1F941E93A3
:1008500000F34E830AF1080A039B5B0705D5079B4B
:10086000049A9D1A002D00F3B983DDE9063204993C
:100870008A42ACBF9B185B180693002C40F0E882BC
:1008800000231E9399F800300DF1A80A002B7FF485
:1008900079AE1F9B002B3FF460AF19EE100A1DAA22
:1008A000414603F0DDF958E7002B41F00680099B33
:1008B000073323F00703B3EC027B8DED0C7BDDE9FE
:1008C0000C67099327F0004308EE903A08EE106A8F
:1008D000B64B51EC180B4FF0FF3207F04DF90028E2
:1008E00040F0C784B14B51EC180B4FF0FF3207F0CA
:1008F00025F9002840F0BD84002200233046394607
:1009000007F012F9002840F0FC869DF85740A84EE9
:100910002BF080030393A74B0022472DC8BF1E4630
:100920000323CDE9043208930A92002C3FF43CAF34
:10093000049B0133049337E71BF0100348D11BF0ED
:10094000400145D0099A52F8040B0992194680B229
:10095000C5E61BF0100341D11BF040013ED0099ABF
:1009600052F8040B0992194680B20123B7E6002B16
:1009700040F0A7871BF0200F099B68D0073323F0B6
:1009800007031A465B6852F8080B09921946002BB8
:10099000C0F23D84059B013300F085852BF0800378
:1009A000039350EA01039DF8574000F0E483DDF81B
:1009B0000CB00A2871F1000380F01085303001235B
:1009C0008DF8A700CDF80CB008930DF1A70641E112
:1009D000099B53F8040B09930B4680E6099B53F8D7
:1009E000040B099301237AE6099A52F8041B079134
:1009F000002980F23784079909924942079199F8B2
:100A000000504BF0040BDAE5494611F8015B2A2D42
:100A100000F0C787A5F13002092A894698BF002156
:100A200000F23B8719F8015B01EB810102EB410108
:100A3000A5F13002092AF5D90591C2E5002B40F055
:100A400044874BF0100B1BF0200F099B96D153F8F5
:100A5000040B09931BF0100F40F0D4831BF0400FE0
:100A600000F0D08340F3C0310B4600B28FE799F815
:100A700000504BF0800BA2E599F8005001232B2089
:100A80009DE599F800504BF0010B98E599F800505E
:100A900000287FF494AD0123202090E599F80050C0
:100AA0004BF0080B8BE5099B00228DF8572053F87B
:100AB000042B099301238DF880200493089320AE22
:100AC0006DE6002B40F0F1863B4B0E931BF02001AE
:100AD00025D0099B073323F00703596853F8080B07
:100AE00009931BF0010F0BD050EA010308D030230B
:100AF0008DF858308DF859504BF0020B0223EEE57B
:100B00000223ECE599F800504BF0400B57E5002B21
:100B100040F0C786294B0E931BF02001D9D11BF062
:100B2000100340F06A831BF0400100F06683099ACD
:100B300052F8040B0992194680B2D2E7099C059B32
:100B400054F8046B00278DF85770002E00F0E584F0
:100B50005A1C00F0FC831A463946304602F030FA3F
:100B6000002800F08286831B089323EAE37309942C
:100B700005979DF85740CDF80CB004930A97D4E63A
:100B800099F800504BF0200B19E5099B53F8040B22
:100B90000993302378258DF85830084B0E934BF08D
:100BA000020B8DF859500021022398E5FFFFEF7FDB
:100BB0002C1C0108301C0108501C01083C1C0108B9
:100BC000002B40F076861BF0200F40F099831BF03D
:100BD000100F40F0F5831BF0400F00F0F183099BEC
:100BE000069953F8042B09931180C6E499F8005034
:100BF0006C2D03BF99F801504BF0200B09F101094E
:100C00004BF0100BDBE4DDF80CB0012B3FF4D1AE60
:100C1000022B00F08B802AAE00F00703C00840EAE8
:100C20004170C908303350EA0107324606F8013DE9
:100C3000F2D11BF0010F00F08780302B00F0848090
:100C40003023023A06F8013C2AAB9B1ACDF80CB0CF
:100C500008931646059B089A9342B8BF134604931F
:100C600000230A9361E6652D40F3FC80DDE90C0169
:100C70000022002306F04EFF002800F0EA811E9BB0
:100C8000AA4ACAF80020013301340122072B1F941D
:100C90001E93CAF8042000F316840AF1080A179B71
:100CA0000B9A934203DB039BD8077FF5D5AD0F9BCF
:100CB000109A1C44CAE900231E9B1F940133072B82
:100CC0001E9300F31C840AF1080A0B9B5D1E002D85
:100CD0007FF7C2AD102D1E9B954F40F3E88319EEB0
:100CE00010BA102605E00AF1080A103D102D40F355
:100CF000DE8301331034072BCAE90076CDE91E34B8
:100D0000F1DD1DAA4146584602F0AAFF00287FF4F3
:100D100024ADDDE91E340DF1A80AE6E7012B00F051
:100D20006F85022BDDF80CB07FF475AF0E9A2AAEFA
:100D300000F00F030009D35C06F8013D40EA0170A2
:100D4000090950EA0103F3D12AAB9B1BCDF80CB083
:100D500008937FE7079B049AA3EB020BBBF1000FFC
:100D60007FF75FADBBF1100F1E9A714F27DD214653
:100D7000102319EE104A06E0ABF1100BBBF1100F77
:100D80000AF1080A1ADD01321031072ACAE9007394
:100D9000CDE91E21F0DD1DAA414620460DF1A80A2D
:100DA00002F05EFF00287FF4D8ACABF1100BBBF172
:100DB000100FDDE91E214FF01003E4DC0C46013278
:100DC0005C44072ACDE91E24CAF80070CAF804B0B2
:100DD00000F387830AF1080A23E5BBF1100F1E9A7E
:100DE000534F27DD2146102319EE104A06E0ABF1E0
:100DF000100BBBF1100F0AF1080A1ADD0132103195
:100E0000072ACAE90073CDE91E21F0DD1DAA41467B
:100E1000204602F025FF00287FF49FACABF1100BB9
:100E2000BBF1100FDDE91E210DF1A80A4FF01003F0
:100E3000E4DC0C4601325C44072ACDE91E24CAF8E2
:100E40000070CAF804B000F3CA810AF1080AF0E49D
:100E500019EE100A1DAA414602F002FF00283FF4D5
:100E60000FAD7AE40B9B012B40F366811E9DCAF8FF
:100E70000060013501340123072D1F941E95CAF827
:100E8000043000F3CE810AF1080A0F9B109A013555
:100E90001C44072DCAE90023CDE91E5400F3D48178
:100EA0000AF1080ADDE90C010022002306F032FEF7
:100EB000002840F069810B9B0135013B01361C4441
:100EC000072DCAF800601E95CAF804301F9400F37D
:100ED00044810AF1080A119BCAF8043001351C4408
:100EE000072D19ABCDE91E54CAF800307FF7B2AC1C
:100EF00019EE100A1DAA414602F0B2FE00287FF446
:100F00002CAC1F9C0DF1A80AA6E4102FDDE91E21D0
:100F100039DD1293CDF84C901024B1460B4646466D
:100F2000B8462F4619EE105A0BE000BF6C1C0108A2
:100F300040190108A8F11008B8F1100F0AF1080AC9
:100F400019DD0132BE491033072ACAE90014CDE980
:100F50001E23EFDD1DAA314628460DF1A80A02F036
:100F60007FFE00287FF4F8ABA8F11008B8F1100F4D
:100F7000DDE91E23E5DC3D4619464746129BB04697
:100F80004E46DDF84C90CAF8047001327C18072AEE
:100F9000AB49CAF80010CDE91E2400F374820AF1AF
:100FA000080A13E419EE100A1DAA4146129302F032
:100FB00057FE00287FF4D1AB1F9C129B0DF1A80AAD
:100FC00019E419EE100A1DAA414602F049FE002854
:100FD0007FF4C3AB1F9C0DF1A80A1EE4102D1E9BCD
:100FE00020DD19EE107A102604E0103D102D0AF1D4
:100FF000080A17DD0133924A1034072BCAE900268C
:10100000CDE91E34F1DD1DAA414638460DF1A80A8E
:1010100002F026FE00287FF4A0AB103D102DDDE984
:101020001E34E7DC0133864ACAF804502C44072BEF
:10103000CDE91E34CAF800207FF717AC19EE100A6C
:101040001DAA414602F00CFE00287FF486AB1F9CCF
:101050000BE41799002940F3E181DDE90A379F424B
:10106000A8BF1F46002F0BDD1E9B01333C44072BFE
:10107000CAE900671F941E9300F3D7830AF1080A98
:101080000A9D002FA8BFED1B002D00F37081179D56
:101090000B9B9D4280F23E810F9B109A1C44CAE933
:1010A00000231E9B1F940133072B1E9300F34483E0
:1010B0000AF1080A0B9B0A9A5D1B9F1AAF42A8BF50
:1010C0002F46002F0EDD1E9BCAF804700133164414
:1010D0003C44072BCAF800601F941E9300F3B583AD
:1010E0000AF1080A002FA8BFED1B002D7FF7B4AB53
:1010F000102D1E9B534F40F3DA8119EE10BA1026C3
:1011000005E00AF1080A103D102D40F3D0810133AB
:101110001034072BCAE90076CDE91E34F1DD1DAA93
:101120004146584602F09CFD00287FF416ABDDE9ED
:101130001E340DF1A80AE6E7039BDA073FF596AEE9
:101140001E9DCAF80060013501340123072D1F944C
:101150001E95CAF804307FF7BCAE19EE100A1DAA1E
:10116000414602F07DFD00287FF4F7AADDE91E5418
:101170000DF1A80AAFE6059B002B40F04183002348
:10118000059308932AAE65E50B9B5E1E002E7FF744
:10119000A2AE102E2B4F40F3CB81CDF814904FF020
:1011A000100B19EE109A05E00AF1080A103E102EF5
:1011B00040F3BC8101351034072DCAE9007BCDE92D
:1011C0001E54F1DD1DAA4146484602F049FD0028A3
:1011D0007FF4C3AADDE91E540DF1A80AE6E719EE73
:1011E000100A1DAA414602F03BFD00287FF4B5AA73
:1011F0001F9C0DF1A80AFFF71CBB099B53F8040BB9
:1012000009936EE4C1170B46002BBFF6C3AB4042F7
:101210004FF02D0461EB41018DF857400123FFF79A
:1012200061BA19EE100A1DAA414602F019FD002804
:101230007FF493AADDE91E540DF1A80A25E600BF4C
:10124000301901084019010819EE100A1DAA41467B
:1012500002F006FD00287FF480AADDE91E540DF19E
:10126000A80A1FE699F800500992FFF7A8B92AAE1C
:10127000F0E4DDE90C0102460B4606F07DFC002897
:1012800040F05183059B013325F02003049300F0C7
:10129000D982472B00F09C80DDE90C014BF4807271
:1012A00000290392C0F232829DED0C7B0027B0EE44
:1012B00047AAF0EE67AA662D00F07A81462D00F06D
:1012C0007781B0EE4A0AF0EE6A0A049B452B0ABF0A
:1012D000059B059C5C1C1BAB019318AB009319EE9E
:1012E000100A17AB2246022100F012FC672D0646B9
:1012F00040F092821BF0010F00F0AC8134446FE1AA
:10130000099B069853F8041B0993C217C1E9000210
:10131000FFF733B9039BD9073FF5BEAEDDE90A23DA
:101320009F1A5D1BAF42A8BF2F46DBE619EE100ADD
:10133000402101F095FBC8F80000C8F81000002813
:1013400000F03E834023C8F81430FFF708B9304658
:1013500009940597CDF80CB0FFF712F820EAE07376
:101360009DF85740089004930A97FFF7DEBA102DB6
:101370001E9BB54F40F3B8813A460596474619EE95
:10138000106A4FF0100B904605E00AF1080A103D74
:10139000102D40F3A58101331034072BCAE9008BCF
:1013A000CDE91E34F1DD1DAA3946304602F058FC65
:1013B000002840F0A782DDE91E340DF1A80AE6E717
:1013C000099B069953F8042B11600993FFF7D5B8D0
:1013D000059B002B08BF012305935DE7CDF80C901A
:1013E0002AAEA1460A22002304460F4606F022FC3C
:1013F000303206F8012D0023204639460A2206F035
:1014000019FC0A2C77F10003ECD22AAB9B1B4C464B
:101410000893DDF80C90CDF80CB01BE41E9B8B4AB2
:10142000CAF80020013301340122072B1F941E93B8
:10143000CAF8042000F372810AF1080A002940F07A
:101440008380039B0B9A03F0010313433FF404AA28
:101450000F9B10991A19CAE900131E9B1F920133A2
:10146000072B1E9300F37C810AF1080A0B99CAF836
:10147000006001338C18072BCDE91E34CAF8041024
:101480007FF7E8A934E519EE100A1DAA4146129328
:1014900002F0E6FB00287FF460A91F9C129B0DF16F
:1014A000A80AFFF793B99DF85740FFF782BA0133B6
:1014B0002C44072BCAF80070CAF80450CDE91E343A
:1014C0007FF7C8A914E519EE100A1DAA414602F0DB
:1014D000C7FB00287FF441A91F9C0DF1A80AFFF764
:1014E000DEBB19EE100A1DAA414602F0B9FB002826
:1014F0007FF433A91F9C0DF1A80AFFF792B919EEEA
:10150000100A1DAA414602F0ABFB00287FF425A972
:101510001F9C0DF1A80AFFF7D8BB062B28BF062396
:10152000CDE908344A4E0493FFF739B9DDF8149039
:10153000CAF8007001353444072DCDE91E54CAF8AD
:1015400004607FF7C6AC08E60F9B10981A19CAE929
:1015500000031E9B1F920133072B1E9300F3008193
:101560000AF1080A002981DA4D421031364F80F223
:10157000B08119EE10BA102405E00AF1080A103DF6
:10158000102D40F3A68101331032072BCAE90074F5
:10159000CDE91E32F1DD1DAA4146584602F060FB3E
:1015A00000287FF4DAA8DDE91E320DF1A80AE6E78B
:1015B000059CB0EE4A0AF0EE6A0A1BAB019318AB29
:1015C0000093224617AB19EE100A032100F0A0FA8F
:1015D000064604193378302B00F09781179B1C4482
:1015E00051EC1A0B0022002306F094FA002840F078
:1015F000B1801B9BA34206D230215A1C1B9219704A
:101600001B9B9C42F9D89B1B0B93049B472B28D018
:10161000662D40F0DE81179B059A0A93002B0BF094
:10162000010B40F3F1805BEA020140F09F810A9BCD
:1016300004930893002F00F0F3802D238DF857308A
:1016400000230593FFF774B9401901086C1C0108C9
:10165000641C01081B9B9B1B0B93049B472B40F0B6
:10166000B881179B0A93D91C11DB059A93420EDCB3
:10167000DDE90A329342C0F204811BF0010F40F011
:10168000638123EAE372049208936725D2E7023D5F
:101690000A9A8DF86450531E002B1793B6BFC2F1FF
:1016A00001032B222D22092B8DF8652074DC3033A9
:1016B0008DF8673030238DF86630042311930B9A30
:1016C000119B012A1344089340F34781089B0F9A0A
:1016D0001344089323EAE373049300230A93A9E7CE
:1016E0004246059EB846174601332C44072BCDE9E8
:1016F0001E34CAF80070CAF8045040DC0AF1080A27
:10170000C5E42D248DF85740FFF701B901F10043DE
:101710000AEE100A0AEE903A2D27CCE519EE100ACF
:101720001DAA414602F09CFA00287FF416A81799DA
:101730001F9C0DF1A80A81E619EE100A1DAA414668
:1017400002F08EFA00287FF408A8179D1F9C0DF167
:10175000A80AAFE4234656E78DF85700FFF713B801
:1017600019EE100A1DAA414602F07AFA00287EF40A
:10177000F4AFDDE91E3217990DF1A80AF2E619EE71
:10178000100A1DAA414602F06BFA00287EF4E5AF6C
:101790001F9C0DF1A80A7AE40DF17304DFF840C232
:1017A000224610468CFB0321DA17C2EBA10202EBA2
:1017B0008201A3EB4101303100F8011C1946632975
:1017C000134600F1FF32ECDC3033D9B2831E9C4269
:1017D00002F8011C40F2F18013460DF1660201E0AF
:1017E00013F8011B02F8011B9C42F9D10DF175039E
:1017F0000DF166021B1A134419AA9B1A11935EE796
:10180000DDF80CB0FFF7DAB85BEA020340F0B6800F
:101810000123049308930DE7472D3FF46BAD6DE56D
:101820009DF857400597FFF780B819EE100A1DAADA
:10183000414602F015FA00287EF48FAF1F9C0DF18F
:10184000A80A1DE40623059326E519EE100A1DAA31
:10185000414602F005FA00287EF47FAF179D0B9BEE
:101860001F9C5D1B0DF1A80A3CE4059B0994CDF873
:101870000CB09DF857400493089305900A90FFF729
:1018800054B80F9A0B9B13440A9A0893002A7DDDE3
:1018900023EAE37304936725CCE600220592FEF762
:1018A00090BE8DF85700FFF735B98DF85700FFF758
:1018B0000BB98DF85700FFF786B98DF85700FEF782
:1018C000F6BF8DF85700FFF755B88DF85700FFF7B2
:1018D000B8B801332A44072BCDE91E32CAF800708C
:1018E000CAF804507FF7C0AD19EE100A1DAA414690
:1018F00002F0B6F900287EF430AFDDE91E320DF1BA
:10190000A80AB3E5B846FEF728BF51EC1A0B00222F
:10191000002306F0FFF800287FF460AE059BC3F1BA
:10192000010317935BE60D9B2B4E002BB8BF2D24B4
:101930002BF080030393A8BF9DF85740274BB8BFF7
:101940008DF85740FEF7E8BF0A9B0F9A134408939F
:1019500023EAE373049367256CE61BF001020A9205
:101960007FF4B4AE23EAE373049363E60F990B4468
:101970001A4422EAE273089204935BE60F9B013358
:101980001A4422EAE2730892049353E60A9B089AE7
:10199000C3F101031A4422EAE27308920493672513
:1019A00048E6099A99F80150894652F8041B0992B1
:1019B00041EAE1710591FEF702BE022311937EE632
:1019C00019EE102A0C2313604FF0FF330693FEF735
:1019D000CDBE179B0A935BE6341C0108381C010836
:1019E00067666666000000002DE9F04F03690C6928
:1019F000A34283B0C0F28780013C01F11405A3002B
:101A000000F11408009355F8243058F824200133CD
:101A100081469A4208EB840005EB84070190B2FBF3
:101A2000F3F63BD30023AE4640469B465EF804AB3C
:101A300002681FFA8AFC06FB0C334FEA134C4FEA8C
:101A40001A4A06FB0ACA1FFA83FCABEB0C0C1FFAFE
:101A50008AF31CFA82FCC3EB124202EB2C421FFAFF
:101A60008CFC4CEA0243774540F8043B4FEA224B9A
:101A70004FEA1A43DAD2009B58F8033073B9019B3E
:101A8000043B984504D307E0984504F1FF3403D2A2
:101A900053F80429002AF7D0C9F81040484601F04D
:101AA0005FFE00282BDB01364046002355F8041B5F
:101AB000D0F800C08AB29A1A0B0C12FA8CF2C3EB5F
:101AC0001C4303EB224392B242EA0342AF4240F886
:101AD000042B4FEA2343E9D258F8242008EB84036F
:101AE0006AB9043B984504D307E0984504F1FF34F4
:101AF00003D253F80429002AF7D0C9F81040304621
:101B000003B0BDE8F08F002003B0BDE8F08F00BF48
:101B10002DE9F04F2DED068B95B08DED020B019167
:101B2000016C249D099259EC108B0446069341B137
:101B3000426C4A60012393408B6001F055FB002307
:101B40002364B9F1000AB4BF012300232B607C4B4E
:101B5000BCBF2AF0004ACDF80CA033EA0A0300F01B
:101B6000B2809DED027B002251EC170BB0EE479A3C
:101B7000F0EE679A002305F0CDFF074680B1069A84
:101B800001231360259B002B00F0DB826D48186059
:101B9000431E0093009815B0BDEC068BBDE8F08F96
:101BA00012AA13A92046B0EE490AF0EE690A01F024
:101BB0002FFFB0EE498AF0EE698A5FEA1A560546B1
:101BC00040F09980DDE912763E4406F2324020284A
:101BD00040F3AB83C0F140000AFA00FA06F212406B
:101BE00028FA00F04AEA000005F0B2FC0123013EA9
:101BF0000D93A1F1F871544B002205F06BFB4AA341
:101C0000D3E9002305F01EFD49A3D3E9002305F025
:101C100063FB80463046894605F0AAFC46A3D3E91B
:101C2000002305F00FFD02460B464046494605F0ED
:101C300053FB8046894605F0B5FF0022834600230A
:101C40004046494605F070FF002840F06D82BBF128
:101C5000160F00F25C823D4B03EBCB03D3E900236C
:101C600051EC190B05F060FF002875D00023BE1B56
:101C70000C93731E0BF1FF3B049300F14F82002382
:101C80000893BBF1000F6EDA089BCDF814B0A3EBFC
:101C90000B030893CBF100030B93019B092B4FF02F
:101CA000000B69D8052B40F33E83043B01930026CB
:101CB000019B023B032B00F29986DFE813F04E04F0
:101CC0004B0443042604069A42F20F73CAF3130A24
:101CD00013605AEA08031DD1259B002B00F07D8676
:101CE0001B4B00930833259A0098136015B0BDEC88
:101CF000068BBDE8F08F18EE903AC3F3130351EC56
:101D0000190B43F07F510D97A6F2FF36129F41F455
:101D1000401170E7259B002B40F0DB830D4B0093B7
:101D200038E700BFAFF3008061436F63A787D23FFE
:101D3000B3C8608B288AC63FFB799F501344D33FBA
:101D40000000F07F6D1C01080000F83F60190108D9
:101D5000741C0108701C0108BE1B731E049300F163
:101D60009A840C900890049B5B44CDE9043B0023CB
:101D70000B93019B092B95D9002301264FF0FF32CD
:101D800001930A9607920993079B0F9300216164C0
:101D9000204601F003FA0090002800F02F86009BF7
:101DA0002364079B0E2B00F2F980002E00F0F680D2
:101DB0000599002940F37184BD4B01F00F0203EB3C
:101DC000C2034FEA2118C905D3E9006740F1038433
:101DD000B84B51EC190BD3E9082305F05DFD41EC3C
:101DE000180B08F00F084FF0030AB8F1000F13D0DA
:101DF000DFF8C09218F0010F09D030463946D9E912
:101E0000002305F01FFC0AF1010A06460F465FEAAF
:101E1000680809F10809EDD151EC180B32463B4630
:101E200005F03AFD41EC1A0B0C9B5BB157EC1A6BB9
:101E3000A14B1AEE100A0022394605F075FE002863
:101E400040F05285504605F093FB53EC1A2B05F0F9
:101E5000F9FB9A4B002205F03FFA079B8046A1F15F
:101E60005079002B00F0F383059B1093079B0E9392
:101E70000A9B002B00F0C0840E9A8D4B9049DDF830
:101E800000A003EBC20353E90223002005F004FD88
:101E900042464B4605F01EFA59EC1A8B41EC180BE2
:101EA00049461AEE100A05F07DFE074605F060FB74
:101EB00002460B461AEE100A494605F00BFA303777
:101EC0000AF8017B53EC182B06460F4605F02CFE52
:101ED000002840F055854FF000080AEE105ACDF862
:101EE00044B055465BEC18AB08EE104A44462AE075
:101EF0000E9B01349C424BDA724B504659460022ED
:101F000005F0A0FB6F4B002282468B4630463946D7
:101F100005F098FB8946804605F044FE074605F02B
:101F200027FB02460B464046494605F0D3F93037B9
:101F300005F8017B52465B4606460F4605F0F4FD68
:101F4000002840F0188532463B465B49002005F0EA
:101F5000C1F952465B4605F0E7FD0028C8D0109B4A
:101F6000009A0593AA4618EE104A1AEE105A02E09B
:101F7000924500F0EA84D1461AF8013D392BF7D09A
:101F80000133DBB28AF80030059B01330593ABE1E6
:101F9000DDF844B01AEE105A18EE104A139B002BCD
:101FA000C0F29480059A0E2A00F39080404B03EB18
:101FB000C203D3E90089099B002B1BDA079B002B86
:101FC00018DC40F05D83404B00224046494605F056
:101FD00039FB02460B4651EC190B05F0AFFDDDF85D
:101FE0001CA05646002800F0D082099BDDF8008036
:101FF000DF43D2E242464B4651EC190B05F04CFC54
:1020000005F0D0FD0646834605F0B2FA42464B463F
:1020100005F018FB0B46024651EC190B05F05AF976
:10202000DDF800A0334630330AF8013B079B012B53
:1020300000F08E834FF0010B08EE105A08EE904A24
:102040001D465446DA461DE042464B463046394668
:1020500005F022FC05F0A6FD834605F089FA42460C
:102060004B4605F0EFFA0AF1010A0B4602463946E3
:10207000304605F02FF90BF13003AA4504F8013B77
:1020800000F061830F4B002205F0DCFA00220023F0
:1020900006460F4605F03EFD0028D5D0A24618EEB4
:1020A000105A18EE904A059B01330593D1461BE167
:1020B00060190108501A01080000F03F00001C40A0
:1020C0000000E03F00002440000014400A9A002A6B
:1020D0003FD0019A012A40F39C82079B03F1FF380D
:1020E0000B9B4345C0F26E82A3EB0808079B002BB5
:1020F000C0F26683049A1A440492089A17461A4456
:1021000008920121204601F077F9064625E00123D7
:10211000BE1B0C93731E04937FF5B1ADC6F1010392
:10212000089300230493ACE5584605F021FA424693
:102130004B4605F0EFFC00287FF489AD0BF1FF3B27
:1021400085E5874B0093009815B0BDEC068BBDE884
:10215000F08FDDF82C80089F0A9E002F0CDD049A7A
:10216000002A09DD0899BA421346A8BF3B46C91A9E
:10217000FF1AD31A089104930B9BDBB10A9B002B27
:1021800000F08282B8F1000F0FDD31464246204652
:1021900001F00EFA2A4601460646204601F05AF999
:1021A00029460546204601F01FF80B9BB3EB0802B9
:1021B00040F000830121204601F01EF9BBF1000F21
:1021C000824600F3B780019B012B40F386814FF0DC
:1021D00000080120BBF1000F40F0B880049A1044C1
:1021E00010F01F0000F09680C0F12003042B40F394
:1021F000F883089BC0F11C00034402440893074481
:102200000492089B002B05DD29461A46204601F062
:102210002FFA0546049B002B05DD51461A46204641
:1022200001F026FA82460C9B002B40F03781079B79
:10223000002B40F31E810A9B002B40F0A180059BE0
:1022400001330593DDF80080DDF81C90012707E0DD
:10225000294600230A22204600F0D0FF0137054618
:1022600051462846FFF7C0FB4F4500F1300008F803
:10227000010BEDDB079A002AC8BF9346009AD8BF2E
:102280004FF0010B034693440027294601222046C4
:10229000019301F0EDF95146054601F061FA00287D
:1022A00040F3A5811BF8013C009A0BF1FF3B04E0D1
:1022B0005A4500F0A7811BF8013D392B0BF10109AC
:1022C000F6D001338BF800305146204600F08CFFE9
:1022D00056B12FB1B74203D03946204600F084FFF3
:1022E0003146204600F080FF2946204600F07CFF62
:1022F000002389F80030DDE905231A60259B002BB7
:102300003FF448AC0098C3F8009015B0BDEC068BC4
:10231000BDE8F08F1C20089B03440893049B0344F2
:10232000074404936DE70126C2E4C0F1200008FAD7
:1023300000F059E401465A46204601F039F9019B64
:10234000012B824640F3D5814FF00008DAF81030B7
:102350000AEB8303186900F0FFFFC0F120003DE79E
:102360006C1C0108314600230A22204600F046FF7B
:102370000F9B002B064640F32383CDF81490079360
:10238000002F00F31881B8F1000F40F0FC81B04637
:10239000029B009F079903F001027B1E1944019BD9
:1023A0000A9213430891099351462846FFF71CFBF4
:1023B00031468346284601F0D3F9424651468146CC
:1023C000204601F0EFF9C26801460BF13003002A04
:1023D00042D104902846079301F0C2F90499029073
:1023E000204600F001FF029A079B1AB909990029BB
:1023F00000F0D682B9F1000FC0F28781019949EA55
:1024000001090A9951EA090100F07F81002A00F3CD
:10241000E781089A3B7007F101099742CB4600F02B
:10242000E581294600230A22204600F0E7FE4645C2
:10243000054631464FF000034FF00A02204612D005
:1024400000F0DCFE4146064600230A22204600F04A
:10245000D5FE4F468046A7E72046029300F0C4FE13
:10246000029B0122C6E700F0C9FE4F4606468046A1
:102470009AE7019B022B77DC0A9B002B80D1059BFE
:102480005146013328460593FFF7AEFADDF800B058
:1024900000F130030BF8013B0027F6E651462846D1
:1024A00001F05EF90028BFF6C2AE294600230A22D9
:1024B000204600F0A3FE059B03F1FF390A9B054669
:1024C000002B7FF44FAF0F9B002B40F370820793DC
:1024D000B8E6BD4B0093033305E4DDE902120029A1
:1024E0007FF475AEC2F31303002B7FF470AEB74BCD
:1024F0001340002B00F03D82089B01330893049B9E
:10250000013304934FF0010863E601230A93099B0A
:10251000059A13440F930133012B1F460793B8BF4D
:1025200001270021172F61647FF732AC01220423B9
:102530005B0003F11400B842114602F10102F7D921
:10254000616425E401230A93099F002F4ADD0F9758
:102550000797E6E700230A93D9E700230A93F3E7F6
:102560000F9BCDF814900793079B002B7FF43DAD94
:1025700051460522204600F041FE0146824628468B
:1025800001F0EEF800287FF730AD0098059F312369
:10259000804600F8013B013700905146204600F08C
:1025A00023FE7B1CDDF800900593CDF80080002E03
:1025B0007FF496AE98E631463A46204601F058F848
:1025C0000646E0E60B9BCDF82C80A8EB03039B446A
:1025D0004FF000088AE54FF0020AB0EE498AF0EEAB
:1025E000698A02E4012309930793FFF7CDBB03D166
:1025F000019BDB073FF556AED9461BF8013D302B5A
:10260000FAD061E6059B009A0133059331231370DC
:102610005AE60D9A002A00F0638103F23343049ACC
:10262000DDF82C801A440492089A17461A4408923E
:1026300067E5504604F09CFF53EC1A2B05F002F8B6
:10264000634B002204F048FE8046A1F15079614BB3
:10265000002251EC1A0B04F03DFE42464B46064662
:102660000F4605F07FFA002840F07F81304639465A
:10267000424609F1004305F057FA00283FF48EACBA
:102680004FF0000A5646B0E429460B9A204600F067
:102690008FFF05468EE50C9040E500F04E81059ACF
:1026A0004D4B564206F00F0203EBC203D3E9002361
:1026B00051EC190B04F0C6FF361141EC1A0B00F077
:1026C0008881464F00234FF0020AF20706D5D7E96A
:1026D000002304F0B7FF0AF1010A0123761007F185
:1026E0000807F2D1002B3FF49FAB41EC1A0BFFF728
:1026F0009BBB029B002B7FF427AEDDE90212C2F3E5
:102700001303002B3FF4F3AE1EE6002A12DD294628
:1027100001222046019300F0ABFF5146054601F02F
:102720001FF80028019B40F33581392B00F01381FD
:102730000BF13103B94609F8013B059B01333746DC
:1027400005934646C0E5A24618EE105A18EE904A88
:1027500002460B4604F0C0FD42464B4606460F4675
:1027600005F000FA60B942464B463046394605F05E
:10277000D1F900283FF497AC5FEACB717FF593ACB9
:10278000009AFFF7F8BB7168204600F007FD074686
:10279000002800F03A81336902339A0006F10C01F7
:1027A0000C3000F05DFC39460122204600F060FF4D
:1027B0008046EDE52946204600F0FAFE0546F9E49C
:1027C000DDE907239F1A9CE4701C01080000F07FDC
:1027D00000001C400000144060190108501A010854
:1027E000392B00F0B880B9460133A4E7059A0132CD
:1027F00037460592464648E50E988D4901EBC001E3
:1028000042464B4651E9020104F01CFF5AEC1A9B68
:1028100041EC180B51461AEE100A05F0C3F90746B1
:1028200004F0A6FE02460B461AEE100A514604F0CA
:1028300051FD06460E98DDF800803037012808F873
:10284000017B0F4600F0BA800E9B009ACDF838B09D
:1028500013449B46C246774B00223046394604F06B
:10286000F1FE8946804605F09DF9074604F080FE9A
:10287000303702460B464046494604F02BFD0AF825
:10288000017BDA4506460F46E5D1DA46DDF838B079
:10289000694B59EC188B002218EE100A494604F0D7
:1028A0001BFD32463B4605F03FF900286DD118EE7E
:1028B000102A4B466049002004F00CFD32463B468E
:1028C00005F050F900283FF469ABD1460AF1FF3A10
:1028D00019F8013C302BF8D0109B0133059303E528
:1028E000129BC3F136039AE6079B002B3FF4A1AE7F
:1028F0000F9B002B7FF752AB059A0E93013A4D4B7D
:1029000010921AEE100A3946002204F09BFE02468D
:1029100016460F460AF1010004F02AFE32463B46F5
:1029200004F090FE454B002204F0D6FC47EC1A6BF5
:102930008046A1F15079FFF79BBA4FF0020AB0EE42
:1029400049AAF0EE69AAFFF76FBA059B0133059318
:102950003123FFF717BB059BBB4601330593392392
:1029600037460BF8013B46469EE44FF0000A5646B8
:102970000BE698462DE4AA4618EE104A1AEE105AB5
:10298000109B01330593D146AEE4109B009A05934A
:10299000FFF7F1BA7FF4CEAEDA077FF5CBAEC4E62F
:1029A000392BD8D0B9F1000F3FF7C2AEC2E6019B78
:1029B000022B3FF7D5ADCDF8149060E5C24667E72E
:1029C000019B022B3FF7CCAD0F9BCDF814900793E2
:1029D000D6E44FF0020AFFF727BA194B0093FFF72E
:1029E000D9B83FF40EACC0F13C0094E40026666414
:1029F0003146204600F0D2FB009068B9114B1248D6
:102A000000224FF4D57101F0D5FE0E4B0E483A4628
:102A100040F2EA2101F0CEFE009B236401224FF038
:102A2000FF3309960F930A920793FFF7B7BA00BFD7
:102A300060190108000024400000E03F00001C4035
:102A4000741C0108801C0108941C0108F0307047B8
:102A500000487047300900200048704730090020C6
:102A60002DE9F04F01F10B06162E83B0044624D851
:102A7000102900F2BA8000F08DFB102618220220E7
:102A8000B74F3A44A2F1080153688B4200F0BA8074
:102A90005A68D96822F003021A449D68E9608D6083
:102AA000516841F001012046516003F1080500F032
:102AB00073FB284603B0BDE8F08F36F0070600F13F
:102AC0009480B14200F2918000F064FBB6F5FC7F87
:102AD000C0F09681730A00F08F80042B00F26B81A6
:102AE000B30903F1390003F1380CC3009C4F3B4498
:102AF000A3F108055B689D4206D10CE0002980F235
:102B00002B81DB689D4206D05A6822F00302911B9C
:102B10000F29F3DD60463D69DFF848C265457CD08A
:102B20006A6822F00302931B0F2B00F37781002BBE
:102B3000C7E904CC80F26881B2F5007F80F016818D
:102B4000D308796801334FEA521E012202FA0EF2CD
:102B50000A4357F833E0C5F808E007EBC30108392A
:102B6000E9607A6047F83350CEF80C5083100121A9
:102B70009940914257D8114206D120F003004900F4
:102B8000114200F10400FAD007EBC0094D46864619
:102B9000D5F80C80454508D119E1002B80F2208141
:102BA000D8F80C80454500F01281D8F8042022F0B6
:102BB0000302931B0F2BF0DD2046D8E9025408EBEB
:102BC000060146F00106C8F80460EC60A56043F019
:102BD0000104C7E90411C1E902CC4C6048F8023095
:102BE00000F0DAFA08F1080502E00C232360002562
:102BF000284603B0BDE8F08F4FF4007340204FF03B
:102C00003F0C73E7D3689A4208BF02307FF440AFAD
:102C10003D69DFF850C1654582D17A688310012192
:102C200099409142A7D9BD686B6823F003084645D7
:102C300003D8A8EB06030F2B7EDCDFF82C91D7F826
:102C40000824D9F800300132334405EB080A00F0BB
:102C50002F8103F580530F3323F47F6B2BF00F0B81
:102C60005946204600F0EAFF411C024600F0EF8082
:102C7000824500F2EA80D9F804105944C9F80410DA
:102C80000B4600F04B81D7F8081401311BBFA2EBB3
:102C90000A0A5344C7F80824C9F8043012F007039D
:102CA00000F01281C3F108010A44C3F58051934436
:102CB0000831A1EB0B01C1F30B0A514620460192EA
:102CC000009300F0BBFF421CDDE9003200F04B81B5
:102CD000831A03EB0A0BD9F80400BA604BF0010326
:102CE0000AEB0001BD425360C9F8041000F02281D4
:102CF000B8F10F0F40F220816B68A8F10C0020F0B2
:102D0000070003F0010303436B604FF0050C2B1821
:102D10000F28C3E901CC00F22D8153681546D9F87C
:102D20002C208A42D9F8302038BFC9F82C108A42AA
:102D300038BFC9F830108CE0AA1943F0010346F0FF
:102D400001066E602046BA60536000F025FA08352F
:102D5000284603B0BDE8F08FD9681A449DE600BF4D
:102D600030040020380400205C0D0020B2F5206FF4
:102D70004FEA522363D3142B00F2B88003F15C01B5
:102D8000C9005B3307EB010E7958AEF1080E8E4592
:102D900000F091804B6823F00303934202D98968C5
:102DA0008E45F7D1D1F80CE07A68C5E9021ECEF85D
:102DB0000850CD60DAE6142B59D9542B00F29E80CE
:102DC000330B03F16F0003F16E0CC3008EE60EF1BE
:102DD000010E1EF0030F05F108057FF4D9AE51E096
:102DE000424445465368D8F80C1043F00103536041
:102DF00055F8083F2046D9608B6000F0CDF9F7E622
:102E0000F00806F108023BE62A442046536843F0E6
:102E100001035360083500F0BFF9E9E6A91920461F
:102E200046F0010643F001046E60C7E90411C1E9F0
:102E300002CC4C60AB5000F0AFF90835D8E69309EE
:102E400003F13901C90038339CE7BD4260D0BD6849
:102E50006B6823F0030B5E45ABEB060302D80F2B28
:102E60003FF76AAF204600F097F90025C0E603F16E
:102E70005C0003F15B0CC30038E659F808394B4598
:102E800040F0968010F0030F00F1FF30F5D17B6821
:102E900023EA01037B60490099423FF6C4AE19B9A9
:102EA000C1E649000EF1040E1942FAD070466BE6F5
:102EB00003F1100BD4E69A104FF001087B6808FA72
:102EC00002F21A437A6070E702EB0B014942C1F348
:102ED0000B0A514620460193009200F0AFFE431CBE
:102EE000DDE900237FF4F4AE9A46F4E6542B26D8AD
:102EF000130B03F16F01C9006E3343E7B3F5AA7FEB
:102F000026D8F30B03F1780003F1770CC300EDE54D
:102F1000D9F804305B44C9F80430B4E6CAF30B00B6
:102F200000287FF4B0AEBD6808EB0B0343F001034B
:102F30006B60F4E61546F2E60123536092E7B3F5C1
:102F4000AA7F21D8D30B03F17801C900773319E7A1
:102F500040F25452934221D8B30C03F17D0003F1A7
:102F60007C0CC300C2E5083B9B44ABEB020B4FF06B
:102F7000000AB0E605F10801204601F0E3FCBD6857
:102F8000D9F804106B68CAE640F254518B420BD852
:102F9000930C03F17D01C9007C33F3E64FF47E739B
:102FA0007F204FF07E0CA1E54FF47E717E23E9E691
:102FB0007B6870E7000000000000000000000000D7
:102FC00001F0FF01102A2BDB10F0070F08D010F8DA
:102FD000013B013A8B422DD010F0070F42B3F6D1DE
:102FE000F0B441EA012141EA014122F007047FF0F7
:102FF00000070023F0E80256083C85EA010586EA4E
:10300000010685FA47F5A3FA87F586FA47F6A5FA89
:1030100087F68EB9EED1F0BC01F0FF0102F0070295
:1030200032B110F8013B013A83EA010313B1F8D140
:103030000020704701387047002D06BF3546033821
:10304000073815F0010F07D1013015F4807F02BF5A
:10305000013015F4C03F0130F0BC0138704700BFAB
:10306000844641EA000313F003036DD1403A41D393
:1030700051F8043B40F8043B51F8043B40F8043B52
:1030800051F8043B40F8043B51F8043B40F8043B42
:1030900051F8043B40F8043B51F8043B40F8043B32
:1030A00051F8043B40F8043B51F8043B40F8043B22
:1030B00051F8043B40F8043B51F8043B40F8043B12
:1030C00051F8043B40F8043B51F8043B40F8043B02
:1030D00051F8043B40F8043B51F8043B40F8043BF2
:1030E00051F8043B40F8043B51F8043B40F8043BE2
:1030F000403ABDD2303211D351F8043B40F8043B82
:1031000051F8043B40F8043B51F8043B40F8043BC1
:1031100051F8043B40F8043B103AEDD20C3205D391
:1031200051F8043B40F8043B043AF9D2043208D089
:10313000D2071CBF11F8013B00F8013B01D30B88FB
:1031400003806046704700BF082A13D38B078DD0D9
:1031500010F003038AD0C3F10403D21ADB071CBFAB
:1031600011F8013B00F8013B80D331F8023B20F815
:10317000023B7BE7043AD9D3013A11F8013B00F84E
:10318000013BF9D20B7803704B7843708B788370D6
:1031900060467047704700BF704700BFC36C70B592
:1031A00005460C464BB153F8240080B1026843F841
:1031B00024200023C0E9033370BD2122042101F043
:1031C0001FFB0346E8640028EDD1002070BD0121FB
:1031D00001FA04F6721D9200284601F011FB002846
:1031E000F3D0C0E90146E4E731B1C36C4A6853F853
:1031F0002200086043F82210704700BFF0B50C6948
:10320000064683B00D4601F1140E0020DEF80010D2
:103210001FFA81FC02FB0C334FEA134C090C02FB32
:1032200001CC01309BB203EB0C4384424EF8043BCB
:103230004FEA1C43EADC3BB1AA68A24207DD05EB7A
:103240008402013453612C61284603B0F0BD6968E3
:10325000019301313046FFF7A1FF019B0746B8B14A
:103260002A690193023205F10C0192000C30FFF73C
:10327000F7FEF26C6968019B52F82100286042F861
:1032800021503D4605EB8402013453612C61DBE79C
:10329000024B03483A46B52101F08CFA801C010824
:1032A000C81C01082DE9F8430C4628491F4616465C
:1032B00003F1080281FB0231092F4FEAE273054650
:1032C000C3EB610339DD4FF0010C00214FEA4C0CD8
:1032D000634501F10101F9DC2846FFF75FFF014674
:1032E00068B3089B4361092E4FF00103036112DCB0
:1032F0000A340926B7420BDDBE1B264414F8013BF5
:103300000A22303B2846FFF779FFA6420146F5D155
:103310000846BDE8F88304F10909C846344418F8A2
:10332000013B0A22303B2846FFF768FFA0450146D3
:10333000F5D1A6F108044C44DCE70021CCE70A46AD
:10334000034B0448CE2101F035FA00BF398EE33833
:10335000801C0108C81C0108030C1B04D3B900041D
:10336000102310F07F4F04BF0002083310F0704F9D
:1033700004BF0001043310F0404F04BF800002334B
:10338000002805DB10F0804F03F1010308BF202364
:10339000184670470023E4E7036813F0070201466C
:1033A00007D0DA071FD4980721D55B080B600120EE
:1033B000704798B2A0B11046DAB20AB908301B0AB9
:1033C0001A0704BF1B0904309A0704BF9B08023088
:1033D000DA0703D45B0800F1010006D00B607047E8
:1033E0001B0C1020E8E700207047202070479B0846
:1033F0000B600220704700BF38B5C36C04460D4611
:103400004BB15868B0B102685A6000220123C0E98C
:103410000435C26038BD2122042101F0F1F90346D0
:10342000E0640028EDD1094B094800224FF4A07157
:1034300001F0C0F91C220121204601F0E1F9002829
:10344000F1D001220223C0E90123DEE7801C01083C
:10345000C81C01082DE9F04F0E691569AE4285B010
:103460008846144605DB2A46234635460C46164652
:103470009846A3686168AF19BB42B8BF0131FFF736
:103480008DFE0190002800F08780019B03F1140954
:1034900009EB870AD14505D24B46002243F8042B9D
:1034A0009A45FBD808F1140808EB860B04F11403C5
:1034B000D8451A4603EB85055FD22B1B153B23F03D
:1034C000030304331534A54238BF0423CDE902A712
:1034D000AC461F46924605E0000C29D1C34509F1D0
:1034E000040948D958F8040B85B2002DF4D056468B
:1034F0004C46002356F8040B216882B21FFA81FE65
:1035000005FB02EE000C0A0C734405FB002202EBE3
:1035100013429BB243EA0243B44544F8043B4FEAEA
:103520001243E7D849F8073058F8040C000CD5D0FE
:10353000D9F80030544619464D4600222688090C19
:1035400000FB06110A449BB243EA024345F8043BE0
:1035500054F8046B2968360C8BB200FB063303EB7E
:103560001243A4454FEA1342E8D8C34549F807304F
:1035700009F10409B6D8DDE902A7002F02DC05E055
:10358000013F03D05AF8043D002BF9D0019B1846A7
:103590001F6105B0BDE8F08F034B0448019A40F26B
:1035A0005D1101F007F900BF801C0108C81C01086B
:1035B00012F003032DE9F0411446064632D10D46C0
:1035C000A41020D0D6F84880B8F1000F33D0E3071C
:1035D0004FF0000707D4641015D0D8F80000A8B148
:1035E0008046E307F7D5424629463046FFF732FFCB
:1035F000B5B16968F36C641053F821202A6043F870
:1036000021500546E9D12846BDE8F08142464146B1
:103610003046FFF71FFFC8F8000007608046E0E76C
:103620000546D8E7013B0F4A52F823200023FFF755
:10363000E5FD0546C4E701213046FFF7AFFD8046B2
:1036400040B1012340F27122C0E904320023B0648A
:103650000360BCE7044B054842464FF4A07101F0FB
:10366000A9F800BF50190108801C0108C81C0108F6
:103670002DE9F0470C4690462669A368496806EB99
:103680006216751C9D4207464FEA621904DD5B0015
:103690009D4201F10101FADC3846FFF77FFD8446C7
:1036A000002851D0B9F1000F00F114000EDD09F12E
:1036B00005024FEA820E03460CEB8202002143F81A
:1036C000041B9342FBD1AEF114031844216904F1A9
:1036D000140318F01F0803EB81012DD0C8F1200955
:1036E00086464FF0000A1A6802FA08F242EA0A0215
:1036F0004EF8042B53F8042B994222FA09FAF2D817
:103700000B1B153B23F00303043304F11502914214
:1037100038BF0423BAF1000F18BF2E4640F803A0AB
:10372000FB6C6268CCF8106053F822102160604690
:1037300043F82240BDE8F087043853F8042B40F8E2
:10374000042F9942F9D8EBE7034B0448624640F254
:10375000D91101F02FF800BF801C0108C81C010816
:103760000B6984460069C01A16D10CF1140C14318F
:103770000CEB830210B401EB830301E0944508D203
:1037800052F8044D53F8041D8C42F7D005D24FF087
:10379000FF305DF8044B7047704701205DF8044B23
:1037A000704700BF2DE9F84F0F691369FF1A002F0A
:1037B0000E4690467AD101F11405143202EB8302D1
:1037C00005EB830301E09D4273D253F8041D52F8C8
:1037D000044DA142F7D064D37168FFF7DFFC814646
:1037E000002872D03569D8F81020C76008F1140E8F
:1037F00006F1140009F1140A06F1100C0EEB820216
:1038000000EB8507564600215EF8044B5CF804BFC8
:10381000A3B211FA8BF1CB1A210CC1EB1B4101EBC6
:1038200023419BB243EA0143724546F8043B4FEA09
:103830002141E9D8A2EB0804153C08F115084245DE
:1038400024F0030606F1040638BF0426304424F0B1
:10385000030238BF002287425244B24416D956466A
:10386000044654F8043B11FA83F10A1402EB1342A4
:1038700089B241EA0243A74246F8043B4FEA22419B
:10388000EFD87A1E101A20F00302524423B952F8DE
:10389000043D013D002BFAD0C9F810504846BDE860
:1038A000F88F334601274646984695E7F9DB00270F
:1038B00092E70021FFF772FC814668B101220023E4
:1038C000C9E904234846BDE8F88F074B07484A4634
:1038D0004FF4107100F06EFF034B04484A4640F26B
:1038E000322100F067FF00BF801C0108C81C0108DE
:1038F00082B08DED000B154B019A1340A3F150736C
:10390000002B05DD0020194641EC100B02B070477A
:103910005B42B3F1A07F4FEA235208DA4FF4002351
:10392000002043FA02F141EC100B02B07047143A48
:103930001E2ADABF4FF0004323FA02F201220021CF
:10394000104641EC100B02B0704700BF0000F07F42
:10395000F8B5046900F1140606EB8404271F54F837
:10396000045C2846FFF7F8FCC0F120030A280B602E
:1039700031DDBE421BD20B3854F8081C23D0C0F1F5
:10398000200C854021FA0CF72F43A4F1080547F0DD
:103990007F53AE4243F4401336D2814054F80C0CAE
:1039A00020FA0CF00843024643EC102BF8BD0B380C
:1039B00008D005FA00F040F07F53002043F4401394
:1039C0000246F1E7014645F07F5343F440130A46AF
:1039D00043EC102BF8BDC0F10B0C25FA0CF1BE42E4
:1039E00041F07F5338BF54F8081C00F1150034BF74
:1039F00021FA0CF1002105FA00F043F4401340EAEB
:103A0000010243EC102BF8BD01FA00F00246CBE7AF
:103A10002DE9F043884683B0012157EC106B154621
:103A2000FFF7BCFB044600284FD0C7F30A59C7F381
:103A30001303B9F1000F01D043F48013002E01935A
:103A400024D068460096FFF7A7FC002839D0DDE9AE
:103A50000013C0F1200203FA02F20A43C34062617C
:103A60000193002B14BF02220122A3612261B9F14C
:103A7000000F16D0A9F233430344C0F13500C8F853
:103A800000302860204603B0BDE8F08301A8FFF7AE
:103A900083FC019B6361012220302261B9F1000F98
:103AA000E8D104EB8203A0F23240C8F800001869A4
:103AB000FFF752FCC0EB42102860204603B0BDE87F
:103AC000F083009B6361019BCBE7034B03482246D5
:103AD00040F20A3100F06EFE801C0108C81C01088B
:103AE0002DE9F04383B00E4669460746FFF730FFE5
:103AF00001A9304655EC104BFFF72AFF3B693169AD
:103B0000591ADDE90023D31A03EB4113002B51ECC2
:103B1000100B0DDD05EB03594D4602460B462046C2
:103B2000294603F0B9FE41EC100B03B0BDE8F08369
:103B3000C3EB033301EB03573946EEE7172870B5A3
:103B400006460CDD0A490B4D0020002422462B4678
:103B500003F078FD013EF9D141EC100B70BD064B2E
:103B600003EBC006D6E9040141EC100B70BD00BFA9
:103B70000000F03F000024405019010801394911AC
:103B800001F1010C116902F1140303EB81018B4275
:103B900000EB8C0C16D210B5A0F1040E53F8044BB8
:103BA0004EF8044F9942F9D88B1A153B23F00303C2
:103BB00004331844844504D9002340F8043B844569
:103BC000FBD810BD844505D9002340F8043B84454B
:103BD000FBD87047704700BF03694A11934200F158
:103BE000140009DA00EB830302E053F8042DCAB98C
:103BF0008342FAD80020704711DD11F01F010ED06A
:103C000010B450F8224000EB820324FA01F202FAC9
:103C100001F18C420CD001205DF8044B704700EBA1
:103C20008203E5E70120704753F8042D002AF2D102
:103C30008342F9D800205DF8044B704738B5074D32
:103C40000022044608462A6003F028FB431C00D0EB
:103C500038BD2B68002BFBD0236038BD900D0020B1
:103C60002DE9F04F936883B09146002B6ED0176812
:103C70008D6880460C460868083744E0A38913F431
:103C8000906F2ED0D4E90415A0EB010A05EB450591
:103C900005EBD5750AEB06006D100130A8422A46E7
:103CA00084BF05462A465B0537D511464046FEF7D8
:103CB000D7FE00283BD0524621690190FFF7D0F98A
:103CC000A289019B22F4906242F08002A281A5EBBE
:103CD0000A0203EB0A006561A26023612060354699
:103CE000B2465946524600F099FFA068D9F808102C
:103CF0002368451B8E1B03EB0A00A5602060C9F8F2
:103D000008601EB3083757E902B6002EFAD0B54254
:103D1000AA46B3D93546B246E3E7404600F0FAFF7B
:103D200003460028D3D12169404600F00BFE0C2346
:103D3000C8F80030A389002243F040034FF0FF3061
:103D4000A381C9E9012203B0BDE8F08F0020C9F8C2
:103D5000040003B0BDE8F08F2DE9F04FABB017467B
:103D600006938B891A068846834603D50B69002B78
:103D700000F0A4841AAB0D930023CDE90E33099310
:103D80000DF1680903935E463B78002B00F0358106
:103D90003C4604E014F8013F002B00F05681252B2F
:103DA000F8D1E51B40F053812378002B00F02581EA
:103DB00000214FF0000263788DF82F20671C084621
:103DC0004FF0FF3B05918A460137A3F12002582AA4
:103DD00000F25781DFE812F0AA0255015501A60250
:103DE0005501550155015501550155019C02980297
:103DF000550135017F0255017B02590059005900D8
:103E000059005900590059005900590055015501F0
:103E100055015501550155015501550155015501F2
:103E200061025501550155015501550155015501D5
:103E30005501550155012201550155015501550105
:103E400055016800550155011502550155015501EF
:103E50005501550155015501550155015501060200
:103E600084015501550155015D028401550155013B
:103E7000530255013D0224012C02E1015501C0010C
:103E800055016A0055015501E501A3F130020024F6
:103E900017F8013B04EB840402EB4404A3F1300265
:103EA000092AF5D9059490E74AF0100A1AF0200182
:103EB00000F00881069B073323F00703596853F885
:103EC000080B069301234FF000028DF82F200022EB
:103ED0000792BBF1FF3F00F032822AF0800202928B
:103EE00050EA010240F02982BBF1000F40F00D843E
:103EF000002B40F08A831AF00103049300F08783BB
:103F000030238DF867300DF16704049B079A5B45F9
:103F1000B8BF5B4601930AB101330193029B13F0D2
:103F20000203079302D0019B02330193029B13F01B
:103F30008403089305D1059B019A9D1A002D00F377
:103F4000CC82DDE90E219DF82F0080B101320DF108
:103F50002F000131C9F80000072A4FF00100CDE918
:103F60000E21C9F8040000F3F28209F10809079B49
:103F70007BB101320CAB0231C9F80030072A4FF097
:103F80000203CDE90E21C9F8043000F3ED8209F1F6
:103F90000809089B802B00F00882049BABEB03050B
:103FA000002D00F34582049BC9F8004001321944FA
:103FB000072ACDE90E21C9F8043000F3798209F10E
:103FC0000809029B5B0705D5059B019A9C1A002CEA
:103FD00000F3D782039B059A01988242ACBF9B18DD
:103FE0001B180393002940F06F8200230E933B7847
:103FF0000DF16809002B7FF4CBAE0F9B002B40F036
:10400000A083B8F80C3013F0400F039B18BF4FF09B
:10401000FF33039303982BB0BDE8F08F4AF0100AEA
:104020001AF0200141D0069B073323F0070359689B
:1040300053F8080B0693002345E7059A5242CDE951
:1040400005233B784AF0040ABEE6E51BD5D00F9B5A
:104050002B440F930E9B0133072BC9E900750E9378
:1040600005DC09F10809039B2B4403939CE60DAA88
:1040700041463046FFF7F4FD0028C2D10DF1680932
:10408000F1E7002940F06383002BB6D08DF8403073
:104090004FF000038DF82F3001230193049310ACEF
:1040A000CDF808A04FF0000B38E71AF0100347D105
:1040B0001AF0400144D0069A52F8040B06921946B1
:1040C00080B200E71AF0100340D11AF040013DD051
:1040D000069A52F8040B0692194680B20123F2E6C2
:1040E000002940F04B831AF0200F069B00F0DF8080
:1040F000073323F007031A465B6852F8080B069251
:104100001946002BC0F28F82BBF1FF3F00F0F9820D
:104110009DF82F30079350EA01032AF0800A00F03F
:104120006E820A2871F1000380F0938230300123FF
:104130008DF86700CDF808A004930DF16704E4E65C
:10414000069B53F8040B06930B46BCE6069B53F8FC
:10415000040B06930123B6E6069D55F8044B4FF079
:1041600000038DF82F30002C00F0E282BBF1FF3FFE
:1041700000F097825A4600212046FEF721FF0028D2
:1041800000F0E882031B04939DF82F300695CDF8CC
:1041900008A007934FF0000BB7E63B784AF0200ADF
:1041A00012E6002940F0ED82A74A09921AF0200198
:1041B0002FD0069A073222F00702516852F8080BF6
:1041C00006921AF0010F0BD050EA010208D08DF8C8
:1041D000313030238DF830304AF0020A022372E683
:1041E000022370E6069B4FF000028DF82F2053F853
:1041F000042B069301238DF840200193049310AC07
:104200004EE7002940F0B182904A09921AF020014D
:10421000CFD11AF0100240F0FC811AF0400100F0FA
:10422000F881069C54F8040B0694114680B2C8E746
:10423000069B53F8040B069330238DF83030782317
:104240008DF83130804B09934AF0020A0021022395
:1042500039E6002940F08C821AF0200F40F01782D6
:104260001AF0100F40F038821AF0400F00F034823C
:10427000069B039953F8042B0693118084E53B7841
:104280006C2B03BF7B784AF0200A01374AF0100AF2
:104290009AE53B784AF0400A96E5002940F06B82A7
:1042A0004AF0100A1AF0200F069B7FF421AF53F852
:1042B000040B06931AF0100F40F0B0811AF0400F73
:1042C00000F0AC8140F3C0310B4600B219E73B78F7
:1042D0004AF0800A78E53C4614F8013B2A2B00F0AE
:1042E0005382A3F13002092A27464FF0000B3FF614
:1042F0006CAD17F8013B0BEB8B0B02EB4B0BA3F1F7
:104300003002092AF5D960E53B7801212B205BE5D5
:10431000069B53F8042B0592002AFFF68EAE0693F7
:104320003B7851E53B784AF0010A4DE53B7800289F
:104330007FF44AAD0121202046E5DDF808A0012BDD
:104340003FF4EFAE022B1AAC12D1099A00F00F0322
:104350000009D35C04F8013D40EA0170090950EA04
:104360000103F3D11AAB1B1BCDF808A00493CCE5D5
:1043700000F00703C00840EA4170C908303350EA32
:104380000105224604F8013DF2D11AF0010FE9D0EF
:10439000302BE7D03023023A04F8013C1AAB9B1AC9
:1043A000CDF808A004931446AFE5059B01981D1AAB
:1043B000002D7FF7F2AD102DDFF894A025DD5046DB
:1043C0001023A246044604E0103D102D09F108090F
:1043D00018DD01321031072AC9E90043CDE90E2169
:1043E000F2DD0DAA414630460DF16809FFF738FCB1
:1043F00000287FF406AE103D102DDDE90E214FF0B0
:104400001003E6DC234654469A4601322944072A23
:10441000CDE90E21C9F800A0C9F8045000F37B8152
:10442000049BABEB0305002D09F108097FF7BBAD39
:10443000102DDFF81CA02DDD0B4651464FF0100B60
:10444000A2460C460BE000BF3C1C0108501C0108B2
:10445000881A0108103D102D09F1080916DD0132F6
:104460001033072AC9E9004BCDE90E23F2DD0DAA6E
:1044700041463046FFF7F4FB00287FF4C2AD103D03
:10448000102DDDE90E230DF16809E8DC19462346FD
:1044900054469A4601322944072ACDE90E21C9F82B
:1044A00000A0C9F8045000F3C78009F108097AE5B3
:1044B0000DAA41463046FFF7D3FB00287FF4A1AD9B
:1044C0000F990DF168097CE50DAA41463046FFF7CA
:1044D000C7FB00283FF489AD93E5102DDDE90E21DF
:1044E000DFF8CCA225DD50461023A246044604E0A6
:1044F000103D102D09F1080918DD01321031072A8D
:10450000C9E90043CDE90E21F2DD0DAA414630464E
:104510000DF16809FFF7A4FB00287FF472AD103D90
:10452000102DDDE90E214FF01003E6DC2346544642
:104530009A4601322944072ACDE90E21C9F800A084
:10454000C9F8045000F3D08009F10809FBE40DAA72
:1045500041463046FFF784FB00287FF452ADDDE989
:104560000E210DF1680902E50DAA41463046FFF71C
:1045700077FB00287FF445ADDDE90E210DF16809D8
:1045800007E5102C0E9BDFF828A225DD0A465146D0
:104590001025BA460F4604E0103C102C09F108091A
:1045A00016DD01331032072BC9E90075CDE90E3253
:1045B000F2DD0DAA41463046FFF752FB00287FF49A
:1045C00020AD103C102CDDE90E320DF16809E8DC5D
:1045D00011463A465746924601332144072BC9E912
:1045E00000A4CDE90E317FF7F5AC0DAA4146304667
:1045F000FFF736FB00287FF404AD0F99EAE4BBF126
:10460000000F7FF493ADCDF808A0CDF810B01AAC30
:104610007BE4069A52F8040B0692D2E5C1170B46CA
:10462000002BBFF671AD2D2340428DF82F3007933C
:1046300061EB410101234CE40DAA41463046FFF7EE
:104640000FFB00287FF4DDACDDE90E210DF16809D8
:10465000A9E41AAC019727460A22002304460D4616
:1046600003F0E8FA303207F8012D002320462946EE
:104670000A2203F0DFFA0A2C75F10003ECD23C4663
:104680001AAB1B1B019FCDF808A004933DE4069BC9
:10469000039853F8041B0693C217C1E90002FFF701
:1046A00073BB20460695CDF808A0FBF769FE9DF880
:1046B0002F30049007934FF0000B26E44021FEF7C3
:1046C000CFF9C8F80000C8F81000002866D04023D1
:1046D000C8F81430FFF74EBB069B039953F8042B20
:1046E00011600693FFF750BB0DAA41463046FFF715
:1046F000B7FA00287FF485ACDDE90E210DF16809D9
:1047000021E49DF82F3007930BE5012BDDF808A07D
:104710007FF418AE0AE50DAA41463046FFF7A0FA2D
:1047200000287FF46EACDDE90E210DF1680934E458
:104730005B46062B28BF06231C4C04930695019369
:10474000AEE40DAA41463046FFF78AFA59E48DF8E7
:104750002F0099E49DF82F30CDF810B00695CDF8D4
:1047600008A083460793FFF7D0BB8DF82F004BE5D9
:104770008DF82F0070E58DF82F0091E58DF82F0052
:10478000B1E48DF82F000FE5069A7B78274652F8A2
:10479000044B069244EAE47BFFF716BB0C23CBF8EC
:1047A00000304FF0FF33039334E400BF641C010872
:1047B000781A010800B50B4C25681446EE681A46B5
:1047C00085B003460D464CB107490095CDE901146B
:1047D0003046064900F052F801F024FD04490C4629
:1047E000F3E700BF00000020FC1C01080C1D0108BD
:1047F000081D010808B513460022FFF7DBFF00BFC4
:1048000010B502FB01F1FEF72BF9044668B150F830
:10481000042C22F00302043A242A18D8132A06D8BA
:1048200002460023C2E900339360204610BD0023F6
:104830001B2AC0E900330FD9242AC0E9023311BF73
:1048400000F11002036100F118024361E9E7002161
:10485000FBF73AFD204610BD00F10802E1E700BF7A
:104860000CB400B583B004AB53F8042B019300F0F3
:10487000FDFD03B05DF804EB02B070470EB410B557
:1048800083B005AB064C53F8042B01930146206816
:1048900000F0ECFD03B0BDE8104003B0704700BF6E
:1048A00000000020F8B5244F0C460646FEF772FCC7
:1048B000BA685568C4F57E630F3325F003052B44B1
:1048C00023F47F6323F00F03A3F58054B4F5805FD6
:1048D00007DB00213046FFF7B1F9BB682B44984253
:1048E00004D03046FEF758FC0020F8BD6142304647
:1048F000FFF7A4F901300DD0104ABB682D1B45F01D
:1049000001055D60136830461B1B1360FEF744FC15
:104910000120F8BD00213046FFF790F9BA68831AEC
:104920000F2BDEDD43F001035360054B03491B6889
:10493000C01A0860D5E700BF30040020600D0020D9
:1049400038080020002961D0F8B50C460646FEF76D
:1049500021FC54F8042C7B4FA4F1080522F001013E
:1049600005EB010CB868DCF80430604523F0030364
:1049700000F08B80D207CCF8043032D454F8082CE5
:10498000AD1A1144AA6807F1080082426AD00CEB04
:104990000304D4F804E0EC68D4601EF0010FA260B8
:1049A00000F0978041F001036B60CCF80010B1F586
:1049B000007F35D27A68CB08480901210133814054
:1049C0001143796007EBC30257F83310083AC5E981
:1049D000021247F83350CD603046BDE8F840FEF78C
:1049E000DBBB0CEB03025268D00710D4194407F16B
:1049F0000800DCF80830834273D0DCF80C20DA6061
:104A0000936041F001036B606950D0E7704741F05B
:104A10000103B1F5007F44F8043CCCF80010C9D381
:104A2000B1F5206F4FEA512348D28B0903F13900C9
:104A300003F13802C300F818FB580838984259D0DF
:104A40005A6822F003028A4202D99B689842F7D141
:104A5000D868C5E902308560DD603046BDE8F840C1
:104A6000FEF79ABB0CEB03025268D20763D40B44E7
:104A7000DCE90212CA60916043F001026A603046CC
:104A8000EB50BDE8F840FEF787BB0B44D10707D4D5
:104A900054F8082CAD1A1344D5E90212CA6091608B
:104AA00043F001026A60284ABD6012689A4293D8B6
:104AB000264B30461968FFF7F5FE8DE7142B0AD90F
:104AC000542B1FD80B0B03F16F0003F16E02C300D0
:104AD000B1E719448DE703F15C0003F15B02C30009
:104AE000A9E741F00103C7E90455C5E902006B607D
:104AF000695071E779689210012404FA02F20A43BE
:104B00007A60A6E7B3F5AA7F06D8CB0B03F178004D
:104B100003F17702C3008EE740F25452934206D865
:104B20008B0C03F17D0003F17C02C30083E74FF49B
:104B30007E737E227FE741F001036B60CCF80010AA
:104B40004AE700BF300400203C0800205C0D002034
:104B500042B110B50B491046144600F0D5FA18B909
:104B6000094810BD084870470749204600F0CCFAB4
:104B70000028F5D00549204600F0C6FA0028EFD0FD
:104B8000002010BD401D01083C1D0108081D010842
:104B9000014B93F8280170474008002041B110B53F
:104BA0000C4620460A4900F0AFFA18B9094810BD72
:104BB000084870470749204600F0A6FA0028F5D0BB
:104BC0000549204600F0A0FA0028EFD0002010BDD3
:104BD000401D01083C1D0108081D010810B4034CCC
:104BE000D4F8E440A4465DF8044B60474008002038
:104BF00082B049B15AB16BB113780B601278101EB4
:104C000018BF012002B0704701A9002AF3D1104655
:104C100002B070476FF00100F4E700BF88420DD981
:104C20008B1883420AD900EB020CBAB1624613F822
:104C300001CD02F801CD9942F9D170470F2A0ED863
:104C4000034602F1FF3C4AB10CF1010C013B8C44DC
:104C500011F8012B03F8012F6145F9D1704740EAA3
:104C600001039B0750D1A2F1100370B501F1200C94
:104C700023F00F0501F1100E00F11004AC441B09E4
:104C80005EF8105C44F8105C5EF80C5C44F80C5C58
:104C90005EF8085C44F8085C5EF8045C44F8045C68
:104CA0000EF1100EE64504F11004E9D1013312F0C3
:104CB0000C0F01EB031102F00F0400EB031327D0DC
:104CC000043C24F003064FEA940C1E441C1F8E463D
:104CD0005EF8045B44F8045FB442F9D10CF10104BE
:104CE00002F0030203EB840301EB840102F1FF3CB9
:104CF0004AB10CF1010C013B8C4411F8012B03F873
:104D0000012F6145F9D170BD02F1FF3C03469BE7DD
:104D10002246EBE72DE9F84F1746002900F098806E
:104D200007F10B0580460C46FEF734FA162D5DD8C8
:104D300010252A46AF425ED854F8041C21F0030621
:104D40009642A4F1080962DABC4BD3F808C009EB1B
:104D50000600844500F09780D0F804C02CF00103D1
:104D600003445B68DB0768D42CF0030C06EB0C03F0
:104D7000934247DACB0710D454F8083CA9EB030A56
:104D8000DAF8043023F003018C44B444944580F2F3
:104D900011817318934280F2E88039464046FDF74E
:104DA0005FFE0746E0B154F8043C23F001034B4496
:104DB000A0F10802934200F0D280321F242A00F2B0
:104DC000F580132A00F2AC80034622461168196070
:104DD0005168596092689A6021464046FFF7B2FDDB
:104DE0004046FEF7D9F93846BDE8F88F25F00705AB
:104DF000002D2A469EDA0C23C8F8003000273846DA
:104E0000BDE8F88F1E46D0E90223D3609A60731B79
:104E10000F2B22D8D9F8043003F0010333434E445A
:104E2000C9F80430736843F00103736040462746B5
:104E3000FEF7B2F93846BDE8F88FC907ADD454F88B
:104E4000083CA9EB030ADAF8041021F00301A0E7FB
:104E5000BDE8F84F1146FDF703BED9F8041001F084
:104E600001012943C9F8041009EB05014E4443F040
:104E700001034B60736843F00103083173604046DF
:104E8000FFF760FDD2E7DCF8040020F0030B06EB2F
:104E90000B0C05F1100084454DDAC9073FF57DAFD5
:104EA00054F8081CA9EB010ADAF8041021F00301F8
:104EB0008B44B34458453FF76CAF5746DAF80C10B3
:104EC00057F8080F321F242AC160886000F2DB8087
:104ED000132A40F2D6802168CAF808106168CAF81F
:104EE0000C101B2A00F2DF8008340AF1100221683E
:104EF000116061685160A16891600AEB0501ABEB3C
:104F0000050242F0010299604A60DAF8043003F0C9
:104F100001031D434046CAF80450FEF73DF96EE711
:104F200023680360636843601B2A68D804F10802A1
:104F300000F108034AE709EB05029A60ACEB0503B0
:104F400043F00103536054F8043C03F001031D4394
:104F5000404644F8045CFEF71FF927464FE750F837
:104F6000043C23F003031E4451E75746DAF80C10C3
:104F700057F8080F321F242AC16088604CD8132AC2
:104F800048D92168CAF808106168CAF80C101B2AB1
:104F900056D808340AF110021E462368136063686D
:104FA0005360A3689360D1463C4630E72146FFF743
:104FB00035FE11E7D0E902135746CB60996057F8E8
:104FC000081FDAF80C30CB60321F242A99602DD8E4
:104FD000132A29D92368CAF808306368CAF80C3044
:104FE0001B2A42D808340AF1100322681A6062684A
:104FF0005A60A2689A606646D1463C4607E7A368B5
:105000008360E368C360242A26D004F1100200F113
:105010001003DBE63A46BFE7214638461E46D14636
:10502000FFF7FCFD3C46F2E63B46DEE7214638460C
:105030006646D146FFF7F2FD3C46E8E63004002024
:10504000A168CAF81010E168CAF81410242A20D008
:1050500010340AF118029FE7236903616169416115
:1050600004F1180200F11803B0E6A368CAF8103082
:10507000E368CAF81430242A21D010340AF1180346
:10508000B3E73A4633E721463846FFF7C7FD164BEC
:1050900033E72269CAF818206269CAF81C2018345C
:1050A0000AF1200278E7A168CAF81010E168CAF88E
:1050B0001410242A0DD010340AF1180217E72369BE
:1050C000CAF818306369CAF81C3018340AF1200392
:1050D0008BE72269CAF818206269CAF81C201834C4
:1050E0000AF1200203E700BF3004002000000000A6
:1050F00000000000000000000000000000000000B0
:10510000A2EB0300704700BF02780B78012A28BF8A
:105110009A42F5D16DE9044540EA0104CDE9026700
:105120006FF0000C4FEA447212B380EA010414F0ED
:10513000070F6AD100F0070420F0070004F0030510
:1051400021F007014FEAC505F0E8042314F0040F2D
:10515000F1E804670CFA05F462EA040266EA040660
:105160000AD063EA0403624667EA0407664603E07E
:10517000F0E80423F1E8046782FA4CF582EA0604B9
:10518000A4FA8CF46CBB83FA4CF583EA0705A5FA04
:105190008CF595B950E9022351E9026782FA4CF582
:1051A00082EA0604A4FA8CF483FA4CF583EA070534
:1051B000A5FA8CF52543DBD09CB92DBAB5FA85F458
:1051C00024F0070427FA04F1DDE9026723FA04F367
:1051D00003F0FF0001F0FF01FDE80445A0EB010032
:1051E000704724BAB4FA84F424F0070426FA04F1D0
:1051F000DDE9026722FA04F202F0FF0001F0FF018C
:10520000FDE80445A0EB0100704714F0030F3CD10A
:1052100010F0030428D150F8082B51F8083B82FA0B
:105220004CF582EA0305A5FA8CF55DB950F8042C1B
:1052300051F8043C82FA4CF582EA0305A5FA8CF594
:10524000002DE8D02DBAB5FA85F424F0070423FA2E
:1052500004F122FA04F202F0FF0001F0FF01FDE880
:105260000445A0EB010070474FEAC40420F003009E
:1052700050F8082B21F0030151F8083B0CFA04F414
:1052800062EA040263EA0403C9E710F003041AD0D7
:10529000A1EB040120F00300E40750F8042B06D032
:1052A0000FD28B785FFAA2F4E41A06D12BB1CB7837
:1052B0005FFAB2F4E41A00D11BB920465DF8104B36
:1052C000704701F1040150F8042BCC0721F00301D1
:1052D00051F8043B48D824D222F07F4482FA4CF59E
:1052E00094EA1325A5FA8CF50AD165B951F8043B67
:1052F00084EA0204B4EB036F0ED150F8042BEBE701
:105300004FEA132355E035F07F454DD10878FDE88D
:105310000445C0F1000070474FEA126203F0FF033A
:1053200047E002EA1C4482FA4CF594EA1345A5FAD8
:105330008CF50AD165B951F8043B84EA0204B4EB58
:10534000034F0CD150F8042BEBE74FEA134330E046
:1053500015EA1C4528D10B884FEA124229E04FEA92
:10536000124203EA1C4324E002F0FF0482FA4CF5E7
:1053700094EA1365A5FA8CF50AD165B951F8043B96
:1053800084EA0204B4EB032F09D150F8042BEBE7B5
:105390004FEA13630DE015F0FF0F05D10B684FEADC
:1053A000122223F07F4304E04FF00000FDE80445A3
:1053B000704712BA1BBA82FA4CF482EA0304A4FAC8
:1053C0008CF5B5FA85F402FA04F203FA04F34FEA15
:1053D0001260FDE80445A0EB136070472DE9F84F1B
:1053E0004B6E9C0490462DD59368126843B38B4650
:1053F000064602F1080959E9025A5FEA9A0715D0F0
:10540000043D002401E0A7420ED055F8041F5A467F
:10541000304601F045F9431C04F10104F3D10023A7
:10542000C8E90133BDE8F88FD8F808302AF0030A3C
:10543000A3EB0A03C8F8083009F10809002BDAD1F8
:105440000020ECE701F064F90023C8E90133BDE86E
:10545000F88F00BF10B4946814B15DF8044BBDE739
:10546000204654605DF8044B704700BF2DE9F04FB3
:10547000ABB01C46884617460693834618B1836B2B
:10548000002B00F02582B8F90C1088048AB20AD4E7
:10549000D8F8643041F4005223F40053A8F80C20EB
:1054A000C8F8643092B2130740F1A480D8F81030E5
:1054B000002B00F09F8002F01A020A2A00F0A88058
:1054C0001AAB0D930023CDE90E3309930DF1680952
:1054D00005933B78002B00F00D813C4604E014F866
:1054E000013F002B00F0E880252BF8D1E51B40F0B0
:1054F000E5802378002B00F0FD804FF000020021B2
:105500008DF82F20637804914FF0FF32671C084616
:1055100002928A460137A3F12002582A00F2F7804E
:10552000DFE812F03302F500F5002F02F500F50078
:10553000F500F500F500F500E5012B02F500F0019E
:10554000F401F5002702590059005900590059008B
:105550005900590059005900F500F500F500F50013
:10556000F500F500F500F500F500F5000E02F50078
:10557000F500F500F500F500F500F500F500F50083
:10558000F5009400F500F500F500F500F500840045
:10559000F500F5004802F500F500F500F500F5000E
:1055A000F500F500F500F500F5003A02A701F50059
:1055B000F500F5008902A701F500F5007F02F5006E
:1055C00069029600C902C502F500A402F500860032
:1055D000F500F5008D02A3F13002002417F8013B1D
:1055E00004EB840402EB4404A3F13002092AF5D948
:1055F000049490E74146584600F0AAFD002840F088
:105600003585B8F80C2002F01A020A2A7FF458AF48
:10561000B8F90E30002BFFF653AF23463A46414609
:1056200058462BB0BDE8F04F00F044BD4AF0100AD8
:105630001AF0200100F00F81069B073323F00703C7
:10564000596853F8080B069301230EE04AF0100A3C
:105650001AF0200100F0F280069B073323F00703C5
:10566000596853F8080B069300234FF000028DF899
:105670002F2000220792029A541C00F02F822AF059
:105680008004019450EA010440F02682002A40F090
:105690009584002B40F00E841AF00103039340F030
:1056A0003E841AACDDE902639E42B8BF1E46079BEA
:1056B000002B3ED001363CE0E51B1BD00E9B0F9A21
:1056C00001332A44072BC9E900750F920E9305DCBC
:1056D00009F10809059B2B4405930AE7002A00F00D
:1056E000D1830DAA41465846FFF778FE30B90DF137
:1056F0006809EFE70F9B002B40F08584B8F80C3069
:105700005B0600F1B38405982BB0BDE8F08F00294B
:1057100040F07584002BEDD08DF8403001264FF01D
:1057200000038DF82F30039610AC0023CDF804A0B1
:105730000293019B13F002030793019B18BF0236EB
:1057400013F08403089304D1049B9D1B002D00F3E8
:10575000DB82DDE90E1001F1010C9DF82F3093B1D1
:1057600001300DF12F030121BCF1070FCDE90EC06F
:10577000C9F80030C9F8041000F3A682614609F1A7
:1057800008090CF1010C079BEBB10CAB0230C9F816
:105790000030BCF1070F4FF00203CDE90EC0C9F88D
:1057A000043040F3AB82002800F066830DAA414626
:1057B0005846FFF713FE0028A0D1DDE90E100DF1C9
:1057C000680901F1010C089B802B00F0C881DDE91C
:1057D00002329D1A002D00F31C82039BC9F8004081
:1057E0001844BCF1070FCDE90EC0C9F8043040F3EE
:1057F000B381002800F0D2820DAA41465846FFF737
:10580000EDFD00287FF47AAF0F980DF16809019B38
:105810005A0704D5049B9C1B002C00F3C982DDE9C8
:105820000423B242ACBF9B189B190593002840F09B
:10583000368200230E930DF168094AE61AF0100330
:1058400049D11AF0400146D0069A52F8040B06924C
:10585000194680B209E71AF0100342D11AF040014C
:105860003FD0069A52F8040B0692194680B20123E3
:10587000FBE6002940F0E1831AF0200F069B68D078
:10588000073323F007031A465B6852F8080B0692A9
:105890001946002BC0F20483029B013300F08A8377
:1058A0009DF82F30079350EA01032AF0800A00F098
:1058B00054830A2871F1000380F0128330300123F1
:1058C0008DF86700CDF804A003930DF16704E9E6B5
:1058D00000F072FED7E5069B53F8040B06930B46C7
:1058E000C3E6069B53F8040B06930123BDE6069B13
:1058F00053F8042B0492002A80F20D83049A069335
:10590000524204923B784AF0040A03E63C4614F8FB
:10591000013B2A2B00F0AF83A3F13002092A27466E
:1059200098BF002400F28F8317F8013B04EB840436
:1059300002EB4404A3F13002092AF5D90294EAE506
:10594000002940F084834AF0100A1AF0200F069BC9
:1059500096D153F8040B06931AF0100F40F09B8277
:105960001AF0400F00F0978240F3C0310B4600B2AE
:105970008FE73B784AF0800ACCE53B7801212B2069
:10598000C8E53B784AF0010AC4E53B7800287FF47B
:10599000C1AD01212020BDE5069B4FF000028DF82E
:1059A0002F20012653F8042B8DF8402006930396F0
:1059B00010ACBAE6002940F04D83BD4A09921AF0B6
:1059C000200144D0069A073222F00702516852F8AB
:1059D000080B06921AF0010F0BD050EA010208D012
:1059E0008DF8313030238DF830304AF0020A02232E
:1059F0003BE6022339E6002940F022831AF0200F0B
:105A000040F09A821AF0100F40F0CC821AF0400F4A
:105A100000F0C882069B059953F8042B0693118069
:105A200057E53B786C2B03BF7B784AF0200A01379F
:105A30004AF0100A6EE53B784AF0400A6AE5002910
:105A400040F0F8829B4A09921AF02001BAD11AF06C
:105A5000100240F01B821AF0400100F01782069CF1
:105A600054F8040B0694114680B2B3E7069D55F82E
:105A7000044B4FF000038DF82F30002C00F0A4826F
:105A8000029B5E1C00F072821A4600212046FDF740
:105A900097FA002800F0BE82031B03939DF82F3075
:105AA000079300230695CDF804A00293FAE53B780E
:105AB0004AF0200A2EE5069B53F8040B0693302388
:105AC0008DF8303078238DF831307A4B09934AF0D5
:105AD000020A00210223C8E5DDF804A0012B3FF4EF
:105AE000E8AE022B1AAC12D1099A00F00F0300099C
:105AF000D35C04F8013D40EA0170090950EA010352
:105B0000F3D11AAB1B1BCDF804A00393CAE500F038
