:020000040800F2
:100000000050002091420008E14200081D3900081C
:1000100000000000000000000000000000000000E0
:10002000000000000000000000000000E1420008A5
:100030000000000000000000E1420008F93800085C
:10004000E1420008E14200083D3B0008E1420008AF
:10005000E1420008B7360008C7360008D736000866
:1000600000000000E1420008E1420008F13F000802
:10007000E1420008E13D0008E1420008E1420008D9
:10008000E1420008E1420008E142000800000000EF
:10009000E1420008E1420008E1420008E1420008B4
:1000A000E1420008E1420008E1420008E1420008A4
:1000B00001400008E14200080000000000000000CC
:1000C0000448054B10B5834203D0044B002B00D0ED
:1000D000984710BD340100203401002000000000CA
:1000E00006480749091A8B10C90FC91810B54910DD
:1000F00003D0044B002B00D0984710BD34010020E2
:10010000340100200000000010B5074C2378002BBC
:1001100009D1FFF7D5FF054B002B02D0044800E0C2
:1001200000BF0123237010BD380100200000000033
:10013000C0460008054B10B5002B03D00449054804
:1001400000E000BFFFF7CCFF10BDC046000000007C
:100150003C010020C046000870B50C4D0C4E761BCB
:10016000B61005D0002408CD01349847A642FAD134
:1001700004F0A6FA074D084E761BB61005D00024F1
:1001800008CD01349847A642FAD170BD884A0008CC
:10019000884A0008884A00088C4A0008F0B5C6461C
:1001A00000B50F2A41D903270D003E0005430C007E
:1001B00003002E402F423DD11500103D2D09A846C9
:1001C0002D01AC46844427681D001F6067685F608E
:1001D000A7689F60E7681034DF6010336545F2D18F
:1001E00045460F230C2401352D01491913404519AB
:1001F000144222D08C59AC5104369C1B032CF9D8E4
:10020000043B9B0801339B00ED18C91803231A40D7
:10021000561E002A06D00023CC5C1A00EC54013391
:100220009642F9D180BCB846F0BD0500561E002AA2
:10023000F1D1F7E70500561EEDE71A00F6E7C046D4
:10024000F0B588420AD98B18984207D2531E002A6B
:1002500003D0CA5CC254013BFBD2F0BD0F2A0BD8BD
:100260000500561E002AF8D00023CC5C1A00EC547E
:1002700001339642F9D1F0E703270D003E00054314
:100280000C0003002E402F422BD11500103D2D09EC
:10029000AC462F013F1825681D6065685D60A56844
:1002A0009D60E5681034DD601D001033BD42F2D161
:1002B00065460F230C2401352D01491913404519BA
:1002C000144211D08C59AC5104369C1B032CF9D824
:1002D000043B9B0801339B00ED18C91803231A4007
:1002E000BFE70500561EBFE71A00BAE7F0B50500E4
:1002F000830749D0541E002A45D003000326CAB202
:1003000002E00135013C3ED301332A703342F8D17B
:10031000032C30D9FF220A40150215432A04154345
:100320000F2C34D92700103F3F093E01B4461E0070
:100330001A0010366644156055609560D56010321D
:10034000B242F8D101373F01DB190F270C222740B9
:1003500022403C00002A0ED03E1FB608B400A4463E
:100360001A001C1D644420C2A242FCD103240136A1
:10037000B6009B193C40002C05D0C9B21C1919705D
:1003800001339C42FBD1F0BD03001400C0E72700FD
:10039000E2E7C04610B583070AD00300032102E05C
:1003A00001330B4205D01A78002AF9D1181A10BD72
:1003B000030019680C4A0D4C8A188A4322420FD157
:1003C0005968094A04338A188A43224208D1596875
:1003D000054A04338A188A432242F1D000E00133EF
:1003E0001A78002AFBD1E1E7FFFEFEFE80808080C4
:1003F00010B504001300094A9AB01068084A009426
:1004000005920292074A049403920A00694600F09A
:10041000D9F90023009A13701AB010BD0000002013
:10042000FFFFFF7F0802FFFF00B59BB00091049122
:1004300006490591029106490391694600F0C2F907
:100440000023009A13701BB000BDC046FFFFFF7F62
:100450000802FFFF70B50500002915D00C1F2368A6
:10046000002B23DB280000F0F9FC294A1368002B3D
:1004700005D0A3420BD92168601883422DD0636058
:100480002800146000F0ECFC70BDA34210D81A00E4
:100490005B68002BF9D1106811188C4219D030D349
:1004A00063605460280000F0DBFCEDE7E418D9E756
:1004B00011685018A04217D023D8216860188342D1
:1004C000EED118685B6884466144216063605460C3
:1004D000E8E7236818181060E4E718685B6884464A
:1004E000614421606360CBE72068091850181160EF
:1004F0008342D7D118685B688446614411605360B9
:10050000D0E70C2328002B6000F0AAFCBCE7C04613
:1005100054010020F8B50323CD1C9D430835060087
:100520000C2D27D20C25A94226D8300000F096FCCD
:10053000284F3A68002A27D0140004E0636822009C
:10054000002B21D01C0023685B1BF7D40B2B17D882
:100550006368944235D05360300000F081FC200085
:1005600007220B30231D9043C21A984207D01B1A52
:10057000A35004E0002DD6DA0C2300203360F8BD30
:100580002360E4182560E7E77B68002B1BD0290077
:10059000300000F017FC431C0CD00323C41C9C4308
:1005A000A04205D0211A300000F00CFC431C01D001
:1005B0002560D1E70C233000336000F051FC0020AF
:1005C000DDE73B60C8E70021300000F0FBFB78600E
:1005D000DDE7C04654010020F0B5D6464F464646FA
:1005E000C0B58F6882460C0016001D009F423BD8A4
:1005F00090228B89D200134212D13D0008682A0054
:100600003100FFF71DFEA3680020DF1B2368A760F1
:100610009C4665442560E0BCBA46B146A846F0BD9C
:10062000096922686069521A914642001218D00F77
:100630008218681C521048449046904201D9804666
:1006400002005B0513D511005046FFF763FF071E3C
:1006500021D04A462169FFF7A1FDA389134A13401F
:1006600080221343A38107E01F000868C7E75046B4
:1006700000F0F8FB071E0AD0380043464A464844BB
:1006800063619B1A276120602F00A360B7E7504683
:100690002169FFF7DFFE0C23524613604022012040
:1006A000A38940421343A381B5E7C0467FFBFFFF08
:1006B000F0B54E464546DE465746E0B5936883B0F2
:1006C0000D0091460190002B6AD0176808688C686D
:1006D00043E09022AB89D20013422ED02969421AFE
:1006E0009346686942001218D00F8218701C52108D
:1006F00058449046904201D9804602008020C000B4
:10070000034236D011000198FFF704FF041E52D0B7
:100710005A462969FFF742FDAB89294A13408022D6
:100720001343AB81434620005A462C61B046340047
:1007300058446B619B1A2860AB6042465146FFF7F4
:100740007FFDAB6828681C1B4B469B6840449E1B82
:100750004B46AC6028609E6022D03B687E689A461B
:100760000837002EF9D0A046B442B2D93400B046C2
:10077000E3E7019800F076FB041ED3D1019C2969C0
:100780002000FFF767FE0C2323604022AB89012085
:100790001343AB814A46002340429360536003E019
:1007A00000234A460020536003B0F0BCBB46B2466B
:1007B000A946A046F0BD0C23019A1360E5E7C046A8
:1007C0007FFBFFFFF0B5DE46574645464E46E0B597
:1007D0001C008B8982468B4690469DB01B0603D534
:1007E0000B69002B00D1EDE0002304AD6B612033D9
:1007F0006B761033AB7643461B787C4E0394002B0C
:1008000074D0444604E063780134002B00D17AE0D0
:10081000252BF8D14346E71A444500D077E02378EA
:10082000002B63D00122002352426A604432671CCD
:100830002B60EB60AB60AB54AB6506E00123801B23
:1008400083402A68013713432B6005223000397832
:1008500000F0CAFA0028F1D12B68DA0602D543224B
:100860002021A9541A0702D543222B21A9543978F3
:100870002A2958D1039A111D12680391002A00DA1F
:100880007CE0EA6079787C1C2E295FD0584B0322EB
:100890001800984600F0A8FA002807D04346C01A6E
:1008A000402383402A68013413432B602178631C62
:1008B000062250489846297600F096FA002863D020
:1008C0004D4B002B53D003AB00935A4629005046A2
:1008D0004A4B00E000BF81464B46013306D06B69AE
:1008E0004B446B6143461B78002B8AD15B469B8946
:1008F0005B0600D572E068691DB0F0BCBB46B2462D
:10090000A946A046F0BD4346E71A4445EED03B0059
:10091000424659465046FFF75FFE431CE6D06B69DE
:10092000DB196B617BE70800303809280BD8EB68CE
:100930009A00D31879785B001B180800303801370B
:100940000928F5D9EB603C002E299FD161782A292E
:1009500024D1039BA01C1A1D1B6803926B60002B03
:1009600002DA01235B426B60A17804008EE7072264
:10097000039B0733934308330393B0E75242EA6083
:10098000022213432B607DE703AB00935A462900F4
:1009900050461A4B00F0D2F881469DE7080000232C
:1009A000303801346B60092800D96FE79A00D318FA
:1009B00061785B001B180800303801340928F5D92C
:1009C0006B6063E74021FFF7A5FD5B461860186187
:1009D000002806D040235A46536105E701204042D3
:1009E0008AE70C2352460138136085E7444A000821
:1009F0004C4A0008504A000800000000D9050008D1
:100A0000F8B557464E46DE464546E0B51F000A9B00
:100A1000924699460A698B6806000C009A4200DAF1
:100A20001A0053461A604323E35C002B02D0514660
:100A300001320A6021688A065ED553465246062076
:100A40001B680233136021680A00084209D1E2687A
:100A5000D31A192293460022A34490460A00002B81
:100A600042DC4323E35C591E8B4192060AD53020B9
:100A7000E1184331087045215A1C615CA2184332C9
:100A8000023311702200390030004332C847431C42
:100A900019D0062322681340042B33D0A36822699F
:100AA00093423DDD002188469B1A984400251A3464
:100AB00002E00135454533DA0123220039003000D8
:100AC000C847431CF5D101204042F0BCBB46B246AA
:100AD000A946A046F8BD01239C465346E2681B6820
:100AE000E044D51A454520DD01235A46390030003F
:100AF000C847431CEFD1E6E706220A4212D05A1E2D
:100B00009341BFE753461968E3682269591ACB43FA
:100B1000DB170B409846A3689342C5DC0029C5DC6F
:100B20000020D2E753461B6891E743232268E35C29
:100B3000591E8B4192069AD4A4E7C046F0B54E46A2
:100B4000994643239C4657464546DE468C446346B9
:100B5000E0B587B003930C00097E90460700109A19
:100B6000002914D00B00583BDBB2202B4BD8924805
:100B70009B00C3589F462368190602D45B0600D524
:100B800001E11368191D11601B6862691A60002376
:100B9000039D23614B46210000933800434605AA7C
:100BA000FFF72EFF431C1FD023692A00414638005F
:100BB000C847431C18D023689B071ED5E3680598D7
:100BC0001A1A002A1BDD26000025193605E0E36805
:100BD000059801351A1AAA4211DD01233200414657
:100BE0003800C847431CF2D10120404207B0F0BC96
:100BF000BB46B246A946A046F0BDE36805989842B8
:100C0000F4DA1800F2E742232500E154413B423573
:100C1000236143230022E254BCE72368190602D46F
:100C2000590600D5BBE01168081D10600A6816005F
:100C3000002A75DB614B9B460A239A464DE02368E8
:100C4000180602D45B0600D5A4E01368181D1060D6
:100C50001E685A4B9B466F2900D1A7E00A239A468B
:100C600038E013682500191D11601A684223E25408
:100C7000413B42352361CCE71368191D11601D68A3
:100C800000212800626800F0AFF8002800D190E051
:100C9000401B60602061BCE7202321680B43236078
:100CA00045217820605446498B46190631D45906AF
:100CB0002FD51168081D0E881060DA0702D5202292
:100CC0001343236010239A46002E03D12268103369
:100CD0009A43226043230022E2546368A360002BFE
:100CE00048DB0422216891432160002E27D1002B8C
:100CF00042D1039D5346082B31D0039B5B1B2361DC
:100D000048E745235821E15423682C498B461906AE
:100D1000CDD51168081D10600E68CEE72368BFE7C7
:100D200043222D21A15462687642A260002A02DB90
:100D3000042293432360214B9B460A239A46039D3A
:100D40003000514600F068F95B465B5C013D2B705A
:100D5000330006005345F3D25346082BCDD1236808
:100D6000DB07CAD5636822699342C6DC3023013DA4
:100D70002B70C2E7002EE2D15B4625001A78422391
:100D80004235E254B6E713686169181D10601B68AC
:100D90001980FCE61368181D1E88106059E7116859
:100DA000081D106000228E5E320041E708239A463B
:100DB00090E7606820612CE74C470008584A00081B
:100DC0006C4A0008002370B5064D040008002B6033
:100DD00000F07AF8431C00D070BD2B68002BFBD0CC
:100DE0002360F9E75C01002070B5CCB283070DD019
:100DF000531E002A0FD0032504E00130284206D0FC
:100E0000013B08D30278A242F7D170BD1300032B37
:100E10000CD8002B01D10020F7E7C31802E0013005
:100E20008342F8D00278A242F9D1EEE7FF252940AB
:100E30000D0229430D04074E0D43026806496A401E
:100E4000511891433142E8D1043B0430032BF4D8CC
:100E5000DFE7C04680808080FFFEFEFE7047C04610
:100E60007047C046F8B506000C00150000291BD0DD
:100E7000002A15D000F01EF82700A84201D3380040
:100E8000F8BD29003000FFF745FB071EF7D0210011
:100E90002A00FFF783F921003000FFF7DBFAEEE7C5
:100EA000FFF7D8FA0027EAE71100FFF733FB070046
:100EB000E5E7C0460B1F1B68181F002B00DB7047BF
:100EC0000B58C018FBE7C046044A0300106800280E
:100ED00002D0C318136070470148FAE76001002090
:100EE0009003002002B471464908490009564900A0
:100EF0008E4402BC7047C04603B4714649084000A6
:100F00004900095E49008E4403BC70470022430833
:100F10008B4274D303098B425FD3030A8B4244D3C1
:100F2000030B8B4228D3030C8B420DD3FF22090203
:100F300012BA030C8B4202D31212090265D0030BC2
:100F40008B4219D300E0090AC30B8B4201D3CB03B8
:100F5000C01A5241830B8B4201D38B03C01A5241FA
:100F6000430B8B4201D34B03C01A5241030B8B42FC
:100F700001D30B03C01A5241C30A8B4201D3CB02E7
:100F8000C01A5241830A8B4201D38B02C01A5241CC
:100F9000430A8B4201D34B02C01A5241030A8B42CF
:100FA00001D30B02C01A5241CDD2C3098B4201D3E7
:100FB000CB01C01A524183098B4201D38B01C01A65
:100FC000524143098B4201D34B01C01A52410309DC
:100FD0008B4201D30B01C01A5241C3088B4201D38B
:100FE000CB00C01A524183088B4201D38B00C01A38
:100FF000524143088B4201D34B00C01A5241411A5F
:1010000000D20146524110467047FFE701B500206B
:1010100000F0F0F802BDC0460029F7D076E770472F
:1010200003460B437FD4002243088B4274D3030949
:101030008B425FD3030A8B4244D3030B8B4228D3EA
:10104000030C8B420DD3FF22090212BA030C8B4210
:1010500002D31212090265D0030B8B4219D300E0B0
:10106000090AC30B8B4201D3CB03C01A5241830B35
:101070008B4201D38B03C01A5241430B8B4201D3E5
:101080004B03C01A5241030B8B4201D30B03C01A0E
:101090005241C30A8B4201D3CB02C01A5241830A88
:1010A0008B4201D38B02C01A5241430A8B4201D3B7
:1010B0004B02C01A5241030A8B4201D30B02C01AE1
:1010C0005241CDD2C3098B4201D3CB01C01A524148
:1010D00083098B4201D38B01C01A524143098B42D1
:1010E00001D34B01C01A524103098B4201D30B01BA
:1010F000C01A5241C3088B4201D3CB00C01A5241DF
:1011000083088B4201D38B00C01A524143088B42A3
:1011100001D34B00C01A5241411A00D2014652413C
:10112000104670475DE0CA0F00D04942031000D35B
:101130004042534000229C4603098B422DD3030AB0
:101140008B4212D3FC22890112BA030A8B420CD3C0
:10115000890192118B4208D3890192118B4204D3E9
:1011600089013AD0921100E08909C3098B4201D369
:10117000CB01C01A524183098B4201D38B01C01AA3
:10118000524143098B4201D34B01C01A524103091A
:101190008B4201D30B01C01A5241C3088B4201D3C9
:1011A000CB00C01A524183088B4201D38B00C01A76
:1011B0005241D9D243088B4201D34B00C01A52414D
:1011C000411A00D20146634652415B10104601D3DA
:1011D0004042002B00D54942704763465B1000D364
:1011E000404201B5002000F005F802BD0029F8D00A
:1011F00016E770477047C046002B11D1002A0FD167
:10120000002900D1002802D00021C943080007B4FA
:10121000024802A14018029003BDC046D9FFFFFF5B
:1012200003B4684601B5029800F034F8019B9E466D
:1012300002B00CBC7047C046F0B5CE46474680B5FC
:10124000070099463B0C9C4613041B0C1D000E0026
:1012500061460004140C000C45434B43604361435A
:10126000C0182C0C20188C46834203D980235B02C3
:101270009846C444494679437243030C63442D04A1
:101280002D0CC918000440198918C0BCB946B046D5
:10129000F0BDC046F0B557464E464546DE46E0B581
:1012A00004000D009246994683B08B4230D82DD071
:1012B0004946504600F0D8F829000600200000F00A
:1012C000D3F8331A9846203B9B4633D45A465346AC
:1012D000934042461F00534693401E00AF423AD807
:1012E000AF4200D178E05B46A41BBD41002B00DA81
:1012F00075E0002200230092019301235A46934097
:101300000193012342469340009328E08242CFD9C3
:1013100000220023009201930C9B002B01D01C6043
:101320005D600098019903B0F0BCBB46B246A94687
:10133000A046F0BD424620239B1A5246DA40414661
:1013400013004A468A40170042461F4353469340C3
:101350001E00AF42C4D900220023009201934346ED
:10136000002BD9D0FB0772081A4346467B080EE0D3
:10137000AB4201D1A2420CD8A41A9D4101202419EC
:101380006D410021013E24184D41002E06D0AB4294
:10139000EED9013E24196D41002EF8D10098019933
:1013A0005B4600196941002B24DB2B005A4644465A
:1013B000D3402A00E2401C005B461500002B2ADBCC
:1013C00026009E40330026004746BE403200801A69
:1013D0009941009001919FE7A342BCD883E7424620
:1013E000202300219B1A0022009101920122DA4061
:1013F000019286E7424620239B1A2A0046469A40DD
:101400002300F340444613432A00E2401C005B469D
:101410001500002BD4DA42462F00202326009740E7
:101420009B1ADE403B003343CDE7C0461C2101231D
:101430001B04984201D3000C10391B0A984201D3B7
:10144000000A08391B09984201D30009043902A295
:10145000105C40187047C0460403020201010101FC
:10146000000000000000000010B5002903D1FFF7C4
:10147000DDFF203002E00800FFF7D8FF10BDC046B6
:10148000F0B59DB002F09EF92C4802F0CFFC012788
:101490002B4802F0CBFC03236E2501930933009304
:1014A00004210020274A03970295073B03F0B4F874
:1014B0000400280002F02EFA002C02D0224802F08C
:1014C000B5FC17236B441900002003F0CBF86B46E2
:1014D000D97D05001D48002900D11D4802F0A6FC59
:1014E00000266B46DB7D9E4209DB002D02D01948A9
:1014F00002F09CFCFA20C00002F00CFAC8E706AC2F
:101500002300F1B23A00002003F0BAF8310011AA2A
:101510000500114802F08AFC02202056237EE27D5D
:10152000A17D0390E07E01360290A07E0190607E56
:1015300000900A4802F07AFCD3E7C0463048000821
:1015400082480008FF3F0000B2480008C448000875
:10155000E048000840490008FD480008114900081B
:101560000C4B70B505000C0018680B49FFF7CEFC5A
:10157000FA239B004343296800200325013B002BED
:1015800000D128000A682240A24201D0002BF5D1E8
:1015900070BDC0466C000020204E000070477047B0
:1015A000704770477047704770470122036810B555
:1015B00019680400114205D09968114202D05A609E
:1015C000FFF7ECFF022223681968114206D09968E0
:1015D000114203D020005A60FFF7E1FF0422236884
:1015E0001968114206D09968114203D020005A6050
:1015F000FFF7D6FF082223681968114206D09968C0
:10160000114203D020005A60FFF7CBFF102223685D
:101610001968114206D09968114203D020005A601F
:10162000FFF7C0FF202223681968114206D099688D
:10163000114203D020005A60FFF7B5FF4022236813
:101640001968114206D09968114203D020005A60EF
:10165000FFF7AAFF10BD0000F0B5040085B072B618
:1016600000220368324E0192B34205D1314AD56C53
:10167000C0221203154001959A680292DA685869EF
:1016800003929F69B3420BD12A498A6A9446802209
:10169000654612062A438A628A6A520052088A62A2
:1016A00002003A4337D0B34204D12249224DCA6CDA
:1016B0002A40CA64002810D0012219690A431A611D
:1016C000082158612000FFF74BFF032802D12300B7
:1016D0002E331870082223685A60002F11D001227F
:1016E0002368200019690A431A6110219F61FFF7DE
:1016F00037FF032802D123002E33187010222368ED
:101700005A602368B34206D10A4A0B49D36C019D43
:101710000B401D43D564012123681A698A431A616D
:10172000029A9A60039ADA6062B605B0F0BDC046CC
:10173000007C004000100240FFFFF3FF70B5050081
:1017400002232E352B700400FFF786FF2B78D8B2CA
:10175000032B07D022680449D36800200B40D360D4
:1017600001232B7070BDC046FFFFF7FFA021026868
:10177000F8B5D36804008B43D36000F0FDFFFA276F
:1017800005002026BF002368DB68334201D000201B
:10179000F8BD00F0F1FF401BB842F4D90320F7E791
:1017A000F8B5402603680400DA68324201D0002010
:1017B000F8BD01225242DA6000F0DEFFFA27050090
:1017C000BF002368DB683342F1D100F0D5FF401B36
:1017D000B842F6D90320EBE770B5040001250028D4
:1017E0001AD0861CF37FDAB2002B03D14319DA77C3
:1017F00002F0C6F90223CA22F377236820005A6256
:10180000773A5A62FFF7CCFF2368051E06D0FF2205
:101810005A620423F3770125280070BD9A681B499A
:1018200020690A409A60626899680243A06902438D
:101830000A439A60E26860691A61A2681969120431
:101840000A4380211A61DA688A43DA60DA6C7D39EA
:101850008A43DA64E269D96C02430A43DA649B681A
:101860009B060CD42000FFF781FF002807D0FF2241
:10187000236801345A620423F377E577CBE7FF222C
:1018800023685A620123F377C6E7C046BFFF8FFF84
:101890000023092803D81B011843C0B270470A3837
:1018A0000133C0B2F5E70000F0B5431C85B00193E9
:1018B0000C00D97F022305001F00012936D0012129
:1018C0004018C177E918CB772F68207866780291A5
:1018D0003E33002A2DD1BA68110019401A4200D1B6
:1018E000E170FFF7D5FF03903000FFF7D1FF06004E
:1018F000A078FFF7CDFFE378039A1B04034312049B
:10190000134336021E43CA237B62773B7B62280067
:10191000FFF746FF2B68071E19D0FF225A620423E7
:10192000029AD3770023019AD3770127380005B0B4
:10193000F0BDBA68110019401A4200D1E1700004EC
:1019400036020643E378A0781B040643DAE716481C
:10195000164906401E609A6820690A409A60E2684B
:10196000996802430A4380219A60DA688A43DA6000
:101970009B689B060DD42800FFF7F8FE002808D0CE
:10198000FF222B685A620423029AD377019BDF77E8
:10199000CBE7FF222B685A620123029AD3770023F8
:1019A000019AD377C2E7C0467F7F7F00FFFFFBFF2E
:1019B0000223F0B5471C0E00F97F04001D0085B01E
:1019C000012936D00121F977C118CB7701913178FF
:1019D000F07849037378B5780291002A4CD110321F
:1019E000134202D093430A337370FFF751FF039001
:1019F0007078FFF74DFF06002800FFF749FF039BB3
:101A000036021D04029B18430543CA2223682000A6
:101A10005A62773A5A62FFF7C3FE2E432368051EC7
:101A20000AD0FF225A620423019AD3770023FB775E
:101A30000125280005B0F0BD8021124806405E60F7
:101A4000DA688A43DA609B689B060CD42000FFF7B3
:101A50008DFE002807D0FF2223685A620423019AD2
:101A6000D377FD77E4E7FF2223685A620123019AC6
:101A7000D3770023FB77DCE7029A0604164335434D
:101A80001E02C2E73FFFFF00020903000A20504385
:101A90000F221340C018C0B27047000070B50C0090
:101AA00001683F208B6A63600B695B045B0CA36079
:101AB0000B680E490B40190C1E0ADDB2402308408A
:101AC000F6B2194020706670A570E170002A0AD144
:101AD000FFF7DAFF20703000FFF7D6FF60702800B4
:101AE000FFF7D2FFA070002070BDC0467F7F7F004F
:101AF00070B50C0003680E495B680B40180CDD04E0
:101B0000DEB21B04ED0E5B0FE0706570A6702370F3
:101B1000002A0AD1FFF7B8FFE0702800FFF7B4FFF2
:101B200060703000FFF7B0FFA070002070BDC046AD
:101B30003FFFFF000223F0B585B0461C01910292E1
:101B4000F27F04001800012A5AD00122E718F27728
:101B5000FB772368C9325A62773A5A629B685B0501
:101B600038D423682F499A6804250A409A60D968B6
:101B70002D4AC9B20A43DA6000F0FEFD00902368E6
:101B8000DA681100294003912A423BD00721019ACB
:101B90005A619A688A439A609A6802990A43802136
:101BA0009A60224A49031068084310609068014314
:101BB000916080229968D2010A439A6080229968D4
:101BC000D2000A439A60FF2200205A620123FB7769
:101BD000F07715E000F0D0FD050004222368DB68F3
:101BE0001342BED000F0C8FDFA23401B9B00984270
:101BF000F3D9FF22236803205A620023F877F37792
:101C000005B0F0BD00F0B8FD009BC01AFA239B00A0
:101C10009842B4D9FF22032023685A62039BF877C5
:101C2000EDE7C046FFFBFFFF7FFBFFFF0004014025
:101C30000223F7B5451CEA7F04001800012A31D0C1
:101C40000122E618EA77F3772368C9325A62773AB5
:101C50005A629A68144904270A409A609A6813499C
:101C60000A409A6000F088FD00902368DA6811004D
:101C7000394001913A4206D0FF2200205A620123E6
:101C8000F377E8770EE000F077FD009BC01AFA23A7
:101C90009B009842E9D9FF22032023685A62019BE6
:101CA000F077EB77FEBDC046FFFBFFFFFFBFFFFFF6
:101CB00070470000036810B5DB6804005B0507D5BA
:101CC000FFF7F6FF2168064BCA68D2B21343CB6018
:101CD0008022044B52035A6101230234E37710BD82
:101CE0007FFBFFFF00040140022210B5411CCC7FA6
:101CF00003001000012C10D09818C2771B68C8325E
:101D00005A62773A5A629C68333A22439A60FF22B9
:101D10005A620123C3770020C87710BDF8B50400CC
:101D20000120002C54D0636A002B52D182226168BA
:101D30005200914200D0E36100232500A362513597
:101D40002B78DAB2002B05D12300503320001A7013
:101D500001F08EFF022040222870216866680B681F
:101D6000A76893430B6082235B00334084263602CE
:101D70003E4033438026E76836013E4033432669C0
:101D8000A2693040012603436069E769304003439C
:101D900080208000104003433820384003438020D7
:101DA000276A120C384003438020A76A800138401C
:101DB00003430B600423606A1A400C330340002085
:101DC0001A434A60CB69054A1340CB6160652E70A7
:101DD000F8BD002323616361AEE7C046FFF7FFFF54
:101DE00030B5EFF31084012282F310880168124DA0
:101DF0000B682B400B6084F31088EFF3108482F3A0
:101E0000108801688B6893438B6084F31088036E9D
:101E100093420AD1EFF3108183F3108810240268F3
:101E20001368A343136081F310882023C367002342
:101E30000366436630BDC046DFFEFFFF7047704754
:101E4000806A0023020010B55A321380083A1380CA
:101E5000FFF7F5FF10BD7047F7B504000068A74B0A
:101E6000C1690668856819420BD12023194200D147
:101E70007FE01E4200D17CE0636E2000002B6ED11B
:101E80006EE001232F009E4A1F4032403A4300D1AA
:101E90006FE0251D194205D0F20503D50362EA6FF4
:101EA0001343EB670223194206D0002F04D00362CC
:101EB000EA6FDB181343EB670423194206D0002FA7
:101EC00004D00362EA6F023B1343EB670823194215
:101ED00007D0202232403A4303D00362EA6F134313
:101EE000EB6780231B01194206D0720104D50362FF
:101EF0002023EA6F1343EB67EB6F002B30D02023D6
:101F0000194206D01E4204D0636E002B01D020007F
:101F100098472268EB6F4027966828223E4013407E
:101F200020001E4321D0FFF75BFF23689B683B42E4
:101F300017D0EFF31081012383F310882268936890
:101F4000BB43936081F31088206F002809D06D4B4C
:101F5000836301F0BFF9002802D0206F836B98479C
:101F6000F7BD2000FFF76BFFFAE7FFF768FFEE67AA
:101F7000F6E7236E012B00D094E01022114200D12D
:101F800090E0164200D18DE00262816840200D0091
:101F90000540014250D0216F0D68696889B200295F
:101FA000DED02600583636888E42D9D926005A36D9
:101FB00031802D6820212E000E4001960D422FD138
:101FC000EFF3108783F3108826684F4A3568154071
:101FD000356087F31088EFF3108783F31088266845
:101FE000B5689D43B56087F31088EFF3108683F3DF
:101FF00010882568AF688743AF6086F31088019A20
:10200000E1672266EFF3108083F3108810222168C5
:102010000B6893430B6080F31088206F01F03AF94E
:10202000230022005A3358321B881188C91A89B2FA
:102030002000FFF710FF93E726005A3630883188DA
:1020400080B2002900D18BE7210058310988091A94
:1020500089B2002900D183E7EFF3108783F310885A
:1020600026682A4A30681040306087F31088EFF302
:10207000108783F310882668B0689843B06087F3B0
:10208000108820206566E0672566EFF3108583F3EE
:102090001088206832320368FF329343036085F36F
:1020A0001088C5E780235B03194206D06A0204D575
:1020B0000362200000F0E8FA52E78023194203D0BF
:1020C0001E4201D0A36ED8E64022114200D147E75C
:1020D000164200D144E7EFF31080012383F3108808
:1020E00021680B6893430B6080F310882023A3675B
:1020F00000232000A366FFF7A1FE31E70F080000D0
:1021000020010004411E0008FFFEFFFFDFFEFFFF6D
:10211000F8B504002569A168026829436569C369A7
:1021200029431068784D19432840014311605168D4
:102130007648774D0140E06801435160A069AA42AA
:1021400001D0216A08439168724E31400143916089
:1021500071498A420FD10321704AD26C0A40013A78
:102160006F49022A0FD980221202934200D0A2E0C6
:1021700000F08EFEC4E06B498A4217D10C21674AF9
:10218000D26C0A406849885C80221202934200D0D7
:1021900083E0082824D8FEF7AFFEB100EBFF5C0017
:1021A00023007D0023002300230067005F498A424B
:1021B00000D19FE05E498A4200D19BE0AA420FD144
:1021C000C0218020554A0901D36C00010B40834295
:1021D00016D007D8002B0AD08022D200934235D0E7
:1021E000012009E08B42FBD18020000212E000F0C8
:1021F0003FFE00280ED1002000236366A366F8BDD1
:10220000102310681840434258414A4B404218403E
:10221000494BC018032263685A439042E0D31A0323
:102220009042DDD80027020E01025E0889197A412A
:10223000080011001A003B00FEF7DEFF3F4BC218FA
:102240003F4B9A42CCD82368D860D4E700F0ACFA70
:10225000CFE7324B384A18681023184043425841A0
:10226000344B404203409B185800636861685B0828
:10227000C018FEF74BFE334982B2103A03048A427B
:10228000AED80F221B03904380B222685B0F184325
:10229000D060B0E700F088FA32E00828A0D8FEF756
:1022A00021FE050A0D9F239F9F9F260000F0E0FD61
:1022B0000028A0D00DE000F0EBFDF9E7174B1868FF
:1022C00010231840434258411A4B404218401A4BC1
:1022D000C018636861685B081818FEF717FE80B2C3
:1022E0000200184B103AACE700F05EFAE0E78020FD
:1022F0000002EEE7802212029342D7D100F0B8FD2F
:10230000031E00D177E7AFE7F369FFEFFFCFFFFFD1
:1023100000480040FFF4FFFF003801400010024079
:10232000504900080044004053490008004C004058
:1023300000500040001BB70000093D0000FDFFFFFA
:10234000FFFC0F00EFFF0000436A30B5DA0706D547
:102350000168284C4A682240846A22434A609A07EE
:1023600006D50168244C4A682240C46A22434A6068
:102370005A0706D50168214C4A682240046B224363
:102380004A601A0706D501681D4C4A682240446B12
:1023900022434A60DA0606D501681A4C8A68224050
:1023A000846B22438A609A0606D50168164C8A68B7
:1023B0002240C46B22438A605A0610D50168134D2F
:1023C0004A68046C2A4022434A60802252039442A5
:1023D00005D14A680E4C2240446C22434A601B06D9
:1023E00006D502680B4953680B40816C0B43536060
:1023F00030BDC046FFFFFDFFFFFFFEFFFFFFFBFFFD
:10240000FF7FFFFFFFEFFFFFFFDFFFFFFFFFEFFF9C
:10241000FFFF9FFFFFFFF7FFF7B5802704000D00C8
:10242000160001933F012268D3692B405B1B594280
:102430004B41B34201D0002028E0089B0133F3D088
:1024400000F09AF9019BC01A089B984201D8002B12
:102450001DD1EFF31080012282F3108821681E4DF8
:102460000B682B400B6080F31088EFF3108082F331
:10247000108821688B6893438B6080F31088202339
:10248000A367E3670023032074342370FEBD042197
:1024900023681A680A42C6D0DA693A42C3D01F627A
:1024A000EFF31080012282F3108821680A4D0B6837
:1024B0002B400B6080F31088EFF3108082F31088BC
:1024C00021688B6893438B6080F310882023221D42
:1024D000A367E367D367D5E75FFEFFFFF0B587B07B
:1024E0000593836F04000D0016000220202B51D1AC
:1024F000013800294ED0002A4CD08023A2685B010D
:102500009A4204D12369002B01D1014242D1230018
:10251000743303931B780220012B3BD00123039AD1
:1025200013700022231DDA672123A36700F024F92A
:10253000230050331E8002331E8004938023A26840
:10254000070000265B019A4204D12369B34201D1FE
:102550002E001D000023039A1370230052331B88A2
:102560009AB2002B0BD1059B4021009320003B0029
:10257000FFF752FF00280CD12023A3670AE0059B38
:102580000022009380213B002000FFF745FF002838
:1025900002D0032007B0F0BD2268002D0BD1338894
:1025A0000236DB05DB0D9362049B049A1B88013B1A
:1025B0009BB21380D1E72B7801359362F4E70000DA
:1025C00073B500260400031DDE6700F0D5F823680C
:1025D00005001B681B0716D423681B685B070AD518
:1025E00080210F4B0022009320002B00C903FFF72E
:1025F00013FF002812D120230020A367E367206681
:10260000743420700BE08021054B32000093890365
:1026100003002000FFF700FF0028DDD0032076BD77
:10262000FFFFFF0110B5041E01D1012010BD836F13
:10263000002B04D102007432137001F041FC2423FA
:1026400001212268A367136820008B431360FFF702
:102650005FFD0128E9D0636A002B02D02000FFF75C
:1026600073FE236807495A6820000A402A215A60ED
:102670009A688A439A60012219680A431A60FFF730
:102680009FFFD3E7FFB7FFFF7047000070B504005E
:102690000120002C17D02368124A07251A60124A1D
:1026A0001A6062685A60A2689A6000F065F80600D5
:1026B0002368DA68100028402A4205D11969E268C7
:1026C00091420CD01A6170BD00F056F8801B2A2888
:1026D000EED92368DB682B42EAD00320F3E7034AF4
:1026E0001A60F0E7CCCC000055550000AAAA000003
:1026F00070B50500FA200D4B80001978FEF706FC36
:102700000B4B01001868FEF701FC00F093FE04007B
:102710000120002C09D1032D07D8023822002900FE
:1027200000F052FE2000034B1D6070BD64000020CD
:102730006C000020680000204023084A10B5116892
:1027400000200B431360FFF7D3FF041E03D101F0F9
:10275000D9F8200010BD0124FBE7C046002002404C
:10276000034A044B11681B785B1813607047C0461E
:102770006401002064000020014B18687047C046C7
:102780006401002070B50400FFF7F6FF0500631C2C
:1027900002D0044B1B78E418FFF7EEFF401BA04269
:1027A000FAD370BD640000200C221D4B70B5DC68AC
:1027B0002240082A31D00C2A09D0042A25D11868D1
:1027C000184BC006C0171840174BC01870BDA202A6
:1027D0001648120F805C80222402D968A40F52028E
:1027E0000134114209D0124A00230021FEF724FDD2
:1027F00022000023FEF700FDE8E71A6810231A42C2
:1028000001D00C4AF0E7084AEEE780205B6800023E
:102810001B045B0F01339840D8E70548D6E7C04654
:102820000010024000E548FF0024F4007849000849
:1028300000127A0000093D00F0B5050085B00028BF
:1028400056D00C23B64C0268E668E7681E40802329
:102850005B0219001F40D2073ED42B689B0700D5AE
:1028600087E02B68DB0629D5002E00D0E0E0236846
:102870009B0502D5AB69002B3AD06268A9492B6A47
:102880000A401A4362606168EA690902090A12068D
:102890000A43626080225B0B013312029A401300EC
:1028A000E1680A06A049120F8A5CD3409F4A136070
:1028B0009F4B1868FFF71CFF002830D12B681B07BF
:1028C00000D5ECE02B685B0700D50EE16B6A002BAE
:1028D00000D092E1002022E0082E03D00C2E09D176
:1028E000002F07D023689B03B7D56B68002BB4D1AA
:1028F000012014E06A688A4213D1226813432360DE
:10290000FFF73AFF00908022236892021342A4D17D
:10291000FFF732FF009BC01A6428F4D9032005B0EA
:10292000F0BDA021C9028A4205D180222168D202CD
:102930000A432260E1E721687E4801402160216866
:102940000B400393039B7C4923680B402360002AC0
:10295000D6D1FFF711FF0090802223689202134224
:1029600000D17AE7FFF708FF009BC01A6428F3D96B
:10297000D4E72022EB68134203D02168934311432C
:102980002160042E03D00C2E24D1002F22D12268E6
:10299000520701D5002BABD061682A696748120243
:1029A00001400A430921626022688A43134323607D
:1029B000FFF7FAFEE3685C4A1B061B0FD35CD840A6
:1029C0005A4B18605A4B1868FFF792FE002800D146
:1029D00047E7A4E7002B19D0092122688A43134353
:1029E0002360FFF7C9FE070004222368134207D0C3
:1029F00062682B6951491B020A401343636030E748
:102A0000FFF7BAFEC01B0228EED987E70122236830
:102A100093432360FFF7B0FE0700042223681342AC
:102A200000D11EE7FFF7A8FEC01B0228F5D975E705
:102A3000AB69002B20D0802322685B001343236006
:102A4000FFF79AFE070080222368920013420DD000
:102A50006368344A13402A6A134363606268EB690F
:102A600012021B06120A1343636027E7FFF784FE76
:102A7000C01B0228E7D951E72368314A134023607D
:102A8000FFF77AFE0700802223689200134200D1EC
:102A900014E7FFF771FEC01B0228F4D93EE76A690C
:102AA0000123002A10D0226D13432365FFF764FE33
:102AB00007000222236D134200D003E7FFF75CFEFC
:102AC000C01B0228F5D929E7226D9A432265FFF73A
:102AD00053FE07000222236D134200D1F2E6FFF7F6
:102AE0004BFEC01B0228F5D918E780230021A26BFA
:102AF0005B0500911A4204D1A26B1343A363012327
:102B0000009380220F4F52003B6813421CD080225A
:102B1000AB68520093422BD1226D134323654CE0E6
:102B200000100240FF1FFFFF604900086C000020FA
:102B300068000020FFFFFEFFFFFFFBFFFFE0FFFF3D
:102B4000FFFEFFFF0070004080223B6852001343ED
:102B50003B60FFF711FE019080223B685200134258
:102B6000D5D1FFF709FE019BC01A6428F4D9D5E638
:102B7000002B16D1236D514A13402365236D504A13
:102B800013402365FFF7F8FD07008022236D9200B4
:102B900013421AD0FFF7F0FD4A4BC01B9842F4D9FC
:102BA000BCE6A021C9008B4218D18023216DDB0037
:102BB0000B432365236D1A432265FFF7DDFD0700F4
:102BC0008022236D9200134210D0009B012B00D075
:102BD0007CE6A36B3C4A1340A36377E6236D374A38
:102BE00013402365236D364A134097E7FFF7C4FD72
:102BF000344BC01B9842E3D990E60C2E43D0334AA5
:102C0000022B2ED12368802713402360FFF7B4FDE9
:102C10000600BF0423683B421DD1E96AAB6AE26843
:102C20000B432B4980260A4013432A6BB6041343F7
:102C3000E360802322685B0413432360FFF79CFD5D
:102C400005002368334200D044E6FFF795FD401BA2
:102C50000228F6D962E6FFF78FFD801B0228D9D93A
:102C60005CE62368802613402360FFF785FD05009E
:102C7000B6042368334200D12CE6FFF77DFD401BEC
:102C80000228F6D94AE61800012B00D147E6802237
:102C9000E368A96A52021A408A4200D028E6F0226C
:102CA000E96A92031A408A4200D021E6C022120447
:102CB00013402A6B934200D10CE619E6FFFEFFFF9A
:102CC000FFFBFFFF88130000FFFFFFEFFFFFFFFE8A
:102CD000FFFF02FFF7B5041E019101D10120FEBDE7
:102CE00001255B4E019A33682B40934231D3226811
:102CF000930743D4D30749D401253368019A2B4065
:102D0000934209D93368AB433360FFF735FD0700C1
:102D100033682B4200D08CE022684E4D530700D51B
:102D20008FE0130706D5E96823694B4ADB000A40A8
:102D30001343EB60FFF738FDEB68484A1B061B0F97
:102D4000D35CD840464B1860464B1868FFF7D0FC60
:102D5000C5E73368019AAB4313433360FFF70CFDBB
:102D600007003368019A2B409342C0D0FFF704FD5F
:102D70003D4BC01B9842F4D90320B0E7F020354901
:102D8000CB688343A0680343CB60B3E7314D6268EF
:102D90002B68022A18D19B03A0D50321EB688B4333
:102DA0001343EB60FFF7E8FC63680700022B18D1C0
:102DB0000C22EB681340082B9ED0FFF7DDFC2A4B5A
:102DC000C01B9842F4D9D7E7032A02D19B01E4D46F
:102DD00084E7012A02D15B07DFD47FE79B05DCD4BF
:102DE0007CE7032B0BD10C22EB681340934283D07A
:102DF000FFF7C2FC1C4BC01B9842F4D9BCE7012B67
:102E000011D00C22EB68134200D175E7FFF7B4FC38
:102E1000154BC01B9842F4D9AEE7FFF7ADFC124B3F
:102E2000C01B9842A8D80C22EB681340042BF4D1A5
:102E300062E7FFF7A1FC0C4BC01B984200D867E784
:102E40009AE7EB6809490B40E1680B43EB6068E7E0
:102E50000020024000100240FFC7FFFF6049000849
:102E60006C0000206800002088130000FFF8FFFFBE
:102E7000044B054ADB685B055B0FD35C034A1068B3
:102E8000D840704700100240704900086C000020D4
:102E9000044B054ADB689B045B0FD35C034A106854
:102EA000D840704700100240704900086C000020B4
:102EB0000368F7B505009B063CD5802300215A4CDA
:102EC0005B05A26B00911A4204D1A26B1343A3636A
:102ED000012300938027554E7F0033683B4262D028
:102EE0006A68C023C0201600216880039B021E4030
:102EF000024001408A4267D1226D110019401A42F6
:102F00006AD16968C0230A009B021A409A4207D11D
:102F1000236847480340C020800301400B432360DF
:102F2000236D1A43009B2265012B03D1A36B414AF9
:102F30001340A3632B68DA0706D503203A49CA6C0D
:102F40008243A8680243CA649A0706D50C20364912
:102F5000CA6C8243E8680243CA645A0706D53249FC
:102F60003548CA6C024028690243CA641A0706D56C
:102F70002D493248CA6C024068690243CA64DA05C6
:102F800006D529492E48CA6C0240A8690243CA6482
:102F900000201B0617D5244A2A49D36C0B40E96947
:102FA0000B43D3640FE033683B433360FFF7E4FB2C
:102FB000019033683B4293D1FFF7DEFB019BC01ABF
:102FC0006428F6D90320FEBD9E4295D122680120D7
:102FD000920300D490E7F6E7B14200D191E72B6865
:102FE0009B0600D48DE78022216D206D12030243E1
:102FF0002265226D124B14480B4002402265236566
:10300000CB0500D47DE7FFF7B7FB80270600BF00A4
:10301000236D3B4200D074E7FFF7AEFB0B4B801BE8
:103020009842F5D9CEE7C04600100240007000403B
:10303000FFFFCFFFFFFFFFEFFFF3FFFFFFCFFFFF1C
:10304000FFFFFCFFFFFFF3FFFFFFF7FF8813000008
:103050005A4AF0B58218541EA241002387B00532A7
:1030600003910592039A12681400DC4001D107B065
:10307000F0BD01210D0014009D402C408C460294AF
:103080002A4200D198E00324039A5E00526801921C
:103090002240B440E143541E049164452AD8876815
:1030A0000F400399CC680199B4403C438460446864
:1030B000AC4325000C0961460C409C402C43446005
:1030C000C56804990D4003998C68B4402C43C460D2
:1030D000022A11D107250F211D40AD00A940DC08AF
:1030E000A4000419276A8F4303990969A9400F4373
:1030F000276201E0032AE3D1B24004680499214029
:103100000A430260C02201999202114254D0012761
:103110002B4C0326626B1D003A436263294A9C08CC
:10312000A400A418A268354094460F22AD00AA401E
:1031300061469143A022D20594460022604511D0F9
:10314000214A94463A0060450CD0204F9218B8426C
:1031500008D01F4F3200B84204D01E4E0132B04298
:1031600000D0059AAA400A430299A2600D001A4AAB
:10317000CC43166801993543C90301D43500254075
:1031800015605668029D01993543890301D43500C5
:10319000254055609668029D01993543C90201D4C6
:1031A000350025409560D568029E01992E4389021D
:1031B00001D425402E00D660013353E700E4FFAF71
:1031C00000100240000001400004005000080050C0
:1031D000000C00500010005000040140006908403D
:1031E000431E9841C0B27047002A01D081617047E8
:1031F0008162FCE7044B10B55A69104202D0586155
:1032000000F098FA10BDC04600040140F8B5040073
:103210000120002C35D025681A4B1421E818FDF741
:1032200075FE194B800023640223A21D6064D377CE
:103230002E68164BA1681E40E36827690B433B4389
:1032400067693B43A7693B43E7693B43276A3B43C5
:1032500033432B608023DB0199420CD01C2528408E
:103260000D3D85400A490B68AB430B6063680D68F0
:1032700083402B430B6000200123E0630534D377A8
:10328000E077F8BDF8FFFDBF000002400F80FFFFB0
:10329000A800024030B5851DEB7F441D022B05D0F0
:1032A0000423C36300230120E37730BD0E210368AC
:1032B0001A688A431A600122196891431960436CA5
:1032C000016C1C2003401000984048600020EA7701
:1032D000E077EAE770B5841DE37F022B04D0042376
:1032E000C363033B180070BD0E210368456C1A6868
:1032F0008A431A6001221968914319601C232B40EC
:1033000015009D40016C431D4D60E2770024DC7781
:10331000826B1300A242E5D090472300E2E7F8B5A4
:103320001C220427466C016C32403E0096400D681A
:1033300003681C6835420DD03C420BD01A689206D7
:1033400002D41A68BA431A60036B4E60002B19D07E
:10335000984717E002273E009640354213D03C4282
:1033600011D01A68920606D40A241A68A2431A6079
:103370000122831DDA770022431D4E60DA77C36A8B
:103380009342E5D1F8BD0826370097403D42F9D079
:103390003442F7D00E251C68AC431C6001231C008E
:1033A0009440821D4C60C363D3770022431DDA77BB
:1033B000436BE5E78023034A5B0011680B4313600E
:1033C0007047C0460070004030B5FF2503242A0036
:1033D0000440E400A24089012940D243A140C3B285
:1033E00000280ADBC0240B4B80088000C018A40012
:1033F00003591A401143015130BD0F200340083BCF
:1034000005489B089B001B18D86902401143D961ED
:10341000F2E7C04600E100E000ED00E0002805DB37
:103420001F2318401E3B8340014A13607047C0466B
:1034300000E100E08022431E5204012093420DD29D
:10344000C021074A07485360036A09061B021B0A8A
:103450000B43036200200723906013607047C0464F
:1034600010E000E000ED00E0704710B5FFF7FCFF52
:1034700010BD7047002808D08368002B05D00F22AC
:1034800003781340014A9B00985070476801002060
:10349000F0B515000022F023825604009B01900134
:1034A0000340A020C00501271E180F20024038004D
:1034B000904062688DB00892A2680790099200223D
:1034C0000A920B92934230D1484BDA6A3A43DA625D
:1034D000DB6A3B400193019BCAB281B23000FFF727
:1034E00083FE07A93000FFF7B3FD88216268404BD7
:1034F000490313408B4203D084239B039A426BD130
:103500002800FFF7B7FF20780F230E2201000340A9
:103510001140104259D0023B012B5FD900220720F5
:103520001100FFF751FF072054E08022D2009342A0
:103530000BD102239C462D4AD76A1F43D762D36A18
:10354000624613400293029BC6E780221201934217
:103550000BD104239C46254AD76A1F43D762D36AFE
:10356000624613400393039BB6E7C02212019342C5
:103570000BD108239C461D4AD76A1F43D762D36AE2
:10358000624613400493049BA6E7802252019342B3
:103590000BD110239C46154AD76A1F43D762D36AC2
:1035A000624613400593059B96E7E0225201934241
:1035B00092D180239C460D4AD76A1F43D762D36AB3
:1035C000624613400693069B86E705200A00FFF734
:1035D000FBFE0520FFF722FF0DB0F0BD0022062004
:1035E0001100FFF7F1FE0620F4E7C046001002408C
:1035F000FFFFDFFF7FB501220292002201AB1870AE
:10360000481E81411800039204920592FFF740FF83
:1036100007B000BDF0B58FB00192134A05AF9446D4
:10362000150006003800009116CD16C064462D68BE
:103630001034056002A826CC26C0019A09A8920081
:10364000D25906704260009A910002AA8A5882609C
:103650000022C2600261934200D01E701A00002155
:10366000FFF716FF0FB0F0BDD84600084B1E99417A
:103670000F23CAB2012103409940F02380019B012E
:103680001840A02310B5DB0589B2C018FFF7ACFDC8
:1036900010BD0F23012103409940F02380019B01BD
:1036A0001840A023DB0510B5C01889B2FFF796FDBE
:1036B000431E984110BD10B50120FFF79BFD02206D
:1036C000FFF798FD10BD10B50420FFF793FD08200B
:1036D000FFF790FD10BD10B51020FFF78BFD2020E7
:1036E000FFF788FD4020FFF785FD8020FFF782FD72
:1036F00080204000FFF77EFD80208000FFF77AFDEC
:103700008020C000FFF776FD80200001FFF772FDEA
:1037100080204001FFF76EFD80208001FFF76AFDE9
:103720008020C001FFF766FD80200002FFF762FDE8
:1037300010BD0000030010B5002806D0002302E0F1
:1037400001334008DBB20128FAD1054A9B009B589F
:10375000002B04D09A68002A01D05868904710BD09
:103760006801002080B584B000AF78607A681300EB
:103770005B019B1A9B009B18DB0089211800FDF759
:103780004FFC0300BB600023FB6003E0C046FB6806
:103790000133FB60FA68BB689A42F7D3C046C04663
:1037A000BD4604B080BDC04672B6BFF34F8F034B19
:1037B000034ADA60BFF34F8FC046FDE700ED00E03B
:1037C0000400FA0570B59CB0FEF7B6FF3422002164
:1037D0000EA8FCF78BFD444C142200216846FCF730
:1037E00085FD2022002106A8FCF780FDFFF7E2FD01
:1037F000236D3E4A0EA8134023650E2380220E93AC
:10380000012352001092119301231022129213935C
:10381000022317930023189380231B0319938023FB
:103820001B041A93FFF708F8002812D0304C3149D6
:1038300025002000153500F0F9FA280000F0F6FA0E
:103840002000163000F0F2FA280000F0EFFAFFF73F
:10385000ABFF0F22032300250026049001216846B8
:103860000092019302950396FFF734FA0028DDD108
:10387000C0231B030D938023AB225B020B9006A891
:103880000895099606920793FFF712FB061ECDD105
:103890008023A26B5B051343A3638023E2681B02B2
:1038A0001343E36001210420FFF7A4FE330032003C
:1038B00031000720FFF7AEFE012233001000022185
:1038C000FFF7A8FE01212220FFF794FE00F0BAFACC
:1038D0001A231E221F21022000F064F900F0A4F830
:1038E00000F096FB1CB070BD00100240FFE7FFFF28
:1038F000F44600088149000810B5FEF731FFFFF7D4
:10390000B4FD10BD0022012010B511004042FFF7A8
:103910005BFD10BD10B5FEF735FF10BD70B50C4C4A
:10392000200025002130153500F080FA280000F035
:103930007DFA2000303000F079FA280000F076FAA5
:1039400020004A3000F072FA280000F06FFAFEE71B
:10395000F4460008F7B505000C00234E234FB36A68
:103960000022290038000193FEF7C2F8002221004E
:103970003800FEF793F8B26A019B9A42EDD1032119
:10398000EA781B486E7850430A4053425A415342EA
:10399000184A013E1340184AAD789B183D227243E5
:1039A0007600F3400132D70F0330BA18013D80088A
:1039B0005210281810180B40C31A10482278584388
:1039C000E1231B0153433C2261780D4D4A439B1870
:1039D000A27864689B181B18990D980200232A1B73
:1039E0008018594103B0F0BD00280040A801002014
:1039F000B5050000B0AAAAFFA0AA99008051010055
:103A0000FF030000014B586A7047C046A801002020
:103A100010B5044C2100200028313C30FFF79AFFFC
:103A2000606210BDA801002030B51F221C4C1D4B48
:103A3000A260236000231C4A87B020006360E2601C
:103A400023616361A361E361FDF7C6FE00280FD027
:103A50001649174800F0EAF9164D280000F0E6F97B
:103A6000154800F0E3F9280000F0E0F9FFF79CFEAC
:103A7000124B6946002220000093FDF799FF0022B7
:103A800001A920000292019204920592FDF70CFF19
:103A90002000FEF729F9FFF7BBFF07B030BDC04695
:103AA000A801002000280040FF030000B5490008DD
:103AB000954900084F490008AA4900080101010082
:103AC0007FB5684601A9FFF745FF024B5B6AC01A44
:103AD00007B000BDA80100200320704703000620A6
:103AE00058435B00C009C0187047000070B5FFF76D
:103AF000F5FF8023040000255B02984208D30B49A0
:103B0000FDF704FA094905002000FDF785FA0C00CD
:103B1000074B1D60074D2800FEF78AF80022064B70
:103B2000280021001A70FEF705F870BDFFFF0000A5
:103B3000E8010020A8010020EC01002010B50C4C89
:103B40002000FEF7B7F80B4A1368002B05D10122BD
:103B5000094B1A7000F080FA10BD013B2000136081
:103B6000FEF766F8002220000449FDF7E3FFF3E7C3
:103B7000A8010020E8010020EC010020FFFF000068
:103B80008023074ADB02116D10B50B431365002239
:103B900011000220FFF718FC0220FFF73FFC10BDC8
:103BA00000100240F7B5461E602070431F4D019380
:103BB00047592C18676082277F00A7600027E760BD
:103BC00027616761A7616762A762E76207372763BA
:103BD000270080235C37397021009B00E361F13BB3
:103BE000FF3B2362019B5D315E3404300A70237019
:103BF0004019FEF793F800280FD00D490D4800F04A
:103C000015F90D4C200000F011F90C4800F00EF9E8
:103C1000200000F00BF9FFF7C7FD6020402346436A
:103C2000AD196A6811680B431360F7BD700000207E
:103C3000D2490008954900084F490008AA490008E0
:103C4000602330B5022401384343084A9B589D68DD
:103C50002542FCD0C9B2197360235843135801227E
:103C600099681142FCD0187B30BDC046700000201E
:103C7000F0B5554C0368226889B0934230D15C2579
:103C80000C22002105A86557FCF730FB0223012216
:103C900004930133069323000F2011005D331B783A
:103CA0001600034099400B0029005E3401408E400D
:103CB0002178334301408A40A8011343F025039340
:103CC000A023AD01DB052840C01803A9FFF7C0F908
:103CD00080233E4A5B01516B0B43536309B0F0BD37
:103CE000226E93425FD10223384EF021F26A89019D
:103CF0001A43F262F26A00271A400292029A2200E4
:103D0000BC321278059752B295010D40A021C90529
:103D10006D1803210691D1B201910F2111408C46FB
:103D20000121604681400493039105211A2A05D0A0
:103D3000019819002238012800D93900280007917C
:103D400003A9FFF785F9BD210F2001236156084023
:103D50008340CAB2039305231A2904D0223A033BB5
:103D6000012A00D90023280003A90793FFF770F95F
:103D7000BE210F200123615608408340CAB203933D
:103D800005231A2904D0223A033B012A00D9002333
:103D9000280003A90793FFF75BF98023B26BDB01CF
:103DA0001343B3639AE70A490A4800F03FF80A4C04
:103DB000200000F03BF8094800F038F8200000F03F
:103DC00035F8FFF7F1FC89E7700000200010024091
:103DD000C2490008954900084F490008AA4900084F
:103DE00010B5074C2000FDF7E0FB2000FDF7A6FC16
:103DF000044A5368002B01D01068984710BDC04694
:103E0000F00100202002002000B5C1B00A0001002E
:103E10006846FCF7EDFA002806DD6846FCF7BAFABA
:103E2000C1B2684600F040F841B000BD0FB407B51C
:103E300004A901C90191FFF7E7FF03B008BC04B072
:103E4000184700001248134B10B50360E1235B02D2
:103E500008224360002342618360C3600361836181
:103E6000C36103624362FEF7DDFB00280FD00A49FD
:103E70000A48FFF7DBFF0A4C2000FFF7D7FF09488D
:103E8000FFF7D4FF2000FFF7D1FFFFF78DFC10BD37
:103E90007002002000380140F049000895490008F0
:103EA0004F490008AA49000810B50A000100024B5A
:103EB0000248FEF713FB10BDFFFFFF007002002059
:103EC00070B50368414A050088B093421FD1802233
:103ED0003F4BD201596BA0200A4301215A63DA6A91
:103EE000C0050A43DA62DB6AC0220B400093009BE4
:103EF000042306930223D200029203930022032399
:103F000002A904920593FFF7A3F808B070BD314AE7
:103F1000934249D180222E4B9202996BA0200A43F2
:103F200001219A63DA6A04260A43DA62DB6A0C2208
:103F30000B400193019B022302920393002203236F
:103F4000C00502A9049205930696FFF781F8224C5A
:103F5000224B80222360002320006660A360E36080
:103F600022616361A361E3612362FFF74FF90028D7
:103F70000FD01B491B48FFF759FF1B4E3000FFF7BE
:103F800055FF1A48FFF752FF3000FFF74FFFFFF7CA
:103F90000BFC00221C2011002C67A562FFF714FA0D
:103FA0001C20FFF73BFAB0E70D490E48FFF73EFF34
:103FB0000D4C2000FFF73AFF0C48FFF737FF2000B9
:103FC000FFF734FFFFF7F0FB9FE7C04600380140E2
:103FD0000010024000440040280200205800024027
:103FE000DF490008954900084F490008AA49000820
:103FF00010B50248FFF793F910BDC0462802002013
:1040000010B50248FDF728FF10BDC046F802002099
:104010000548064B10B5036006234360044BC3609C
:104020008360FEF733FB10BD7C03002000300040AE
:10403000FF0F000070B50500FFF74EFD01236B7206
:1040400004002D68FFF73CFD2D1A2000AC4200D281
:104050002800FFF74BFD70BDF8B5FFF7D3FC050056
:10406000FFF7D6FC1A4C2368002B15D01A00471B0B
:104070005269002A06D159691A72DA682160002A49
:1040800008D1FEE711680026B94201D949190E1A74
:104090001660EDE7186990472368002B03D120686C
:1040A00000280ED1F8BD1D68FFF70AFD8542F6D243
:1040B00023685A69226000221A72DA68002AE9D15C
:1040C000FEE7437A002BEDD1FFF7B4FFEAE7C046E5
:1040D0008C030020F7B50126019265270022019C80
:1040E00093B29C4200D8FEBD08238C5C250045405D
:1040F0004008354201D07840C0B2013BDBB26408D1
:10410000002BF3D10132EAE710B50720FFF7C1FA1F
:104110000128FAD010BD000010B50A4C2378D9B29E
:10412000002B02D0FFF7F0FF10BD0420FFF79EFA2E
:1041300001210420FFF79AFAFFF7E6FF012323701D
:10414000F2E7C04630010020F7B51C0008AB1B8821
:10415000FF200D0000931600FFF7BCFF2100009A1E
:10416000FFF7B8FF0190FFF7D7FF00210420FFF70A
:104170007DFA2F007619B7421BD1009BE618B44296
:104180001DD16B4602209988FFF75AFD01210420BA
:10419000FFF76CFA2B78012B09D16B781B2B06D11A
:1041A000FA200022094B40001A70FFF7DBFA0020CA
:1041B000FEBD39780220FFF743FD0137DBE72178A8
:1041C0000220FFF73DFD0134D9E7C0463001002051
:1041D000F0B585B01E00FF200AAB0C0015001F884B
:1041E000FFF778FF0190FFF797FF00210420FFF70A
:1041F0003DFA6519AC4241D16B46002499880220F2
:10420000FFF71EFD01210420FFF730FAA74232D04C
:10421000FFF782FF21000420FFF728FA2100022087
:10422000FFF70EFD02ABDD1D287000210220FFF715
:1042300007FD30550134A3B29F42F6D80021022079
:10424000FFF7FEFC012104000420FFF70FFA012212
:104250002900FF20FFF73EFF3A003100FFF73AFF49
:10426000E3B20024834206D00748FFF7DFFD07488A
:10427000FFF7DCFD0334200005B0F0BD21780220FB
:10428000FFF7DEFC0134B5E7FB4900084F490008A1
:104290000D4885460D480E490E4A002302E0D458C9
:1042A000C4500433C4188C42F9D30B4A0B4C00237E
:1042B00001E013600432A242FBD3FFF7DAF8FBF708
:1042C0004BFFFDF7DDF8FEE7005000200000002066
:1042D00034010020904A000838010020900300209B
:1042E000FEE7425C013189B2405C1202801880B264
:1042F0007047F0B50026435C34001D063300CF1D27
:10430000BFB2C25DA4185D4132004B1C9BB2C75CBA
:104310003B0412196B418C1CA4B2075D34003D02B2
:1043200012196B41CF1CBFB2C55DA4185D410B1DB6
:104330009BB2C75C33003A06A4185D414B1D9BB28B
:10434000C75C330006313A0489B212196B41445CF0
:104350003100200280185941F0BD00234018C15C93
:10436000D1540133062BFAD170470000F0B593B059
:104370000C9318AB1B78199C099300230F900B9199
:1043800006920793069B002B02D1180013B0F0BDD4
:104390006B46069A0C991B7E8A4203D96B463022E3
:1043A0009B181B78DAB209990492994A0320525C4F
:1043B0000A92984A525C10A9CB706B461B8D0A7109
:1043C0000D930A9A049B08705343001848700B9889
:1043D0000522887000930F982300FFF7F9FE00284C
:1043E000D4D1099B012B43D0022B5FD0079B270020
:1043F0005D011A9B04265D191623049A53431B1969
:1044000003933B782A1D2B707B7831006B70BB784F
:104410002000AB70FB781637EB70FFF79EFFB11DE5
:1044200089B22000FFF75DFF31000831688189B251
:104430002000FFF75EFF2861696131001031200024
:1044400089B2FFF74EFF039B16362883B6B220359C
:104450009F42D6D1FF200A998000FCF7E1FD202879
:1044600000DD20200D9B5843002380B21A00BBE0E2
:104470000923079D1A9A5D435519049A2600534350
:104480001B19039303231F1B3378B9192B707378FF
:10449000EA1C6B70B3782000AB7089B2FFF75DFF48
:1044A000039B093609359E42EED1D3E75825079B79
:1044B000049A5D431A9B05945D19230048330393C6
:1044C0004F232F005A434C370E920890059B200033
:1044D0001B782B70059B5B786B70059B9B78AB7092
:1044E000059BDB78EB706B461E8C311D89B2FFF7A4
:1044F000F8FEB11DA88089B22000FFF7F2FE31005E
:104500000831E88089B22000FFF7EBFE31002A0075
:104510000A31288189B220000A32FFF71EFF3100DC
:104520002A001031200089B21032FFF716FF310047
:104530002A0016311632200089B2FFF70EFF310033
:104540001C31200089B2FFF7D4FE3B002C3B1860E1
:1045500059603100243189B22000FFF7C2FE3B00D0
:104560003100243B2631188089B22000FFF7B9FEC4
:104570003B00223B18802B00039A2C33203A117801
:10458000013219700133BB42F9D10122039B4D3630
:104590001B7820003B70039BB1B25B7858357B7071
:1045A000039B9B78BB70039BDB78FB70039B1B79A1
:1045B00013407B71039B1B79D34013403B71FFF782
:1045C00090FE059B0E9A4F330593089BF8804F335E
:1045D0000893039B58374F330393089B934200D0B3
:1045E00074E737E7E254013399B28842FAD8049B62
:1045F0000B999C4662466144CBB20B93079B634484
:10460000DBB20793069B9A1AD3B20693BAE6C0466A
:10461000414A00083E4A0008F0B589B09C460EABFE
:104620001F780FAB1E7810AB1D8811AB1B7805AC43
:1046300003930323A1702271110A624623700023A1
:1046400062712A0A2272039AE170A2726370A771E2
:10465000E67165720B2221000093FFF775FD09B02A
:10466000F0BD00001FB5054A0B0003A90A80012216
:1046700000929218FFF7ACFD05B000BD03050000E5
:10468000F0B51600EC220D0000210C4C9200A54460
:10469000040006A81F000591FBF728FE05AB019357
:1046A0000223320000932900200002970A33FFF70B
:1046B0005DFEF3239B009D44F0BDC04634FCFFFF2C
:1046C000F8B5C046F8BC08BC9E467047F8B5C04671
:0846D000F8BC08BC9E467047CF
:1046D800000000000000110000002100000031006F
:1046E8000000000001000000020000004552524F87
:1046F800523A206D63755F70616E69633A25730A7B
:1047080000004552524F523A202D3E200045525249
:104718004F523A201B5B303B33316D004552524FAC
:10472800523A20484152444641554C545F48616EC4
:10473800646C65720A004552524F523A201B5B3036
:104748006D000000020D0008060C0008060C0008A9
:10475800060C0008060C0008060C0008060C0008E9
:10476800060C0008060C0008060C0008060C0008D9
:10477800620C00081A0C0008060C0008060C000859
:10478800060C0008060C00081A0C0008060C0008A5
:10479800060C0008060C0008060C0008760B00083A
:1047A8003E0C0008980C0008060C0008060C0008CF
:1047B800780C0008060C00083E0C0008060C0008DF
:1047C800060C00081C0D0008000000000000000096
:1047D80000000000000000000000000000000000D1
:1047E80000000000000000000000000000000000C1
:1047F80000000000000000000000000000000000B1
:1048080000000000000000000000000000000000A0
:104818000000000000000000000000000000000090
:1048280000000000000000005F5F5F5F5F5F5F5F88
:104838005F5F5F5F5F5F5F5F5F5F5F5F5F5F5F5F80
:104848005F5F5F5F5F5F5F5F5F5F5F5F5F5F5F5F70
:104858005F5F5F5F5F5F5F5F5F5F5F5F5F5F5F5F60
:104868005F5F5F5F5F5F5F5F5F5F5F5F5F5F5F5F50
:104878005F5F5F5F5F5F5F0D0A000D0A2D2D2D2DB5
:104888002D2D2D2D2D2D2D2D2D2D2D2D2D574946F1
:1048980049205363616E2D2D2D2D2D2D2D2D2D2D60
:1048A8002D2D2D2D2D2D2D0D0A00574946492073EC
:1048B80063616E206572726F720D0A004C697374C1
:1048C800696E672057494649206E6574776F726B29
:1048D800733A2025640D0A004E6F20574946492037
:1048E8006E6574776F726B7320666F756E643A20AD
:1048F80025640D0A00776966692025643A205353B8
:1049080049443A2025732C20006D61633A202530F4
:1049180032783A253032783A253032783A253032B2
:10492800783A253032783A253032782C20727373F1
:10493800693A2025640D0A004C5231313130204546
:1049480052524F52200D0A000402080010101004A1
:1049580010101002101010080000000000000000E5
:10496800010203040607080900000000010203040D
:10497800030406080C1018203073797374656D5F92
:10498800636C6F636B5F636F6E6669670045525255
:104998004F523A206D63755F70616E69633A257393
:1049A8000A004552524F523A202D3E200068616C51
:1049B8005F7274635F696E69740048414C5F53505D
:1049C800495F4D7370496E69740068616C5F7370FC
:1049D800695F696E69740048414C5F554152545F84
:1049E8004D7370496E69740075617274315F696ED8
:1049F8006974004552524F523A201B5B303B3331A9
:104A08006D4552524F523A206C723131787820728B
:104A18006561642066756E6374696F6E202D20650C
:104A280072726F72206F6E20726563656976656455
:104A3800206372630A0001040116094F232D302BED
:104A480020000000686C4C0065666745464700001A
:104A580030313233343536373839414243444546AC
:104A6800000000003031323334353637383961626E
:084A78006364656600000000A4
:084A800014C8FF7F01000000D3
:044A880035010008EC
:044A8C000901000814
:104A9000040000200000000010480008F047000853
:104AA000D0470008000000000000000000000000E7
:104AB00000000000000000000000000000000000F6
:104AC00000000000000000000000000000000000E6
:104AD00000000000000000000000000000000000D6
:104AE00000000000000000000000000000000000C6
:104AF0000000000001000000040000000000200091
:104B00000030014000000000000000000000000034
:104B10000000000000000000000000000000000095
:104B20000000000000000000000000000000000085
:104B30000000000000000000000000000000000075
:104B40000000000000000000000000000000000065
:104B5000000000000000000000000000FFFFFF0058
:104B600000380040000000000000000000000000CD
:104B70000000000000000000000000000000000035
:104B80000000000000000000000000000000000025
:104B90000000000000000000000000000000000015
:104BA0000000000000000000000000000000000005
:104BB000000000000000000000000000FFFFFF00F8
:044BC00001000000F0
:04000005080042911C
:00000001FF
