:020000040800F2
:1000000000800120B1080008390800083F080008F6
:10001000450800084B0800085108000800000000CF
:100020000000000000000000000000005708000869
:100030006508000800000000730800088108000837
:100040000109000801090008010900080109000868
:100050000109000801090008010900080109000858
:100060000109000801090008010900080109000848
:100070000109000801090008010900080109000838
:100080000109000801090008010900080109000828
:100090000109000801090008010900080109000818
:1000A0000109000801090008010900080109000808
:1000B00001090008010900080109000801090008F8
:1000C00001090008010900080109000801090008E8
:1000D00001090008010900080109000801090008D8
:1000E00001090008010900080109000801090008C8
:1000F00001090008010900080109000801090008B8
:1001000001090008010900080109000801090008A7
:100110000109000801090008010900080109000897
:100120000109000801090008010900080109000887
:100130000109000801090008010900080109000877
:100140000109000801090008010900080109000867
:100150000109000801090008010900080109000857
:100160000109000801090008010900080109000847
:100170000109000801090008010900080000000049
:08018000010900080109000853
:1001880010B5054C237833B9044B13B10448AFF3C9
:1001980000800123237010BD0C0000200000000027
:1001A8009830000808B5034B1BB103490348AFF367
:1001B800008008BD000000001000002098300008F2
:1001C80053B94AB9002908BF00281CBF4FF0FF31B6
:1001D8004FF0FF3000F070B9ADF1080C6DE904CEB6
:1001E80000F006F8DDF804E0DDE9022304B070470A
:1001F8002DE9F047089E0D4604460F46002B4AD1CC
:100208008A42944665D9B2FA82F343B102FA03FCF2
:10021800C3F120029F4020FA02F217439C404FEAA4
:100228001C4E1FFA8CF5B7FBFEF1220C0EFB117762
:1002380042EA074201FB05F090420AD91CEB020290
:1002480001F1FF3780F01C81904240F21981023998
:100258006244121AA4B2B2FBFEF00EFB102244EA6A
:10026800024400FB05F5A5420AD91CEB040400F181
:10027800FF3280F00781A54240F2048164440238CD
:1002880040EA0140641B00211EB1DC400023C6E99E
:100298000043BDE8F0878B4208D9002E00F0ED80BE
:1002A8000021C6E900050846BDE8F087B3FA83F1E6
:1002B800002949D1AB4202D3824200F2F880841A65
:1002C80065EB030201201746002EE2D0C6E900477D
:1002D800DFE702B9FFDEB2FA82F3002B40F090802C
:1002E8008A1A4FEA1C471FFA8CFE0121B2FBF7F568
:1002F80007FB1520220C42EA00420EFB05F0904253
:1003080008D91CEB020205F1FF3802D2904200F234
:10031800CB804546121AA4B2B2FBF7F007FB1022B5
:1003280044EA02440EFB00FEA64508D91CEB04046F
:1003380000F1FF3202D2A64500F2BB801046A4EBC2
:100348000E0440EA05409FE7C1F120078B4022FADE
:1003580007FC4CEA030C05FA01F420FA07F3FD4008
:100368004FEA1C492343B5FBF9F81FFA8CFE09FB39
:1003780018551C0C44EA054408FB0EF5A54202FA80
:1003880001F200FA01F00BD91CEB040408F1FF3A62
:1003980080F08880A54240F28580A8F10208644474
:1003A800641B9DB2B4FBF9F309FB134445EA04440A
:1003B80003FB0EFEA64508D91CEB040403F1FF3528
:1003C8006CD2A6456AD9023B644443EA0843A3FBBE
:1003D8000295A4EB0E04AC42C846AE4656D353D0A1
:1003E80056B1B0EB080264EB0E0404FA07F7CA40F2
:1003F800CC401743C6E9007418460021BDE8F087D1
:10040800C3F1200102FA03FC20FA01F225FA01F1F6
:100418009D402A434FEA1C471FFA8CFEB1FBF7F0B8
:1004280007FB1015110C41EA054100FB0EF58D4242
:1004380004FA03F408D91CEB010100F1FF382FD2AC
:100448008D422DD902386144491B92B2B1FBF7F5B0
:1004580007FB151142EA014205FB0EF1914208D94A
:100468001CEB020205F1FF3816D2914214D9023D65
:100478006244521A45EA004138E73146304608E7F7
:100488003946E6E61046FBE64845A9D2B9EB02082C
:1004980065EB0C0E013BA3E74546EAE72B4694E7DC
:1004A8004046D1E7D0467BE7023D624432E7084642
:1004B8000AE76444023842E7704700BF80B500AFDE
:1004C80002F01AFD00F01EF800F09EF800F06CF83B
:1004D80020214FF0904000F0B9FC2021074800F09F
:1004E800B5FC0121064800F0B1FC0221044800F0E7
:1004F800ADFC4FF47A7002F07BFDE9E70004004898
:100508000008004880B596B000AF07F114034422F4
:100518000021184602F090FD3B4600221A605A60FE
:100528009A60DA601A614FF4007000F0B7FC034675
:10053800002B01D000F0F6F802237B614FF48073A2
:100548003B6210237B620223FB6302233B6401238B
:100558007B640A23BB640723FB6402233B650223F5
:100568007B6507F11403184601F0AAF90346002B2E
:1005780001D000F0D7F80F233B6003237B600023F2
:10058800BB600023FB6000233B613B460421184607
:1005980001F072FD0346002B01D000F0C3F800BF44
:1005A8005837BD4680BD000080B500AF144B154AD2
:1005B8001A60134B4FF4E1325A60114B00229A60D3
:1005C8000F4B0022DA600E4B00221A610C4B0C22F2
:1005D8005A610B4B00229A61094B0022DA61084BE1
:1005E80000221A62064B00225A62054801F068FF91
:1005F8000346002B01D000F095F800BF80BD00BF76
:10060800280000200044004080B58AB000AF07F100
:10061800140300221A605A609A60DA601A613E4B2D
:10062800DB6C3D4A43F00403D3643B4BDB6C03F0C3
:1006380004033B613B69384BDB6C374A43F080036A
:10064800D364354BDB6C03F08003FB60FB68324BF3
:10065800DB6C314A43F00103D3642F4BDB6C03F0AE
:100668000103BB60BB682C4BDB6C2B4A43F00203D5
:10067800D364294BDB6C03F002037B607B680022A8
:100688000321264800F0CAFB002220214FF09040A9
:1006980000F0C4FB00222021214800F0BFFB4FF4EA
:1006A80000537B614FF40413BB610023FB6107F126
:1006B80014031946194800F007FA03237B61012344
:1006C800BB610023FB6100233B6207F11403194659
:1006D800124800F0F9F920237B610123BB61002354
:1006E800FB6100233B6207F1140319464FF0904069
:1006F80000F0EAF920237B610123BB610023FB6141
:1007080000233B6207F114031946054800F0DCF9A1
:1007180000BF2837BD4680BD0010024000080048D1
:100728000004004880B400AF72B600BFFEE70000C6
:1007380080B483B000AF0F4B1B6E0E4A43F0010329
:1007480013660C4B1B6E03F001037B607B68094B3F
:100758009B6D084A43F080539365064B9B6D03F0ED
:1007680080533B603B6800BF0C37BD465DF8047B97
:10077800704700BF0010024080B5ACB000AF786091
:1007880007F19C0300221A605A609A60DA601A61C5
:1007980007F1140388220021184602F04DFC7B68FB
:1007A8001B68214A93423BD102237B6100233B65AE
:1007B80007F11403184600F0C7FB0346002B01D0CD
:1007C800FFF7B0FF194B9B6D184A43F4003393654C
:1007D800164B9B6D03F400333B613B69134BDB6C99
:1007E800124A43F00103D364104BDB6C03F001039E
:1007F800FB60FB680C23C7F89C300223C7F8A030C5
:100808000023C7F8A4300323C7F8A8300723C7F884
:10081800AC3007F19C0319464FF0904000F054F9B2
:1008280000BFB037BD4680BD004400400010024004
:1008380080B400AFFEE780B400AFFEE780B400AF3D
:10084800FEE780B400AFFEE780B400AFFEE780B4F7
:1008580000AF00BFBD465DF8047B704780B400AFB1
:1008680000BFBD465DF8047B704780B400AF00BF91
:10087800BD465DF8047B704780B500AF02F098FB79
:1008880000BF80BD80B400AF064BD3F88830054A5E
:1008980043F47003C2F8883000BFBD465DF8047B9E
:1008A800704700BF00ED00E0DFF834D0FFF7EAFF43
:1008B8000C480D490D4A002302E0D458C4500433B3
:1008C800C4188C42F9D30A4A0A4C002301E0136089
:1008D8000432A242FBD302F0B7FBFFF7EFFDFEE7BD
:1008E80000800120000000200C00002008310008D2
:1008F8000C000020B4000020FEE7000080B485B0A2
:1009080000AF78607B6803F00703FB600C4BDB6883
:10091800BB60BA684FF6FF031340BB60FB681A025E
:10092800BB68134343F0BF6343F40033BB60044A1E
:10093800BB68D36000BF1437BD465DF8047B7047C1
:1009480000ED00E080B400AF044BDB681B0A03F045
:1009580007031846BD465DF8047B704700ED00E0CC
:1009680080B483B000AF03463960FB7197F9073054
:10097800002B0ADB3B68DAB20C4997F90730120101
:10098800D2B20B4483F800230AE03B68DAB2084984
:10099800FB7903F00F03043B1201D2B20B441A7621
:1009A80000BF0C37BD465DF8047B704700E100E0EE
:1009B80000ED00E080B489B000AFF860B9607A60FB
:1009C800FB6803F00703FB61FB69C3F10703042B12
:1009D80028BF0423BB61FB690433062B02D9FB69DA
:1009E800033B00E000237B614FF0FF32BB6902FA52
:1009F80003F3DA43BB681A407B699A404FF0FF3132
:100A08007B6901FA03F3D9437B680B40134318460B
:100A18002437BD465DF8047B7047000080B582B07E
:100A280000AF78607B68013BB3F1807F01D301237D
:100A38000FE00A4A7B68013B53600F214FF0FF30FB
:100A4800FFF78EFF054B00229A60044B07221A60BD
:100A5800002318460837BD4680BD00BF10E000E0FF
:100A680080B582B000AF78607868FFF747FF00BFB5
:100A78000837BD4680BD80B586B000AF0346B96073
:100A88007A60FB7300237B61FFF75CFF78617A680B
:100A9800B9687869FFF78EFF024697F90F3011465B
:100AA8001846FFF75DFF00BF1837BD4680BD80B50B
:100AB80082B000AF78607868FFF7B0FF0346184649
:100AC8000837BD4680BD000080B487B000AF7860AD
:100AD800396000237B617FE13B681A6801217B69EB
:100AE80001FA03F31340FB60FB68002B00F07181EF
:100AF8003B685B6803F00303012B05D03B685B6828
:100B080003F00303022B30D17B689B683B617B6950
:100B18005B00032202FA03F3DB433A6913403B61AB
:100B28003B68DA687B695B0002FA03F33A691343AE
:100B38003B617B683A699A607B685B683B6101222C
:100B48007B6902FA03F3DB433A6913403B613B6874
:100B58005B681B0903F001027B6902FA03F33A6937
:100B680013433B617B683A695A603B685B6803F0F2
:100B78000303032B18D17B68DB6A3B6101227B6985
:100B880002FA03F3DB433A6913403B613B685B6855
:100B9800DB0803F001027B6902FA03F33A691343A5
:100BA8003B617B683A69DA623B685B6803F0030380
:100BB800032B17D07B68DB683B617B695B000322F2
:100BC80002FA03F3DB433A6913403B613B689A68D6
:100BD8007B695B0002FA03F33A6913433B617B6864
:100BE8003A69DA603B685B6803F00303022B23D1A0
:100BF8007B69DA087B68083253F822303B617B69ED
:100C080003F007039B000F2202FA03F3DB433A6960
:100C180013403B613B681A697B6903F007039B003B
:100C280002FA03F33A6913433B617B69DA087B688C
:100C38000832396943F822107B681B683B617B697D
:100C48005B00032202FA03F3DB433A6913403B617A
:100C58003B685B6803F003027B695B0002FA03F3FD
:100C68003A6913433B617B683A691A603B685B6881
:100C780003F44033002B00F0AC805F4B1B6E5E4AE0
:100C880043F0010313665C4B1B6E03F00103BB606A
:100C9800BB685A4A7B699B08023352F823303B6190
:100CA8007B6903F003039B000F2202FA03F3DB4383
:100CB8003A6913403B617B68B3F1904F25D07B685C
:100CC8004F4A93421FD07B684E4A934219D07B68A3
:100CD8004D4A934213D07B684C4A93420DD07B68AF
:100CE8004B4A934207D07B684A4A934201D1062374
:100CF8000CE007230AE0052308E0042306E00323A9
:100D080004E0022302E0012300E000237A6902F0F4
:100D18000302920093403A6913433B6137497B6968
:100D28009B0802333A6941F823203B4B9B683B619F
:100D3800FB68DB433A6913403B613B685B6803F43B
:100D48008013002B03D03A69FB6813433B61324A96
:100D58003B699360304BDB683B61FB68DB433A6976
:100D680013403B613B685B6803F40013002B03D01E
:100D78003A69FB6813433B61274A3B69D360264BBA
:100D88005B683B61FB68DB433A6913403B613B6846
:100D98005B6803F40033002B03D03A69FB68134304
:100DA8003B611D4A3B6953601B4B1B683B61FB68F9
:100DB800DB433A6913403B613B685B6803F480336B
:100DC800002B03D03A69FB6813433B61124A3B6925
:100DD80013607B6901337B613B681A687B6922FA7F
:100DE80003F3002B7FF478AE00BF00BF1C37BD466D
:100DF8005DF8047B704700BF00100240000001400E
:100E08000004004800080048000C00480010004892
:100E180000140048001800480004014080B483B062
:100E280000AF78600B467B8013467B707B78002B85
:100E380003D07A887B689A6102E07A887B689A6234
:100E480000BF0C37BD465DF8047B704780B485B0A1
:100E580000AF78600B467B807B685B69FB607A88B3
:100E6800FB6813401A04FB68D9437B880B401A437C
:100E78007B689A6100BF1437BD465DF8047B7047F4
:100E880080B400AF044B1B6803F4C0631846BD462A
:100E98005DF8047B704700BF0070004080B485B0E7
:100EA80000AF78607B68B3F5007F30D1234B1B68B7
:100EB80003F4C063B3F5007F38D0204B1B6823F4DC
:100EC800C0631E4A43F4007313601D4B1B68322233
:100ED80002FB03F31B4AA2FB03239B0C0133FB60B9
:100EE80002E0FB68013BFB60144B5B6903F4806321
:100EF800B3F5806F02D1FB68002BF2D10F4B5B6911
:100F080003F48063B3F5806F10D103230FE00B4B1C
:100F18001B6803F4C063B3F5806F07D0074B1B68E9
:100F280023F4C063054A43F4806313600023184622
:100F38001437BD465DF8047B704700BF0070004061
:100F48000000002083DE1B4380B586B000AF7860C8
:100F58000023FB740023BB747B681B6803F40063E5
:100F6800002B41D07B685B6EB3F5400F2AD0B3F5F8
:100F7800400F24D8B3F5000F08D0B3F5000F1ED8E2
:100F8800002B0AD0B3F5800F10D018E0864BDB6831
:100F9800854A43F48033D36015E07B68043300212D
:100FA800184600F0BBFA0346FB740CE07B6820335C
:100FB8000021184600F0A6FB0346FB7403E001235A
:100FC800FB7400E000BFFB7C002B0BD1764BD3F801
:100FD800883023F440027B685B6E73491343C1F881
:100FE800883001E0FB7CBB747B681B6803F480538A
:100FF800002B41D07B689B6EB3F1407F2AD0B3F1C0
:10100800407F24D8B3F1007F08D0B3F1007F1ED809
:10101800002B0AD0B3F1807F10D018E0624BDB6858
:10102800614A43F48033D36015E07B6804330021C0
:10103800184600F073FA0346FB740CE07B68203313
:101048000021184600F05EFB0346FB7403E0012311
:10105800FB7400E000BFFB7C002B0BD1524BD3F894
:10106800883023F040727B689B6E4F491343C1F868
:10107800883001E0FB7CBB747B681B6803F4003399
:10108800002B00F0A08000237B74474B9B6D03F07E
:101098008053002B01D1012300E00023002B0DD049
:1010A800414B9B6D404A43F0805393653E4B9B6D8B
:1010B80003F08053BB60BB6801237B743B4B1B6808
:1010C8003A4A43F48073136001F086FFF86009E040
:1010D80001F082FF0246FB68D31A022B02D90323D0
:1010E800FB7405E0314B1B6803F48073002BEFD0D1
:1010F800FB7C002B5CD12C4BD3F8903003F440736D
:101108007B617B69002B1FD07B68D3F884307A69B8
:101118009A4219D0244BD3F8903023F440737B6162
:10112800214BD3F89030204A43F48033C2F89030F2
:101138001D4BD3F890301C4A23F48033C2F890300A
:10114800194A7B69C2F890307B6903F00103002BD0
:1011580016D001F041FFF8600BE001F03DFF0246B8
:10116800FB68D31A41F28832934202D90323FB74F5
:1011780006E00D4BD3F8903003F00203002BECD0BF
:10118800FB7C002B0CD1084BD3F8903023F4407231
:101198007B68D3F8843004491343C1F8903009E0E0
:1011A800FB7CBB7406E000BF0010024000700040EA
:1011B800FB7CBB747B7C012B05D19E4B9B6D9D4AB0
:1011C80023F0805393657B681B6803F00103002BB1
:1011D8000AD0984BD3F8883023F003027B689B6BC6
:1011E80094491343C1F888307B681B6803F00203F5
:1011F800002B0AD08F4BD3F8883023F00C027B6881
:10120800DB6B8C491343C1F888307B681B6803F09B
:101218000403002B0AD0874BD3F8883023F0300220
:101228007B681B6C83491343C1F888307B681B6853
:1012380003F00803002B0AD07E4BD3F8883023F044
:10124800C0027B685B6C7B491343C1F888307B68BC
:101258001B6803F01003002B0AD0764BD3F88830B4
:1012680023F440727B689B6C72491343C1F8883041
:101278007B681B6803F02003002B0AD06D4BD3F862
:10128800883023F440627B68DB6C6A491343C1F8F9
:1012980088307B681B6803F40073002B0AD0654B09
:1012A800D3F8883023F440227B68DB6D614913430F
:1012B800C1F888307B681B6803F48063002B0AD070
:1012C8005C4BD3F8883023F440127B681B6E594975
:1012D8001343C1F888307B681B6803F04003002B78
:1012E8000AD0544BD3F8883023F440527B681B6DE6
:1012F80050491343C1F888307B681B6803F08003AA
:10130800002B0AD04B4BD3F8883023F440427B683B
:101318005B6D48491343C1F888307B681B6803F448
:101328008073002B0AD0434BD3F8883023F4403223
:101338007B689B6D3F491343C1F888307B681B6805
:1013480003F40053002B28D03A4BD3F8883023F00D
:1013580040627B68DB6E37491343C1F888307B688D
:10136800DB6EB3F1006F06D1324BDB68314A43F4D0
:101378008013D36011E07B68DB6EB3F1806F0CD112
:101388007B6804330121184600F0C8F80346FB7453
:10139800FB7C002B01D0FB7CBB747B681B6803F4CF
:1013A8000023002B28D0234BD3F8883023F0406249
:1013B8007B681B6F1F491343C1F888307B681B6F1C
:1013C800B3F1006F06D11B4BDB681A4A43F4801354
:1013D800D36011E07B681B6FB3F1806F0CD17B6821
:1013E80004330121184600F099F80346FB74FB7C8E
:1013F800002B01D0FB7CBB747B681B6803F4802343
:10140800002B2BD00B4BD3F8883023F040627B683D
:101418005B6F08491343C1F888307B685B6FB3F191
:10142800006F09D1034BDB68024A43F48013D36091
:1014380014E000BF001002407B685B6FB3F1806F5F
:101448000CD17B6804330121184600F067F8034685
:10145800FB74FB7C002B01D0FB7CBB747B681B6896
:1014680003F48043002B2FD02B4BD3F8883023F084
:1014780040527B689B6F28491343C1F888307B68CA
:101488009B6FB3F1805F0DD17B680433022118464E
:1014980000F044F80346FB74FB7C002B14D0FB7C63
:1014A800BB7411E07B689B6FB3F1005F0CD17B6864
:1014B80020330221184600F025F90346FB74FB7C13
:1014C800002B01D0FB7CBB747B681B6803F40043D2
:1014D800002B0AD0104BD3F8883023F080427B6869
:1014E800DB6F0D491343C1F888307B681B6803F430
:1014F8008033002B0BD0084BD3F8883023F0004200
:101508007B68D3F8803004491343C1F88830BB7C2A
:1015180018461837BD4680BD0010024080B584B01B
:1015280000AF786039600023FB73754BDB6803F00C
:101538000303002B18D0724BDB6803F003027B68AF
:101548001B689A420DD17B681B68002B09D06C4B35
:10155800DB681B0903F007035A1C7B685B689A4227
:1015680047D00123FB7344E07B681B68032B18D02A
:10157800032B25D8012B02D0022B09D020E0604B89
:101588001B6803F00203002B1DD10123FB731AE033
:101598005B4B1B6803F48063002B16D10123FB739C
:1015A80013E0574B1B6803F40033002B0FD1544B47
:1015B8001B6803F48023002B09D10123FB7306E089
:1015C8000123FB7304E000BF02E000BF00E000BF9E
:1015D800FB7B002B0DD14A4BDB6823F073027B6841
:1015E80019687B685B68013B1B010B434449134343
:1015F800CB60FB7B002B7DD1414B1B68404A23F01D
:101608008063136001F0E8FCB86009E001F0E4FCD5
:101618000246BB68D31A022B02D90323FB7305E0E9
:10162800374B1B6803F00063002BEFD1FB7B002BCB
:1016380060D13B68002B11D1314B1B6923F41F3358
:1016480023F440737A68926811027A68D2681209A2
:1016580052040A432A4913430B6127E03B68012BD4
:1016680012D1274B1B6923F4C00323F4FE437A6885
:10167800926811027A6812695208013A52050A43BF
:101688001F4913430B6111E01D4B1B6923F0C06315
:1016980023F4FE437A68926811027A685269520804
:1016A800013A52060A43164913430B61144B1B684F
:1016B800134A43F08063136001F08EFCB86009E0C0
:1016C80001F08AFC0246BB68D31A022B02D9032315
:1016D800FB7305E00A4B1B6803F00063002BEFD097
:1016E800FB7B002B06D1064B1A697B689B69044972
:1016F80013430B61FB7B18461037BD4680BD00BF06
:101708000010024080B584B000AF786039600023D3
:10171800FB736A4BDB6803F00303002B18D0674B9D
:10172800DB6803F003027B681B689A420DD17B6873
:101738001B68002B09D0614BDB681B0903F007030A
:101748005A1C7B685B689A4247D00123FB7344E0CC
:101758007B681B68032B18D0032B25D8012B02D0DC
:10176800022B09D020E0554B1B6803F00203002B25
:101778001DD10123FB731AE0504B1B6803F48063EF
:10178800002B16D10123FB7313E04C4B1B6803F4A9
:101798000033002B0FD1494B1B6803F48023002B27
:1017A80009D10123FB7306E00123FB7304E000BFAA
:1017B80002E000BF00E000BFFB7B002B0DD13F4BD8
:1017C800DB6823F073027B6819687B685B68013B00
:1017D8001B010B4339491343CB60FB7B002B67D1BB
:1017E800364B1B68354A23F08053136001F0F4FB35
:1017F800B86009E001F0F0FB0246BB68D31A022B7F
:1018080002D90323FB7305E02C4B1B6803F000533C
:10181800002BEFD1FB7B002B4AD13B68002B11D169
:10182800264B5B6923F41F3323F440737A6892686C
:1018380011027A68D268120952040A431F491343F5
:101848004B6111E01D4B5B6923F0C06323F4FE4339
:101858007A68926811027A6812695208013A520647
:101868000A43164913434B61144B1B68134A43F050
:101878008053136001F0B0FBB86009E001F0ACFBE5
:101888000246BB68D31A022B02D90323FB7305E077
:101898000A4B1B6803F00053002BEFD0FB7B002B97
:1018A80006D1064B5A697B685B69044913434B614F
:1018B800FB7B18461037BD4680BD00BF00100240B4
:1018C80080B588B000AF78607B68002B01D1012318
:1018D800CAE3974B9B6803F00C03BB61944BDB682E
:1018E80003F003037B617B681B6803F01003002B84
:1018F80000F0E480BB69002B07D0BB690C2B40F0DB
:101908008B807B69012B40F08780894B1B6803F033
:101918000203002B05D07B689B69002B01D10123B2
:10192800A2E37B681A6A824B1B6803F00803002B4A
:1019380004D07F4B1B6803F0F00305E07C4BD3F821
:1019480094301B0903F0F003934223D27B681B6A8F
:10195800184600F055FD0346002B01D0012383E310
:10196800734B1B68724A43F008031360704B1B6883
:1019780023F0F0027B681B6A6D4913430B606C4BC4
:101988005B6823F47F427B68DB691B026849134369
:101998004B6025E0664B1B68654A43F008031360FB
:1019A800634B1B6823F0F0027B681B6A6049134392
:1019B8000B605F4B5B6823F47F427B68DB691B022B
:1019C8005B4913434B60BB69002B09D17B681B6AD9
:1019D800184600F015FD0346002B01D0012343E310
:1019E80000F04AFC0246524B9B681B0903F00F03A8
:1019F8005049CB5C03F01F0322FA03F34E4A1360ED
:101A08004E4B1B68184601F097FA0346FB73FB7BA5
:101A1800002B52D0FB7B27E37B689B69002B32D0DD
:101A2800434B1B68424A43F00103136001F0D4FAA8
:101A3800386108E001F0D0FA02463B69D31A022B5C
:101A480001D9032310E33A4B1B6803F00203002B70
:101A5800F0D0374B1B68364A43F008031360344B09
:101A68001B6823F0F0027B681B6A314913430B6043
:101A78002F4B5B6823F47F427B68DB691B022C4990
:101A880013434B601AE02A4B1B68294A23F00103D1
:101A9800136001F0A1FA386108E001F09DFA0246EE
:101AA8003B69D31A022B01D90323DDE2204B1B68C3
:101AB80003F00203002BF0D100E000BF7B681B6835
:101AC80003F00103002B74D0BB69082B05D0BB6958
:101AD8000C2B0ED17B69032B0BD1154B1B6803F420
:101AE8000033002B64D07B685B68002B60D1012336
:101AF800BAE27B685B68B3F5803F06D10C4B1B6884
:101B08000B4A43F48033136026E07B685B68B3F5C7
:101B1800A02F15D1064B1B68054A43F48023136098
:101B2800034B1B68024A43F48033136014E000BF80
:101B380000100240B030000800000020040000201F
:101B4800A04B1B689F4A23F4803313609D4B1B688E
:101B58009C4A23F4802313607B685B68002B13D0B6
:101B680001F03AFA386108E001F036FA02463B69BA
:101B7800D31A642B01D9032376E2924B1B6803F432
:101B88000033002BF0D014E001F026FA386108E0A9
:101B980001F022FA02463B69D31A642B01D90323C8
:101BA80062E2884B1B6803F40033002BF0D100E09D
:101BB80000BF7B681B6803F00203002B60D0BB6981
:101BC800042B05D0BB690C2B19D17B69022B16D1CC
:101BD8007C4B1B6803F48063002B05D07B68DB68B3
:101BE800002B01D101233FE2764B5B6823F0F852CA
:101BF8007B681B691B06734913434B6040E07B6895
:101C0800DB68002B23D06F4B1B686E4A43F480734C
:101C1800136001F0E1F9386108E001F0DDF90246EE
:101C28003B69D31A022B01D903231DE2654B1B68BC
:101C380003F48063002BF0D0624B5B6823F0F8520A
:101C48007B681B691B065F4913434B6018E05D4BBB
:101C58001B685C4A23F48073136001F0BDF9386196
:101C680008E001F0B9F902463B69D31A022B01D901
:101C78000323F9E1534B1B6803F48063002BF0D175
:101C88007B681B6803F00803002B3CD07B685B690A
:101C9800002B1CD04B4BD3F894304A4A43F0010335
:101CA800C2F8943001F098F9386108E001F094F92D
:101CB80002463B69D31A022B01D90323D4E1414BD5
:101CC800D3F8943003F00203002BEFD01BE03D4B18
:101CD800D3F894303B4A23F00103C2F8943001F062
:101CE8007BF9386108E001F077F902463B69D31ABD
:101CF800022B01D90323B7E1324BD3F8943003F018
:101D08000203002BEFD17B681B6803F00403002B50
:101D180000F0A6800023FB772A4B9B6D03F08053CD
:101D2800002B0DD1274B9B6D264A43F080539365BA
:101D3800244B9B6D03F08053BB60BB680123FB778A
:101D4800214B1B6803F48073002B18D11E4B1B68B2
:101D58001D4A43F48073136001F03EF9386108E0CE
:101D680001F03AF902463B69D31A022B01D9032341
:101D78007AE1154B1B6803F48073002BF0D07B6865
:101D88009B68012B08D10F4BD3F890300D4A43F0D4
:101D98000103C2F8903029E07B689B68052B15D1B8
:101DA800084BD3F89030074A43F00403C2F8903048
:101DB800044BD3F89030034A43F00103C2F8903043
:101DC80014E000BF00100240007000409C4BD3F8A4
:101DD80090309B4A23F00103C2F89030984BD3F817
:101DE8009030974A23F00403C2F890307B689B68D0
:101DF800002B16D001F0F0F838610AE001F0ECF899
:101E080002463B69D31A41F28832934201D903232F
:101E18002AE18B4BD3F8903003F00203002BEDD06E
:101E280015E001F0D9F838610AE001F0D5F802466A
:101E38003B69D31A41F28832934201D9032313E153
:101E48007F4BD3F8903003F00203002BEDD1FB7FDA
:101E5800012B05D17A4B9B6D794A23F0805393650A
:101E68007B689B6A002B00F0FE807B689B6A022BD4
:101E780040F0D080724BDB687B617B6903F0030222
:101E88007B68DB6A9A4230D17B6903F070027B6819
:101E98001B6B013B1B019A4227D17B6903F4FE426D
:101EA8007B685B6B1B029A421FD17B6903F400338A
:101EB8007A68926B072A14BF01220022D2B2934299
:101EC80013D17B6903F4C0027B68DB6B5B08013BC1
:101ED8005B059A4209D17B6903F0C0627B681B6C81
:101EE8005B08013B5B069A426ED0BB690C2B69D03C
:101EF800534B1B6803F08063002B05D1504B1B68C4
:101F080003F08053002B01D00123ADE04C4B1B683C
:101F18004B4A23F08073136001F05EF8386108E0E3
:101F280001F05AF802463B69D31A022B01D9032360
:101F38009AE0434B1B6803F00073002BF0D1404B31
:101F4800DA68404B13407A68D16A7A68126B013AB2
:101F5800120111437A68526B120211437A68D26BEC
:101F68005208013A520511437A68126C5208013A34
:101F7800520611437A68926B120952040A43304997
:101F88001343CB602E4B1B682D4A43F080731360BC
:101F98002B4BDB682A4A43F08073D36001F01CF8AE
:101FA800386108E001F018F802463B69D31A022BA1
:101FB80001D9032358E0224B1B6803F00073002B60
:101FC800F0D050E001234FE01D4B1B6803F0007375
:101FD800002B48D11A4B1B68194A43F080731360D1
:101FE800174BDB68164A43F08073D36000F0F4FFA8
:101FF800386108E000F0F0FF02463B69D31A022B73
:1020080001D9032330E00E4B1B6803F00073002B4B
:10201800F0D028E0BB690C2B23D0094B1B68084A79
:1020280023F08073136000F0D7FF38610CE000F0F4
:10203800D3FF02463B69D31A022B05D9032313E0C9
:10204800001002408C809DF9094B1B6803F0007357
:10205800002BECD1064BDA680549064B1340CB60E0
:1020680001E0012300E0002318462037BD4680BD6B
:1020780000100240FCFFEEFE80B584B000AF78602F
:1020880039607B68002B01D10123E7E0754B1B68A1
:1020980003F007033A689A4210D9724B1B6823F081
:1020A800070270493B6813430B606E4B1B6803F0D3
:1020B80007033A689A4201D00123CFE07B681B6886
:1020C80003F00203002B10D07B689A68664B9B686C
:1020D80003F0F0039A4208D9634B9B6823F0F0029F
:1020E8007B689B68604913438B607B681B6803F0BF
:1020F8000103002B4CD07B685B68032B07D15A4B3C
:102108001B6803F00073002B21D10123A6E07B6834
:102118005B68022B07D1544B1B6803F40033002B78
:1021280015D101239AE07B685B68002B07D14E4BE1
:102138001B6803F00203002B09D101238EE04A4BF0
:102148001B6803F48063002B01D1012386E0464B12
:102158009B6823F003027B685B68434913438B60E9
:1021680000F03AFFF8600AE000F036FF0246FB682C
:10217800D31A41F28832934201D903236EE03A4BD5
:102188009B6803F00C027B685B689B009A42EBD16A
:102198007B681B6803F00203002B10D07B689A68E9
:1021A800314B9B6803F0F0039A4208D22E4B9B6890
:1021B80023F0F0027B689B682B4913438B60294B03
:1021C8001B6803F007033A689A4210D2254B1B6834
:1021D80023F0070223493B6813430B60214B1B681C
:1021E80003F007033A689A4201D0012336E07B687E
:1021F8001B6803F00403002B08D01B4B9B6823F4D7
:10220800E0627B68DB68184913438B607B681B6856
:1022180003F00803002B09D0134B9B6823F460528A
:102228007B681B69DB00104913438B6000F024F8BE
:1022380002460D4B9B681B0903F00F030B49CB5C4F
:1022480003F01F0322FA03F3094A1360094B1B68C2
:10225800184600F071FE0346FB72FB7A18461037E9
:10226800BD4680BD0020024000100240B03000088A
:10227800000000200400002080B489B000AF0023D3
:10228800FB610023BB613E4B9B6803F00C033B6181
:102298003B4BDB6803F00303FB603B69002B05D075
:1022A8003B690C2B21D1FB68012B1ED1344B1B68D9
:1022B80003F00803002B07D1314BD3F894301B0AE5
:1022C80003F00F03FB6105E02D4B1B681B0903F0AE
:1022D8000F03FB612B4AFB6952F82330FB613B6912
:1022E800002B0DD1FB69BB610AE03B69042B02D1CD
:1022F800254BBB6104E03B69082B01D1234BBB6133
:102308003B690C2B34D11E4BDB6803F00303BB6025
:10231800BB68022B03D0BB68032B03D005E01A4B24
:102328007B6105E0194B7B6102E0FB697B6100BFC3
:10233800134BDB681B0903F0070301337B60104B69
:10234800DB681B0A03F07F037A6903FB02F27B68F0
:10235800B2FBF3F37B610A4BDB685B0E03F003030C
:1023680001335B003B607A693B68B2FBF3F3BB6106
:10237800BB6918462437BD465DF8047B704700BF2B
:1023880000100240C83000080024F40000127A004F
:1023980080B400AF034B1B681846BD465DF8047B4C
:1023A800704700BF0000002080B500AFFFF7F0FFC6
:1023B8000246064B9B681B0A03F007030449CB5CE3
:1023C80003F01F0322FA03F3184680BD00100240F1
:1023D800C030000880B500AFFFF7DAFF0246064BB1
:1023E8009B68DB0A03F007030449CB5C03F01F0377
:1023F80022FA03F3184680BD00100240C0300008DE
:1024080080B586B000AF786000233B612A4B9B6D96
:1024180003F08053002B03D0FEF732FD786114E0FF
:10242800254B9B6D244A43F080539365224B9B6D4B
:1024380003F08053FB60FB68FEF722FD78611E4BBA
:102448009B6D1D4A23F0805393657B69B3F5007F2C
:102458000BD17B68802B19D97B68A02B02D902236A
:102468003B6113E001233B6110E07B68802B02D9BC
:1024780003233B610AE07B68802B02D102233B6186
:1024880004E07B68702B01D101233B610B4B1B6877
:1024980023F0070209493B6913430B60074B1B688C
:1024A80003F007033A699A4201D0012300E00023B0
:1024B80018461837BD4680BD001002400020024073
:1024C80080B582B000AF78607B68002B01D1012312
:1024D80040E07B68DB6F002B06D17B68002283F825
:1024E80078207868FEF748F97B682422DA677B68E9
:1024F8001B681A687B681B6822F001021A607B68F7
:102508005B6A002B02D0786800F0E0FA786800F087
:1025180025F80346012B01D101231BE07B681B68CA
:102528005A687B681B6822F490425A607B681B6873
:102538009A687B681B6822F02A029A607B681B688D
:102548001A687B681B6842F001021A60786800F01C
:102558005FFB034618460837BD4680BD2DE9B04FDE
:102568008AB000AFF860002387F82230FB689A68C9
:10257800FB681B691A43FB685B691A43FB68DB69E4
:1025880013437B62FB681B681A68A44B1340FA6804
:102598001268796A0B431360FB681B685B6823F455
:1025A8004051FB68DA68FB681B680A435A60FB689D
:1025B8009B697B62FB681B68994A934204D0FB685D
:1025C8001B6A7A6A13437B62FB681B689B6823F467
:1025D8003061FB681B687A6A0A439A60FB681B686B
:1025E800904A934226D1904BD3F8883003F00303E6
:1025F800032B1BD801A252F823F000BF15260008B0
:10260800252600081D2600082D260008012387F826
:10261800233016E1022387F8233012E1042387F8D8
:1026280023300EE1082387F823300AE1102387F8C6
:10263800233006E1FB681B687C4A934238D17A4B09
:10264800D3F8883003F00C030C2B2DD801A252F8D4
:1026580023F000BF91260008B1260008B126000823
:10266800B1260008A1260008B1260008B1260008F6
:10267800B126000899260008B1260008B1260008EE
:10268800B1260008A9260008002387F82330D8E0DF
:10269800022387F82330D4E0042387F82330D0E0DE
:1026A800082387F82330CCE0102387F82330C8E0CC
:1026B800FB681B685E4A934225D15B4BD3F8883090
:1026C80003F03003302B16D0302B18D8202B0AD02B
:1026D800202B14D8002B02D0102B08D00FE0002399
:1026E80087F82330ADE0022387F82330A9E00423DC
:1026F80087F82330A5E0082387F82330A1E01023CA
:1027080087F823309DE0FB681B684A4A934225D12D
:10271800454BD3F8883003F0C003C02B16D0C02B2C
:1027280018D8802B0AD0802B14D8002B02D0402B2D
:1027380008D00FE0002387F8233082E0022387F8CF
:1027480023307EE0042387F823307AE0082387F8D3
:10275800233076E0102387F8233072E0FB681B688B
:10276800354A93422AD1304BD3F8883003F440736A
:10277800B3F5407F1AD0B3F5407F1BD8B3F5007F7F
:102788000CD0B3F5007F15D8002B03D0B3F5807FAC
:1027980008D00FE0002387F8233052E0022387F89F
:1027A80023304EE0042387F823304AE0082387F8D3
:1027B800233046E0102387F8233042E0FB681B688B
:1027C800174A93423AD1184BD3F8883003F4406340
:1027D800B3F5406F1AD0B3F5406F1BD8B3F5006F4F
:1027E8000CD0B3F5006F15D8002B03D0B3F5806F6C
:1027F80008D00FE0002387F8233022E0022387F86F
:1028080023301EE0042387F823301AE0082387F8D2
:10281800233016E0102387F8233012E0F369FFEF26
:102828000080004000380140001002400044004091
:1028380000480040004C004000500040102387F83A
:102848002330FB681B689F4A93427AD197F823305C
:10285800082B24D801A252F823F000BF89280008C9
:10286800A728000891280008A7280008972800082A
:10287800A7280008A7280008A72800089F280008FC
:10288800FFF792FDF86110E08F4BFB610DE0FFF759
:10289800F3FCF86109E04FF40043FB6105E0002315
:1028A800FB61012387F8223000BFFB69002B00F091
:1028B800FB80FB685A6813465B001344FA699A4226
:1028C80005D3FB685B681B03FA699A4203D90123A5
:1028D80087F82230E8E0FB6900221C4615464FF0D5
:1028E80000024FF000032B0243EA14632202F96846
:1028F8004968490800208846814612EB080A43EBDC
:10290800090BFB685B6800223B607A60D7E900230B
:1029180050465946FDF754FC02460B461346BB6128
:10292800BB69B3F5407F08D3BB69B3F5801F04D2F8
:10293800FB681B68BA69DA60B6E0012387F82230C1
:10294800B2E0FB68DB69B3F5004F5ED197F823303E
:10295800082B28D801A252F823F000BF89290008C3
:102968009129000899290008AF2900089F29000823
:10297800AF290008AF290008AF290008A7290008D7
:10298800FFF712FDF86114E0FFF724FDF86110E08D
:102998004D4BFB610DE0FFF76FFCF86109E04FF468
:1029A8000043FB6105E00023FB61012387F8223027
:1029B80000BFFB69002B77D0FB695A00FB685B6896
:1029C8005B081A44FB685B68B2FBF3F3BB61BB6945
:1029D8000F2B16D9BB69B3F5803F12D2BB699BB2E6
:1029E80023F00F03FB82BB695B089BB203F007036C
:1029F8009AB2FB8A1343FB82FB681B68FA8ADA6087
:102A080052E0012387F822304EE097F82330082B54
:102A180027D801A252F823F0452A00084D2A0008B9
:102A2800552A00086B2A00085B2A00086B2A000850
:102A38006B2A00086B2A0008632A0008FFF7B4FC19
:102A4800F86114E0FFF7C6FCF86110E01E4BFB616B
:102A58000DE0FFF711FCF86109E04FF40043FB615A
:102A680005E00023FB61012387F8223000BFFB69E2
:102A7800002B19D0FB685B685A08FB691A44FB688D
:102A88005B68B2FBF3F3BB61BB690F2B09D9BB6968
:102A9800B3F5803F05D2BB699AB2FB681B68DA6060
:102AA80002E0012387F82230FB6800229A66FB685F
:102AB8000022DA6697F8223018462837BD46BDE866
:102AC800B08F00BF008000400024F40080B483B0C1
:102AD80000AF78607B685B6A03F00803002B0AD0BC
:102AE8007B681B685B6823F400417B685A6B7B68D2
:102AF8001B680A435A607B685B6A03F00103002B7A
:102B08000AD07B681B685B6823F400317B689A6A8B
:102B18007B681B680A435A607B685B6A03F00203A0
:102B2800002B0AD07B681B685B6823F480317B68C4
:102B3800DA6A7B681B680A435A607B685B6A03F041
:102B48000403002B0AD07B681B685B6823F4802190
:102B58007B681A6B7B681B680A435A607B685B6AF0
:102B680003F01003002B0AD07B681B689B6823F4D2
:102B780080517B689A6B7B681B680A439A607B6804
:102B88005B6A03F02003002B0AD07B681B689B68F4
:102B980023F400517B68DA6B7B681B680A439A60F0
:102BA8007B685B6A03F04003002B1AD07B681B68C4
:102BB8005B6823F480117B681A6C7B681B680A4386
:102BC8005A607B681B6CB3F5801F0AD17B681B6851
:102BD8005B6823F4C0017B685A6C7B681B680A43F6
:102BE8005A607B685B6A03F08003002B0AD07B681D
:102BF8001B685B6823F400217B689A6C7B681B6800
:102C08000A435A6000BF0C37BD465DF8047B704725
:102C180080B598B002AF78607B680022C3F8842042
:102C280000F0DAF978657B681B681B6803F0080315
:102C3800082B2ED16FF07E4300937B6D00224FF45A
:102C48000011786800F08CF80346002B21D07B68CF
:102C58001B68BB63BB6B53E8003F7B637B6B23F054
:102C680080033B657B681B681A463B6D7B643A644E
:102C7800396C7A6C41E80023FB63FB6B002BE6D1CF
:102C88007B682022DA677B68002283F87820032398
:102C980062E07B681B681B6803F00403042B49D1BE
:102CA8006FF07E4300937B6D00224FF480017868BB
:102CB80000F056F80346002B3CD07B681B687B620B
:102CC8007B6A53E8003F3B623B6A23F49073FB64E2
:102CD8007B681B681A46FB6C3B63FA62F96A3A6BBD
:102CE80041E80023BB62BB6A002BE6D17B681B6806
:102CF80008333B613B6953E8003FFB60FB6823F006
:102D08000103BB647B681B680833BA6CFA61BB615A
:102D1800B969FA6941E800237B617B69002BE5D139
:102D28007B682022C3F880207B68002283F8782003
:102D3800032311E07B682022DA677B682022C3F82E
:102D480080207B6800221A667B6800225A667B68AE
:102D5800002283F87820002318465837BD4680BDE6
:102D680080B584B000AFF860B9603B601346FB7172
:102D780049E0BB69B3F1FF3F45D000F02DF90246A9
:102D88003B68D31ABA699A4202D3BB69002B01D1B6
:102D9800032348E0FB681B681B6803F00403002B4F
:102DA80031D0FB681B68DB6903F00803082B10D1DE
:102DB800FB681B6808221A62F86800F038F8FB689C
:102DC8000822C3F88420FB68002283F878200123B6
:102DD80029E0FB681B68DB6903F40063B3F5006F47
:102DE80011D1FB681B684FF400621A62F86800F0A2
:102DF8001EF8FB682022C3F88420FB68002283F8B1
:102E0800782003230FE0FB681B68DA69BB6813406E
:102E1800BA689A420CBF01230023DBB21A46FB7939
:102E28009A42A6D0002318461037BD4680BD80B40C
:102E380095B000AF78607B681B687B637B6B53E859
:102E4800003F3B633B6B23F49073FB647B681B6818
:102E58001A46FB6C3B64FA63F96B3A6C41E8002351
:102E6800BB63BB6B002BE6D17B681B6808333B62F6
:102E78003B6A53E8003FFB61FB6923F00103BB6435
:102E88007B681B680833BA6CFA62BB62B96AFA6A73
:102E980041E800237B627B6A002BE5D17B681B6ECF
:102EA800012B18D17B681B68FB60FB6853E8003F67
:102EB800BB60BB6823F010037B647B681B681A4601
:102EC8007B6CBB617A617969BA6941E800233B612F
:102ED8003B69002BE6D17B682022C3F880207B6801
:102EE80000221A667B6800229A6600BF5437BD46E6
:102EF8005DF8047B7047000080B582B000AF002306
:102F0800FB710C4B1B680B4A43F48073136003205E
:102F1800FDF7A6FD002000F00FF80346002B02D0B5
:102F28000123FB7101E0FDF703FCFB791846083724
:102F3800BD4680BD0020024080B584B000AF7860F7
:102F48000023FB73174B1B78002B23D0164B1A68F2
:102F5800144B1B7819464FF47A73B3FBF1F3B2FBA9
:102F6800F3F31846FDF7A3FD0346002B0FD17B684A
:102F78000F2B09D8002279684FF0FF30FDF77BFD51
:102F88000A4A7B68136007E00123FB7304E001230E
:102F9800FB7301E00123FB73FB7B18461037BD462A
:102FA80080BD00BF080000200000002004000020B1
:102FB80080B400AF064B1B781A46064B1B681344B7
:102FC800044A136000BFBD465DF8047B704700BF2C
:102FD80008000020B000002080B400AF034B1B683D
:102FE8001846BD465DF8047B704700BFB00000205E
:102FF80080B584B000AF7860FFF7EEFFB8607B68FB
:10300800FB60FB68B3F1FF3F05D00A4B1B781A46FB
:10301800FB681344FB6000BFFFF7DEFF0246BB6896
:10302800D31AFA689A42F7D800BF00BF1037BD46D6
:1030380080BD00BF0800002002440346934200D12F
:10304800704703F8011BF9E770B50D4D0D4C641B73
:10305800A4100026A64209D10B4D0C4C00F018F81C
:10306800641BA4100026A64205D170BD55F8043B88
:1030780098470136EEE755F8043B98470136F2E7E2
:103088000031000800310008003100080431000850
:10309800F8B500BFF8BC08BC9E467047F8B500BF3D
:0830A800F8BC08BC9E4670470D
:1030B00000000000000000000102030406070809E8
:1030C0000000000001020304A0860100400D03007F
:1030D000801A060000350C0040420F0080841E005C
:1030E00000093D0000127A000024F40000366E0151
:0830F0000048E801006CDC025D
:0830F80000D1FF7F0100000080
:04310000AD01000815
:043104008901000835
:0C31080000093D00100000000100000064
:04000005080008B136
:00000001FF
