:020000040800F2
:1000000000800120C54B0008294A00082B4A00083F
:100010002D4A00082F4A0008314A0008000000005D
:10002000000000000000000000000000334A00084B
:10003000354A000800000000374A0008394A000825
:10004000154C0008154C0008154C0008154C00080C
:10005000154C0008154C0008154C0008154C0008FC
:10006000154C0008154C0008154C0008154C0008EC
:10007000154C0008154C0008154C0008154C0008DC
:10008000154C0008154C0008154C0008154C0008CC
:10009000154C0008154C0008154C0008154C0008BC
:1000A000154C0008154C0008154C0008154C0008AC
:1000B000154C0008154C0008154C0008154C00089C
:1000C000154C0008154C0008154C0008154C00088C
:1000D000154C0008154C0008154C0008154C00087C
:1000E000154C0008154C0008154C0008154C00086C
:1000F000154C0008154C0008154C0008154C00085C
:10010000154C0008154C0008154C0008154C00084B
:10011000154C0008154C0008154C0008154C00083B
:10012000154C0008154C0008154C0008154C00082B
:10013000154C0008154C0008154C0008154C00081B
:10014000154C0008154C0008154C0008154C00080B
:10015000154C0008154C0008154C0008154C0008FB
:10016000154C0008154C0008154C0008154C0008EB
:10017000154C0008154C0008154C00080000000044
:08018000154C0008154C0008A5
:1001C0000348044B834202D0034B03B118477047E6
:1001D0007000002070000020000000000548064963
:1001E0000B1AD90F01EBA301491002D0034B03B145
:1001F00018477047700000207000002000000000C9
:1002000010B5064C237843B9FFF7DAFF044B13B15E
:100210000448AFF300800123237010BD700000205C
:1002200000000000184C000808B5044B1BB104493D
:100230000448AFF30080BDE80840CFE700000000AD
:1002400074000020184C000870B50D4E0D4D761B43
:10025000B61006D0002455F8043B01349847A64256
:10026000F9D1094E094D761B04F0D6FCB61006D024
:10027000002455F8043B01349847A642F9D170BDDB
:100280002051000820510008245100082051000886
:10029000024B0146186800F0BFB800BF0000002004
:1002A000024B0146186800F055B800BF000000205E
:1002B000830730B548D0541E002A3FD0CAB2034647
:1002C00001E0013C3AD303F8012B9D07F9D1032C3F
:1002D0002DD9CDB245EA05250F2C45EA054536D97D
:1002E000A4F1100222F00F0C03F1200EE6444FEAB5
:1002F000121C03F1100242E9045542E90255103282
:100300007245F8D10CF1010214F00C0F03EB02124C
:1003100004F00F0C13D0ACF1040323F003030433F7
:10032000134442F8045B9342FBD10CF003042CB15C
:10033000CAB21C4403F8012B9C42FBD130BD644679
:100340001346002CF4D1F9E703461446BFE71A46DA
:10035000A446E0E7002958D030B551F8043C83B0FA
:10036000002BA1F10404B8BFE418019000F066F975
:10037000284A0198136833B1A3420DD9216804EBD0
:10038000010C63452FD06360146003B0BDE83040BA
:1003900000F056B9A34210D81A465B68002BF9D179
:1003A000116802EB010C644519D02FD363605460CF
:1003B00003B0BDE8304000F043B9116802EB010C16
:1003C000A44516D022D8216804EB010C6345EDD179
:1003D0001D685B682944C4E900135460D5E72368AD
:1003E00019441160D1E71D685B682944C4E9001312
:1003F000CAE7246821445418A3421160C5D1D3E947
:1004000000432144C2E90013BFE770470C23036097
:10041000BBE700BF8C000020F8B5CD1C25F003051C
:1004200008350C2D38BF0C25002D064623DBA942CC
:1004300021D8254F00F002F93A6822B3144603E0B0
:1004400063682246FBB11C4623685B1BF8D40B2B68
:1004500015D8636894420CBF3B605360304600F08F
:10046000EFF804F10B00231D20F00700C21A01D0A1
:100470001B1AA350F8BD0C2333600020F8BD236085
:100480001C442560EAE77968C9B12946304600F086
:100490001DF8431C0CD0C41C24F00304A04205D05A
:1004A000211A304600F012F8013001D02560D5E75E
:1004B0000C233046336000F0C3F80020F8BD30460E
:1004C00000F004F87860E0E78C00002038B5074DB4
:1004D0000022044608462A6000F032FE431C00D089
:1004E00038BD2B68002BFBD0236038BD9400002062
:1004F00000000000000000000000000000000000FC
:1005000090F800F06DE9024520F007016FF0000C53
:1005100010F0070491F820F040F049804FF00004FB
:100520006FF00700D1E9002391F840F000F10800D6
:1005300082FA4CF2A4FA8CF283FA4CF3A2FA8CF30E
:100540004BBBD1E9022382FA4CF200F10800A4FA75
:100550008CF283FA4CF3A2FA8CF3E3B9D1E90423C9
:1005600082FA4CF200F10800A4FA8CF283FA4CF300
:10057000A2FA8CF37BB9D1E9062301F1200182FABA
:100580004CF200F10800A4FA8CF283FA4CF3A2FAC0
:100590008CF3002BC6D0002A04BF04301A4612BACE
:1005A000B2FA82F2FDE8024500EBD2007047D1E9D1
:1005B000002304F00305C4F100004FEAC50514F060
:1005C000040F91F840F00CFA05F562EA05021CBF31
:1005D00063EA050362464FF00004A9E770B50B4ECD
:1005E0009AB004466FF00045CDE9044513460094E7
:1005F0000A463068064C02956946039400F000F9FB
:10060000009B00221A701AB070BD00BF00000020CD
:100610000802FFFF10B59AB06FF00044CDE9041452
:10062000009102946946044C039400F0E9F8009BA1
:1006300000221A701AB010BD0802FFFF704700BFF9
:10064000704700BF2DE9F0478F689F420C461D465A
:10065000164638D88246888910F4906F0ED1086803
:100660003D462A46314600F0BDFCA2682368D21BF5
:100670002B44A26023600020BDE8F0874B69096924
:1006800003EB4308236808EBD878A3EB01096B1C44
:100690004FEA68084B444345424684BF9846424669
:1006A000430513D511465046FFF7B6FE074608B37B
:1006B00021694A4600F0FCFBA38923F4906343F0D0
:1006C0008003A38107E008681F46CAE7504600F090
:1006D00005FD074650B107EB0900A8EB09032761A8
:1006E000C4F81480A36020602F46BAE72169504601
:1006F000FFF730FE0C23CAF80030A38943F0400313
:100700004FF0FF30A381B7E72DE9F04F936883B036
:100710009146002B6ED017688D6880460C4608689D
:10072000083744E0A38913F4906F2ED0D4E9041560
:10073000A0EB010A05EB450505EBD5750AEB0600B4
:100740006D100130A8422A4684BF05462A465B0543
:1007500037D511464046FFF75FFE00283BD0524692
:100760002169019000F0A4FBA289019B22F4906210
:1007700042F08002A281A5EB0A0203EB0A00656148
:10078000A260236120603546B2465946524600F0C9
:1007900029FCA068D9F808102368451B8E1B03EBC1
:1007A0000A00A5602060C9F808601EB3083757E941
:1007B00002B6002EFAD0B542AA46B3D93546B246A3
:1007C000E3E7404600F08AFC03460028D3D12169C4
:1007D0004046FFF7BFFD0C23C8F80030A389002274
:1007E00043F040034FF0FF30A381C9E9012203B079
:1007F000BDE8F08F0020C9F8040003B0BDE8F08F19
:100800002DE9F04F92468A8915069DB088468146AB
:100810001C4603D50A69002A00F0EF8000220992E5
:100820009AF800307E4D039420228DF82920302242
:100830008DF82A200126002B72D0544603E014F8CC
:10084000013F002B76D0252BF9D1B4EB0A0B74D1E4
:100850002278002A64D000234FF0FF32CDE905232F
:10086000049307938DF853301A93013404E0049AEB
:1008700006FA03F313430493A246052214F8011B5E
:10088000284600F0C5FA431B0028F0D1049BD80687
:1008900044BF20228DF8532019079AF8001044BF56
:1008A0002B228DF853202A2954D1039A116804323F
:1008B000002903927CDB07919AF801100AF1010AE2
:1008C0002E2959D0574C0322204600F0A1FA40B1FE
:1008D000049B001B402404FA00F0034304930AF134
:1008E000010A1AF8011B50488DF82810062200F062
:1008F0008FFA002862D04D4B002B52D003AA0092F1
:100900004B4B424604A94846AFF3008007467A1C89
:1009100006D0099B3B4409939AF80030002B8CD1F8
:10092000B8F80C305B0654BF09984FF0FF301DB08B
:10093000BDE8F08FB4EB0A0BF2D05B46524641465D
:100940004846FFF77FFE0130EAD0099B22785B44DE
:1009500009937EE7A1F13002092AB1D8079B1AF862
:10096000011F03EB830302EB4303A1F13002092AC9
:10097000F5D92E290793A5D19AF801102A2927D154
:10098000039B9AF802101A6805920433002A0AF1B0
:1009900002000393B8BF4FF0FF338246B8BF059300
:1009A00090E7039B073323F0070308330393B0E773
:1009B000494243F00203079104937DE703AA0092A2
:1009C0001B4B424604A9484600F0CAF807469EE77A
:1009D000A1F130020023092A05930AF1010A3FF62A
:1009E00071AF1AF8011F03EB830302EB4303A1F17C
:1009F0003002092AF5D9059364E74021FFF70CFD81
:100A0000C8F80000C8F8100018B14022C8F8142037
:100A100004E70C23C9F800304FF0FF3087E700BF30
:100A2000D8500008E0500008E45000080000000022
:100A3000450600082DE9F84F92461F460A698B6863
:100A4000DDF828909A42B8BF1A46CAF8002091F8FB
:100A500043300C46064613B10132CAF80020226822
:100A600091065DD5DAF800300233CAF8003022680A
:100A700012F0060F11461ED1E168CB1A002BD8BF29
:100A8000114618DD04F1190B4FF0000805E0E56888
:100A9000DAF80030ED1A45450CDD01235A46394697
:100AA0003046C847013008F10108F0D14FF0FF305F
:100AB000BDE8F88F216894F84330003B18BF01234C
:100AC0008A060AD5E1185A1C302081F843002244D6
:100AD00094F8451082F84310023304F1430239467A
:100AE0003046C8470130E1D0236803F00603042BE9
:100AF0001DD0A3682269934225DD4FF000089B1AA0
:100B000098441A34002501E045451CDA01232246A9
:100B100039463046C847013005F10105F4D1C5E733
:100B200012F0060F12D0003B18BF0123D5E7DAF808
:100B30000030E1682269C91AA368934221EAE1788A
:100B4000DDDC0029DDDC0020BDE8F88FE168DAF8A3
:100B50000030CB1A002BD8BF114693DCABE700BFA7
:100B60002DE9F0470C4684B09046227E0C9907464A
:100B7000994604F14300002A33D0A2F15803DDB2B4
:100B8000202D67D8202B65D8DFE813F0DE00640045
:100B90006400640064006400640064006400640035
:100BA0006400A3006E0064006400640064006E00D2
:100BB000640064006400640021007F00C0006400E1
:100BC0006400AE0064007F0064006400E5002368F8
:100BD0001A0640F104810B6862691D1D0D601B68D7
:100BE0001A60002382462361CDF80090434603AA91
:100BF00021463846FFF71EFF013020D023695246B8
:100C000041463846C847013019D02368E068039E42
:100C10009B0719D5831B002B16DD04F1190A00254B
:100C200004E0E068039E831BAB420DDD01235246C6
:100C300041463846C847013005F10105F1D14FF072
:100C4000FF3004B0BDE8F087B042B8BF304604B012
:100C5000BDE8F087012384F84220236104F1420AB1
:100C6000002384F84330BFE723681A0602D45E06E7
:100C700000F1C1800D682A6804350D601546002A10
:100C80006BDBDFF884C10A2610E023681D0640F103
:100C90009C800B681D1D0D601D68DFF86CC16F2AFC
:100CA0000CBF08260A26002384F843306268A2603D
:100CB000002A7FDB236823F004032360002D5BD12F
:100CC000002A79D18246082E65D0A0EB0A00206167
:100CD0008AE70B680122186804330B6004F1420AAA
:100CE00084F842002261BBE70B686268181D086047
:100CF000D3F800A00021504600F08AF8002800F048
:100D00008180A0EB0A0060602061A9E7236843F0BE
:100D1000200323607822DFF8F4C084F845200A68B5
:100D2000151D0D601D0643D4590641D51588DE07F3
:100D300044BF43F020032360002D44D1236823F0F7
:100D4000200323601026AEE7582384F84530DFF8EF
:100D5000B8C02368E3E72368DCE76268A2602D215E
:100D6000002AC5F1000584F8431002DB23F00403D8
:100D70002360DFF894C00A268246B5FBF6F306FB33
:100D800013512A461CF801100AF8011DB2421D46F3
:100D9000F3D2082E99D12368D90796D562682369C2
:100DA0009A4292DC30230AF8013C0AF1FF3A8CE7C0
:100DB0001568BCE7002DDFD19CF8003084F8423084
:100DC00004F1420A7FE710266DE713F0400F0B682D
:100DD00003F104050D600CBF1D681D885DE713F06D
:100DE000400F0B68626903F104050D601B6814BFB6
:100DF0001A801A60F5E60A68B2F9005004320A60F7
:100E00002A463CE760687FE7EC5000080051000884
:100E100001F0FF01102A2BDB10F0070F08D010F8AB
:100E2000013B013A8B422DD010F0070F42B3F6D1AF
:100E3000F0B441EA012141EA014122F007047FF0C8
:100E400000070023F0E80256083C85EA010586EA1F
:100E5000010685FA47F5A3FA87F586FA47F6A5FA5B
:100E600087F68EB9EED1F0BC01F0FF0102F0070267
:100E700032B110F8013B013A83EA010313B1F8D112
:100E80000020704701387047002D06BF35460338F3
:100E9000073815F0010F07D1013015F4807F02BF2C
:100EA000013015F4C03F0130F0BC0138704700BF7D
:100EB000844641EA000313F003036DD1403A41D365
:100EC00051F8043B40F8043B51F8043B40F8043B24
:100ED00051F8043B40F8043B51F8043B40F8043B14
:100EE00051F8043B40F8043B51F8043B40F8043B04
:100EF00051F8043B40F8043B51F8043B40F8043BF4
:100F000051F8043B40F8043B51F8043B40F8043BE3
:100F100051F8043B40F8043B51F8043B40F8043BD3
:100F200051F8043B40F8043B51F8043B40F8043BC3
:100F300051F8043B40F8043B51F8043B40F8043BB3
:100F4000403ABDD2303211D351F8043B40F8043B53
:100F500051F8043B40F8043B51F8043B40F8043B93
:100F600051F8043B40F8043B103AEDD20C3205D363
:100F700051F8043B40F8043B043AF9D2043208D05B
:100F8000D2071CBF11F8013B00F8013B01D30B88CD
:100F900003806046704700BF082A13D38B078DD0AB
:100FA00010F003038AD0C3F10403D21ADB071CBF7D
:100FB00011F8013B00F8013B80D331F8023B20F8E7
:100FC000023B7BE7043AD9D3013A11F8013B00F820
:100FD000013BF9D20B7803704B7843708B788370A8
:100FE0006046704788420DD98B1883420AD900EBBE
:100FF000020CBAB1624613F801CD02F801CD994254
:10100000F9D170470F2A0ED8034602F1FF3C4AB1CE
:101010000CF1010C013B8C4411F8012B03F8012F5A
:101020006145F9D1704740EA01039B0750D1A2F115
:10103000100370B501F1200C23F00F0501F1100E23
:1010400000F11004AC441B095EF8105C44F8105C1D
:101050005EF80C5C44F80C5C5EF8085C44F8085CD4
:101060005EF8045C44F8045C0EF1100EE64504F1F1
:101070001004E9D1013312F00C0F01EB031102F05F
:101080000F0400EB031327D0043C24F003064FEABF
:10109000940C1E441C1F8E465EF8045B44F8045FEB
:1010A000B442F9D10CF1010402F0030203EB840312
:1010B00001EB840102F1FF3C4AB10CF1010C013B50
:1010C0008C4411F8012B03F8012F6145F9D170BD53
:1010D00002F1FF3C03469BE72246EBE7F8B51446D6
:1010E000F9B1CAB106460D4600F020F8A04202D37D
:1010F0002F463846F8BD21463046FFF78DF90746A2
:101100000028F6D022462946FFF7D2FE304629466F
:10111000FFF720F93846F8BD2746FFF71BF9384698
:10112000F8BDBDE8F8401146FFF776B951F8040C58
:101130000028A0F10400BCBF0B58C018704700BFC6
:10114000044A05491368002B08BF0B461844106079
:101150001846704798000020F801002081F00041F7
:1011600002E000BF83F0004330B54FEA41044FEA8C
:10117000430594EA050F08BF90EA020F1FBF54EA27
:10118000000C55EA020C7FEA645C7FEA655C00F0C3
:10119000E2804FEA5454D4EB5555B8BF6D420CDD94
:1011A0002C4480EA020281EA030382EA000083EA17
:1011B000010180EA020281EA0303362D88BF30BDB7
:1011C00011F0004F4FEA01314FF4801C4CEA11310D
:1011D00002D0404261EB410113F0004F4FEA03336C
:1011E0004CEA133302D0524263EB430394EA050FF7
:1011F00000F0A780A4F10104D5F1200E0DDB02FA66
:101200000EFC22FA05F2801841F1000103FA0EF2F9
:10121000801843FA05F359410EE0A5F120050EF1BF
:10122000200E012A03FA0EFC28BF4CF0020C43FAF0
:1012300005F3C01851EBE37101F0004507D54FF0FD
:10124000000EDCF1000C7EEB00006EEB0101B1F54D
:10125000801F1BD3B1F5001F0CD349085FEA300093
:101260004FEA3C0C04F101044FEA445212F5800F9E
:1012700080F09A80BCF1004F08BF5FEA500C50F13B
:10128000000041EB045141EA050130BD5FEA4C0C1E
:10129000404141EB0101013C28BFB1F5801FE9D27B
:1012A00091F0000F04BF01460020B1FA81F308BF9E
:1012B0002033A3F10B03B3F120020CDA0C3208DD6A
:1012C00002F1140CC2F10C0201FA0CF021FA02F145
:1012D0000CE002F11402D8BFC2F1200C01FA02F1B5
:1012E00020FA0CFCDCBF41EA0C019040E41AA2BFDA
:1012F00001EB0451294330BD6FEA04041F3C1CDAA2
:101300000C340EDC04F11404C4F1200220FA04F0C1
:1013100001FA02F340EA030021FA04F345EA03016B
:1013200030BDC4F10C04C4F1200220FA02F001FA2D
:1013300004F340EA0300294630BD21FA04F02946AF
:1013400030BD94F0000F83F4801306BF81F4801148
:101350000134013D4EE77FEA645C18BF7FEA655CBB
:1013600029D094EA050F08BF90EA020F05D054EA8D
:10137000000C04BF1946104630BD91EA030F1EBF92
:101380000021002030BD5FEA545C05D14000494196
:1013900028BF41F0004130BD14F580043CBF01F589
:1013A000801130BD01F0004545F0FE4141F470016F
:1013B0004FF0000030BD7FEA645C1ABF194610464A
:1013C0007FEA655C1CBF0B46024650EA013406BF4B
:1013D00052EA033591EA030F41F4002130BD00BF0A
:1013E00090F0000F04BF0021704730B54FF48064C7
:1013F00004F132044FF000054FF0000150E700BF48
:1014000090F0000F04BF0021704730B54FF48064A6
:1014100004F1320410F0004548BF40424FF0000193
:101420003EE700BF42004FEAE2014FEA31014FEAD6
:1014300002701FBF12F07F4393F07F4F81F0605125
:10144000704732F07F4208BF704793F07F4F04BF70
:1014500041F40021704730B54FF4607401F000454D
:1014600021F000411CE700BF50EA010208BF7047AD
:1014700030B54FF000050AE050EA010208BF70479E
:1014800030B511F0004502D5404261EB41014FF407
:10149000806404F132045FEA915C3FF4D8AE4FF00F
:1014A00003025FEADC0C18BF03325FEADC0C18BFF2
:1014B000033202EBDC02C2F1200300FA03FC20FA43
:1014C00002F001FA03FE40EA0E0021FA02F1144490
:1014D000BDE600BF70B54FF0FF0C4CF4E06C1CEAA9
:1014E00011541DBF1CEA135594EA0C0F95EA0C0F1A
:1014F00000F0DEF82C4481EA030621EA4C5123EA8D
:101500004C5350EA013518BF52EA033541F48011BB
:1015100043F4801338D0A0FB02CE4FF00005E1FB6E
:1015200002E506F00042E0FB03E54FF00006E1FBB8
:1015300003569CF0000F18BF4EF0010EA4F1FF04FB
:10154000B6F5007F64F5407404D25FEA4E0E6D413B
:1015500046EB060642EAC62141EA55514FEAC5204C
:1015600040EA5E504FEACE2EB4F1FD0C88BFBCF5C8
:10157000E06F1ED8BEF1004F08BF5FEA500E50F179
:10158000000041EB045170BD06F0004646EA01013F
:1015900040EA020081EA0301B4EB5C04C2BFD4EB71
:1015A0000C0541EA045170BD41F480114FF0000E6A
:1015B000013C00F3AB8014F1360FDEBF002001F0D8
:1015C000004170BDC4F10004203C35DA0C341BDC52
:1015D00004F11404C4F1200500FA05F320FA04F024
:1015E00001FA05F240EA020001F0004221F0004158
:1015F00010EBD37021FA04F642EB06015EEA430ECB
:1016000008BF20EAD37070BDC4F10C04C4F12005FA
:1016100000FA04F320FA05F001FA04F240EA0200AD
:1016200001F0004110EBD37041F100015EEA430E7E
:1016300008BF20EAD37070BDC4F1200500FA05F29E
:101640004EEA020E20FA04F301FA05F243EA02031D
:1016500021FA04F001F0004121FA04F220EA02002C
:1016600000EBD3705EEA430E08BF20EAD37070BD72
:1016700094F0000F0FD101F00046400041EB010152
:1016800011F4801F08BF013CF7D041EA060195F034
:10169000000F18BF704703F00046520043EB0303EE
:1016A00013F4801F08BF013DF7D043EA06037047DB
:1016B00094EA0C0F0CEA135518BF95EA0C0F0CD0E6
:1016C00050EA410618BF52EA4306D1D181EA03012C
:1016D00001F000414FF0000070BD50EA410606BF26
:1016E0001046194652EA430619D094EA0C0F02D16B
:1016F00050EA013613D195EA0C0F05D152EA0336B0
:101700001CBF104619460AD181EA030101F00041CD
:1017100041F0FE4141F470014FF0000070BD41F016
:10172000FE4141F4780170BD70B54FF0FF0C4CF4F0
:10173000E06C1CEA11541DBF1CEA135594EA0C0F0F
:1017400095EA0C0F00F0A7F8A4EB050481EA030E5C
:1017500052EA03354FEA013100F088804FEA033343
:101760004FF0805545EA131343EA12634FEA022211
:1017700045EA111545EA10654FEA00260EF00041D2
:101780009D4208BF964244F1FD0404F5407402D224
:101790005B084FEA3202B61A65EB03055B084FEAB5
:1017A00032024FF480104FF4002CB6EB020E75EBB2
:1017B000030E22BFB61A754640EA0C005B084FEADA
:1017C0003202B6EB020E75EB030E22BFB61A754657
:1017D00040EA5C005B084FEA3202B6EB020E75EBA2
:1017E000030E22BFB61A754640EA9C005B084FEA1A
:1017F0003202B6EB020E75EB030E22BFB61A754627
:1018000040EADC0055EA060E18D04FEA051545EA15
:1018100016754FEA06164FEAC30343EA52734FEABE
:10182000C2025FEA1C1CC0D111F4801F0BD141EA37
:1018300000014FF000004FF0004CB6E711F4801F9C
:1018400004BF01430020B4F1FD0C88BFBCF5E06F7C
:101850003FF6AFAEB5EB030C04BFB6EB020C5FEA8C
:10186000500C50F1000041EB045170BD0EF0004EE1
:101870004EEA113114EB5C04C2BFD4EB0C0541EA13
:10188000045170BD41F480114FF0000E013C90E610
:1018900045EA060E8DE60CEA135594EA0C0F08BFD4
:1018A00095EA0C0F3FF43BAF94EA0C0F0AD150EAD3
:1018B00001347FF434AF95EA0C0F7FF425AF104666
:1018C00019462CE795EA0C0F06D152EA03353FF48E
:1018D000FDAE1046194622E750EA410618BF52EA0B
:1018E00043067FF4C5AE50EA41047FF40DAF52EADF
:1018F00043057FF4EBAE12E74FEA4102B2F1E04359
:1019000024BFB3F5001CDCF1FE5C0DD901F0004CE6
:101910004FEAC0024CEA5070B2F1004F40EB830036
:1019200008BF20F00100704711F0804F21D113F162
:101930003872BCBF01F00040704741F480114FEA9B
:101940005252C2F11802C2F1200C10FA0CF320FA24
:1019500002F018BF40F001004FEAC1234FEAD32341
:1019600003FA0CFC40EA0C0023FA02F34FEA4303AB
:10197000CCE77FEA625307D150EA01331EBF4FF034
:10198000FE4040F44000704701F0004040F0FE404F
:1019900040F40000704700BF53B94AB9002908BF9E
:1019A00000281CBF4FF0FF314FF0FF3000F074B93A
:1019B000ADF1080C6DE904CE00F006F8DDF804E0A6
:1019C000DDE9022304B070472DE9F047089D044685
:1019D0008E46002B4DD18A42944669D9B2FA82F2E2
:1019E00052B101FA02F3C2F1200120FA01F10CFA1E
:1019F00002FC41EA030E94404FEA1C48210CBEFB56
:101A0000F8F61FFA8CF708FB16E341EA034306FBDE
:101A100007F199420AD91CEB030306F1FF3080F06D
:101A20001F81994240F21C81023E63445B1AA4B2BA
:101A3000B3FBF8F008FB103344EA034400FB07F75C
:101A4000A7420AD91CEB040400F1FF3380F00A819D
:101A5000A74240F207816444023840EA0640E41B92
:101A600000261DB1D4400023C5E900433146BDE83E
:101A7000F0878B4209D9002D00F0EF800026C5E9E0
:101A8000000130463146BDE8F087B3FA83F6002EF8
:101A90004AD18B4202D3824200F2F980841A61EB70
:101AA000030301209E46002DE0D0C5E9004EDDE78E
:101AB00002B9FFDEB2FA82F2002A40F09280A1EB76
:101AC0000C014FEA1C471FFA8CFE0126200CB1FBCB
:101AD000F7F307FB131140EA01410EFB03F08842C4
:101AE00008D91CEB010103F1FF3802D2884200F251
:101AF000CB804346091AA4B2B1FBF7F007FB1011E3
:101B000044EA01440EFB00FEA64508D91CEB040480
:101B100000F1FF3102D2A64500F2BB800846A4EBDB
:101B20000E0440EA03409CE7C6F12007B34022FAC6
:101B300007FC4CEA030C20FA07F401FA06F31C43F5
:101B4000F9404FEA1C4900FA06F3B1FBF9F8200C02
:101B50001FFA8CFE09FB181140EA014108FB0EF048
:101B6000884202FA06F20BD91CEB010108F1FF3A98
:101B700080F08880884240F28580A8F102086144A4
:101B8000091AA4B2B1FBF9F009FB101144EA0141B2
:101B900000FB0EFE8E4508D91CEB010100F1FF345D
:101BA0006CD28E456AD90238614440EA0840A0FBF5
:101BB0000294A1EB0E01A142C846A64656D353D0CB
:101BC0005DB1B3EB080261EB0E0101FA07F722FAEF
:101BD00006F3F1401F43C5E9007100263146BDE818
:101BE000F087C2F12003D8400CFA02FC21FA03F37B
:101BF000914001434FEA1C471FFA8CFEB3FBF7F0FC
:101C000007FB10360B0C43EA064300FB0EF69E4220
:101C100004FA02F408D91CEB030300F1FF382FD2B9
:101C20009E422DD9023863449B1B89B2B3FBF7F661
:101C300007FB163341EA034106FB0EF38B4208D93A
:101C40001CEB010106F1FF3816D28B4214D9023E7B
:101C50006144C91A46EA004638E72E46284605E799
:101C60000646E3E61846F8E64B45A9D2B9EB02086A
:101C700064EB0C0E0138A3E74646EAE7204694E7FA
:101C80004046D1E7D0467BE7023B614432E730462D
:101C900009E76444023842E7704700BF104B1B78E5
:101CA0000BB90120704710B504464FF47A70B0FBB1
:101CB000F3F30C4A1068B0FBF3F000F09DF868B93C
:101CC0000F2C01D901200AE0002221464FF0FF30FD
:101CD00000F05AF8044B1C60002000E0012010BD09
:101CE000640000206C0000206800002010B5094A44
:101CF000136843F480731360032000F033F800206E
:101D0000FFF7CCFF10B10124204610BD044602F0BD
:101D100097FEF9E700200240034B1B78034A116845
:101D20000B441360704700BF640000209C0000203B
:101D3000014B1868704700BF9C00002038B504466E
:101D4000FFF7F6FF0546B4F1FF3F02D0044B1B78C6
:101D50001C44FFF7EDFF401BA042FAD338BD00BF83
:101D600064000020074AD36823F4E0631B041B0CC3
:101D7000000200F4E060034343F0BF6343F4003328
:101D8000D360704700ED00E000B5194BDB68C3F38A
:101D90000223C3F1070CBCF1040F28BF4FF0040C61
:101DA00003F1040EBEF1060F18D9033B4FF0FF3EBE
:101DB0000EFA0CFC21EA0C0199400EFA03F322EA18
:101DC0000303194300280BDB0901C9B200F160408D
:101DD00000F5614080F800135DF804FB0023E5E79F
:101DE00000F00F000901C9B2024B1954F4E700BF1B
:101DF00000ED00E014ED00E00138B0F1807F0BD27F
:101E00004FF0E0235861054AF02182F823100020AA
:101E1000986107221A6170470120704700ED00E0C9
:101E2000F0B583B000236BE085685E000324B44006
:101E300025EA0405CC68B4402C438460456825EA53
:101E40000C054C68C4F300149C402C43446069E0CA
:101E5000C56A25EA0C0CC4F3C0049C4044EA0C0497
:101E6000C46265E0DD08083550F8256003F007041A
:101E70004FEA840C0F2404FA0CF426EA040E0C69D1
:101E800004FA0CF444EA0E0440F8254067E0062406
:101E900000E0002404FA0EF42C430CF1020C5C4D1B
:101EA00045F82C405B4CA568D44325EA02064F68F0
:101EB00017F4801F01D042EA0506564DAE60ED686A
:101EC00004EA05064F6817F4001F01D042EA050630
:101ED000504DEE606D6804EA05064F6817F4003F48
:101EE00001D042EA05064B4D6E602D682C404E68CD
:101EF00016F4803F01D042EA0504464A14600133DB
:101F00000A6832FA03F400F081804FF0010C0CFAF9
:101F100003FC1CEA0202F2D04C6804F00304013C0A
:101F2000012C81D94C6804F0030EBEF1030F8FD051
:101F30004C6804F00304032C0CD0C4685D004FF01F
:101F4000030C0CFA05FC24EA0C0C8C68AC4044EA47
:101F50000C04C4604C6804F00304022C82D00468B2
:101F60004FEA430E4FF0030C0CFA0EFC24EA0C0C63
:101F70004C6804F0030404FA0EF444EA0C04046010
:101F80004C6814F4403FBAD0234C256E45F001054F
:101F90002566246E04F001040194019C4FEA930C21
:101FA0000CF102051A4C54F8255003F003044FEAD3
:101FB000840E0F2404FA0EF425EA0405B0F1904FC4
:101FC0003FF467AF154CA04216D004F58064A042E0
:101FD00014D004F58064A04212D004F58064A042BD
:101FE00010D004F58064A0420ED004F58064A042B5
:101FF0003FF44DAF07244DE701244BE7022449E7A6
:10200000032447E7042445E7052443E703B0F0BD74
:10201000000001400004014000100240000400489C
:102020000369194201D001207047002070470AB1AE
:102030008161704781627047024B186800F4C0608C
:10204000704700BF00700040B0F5007F0FD01F4BFD
:102050001B6803F4C063B3F5806F34D01B4A136868
:1020600023F4C06343F48063136000207047174B70
:102070001B6803F4C063B3F5007F20D0134A1368D4
:1020800023F4C06343F400731360114B1B683222C6
:1020900002FB03F30F4AA2FB03239B0C013300E076
:1020A000013B0A4A526912F4806F01D0002BF7D12C
:1020B000064B5B6913F4806F03D10020704700204A
:1020C0007047032070470020704700BF0070004039
:1020D0006C00002083DE1B4330B583B00446204BE8
:1020E0009B6D13F0805F0BD0FFF7A6FFB0F5007F6C
:1020F00017D0802C1FD82DD0702C2DD000211BE0A4
:10210000174DAB6D43F08053AB65AB6D03F080535F
:102110000193019BFFF790FFAB6D23F08053AB65FC
:10212000E4E7802C03D9A02C03D9022104E000218C
:1021300002E0012100E003210A4A136823F00703AB
:102140000B431360136803F007038B4206D1002092
:1021500003B030BD0221EFE70121EDE70120F7E7F1
:102160000010024000200240284A9368D26802F022
:10217000030213F00C030AD00C2B06D0042B1FD043
:10218000082B20D00020024610E0012AF6D11F4A79
:10219000126812F0080F0CD11C4AD2F89420C2F336
:1021A00003221B4951F8222043B100200C2B0DD0F3
:1021B0007047164A1268C2F30312F2E71046F5E7B9
:1021C00014480022F2E714480022EFE70F4BDB68C7
:1021D00003F00303022B16D0032B00D10E4A0B4948
:1021E000C868C0F30210431CC868C0F3062002FB95
:1021F00000F0B0FBF3F0CB68C3F3416301335B0045
:10220000B0FBF3F0D4E7034AE9E700BF0010024057
:10221000A85000080024F40000127A00002800F002
:10222000F182F0B583B00446964B9D6805F00C052D
:10223000DE6806F00306036813F0100F5AD0E5B10C
:102240000C2D18D0A369002B00F0BB808D4A1368B9
:1022500043F001031360FFF76BFD0746894B1B68D2
:1022600013F0020F40F09A80FFF762FDC01B0228B6
:10227000F4D90320D1E2012EE4D1824B1B6813F084
:10228000020F03D0A369002B00F0BE82206A7D4BB1
:102290001B6813F0080F5BD07A4B1B6803F0F00348
:1022A00098425CD8774B1A6842F008021A601A68A4
:1022B00022F0F002216A0A431A605A6822F47F422F
:1022C000E16942EA01225A60002D60D0FFF74CFF1D
:1022D0006C4B9B68C3F303136B4AD35C03F01F037F
:1022E000D8406A4B18606A4B1868FFF7D7FC002883
:1022F00040F09382236813F0010F00F08180082DD5
:1023000075D00C2D71D06368B3F5803F00F09780D5
:10231000B3F5A02F00F099805A4B1A6822F480324E
:102320001A601A6822F480221A606368002B00F099
:102330009980FFF7FDFC0746524B1B6813F4003FE2
:102340005ED1FFF7F5FCC01B6428F5D9032064E2D9
:102350004C4BD3F894301B0903F0F003A0E7FFF7D0
:10236000BBFE002840F05282464B1A6842F0080239
:102370001A601A6822F0F002216A0A431A605A6849
:1023800022F47F42E16942EA01225A609EE7206A14
:10239000FFF7A2FE002899D001203EE2394B1A68CF
:1023A00042F008021A601A6822F0F002216A0A4319
:1023B0001A605A6822F47F42E16942EA01225A60B7
:1023C00098E7304A136823F001031360FFF7B0FC6D
:1023D00007462C4B1B6813F0020F8BD0FFF7A8FCAD
:1023E000C01B0228F5D9032017E2032E8BD1254B01
:1023F0001B6813F4003F03D06368002B00F00882D1
:10240000236813F0020F58D0042D45D00C2D41D075
:10241000E368002B77D01B4A136843F48073136082
:10242000FFF786FC0646174B1B6813F4806F61D1DB
:10243000FFF77EFC801B0228F5D90320EDE1114A4D
:10244000136843F4803313606FE703F18043A3F50F
:102450003C331A6842F480221A601A6842F48032CF
:102460001A6062E7FFF764FC0746064B1B6813F42B
:10247000003FC5D0FFF75CFCC01B6428F5D90320E2
:10248000CBE100BF00100240905000086C0000201B
:1024900068000020022EBBD1A34B1B6813F4806F91
:1024A00003D0E368002B00F0B5819F4A536823F006
:1024B000F853216943EA01635360236813F0080F5E
:1024C0004CD063699BB3984AD2F8943043F001032F
:1024D000C2F89430FFF72CFC0646934BD3F89430A7
:1024E00013F0020F3AD1FFF723FC801B0228F4D926
:1024F000032092E18C4A536823F0F853216943EAA0
:1025000001635360D9E7884A136823F4807313602A
:10251000FFF70EFC0646844B1B6813F4806FCCD08B
:10252000FFF706FC801B0228F5D9032075E17E4ADF
:10253000D2F8943023F00103C2F89430FFF7F8FB8F
:102540000646794BD3F8943013F0020F06D0FFF70C
:10255000EFFB801B0228F4D903205EE1236813F00F
:10256000040F7AD0704B9B6D13F0805F36D16E4BA9
:102570009A6D42F080529A659B6D03F080530193EF
:10258000019B0126694B1B6813F4807F28D0A36848
:10259000012B39D0052B3FD0634BD3F8902022F08C
:1025A0000102C3F89020D3F8902022F00402C3F86F
:1025B0009020A368002B3DD0FFF7BAFB07465A4B8B
:1025C000D3F8903013F0020F46D1FFF7B1FBC01BD8
:1025D00041F288339842F2D903201EE10026D1E768
:1025E000524A136843F480731360FFF7A1FB074658
:1025F0004E4B1B6813F4807FC9D1FFF799FBC01BBA
:102600000228F5D9032008E1474AD2F8903043F078
:102610000103C2F89030CCE7434BD3F8902042F04E
:102620000402C3F89020D3F8902042F00102C3F8CE
:102630009020BEE7FFF77CFB07463B4BD3F890307A
:1026400013F0020F08D0FFF773FBC01B41F2883371
:102650009842F2D90320E0E0EEB9A36A002B00F023
:10266000DB80022B1DD00C2D00F0DD802E4A13687C
:1026700023F080731360FFF75BFB04462A4B1B6853
:1026800013F0007F00F0B780FFF752FB001B022819
:10269000F4D90320C1E0244A936D23F0805393655D
:1026A000DBE7214BDB6803F00301E26A91420FD0C4
:1026B0000C2D00F0B4801C4B1B6813F0806F40F0B1
:1026C000B080194B1B6813F0805F31D00120A4E06B
:1026D00003F07002216B0139B2EB011FE8D103F462
:1026E000FE42616BB2EB012FE2D103F40031A26B29
:1026F000073A18BF01229142DAD103F4C001E26B1C
:102700005208013AB1EB425FD2D103F0C063226CB0
:102710005208013AB3EB426FCAD1034B1B6813F066
:10272000007F4ED0002078E0001002400070004092
:102730003E4A136823F080731360FFF7F9FA0546E9
:102740003A4B1B6813F0007F06D0FFF7F1FA401BED
:102750000228F5D9032060E0344AD368344919408F
:10276000E36A206B013843EA0013606B43EA0023FD
:10277000E06B4008013843EA4053206C40080138C0
:1027800043EA4063A06B000943EA40430B43D36034
:10279000136843F080731360D36843F08073D36091
:1027A000FFF7C6FA0446214B1B6813F0007F06D1E1
:1027B000FFF7BEFA001B0228F5D903202DE0002008
:1027C0002BE01A4B1A6842F080721A60DA6842F005
:1027D0008072DA60FFF7ACFA0446144B1B6813F002
:1027E000007F06D1FFF7A4FA031B022BF5D90320C3
:1027F00013E0002011E00D4AD1680E4B0B40D3606E
:1028000000200AE001207047012006E0012004E0DA
:10281000012002E0012000E0002003B0F0BD012013
:10282000FBE70120F9E70120F7E700BF00100240B5
:102830008C809DF9FCFFEEFE002800F0AF8070B5A3
:102840000D460446594B1B6803F007038B420BD21D
:10285000564A136823F007030B431360136803F011
:1028600007038B4240F09C80236813F0020F0CD0CA
:10287000A2684F4B9B6803F0F0039A4205D94C497C
:102880008B6823F0F0031A438A60236813F0010F6A
:1028900039D06368032B09D0022B26D063BB444A8E
:1028A000126812F0020F06D1012076E0404A126849
:1028B00012F0007F76D03E498A6822F0030213436B
:1028C0008B60FFF735FA0646394B9B6803F00C0323
:1028D0006268B3EB820F16D0FFF72AFA801B41F231
:1028E00088339842F0D9032057E0314A126812F435
:1028F000003FE0D1012050E02D4A126812F4806FB1
:10290000D9D1012049E0236813F0020F0CD0A2684E
:10291000274B9B6803F0F0039A4205D224498B6849
:1029200023F0F0031A438A60204B1B6803F007036F
:10293000AB420AD91D4A136823F007032B431360E7
:10294000136803F00703AB422ED1236813F0040F82
:1029500006D0174A936823F4E063E1680B43936061
:10296000236813F0080F07D0114A936823F46053CB
:10297000216943EAC1039360FFF7F6FB0C4B9B68A8
:10298000C3F303130B4AD35C03F01F03D8400A4B75
:1029900018600A4B1868FFF781F970BD0120704775
:1029A0000120FAE70120F8E70120F6E700200240C5
:1029B00000100240905000086C00002068000020C9
:1029C000014B1868704700BF6C00002008B5FFF786
:1029D000F7FF054B9B68C3F30223044AD35C03F063
:1029E0001F03D84008BD00BF00100240A0500008DF
:1029F00008B5FFF7E5FF054B9B68C3F3C223044A04
:102A0000D35C03F01F03D84008BD00BF0010024094
:102A1000A0500008F8B504460F46594BDB6813F088
:102A2000030F18D0564BDB6803F003030268934290
:102A300002D001252846F8BD002A00F09E80504BA8
:102A4000DB68C3F3021301334268934201D00125CE
:102A5000F0E7002509E00368022B57D0032B5CD078
:102A6000012B42D00125002DE4D1454A136823F003
:102A700080631360FFF75CF90646414B1B6813F057
:102A8000006F05D0FFF754F9831B022BF5D90325FE
:102A9000002DCFD1002F4ED139490B6923F41F33BC
:102AA00023F44073A068E2681209520442EA00224B
:102AB00013430B61324A136843F080631360FFF7DE
:102AC00037F906462E4B1B6813F0006F05D1FFF750
:102AD0002FF9831B022BF5D90325002DAAD1284AF3
:102AE0001369A1690B431361A4E7254A126812F028
:102AF000020F1ED02248C26822F0730261680139B9
:102B000043EA01131343C3600025ACE71C4A126873
:102B100012F4806FEED10125A5E7194A126812F46C
:102B2000003FE7D1164A126812F4802FE2D1012546
:102B300099E7012597E7012F0FD01148026922F08C
:102B4000C06222F4FE42A16863695B08013B5B0638
:102B500043EA012313430361ACE70948026922F405
:102B6000C00222F4FE42A16823695B08013B5B05B9
:102B700043EA0123134303619CE701255AE700BFA1
:102B800000100240F8B504460F46504BDB6813F0C6
:102B9000030F18D04D4BDB6803F003030268934228
:102BA00002D001252846F8BD002A00F08C80474B52
:102BB000DB68C3F3021301334268934201D001255D
:102BC000F0E7002509E00368022B57D0032B5CD007
:102BD000012B42D00125002DE4D13C4A136823F09B
:102BE00080531360FFF7A4F80646384B1B6813F0B8
:102BF000005F05D0FFF79CF8831B022BF5D9032556
:102C0000002DCFD1002F4ED130494B6923F41F3313
:102C100023F44073A068E2681209520442EA0022D9
:102C200013434B61294A136843F080531360FFF745
:102C30007FF80646254B1B6813F0005F05D1FFF7B0
:102C400077F8831B022BF5D90325002DAAD11F4A43
:102C5000536961690B435361A4E71C4A126812F07F
:102C6000020F1ED01948C26822F073026168013950
:102C700043EA01131343C3600025ACE7134A12680B
:102C800012F4806FEED10125A5E7104A126812F404
:102C9000003FE7D10D4A126812F4802FE2D10125DE
:102CA00099E7012597E70948426922F0C06222F4BA
:102CB000FE42A16823695B08013B5B0643EA0123EE
:102CC00013434361AEE701256CE700BF00100240EB
:102CD0002DE9F04182B00446036813F4006F33D04D
:102CE000436EB3F5000F1FD00CD823B3B3F5800F9C
:102CF00005D100212030FFF745FF064620E00127DF
:102D00003E4623E0B3F5400F0BD10026604AD2F8CF
:102D1000883023F44003616E0B43C2F888300027EB
:102D200014E001273E4611E0594AD36843F480334A
:102D3000D3600026EAE700210430FFF76BFE064669
:102D4000002EE3D0374601E000273E46236813F407
:102D5000805F30D0A36EB3F1007F1FD00DD81BB3BE
:102D6000B3F1807F06D1002104F12000FFF70AFFB4
:102D7000064605E001273E461DE0B3F1407F0AD13B
:102D8000C6B9434AD2F8883023F04073A16E0B4392
:102D9000C2F888300FE001273E460CE03C4AD36879
:102DA00043F48033D360EBE70021201DFFF732FEB0
:102DB0000646E5E73746236813F4003F71D0344BED
:102DC0009B6D13F0805F4ED1314B9A6D42F0805273
:102DD0009A659B6D03F080530193019B4FF00108AE
:102DE0002C4A136843F480731360FEF7A1FF054675
:102DF000284B1B6813F4807F05D1FEF799FF401B19
:102E00000228F5D90326002E46D1214BD3F8903065
:102E100013F4407316D0D4F884209A4212D01C4A7E
:102E2000D2F8903023F44073D2F8901041F48031FE
:102E3000C2F89010D2F8901021F48031C2F89010AE
:102E4000C2F8903013F0010F10D1002E40F027810E
:102E50000F4AD2F8903023F44073D4F884100B4317
:102E6000C2F8903019E04FF00008B9E7FEF760FFB4
:102E70000546074BD3F8903013F0020FE5D1FEF76B
:102E800057FF401B41F288339842F2D90326DCE712
:102E900000100240007000403746B8F1000F40F0CB
:102EA0000081236813F0010F08D09D4AD2F88830C2
:102EB00023F00303A16B0B43C2F88830236813F09F
:102EC000020F08D0964AD2F8883023F00C03E16B49
:102ED0000B43C2F88830236813F0040F08D0904ADF
:102EE000D2F8883023F03003216C0B43C2F88830CD
:102EF000236813F0080F08D0894AD2F8883023F0ED
:102F0000C003616C0B43C2F88830236813F0100FC4
:102F100008D0834AD2F8883023F44073A16C0B4365
:102F2000C2F88830236813F0200F08D07C4AD2F80A
:102F3000883023F44063E16C0B43C2F88830236887
:102F400013F4007F08D0764AD2F8883023F4402367
:102F5000E16D0B43C2F88830236813F4806F08D00A
:102F60006F4AD2F8883023F44013216E0B43C2F825
:102F70008830236813F0400F08D0694AD2F88830AF
:102F800023F44053216D0B43C2F88830236813F0BB
:102F9000800F08D0624AD2F8883023F44043616D34
:102FA0000B43C2F88830236813F4807F08D05C4A52
:102FB000D2F8883023F44033A16D0B43C2F8883037
:102FC000236813F4005F0FD0554AD2F8883023F0FD
:102FD0004063E16E0B43C2F88830E36EB3F1006FDB
:102FE00065D0B3F1806F67D0236813F4002F0FD042
:102FF0004B4AD2F8883023F04063216F0B43C2F86C
:103000008830236FB3F1006F5ED0B3F1806F60D072
:10301000236813F4802F0FD0414AD2F8883023F070
:103020004063616F0B43C2F88830636FB3F1006F88
:1030300057D0B3F1806F59D0236813F4804F0FD06D
:10304000374AD2F8883023F04053A16F0B43C2F8BF
:103050008830A36FB3F1805F50D0B3F1005F55D0DB
:10306000236813F4004F08D02D4AD2F8883023F09B
:103070008043E16F0B43C2F88830236813F4803F2C
:1030800009D0274AD2F8883023F00043D4F88010C2
:103090000B43C2F88830384602B0BDE8F0813746AD
:1030A000FBE61F4A936D23F080539365F9E6D368DE
:1030B00043F48013D36097E70121201DFFF7AAFC9A
:1030C000002891D007468FE7D36843F48013D3607C
:1030D0009EE70121201DFFF79DFC002898D00746A0
:1030E00096E7D36843F48013D360A5E70121201D40
:1030F000FFF790FC00289FD007469DE70221201D86
:10310000FFF788FC0028ABD00746A9E7022104F1AD
:103110002000FFF737FD0028A2D00746A0E700BF38
:103120000010024038B5044603680A4ADA60FEF728
:10313000FFFD05462368DB6813F0200F07D1FEF77B
:10314000F7FD401BB0F57A7FF4D9032000E00020A2
:1031500038BD00BF5FFF030070B50368DA6812F086
:10316000400F02D00025284670BD04464FF0FF32C4
:10317000DA60FEF7DDFD064600252368DB6813F004
:10318000400FF0D1032DEED0FEF7D2FD831BB3F537
:103190007A7FF2D9032584F82150EEE710B5044672
:1031A000114BDA6822F08002DA609B6813F0200F7E
:1031B00007D1FFF7B7FF0346A0B1032384F82130FE
:1031C00010E0094A936823F020039360FFF7AAFFF9
:1031D000034610B1032384F8213003498A6842F082
:1031E00020028A60184610BD0028004000284ED0FA
:1031F00038B5044690F8213063B1022384F82130B9
:103200002368DA6812F0100F09D00020012384F837
:10321000213038BD80F8203001F02AFCEDE7CA22C9
:103220005A62236853225A622046FFF795FFC0B9BD
:103230002268936823F4E00323F04003936021683D
:103240008A68636820690343A069034313438B6062
:103250002368E2681A6122681369A16843EA01439E
:1032600013612046FFF79AFF58B92268D36C23F008
:103270000303D3642168CB6CE26965692A43134375
:10328000CB642368FF225A620028C2D1BEE7012026
:103290007047002302E001330A38C0B20928FAD887
:1032A0001B01DBB21843704790F82030012B5DD032
:1032B00070B504460D461646012380F820300223DF
:1032C00080F821300368CA225A62036853225A6286
:1032D000FFF742FF68BB002E36D123689B6813F0CE
:1032E000400F01D10023EB702878FFF7D2FF0604CE
:1032F0006878FFF7CEFF46EA0026A878FFF7C9FFF7
:103300003043EB7840EA8350236800F07F3020F0B0
:10331000FE4018602268936823F48023936021683C
:103320008B68EA682869024313438B602046FFF7E5
:1033300035FF2368FF225A6210B9012384F8213037
:10334000002384F8203070BD23689B6813F0400F81
:1033500001D10023EB702B786878000240EA03402B
:10336000AB781843EB7840EA8350CDE702207047F2
:1033700090F82030012B4CD070B504460E46012346
:1033800080F82030022380F821303AB94B7813F0CE
:10339000100F03D003F0EF030A334B7022BBF07819
:1033A000FFF777FF05047078FFF773FF45EA002504
:1033B000B078FFF76EFF0543307845EA4035236863
:1033C000CA225A62236853225A622046FFF7C4FE7B
:1033D000A8B12368FF225A6210B9012384F8213072
:1033E000002384F8203070BDF37875782D0245EA0B
:1033F0000345B0780543307845EA4035DFE7236878
:1034000025F07F4525F0C0055D602046FFF7C6FE2C
:10341000DFE702207047030903EB830300F00F008E
:1034200000EB4300C0B2704770B503689B6A4B6005
:1034300003681B69C3F30E038B6003681B68C3F347
:1034400005400870C3F306264E7003F07F058D70AB
:10345000C3F38053CB705AB90C46FFF7DCFF2070E2
:103460003046FFF7D8FF60702846FFF7D4FFA07002
:10347000002070BD70B503685B68C3F30740C87077
:10348000C3F304264E7003F03F058D70C3F342333F
:103490000B705AB90C46FFF7BEFFE0703046FFF7DD
:1034A000BAFF60702846FFF7B6FFA070002070BD1D
:1034B00000286AD010B50446436A33B94368B3F5AF
:1034C000827F05D00023C36102E0002303614361D2
:1034D0000023A36294F85D30002B4DD0022384F8C2
:1034E0005D302268136823F040031360E368B3F58E
:1034F000E06F47D90022B3F5706F04D0B3F5E06FE9
:1035000001D00023A362636803F48273A16801F40D
:1035100004410B43216901F002010B43616901F091
:1035200001010B43A16901F400710B43E16901F052
:1035300038010B43216A01F080010B43A16A01F4B9
:10354000005120680B430360638B03F00403616A3E
:1035500001F010010B43616B01F008010B43E168BE
:1035600001F470610B43216813434B600020206617
:10357000012384F85D3010BD84F85C30204601F0F2
:103580009FFAABE74FF48052B5E70120704702681D
:1035900052E8003F23F4907342E800310029F6D14D
:1035A000026802F1080353E8003F23F001030832E8
:1035B00042E800310029F3D1036E012B06D020230D
:1035C000C0F880300023036683667047026852E8C3
:1035D000003F23F0100342E800310029F6D1EEE766
:1035E00010B50446016883680269134342691343B6
:1035F000C269134308688E4A024013430B60226875
:10360000536823F44053E1680B435360A169226877
:10361000884B9A4201D0236A1943936823F430639C
:103620000B4393602368844A934210D0834A9342A9
:1036300021D0834A934237D0824A93425CD0824A57
:1036400093426BD07B4A93427DD010223AE002F540
:103650005842D2F8882002F00302032A09D8DFE892
:1036600002F00204870601222CE004222AE008224C
:1036700028E0102226E002F5E632D2F8882002F097
:103680000C020C2A0ED8DFE802F0070D0D0D090D13
:103690000D0D750D0D0D0B00002213E0042211E03D
:1036A00008220FE010220DE002F5E432D2F8882063
:1036B00002F03002202A5FD01AD8002A5ED0102AE9
:1036C0005ED104225B498B4276D0E069B0F5004FB1
:1036D00000F0A380082A00F20E81DFE812F0DD007E
:1036E000F300DB000C01F6000C010C010C01F900E9
:1036F000302A47D10822E5E702F5E232D2F88820E5
:1037000002F0C002802A3FD004D8FAB3402A3FD149
:103710000422D7E7C02A3DD10822D3E702F5E032E0
:10372000D2F8882002F44072B2F5007F34D005D878
:10373000A2B3B2F5807F33D10422C3E7B2F5407F54
:1037400030D10822BEE702F5C832D2F8882002F450
:103750004062B2F5006F27D005D83AB3B2F5806F5A
:1037600026D10422AEE7B2F5406F23D10822A9E7A3
:103770000222A7E70222A5E70222A3E70022A1E78F
:1037800010229FE710229DE702229BE7002299E783
:10379000102297E7102295E7022293E7002291E793
:1037A00010228FE710228DE702228BE7002289E7A3
:1037B000102287E7102285E7082A00F28C80DFE8D4
:1037C00002F0088A2A8A278A8A8A05004FF4004074
:1037D00003E0FFF7FBF800287FD0626802EB4203AA
:1037E00083427CD8B0EB023F7BD8010E0002530825
:1037F000C0184FF0000341F10001FEF7CDF8A0F52D
:103800004072124B9A426ED82368D860002055E06F
:10381000FEF7AAFCDFE70E48DFE7082A65D8DFE8F5
:1038200002F019330564366464641D00084815E02D
:10383000F369FFEF00800040003801400044004081
:1038400000480040004C004000500040FFFC0F00CA
:103850000024F400FFF7BAF8002848D06268530843
:1038600003EB4000B0FBF2F0A0F110024FF6EF7353
:103870009A423ED883B223F00F03C0F342001843AC
:103880002368D860002019E0FFF7B2F8E4E7FEF7FC
:103890006BFCE1E71B4802E0FFF798F868B3636848
:1038A00000EB5300B0FBF3F0A0F110024FF6EF7302
:1038B0009A4224D8236880B2D86000200023A366EF
:1038C000E36610BDFFF794F8E8E7FEF74DFCE5E787
:1038D0004FF40040E3E70120F0E70020EEE701208D
:1038E000ECE70120EAE70120E8E70120E6E7002015
:1038F000E4E70120E2E70120E0E70020DEE7012025
:10390000DCE700BF0024F400436A13F0080F06D080
:103910000268536823F40043416B0B435360436ACE
:1039200013F0010F06D00268536823F40033816A54
:103930000B435360436A13F0020F06D002685368CA
:1039400023F48033C16A0B435360436A13F0040FBE
:1039500006D00268536823F48023016B0B43536045
:10396000436A13F0100F06D00268936823F4805363
:10397000816B0B439360436A13F0200F06D00268FB
:10398000936823F40053C16B0B439360436A13F0B5
:10399000400F0AD00268536823F48013016C0B4374
:1039A0005360036CB3F5801F0BD0436A13F0800F94
:1039B00006D00268536823F40023816C0B435360E4
:1039C00070470268536823F4C003416C0B43536093
:1039D000EBE72DE9F84305460F4616469946DDF814
:1039E00020802C68E46937EA04030CBF4FF0010C17
:1039F0004FF0000CB44532D1B8F1FF3FF1D0FEF7E3
:103A000097F9A0EB090040452CD8B8F1000F2BD056
:103A10002B681A6812F0040FE3D0DA6912F0080F6D
:103A200011D1DA6912F4006FDBD04FF400621A6230
:103A30002846FFF7ACFD2023C5F88430002385F825
:103A4000783003200CE008241C622846FFF79FFD15
:103A5000C5F88440002385F87830012000E000207C
:103A6000BDE8F8830320FBE70320F9E72DE9F041E7
:103A700082B01E46C36F202B56D104460D46904699
:103A8000002955D00AB901204FE00023C0F8843046
:103A90002123C367FEF74CF90746A4F85080A4F829
:103AA0005280A368B3F5805F02D04FF0000818E0A1
:103AB000236913B14FF0000813E0A846002510E079
:103AC0002023E367032030E038F8023B2268C3F389
:103AD00008031385B4F8522092B2013A92B2A4F8C6
:103AE0005220B4F852309BB27BB100963B46002284
:103AF00080212046FFF76DFF0028E1D1002DE3D0A3
:103B0000236815F8012B1A85E4E700963B4600224E
:103B100040212046FFF75DFF10B92023E36704E052
:103B20002023E367032000E0022002B0BDE8F0811B
:103B30000120FAE730B583B004460023C0F8843092
:103B4000FEF7F6F805462268126812F0080F0FD14A
:103B500023681B6813F0040F26D12023E367C4F801
:103B6000803000202066606684F8780003B030BDA5
:103B70006FF07E430093034600224FF4001120466D
:103B8000FFF727FF0028E3D0226852E8003F23F028
:103B9000800342E800310029F6D12023E3670023A7
:103BA00084F878300320E1E76FF07E4300932B46E2
:103BB00000224FF480012046FFF70BFF0028CCD0F5
:103BC000226852E8003F23F4907342E80031002954
:103BD000F6D1226802F1080353E8003F23F0010305
:103BE000083242E800310029F3D12023C4F88030A4
:103BF000002384F878300320B8E768B310B5044692
:103C0000C36F03B32423E3672268136823F001031F
:103C10001360636AE3B92046FFF7E2FC012811D084
:103C20002268536823F4904353602268936823F01A
:103C30002A0393602268136843F00103136020464F
:103C4000FFF778FF10BD80F8783000F06DFFD9E7FE
:103C50002046FFF759FEDEE70120704770B58AB0B5
:103C6000002405940694079408940994334BDA6C65
:103C700042F00402DA64DA6C02F004020192019A62
:103C8000DA6C42F08002DA64DA6C02F080020292AE
:103C9000029ADA6C42F00102DA64DA6C02F0010294
:103CA0000392039ADA6C42F00202DA64DB6C03F0EE
:103CB00002030493049B224D224603212846FEF76B
:103CC000B6F9224640F201114FF09040FEF7AFF9ED
:103CD0004FF4005305934FF404130693079405A97A
:103CE0002846FEF79DF803230593012606960794C0
:103CF000089405A92846FEF793F840F201130593AE
:103D000006960794089405A94FF09040FEF788F8AE
:103D10000823059306940794A5F5806505A9284610
:103D2000FEF77EF8102305934FF48813069307944B
:103D300005A92846FEF774F80AB070BD00100240CD
:103D40000008004808B50122FEF771F908BD08B562
:103D50000022FEF76CF908BD2DE9F04198469DF868
:103D60001830A3B9BDE8F08131462846FFF7EAFFD5
:103D70003846FDF7E3FF31462846FFF7E8FF3846AF
:103D8000FDF7DCFF0134E4B24445EDD3EAE7054634
:103D90000E4617460024F7E70FB400B5C3B044AA97
:103DA00052F8041B419201A8FCF718FC002804DC1F
:103DB00043B05DF804EB04B0704701A8FCF7A0FB2A
:103DC0006FF07F4382B201A90148FFF74FFEEFE792
:103DD0002801002038B5134D2846FFF7DDFF1248B3
:103DE000FFF7DAFF1148FFF7D7FF114C2046FFF726
:103DF000D3FF002201214FF09040FEF718F9642014
:103E0000FDF79CFF012211464FF09040FEF70FF99D
:103E10002846FFF7C1FF0748FFF7BEFF2046FFF720
:103E2000BBFF38BD304C0008384C0008404C00083F
:103E3000584C0008604C000810B582B004461E487B
:103E4000FFF7AAFF1D48FFF7A7FF1D48FFF7A4FFD4
:103E50001C48FFF7A1FF01238DF8003017238DF8D0
:103E6000013002238DF8023000238DF803308DF8E5
:103E70000430A3238DF805304FF47A730622694687
:103E8000206800F097FC50B90B48FFF785FF0E48FB
:103E9000FFF782FF0B48FFF77FFF02B010BD0B4812
:103EA000FFF77AFF0A48FFF777FF0A48FFF774FF2A
:103EB0000448FFF771FFF0E7304C0008384C000869
:103EC000684C0008584C0008604C0008844C0008FE
:103ED0008C4C0008944C000830B585B0044642482C
:103EE000FFF75AFF4148FFF757FF4148FFF754FFDC
:103EF0004048FFF751FF0023029301238DF80C3057
:103F00008DF80D300423009302AB022203A9204652
:103F100000F02CFD002859D1334D2846FFF73CFF17
:103F20003548FFF739FF334C2046FFF735FF284669
:103F3000FFF732FF2D48FFF72FFF9DF808102F489D
:103F4000FFF72AFF2046FFF727FF9DF80930022BD5
:103F500022D0032B2DD0012B11D02348FFF71CFFBB
:103F60002248FFF719FF9DF80B209DF80A102448FE
:103F7000FFF712FF1F48FFF70FFF05B030BD2846BF
:103F8000FFF70AFF1948FFF707FF1E48FFF704FF76
:103F90002046FFF701FFE0E71348FFF7FDFE134857
:103FA000FFF7FAFE1848FFF7F7FE1248FFF7F4FE96
:103FB000D3E70D48FFF7F0FE0C48FFF7EDFE13487E
:103FC000FFF7EAFE0B48FFF7E7FEC6E71048FFF7EA
:103FD000E3FE1048FFF7E0FE0F48FFF7DDFE05485F
:103FE000FFF7DAFEC9E700BF304C0008384C000884
:103FF000B04C0008584C0008604C0008CC4C00083D
:10400000644D0008F84C00081C4D0008404D0008A5
:10401000844C00088C4C0008904D000830B585B0E9
:1040200004462348FFF7B8FE2248FFF7B5FE2248B2
:10403000FFF7B2FE2148FFF7AFFE0023ADF80830CE
:1040400003238DF80C3020238DF80D3002220092CE
:1040500002AB03A9204600F089FCE0B9144D2846C4
:10406000FFF79AFE1648FFF797FE144C2046FFF71D
:1040700093FE2846FFF790FE0E48FFF78DFE9DF851
:1040800009209DF808100F48FFF786FE2046FFF72D
:1040900083FE05B030BD0C48FFF77EFE0B48FFF7EE
:1040A0007BFE0B48FFF778FE0448FFF775FEF0E74C
:1040B000304C0008384C0008BC4D0008584C000833
:1040C000604C0008D84D0008844C00088C4C000857
:1040D000F84D000830B58BB004462C48FFF75CFE65
:1040E0002B48FFF759FE2B48FFF756FE2A48FFF7EB
:1040F00053FE00230793089380238DF824300C236C
:104100008DF825300823009307AB022209A9204629
:1041100000F02CFC68BB1D4D2846FFF73DFE1F48F4
:10412000FFF73AFE1C4C2046FFF736FE2846FFF705
:1041300033FE1748FFF730FE9DF81F309DF8202012
:104140009DF821109DF822009DF8235004950390BE
:104150000291019200939DF81E309DF81D209DF85C
:104160001C100F48FFF718FE2046FFF715FE0BB096
:1041700030BD0C48FFF710FE0B48FFF70DFE0B4853
:10418000FFF70AFE0448FFF707FEF0E7304C00088F
:10419000384C0008184E0008584C0008604C0008C5
:1041A000344E0008844C00088C4C0008684E00080F
:1041B00070B52DED028B84B004465548FFF7ECFD39
:1041C0005448FFF7E9FD5448FFF7E6FD5348FFF771
:1041D000E3FD0023ADF8083001238DF80C301A23DD
:1041E0008DF80D300222009202AB03A9204600F0A8
:1041F000BDFB00286ED14648FFF7CEFD4848FFF7CB
:10420000CBFD4648FFF7C8FD9DF808309DF8090032
:1042100040EA0320C0F30A00FDF7F2F834A3D3E923
:104220000023FDF781FA34A3D3E90023FDF752F907
:1042300033A3D3E90023FCF795FF33A3D3E900238D
:10424000FDF748F90022374BFCF78EFFFDF754FBD2
:1042500008EE100AFDEEC88A18EE903A322B1DDCEB
:104260002B48FFF799FD2B48FFF796FDF8EEE87A0B
:1042700038EE678ADFED2C7A28EE278AFDEEC87AC1
:1042800017EE902A18EE901A2848FFF785FD23486C
:10429000FFF782FD04B0BDEC028B70BD244E3046AA
:1042A000FFF77AFD234D2846FFF776FD2248FFF7FA
:1042B00073FD1A4C2046FFF76FFD3046FFF76CFD8B
:1042C0002846FFF769FD1D48FFF766FD2046FFF70A
:1042D00063FDC5E71648FFF75FFD1648FFF75CFD75
:1042E0001748FFF759FD0D48FFF756FDD2E700BF0D
:1042F0000000000000FC9F409A9999999999F53F18
:10430000F2D24D621058E73FE2E1E1E1E16182C0A3
:10431000304C0008384C0008884E0008584C000803
:10432000604C0008000039400000C842F84E000808
:10433000844C00088C4C0008A84E0008CC4E0008A5
:10434000184F000808B5154E3046FFF725FD144DEF
:104350002846FFF721FD13491348FFF71DFD134CB5
:104360002046FFF719FD3046FFF716FD2846FFF7F8
:1043700013FD0F48FFF710FD2046FFF70DFD72B645
:10438000BFF34F8F0B49CA6802F4E0620A4B134334
:10439000CB60BFF34F8F00BFFDE700BF844C000828
:1043A0008C4C00087C4F0008404F0008584C000817
:1043B000444F000800ED00E00400FA0508B50B4882
:1043C0000B4B03604FF4E133436000238360C36011
:1043D00003610C2242618361C36103624362FFF7A0
:1043E0000CFC00B908BDFFF7ADFF00BF280100209D
:1043F0000044004000B587B000230193029303936B
:104400000493059300931B481B4A026043607F227C
:104410008260FF22C260036143618361C361FEF772
:10442000E5FE00BB00238DF804308DF805308DF8D3
:10443000063004930593012201A90E48FEF734FFCC
:1044400098B901228DF800208DF801208DF8022006
:1044500000238DF8033069460648FEF789FF30B91E
:1044600007B05DF804FBFFF76DFFFFF76BFFFFF789
:1044700069FF00BFA00000200028004008B51348D5
:10448000134B03604FF482734360002383604FF447
:10449000E062C260036143614FF4007282611022E6
:1044A000C2610362436283620722C262036308231C
:1044B0004363FEF7FDFF30B9044B1A68136843F0FD
:1044C0004003136008BDFFF73DFF00BFC40000209C
:1044D0000030014000B597B04422002105A8FBF749
:1044E000E7FE0023009301930293039304934FF498
:1044F0000070FDF7A9FD28BB0A2205924FF48073D6
:1045000008931023099301210A9102230F9310931A
:1045100011911292072213921493159305A8FDF797
:104520007DFE88B90F230093032301930023029398
:104530000393049304216846FEF77EF930B917B05F
:104540005DF804FBFFF7FEFEFFF7FCFEFFF7FAFE47
:1045500030B583B0FDF7CAFB2C20FBF799FE05466A
:10456000234B03604FF0904343604FF480728260AE
:10457000C36001240461C06103F5806343620823C2
:104580008362FFF7A7FFFFF769FBFFF717FFFFF74E
:1045900031FFFFF773FF1748FFF7FEFB1648FFF7E1
:1045A000FBFBFFF717FC009405236422032113484B
:1045B000FFF7D2FB2846FFF73FFC2846FFF78CFCAD
:1045C0002846FFF789FC2846FFF728FD2846FFF715
:1045D00081FD00214C1C0A48FFF7DEFB2846FFF74F
:1045E000E7FD4FF47A70FDF7A9FB2146F2E700BF23
:1045F00000300140584C00084C4F000800080048AB
:10460000704F0008F0B583B007460E46254CA36AEC
:104610000193254D002239462846FEF72BFF002244
:1046200031462846FEF700FFA26A019B9A42EDD16F
:10463000FA7840F2B55302FB03F303339C0812F0FF
:10464000030F2DD1194A78780138C0EB001300EB25
:104650008303013303EBD371430022FA03F303F026
:104660000303C3EB61032344B8781844421EB178B6
:1046700034787378C3EB031398004FF4616303FB42
:10468000040008440A4B03FB0200810D800273689A
:10469000C3F57F730333C01841F1000103B0F0BDCF
:1046A000044AD0E700280040B001002050554400E3
:1046B00080510100A0AA990010B586B0044601A956
:1046C0006846FFF79FFF820AC0F309034FF47A7030
:1046D00000FB03F3C3F38F23238042EA815006B02B
:1046E00010BD00B583B00023ADF806300DF1060013
:1046F000FFF7E2FFBDF806304FF47A7202FB00309C
:1047000003B05DF804FB000070B506460D46FFF7E8
:10471000E8FF0446EEB1204B1B68198D586AFDF77F
:104720007FFC002835D1FFF7DCFF001BA842F2DD3B
:104730001A48FFF731FB1A48FFF72EFB1948FFF71D
:104740002BFB1948FFF728FB1848FFF725FBFF2034
:104750001EE0114B1B68198D586AFDF761FC01289A
:1047600015D1FFF7BEFF031BAB42F2DD0B48FFF78D
:1047700013FB0B48FFF710FB0A48FFF70DFB0C4833
:10478000FFF70AFB0948FFF707FBFF2000E0304670
:1047900070BD0020FCE700BFF0010020644C000861
:1047A000844C00088C4C0008C44F0008584C00088A
:1047B0008C4F00082DE9F84F0546894690461F4664
:1047C0000024A24617E02A48FFF7E6FA2948FFF737
:1047D000E3FA2948FFF7E0FA2848FFF7DDFA28480E
:1047E000FFF7DAFA4FF0FF0A2B7B01212548FFF78C
:1047F000AEFA0134A4B2444537D2FFF772FF064641
:1048000002212048FFF79EFAAB6813F0020F15D182
:10481000FFF767FF801BB842F6DD1548FFF7BCFACB
:104820001448FFF7B9FA1448FFF7B6FA1648FFF72D
:10483000B3FA1348FFF7B0FA4FF0FF0A19F8043043
:104840002B73DFF840B002215846FFF780FA0121B0
:104850005846FFF777FAAB6813F0010FC4D1FFF7A2
:1048600040FF801BB842F6DDADE75046BDE8F88F4B
:10487000644C0008844C00088C4C00084850000828
:10488000584C000800080048FC4F00082DE9F04F84
:1048900083B005468B4691469A46DDF83080002469
:1048A000019419E02A48FFF777FA2A48FFF774FACB
:1048B0002948FFF771FA2948FFF76EFA2848FFF7F1
:1048C0006BFAFF2301932B7B0BF804300121254861
:1048D000FFF73DFA0134A4B24C4535D2FFF701FF92
:1048E000064602211F48FFF72DFAAB6813F0020FAE
:1048F00015D1FFF7F6FE801B4045F6DD1448FFF7A3
:104900004BFA1448FFF748FA1348FFF745FA1648E0
:10491000FFF742FA1248FFF73FFAFF23019385F8A9
:104920000CA0104F02213846FFF711FA012138463A
:10493000FFF708FAAB6813F0010FC4D1FFF7D1FEFF
:10494000801B4045F6DDADE7019803B0BDE8F08F70
:10495000644C0008844C00088C4C00084850000847
:10496000584C000800080048FC4F0008F0B585B01E
:104970000C4616461D462B49086000208DF80F0096
:104980004FF47A71FFF7C0FE18B10124204605B03C
:10499000F0BD244F3B68002219895868FDF747FB9A
:1049A00038684FF47A73324621460068FFF702FFF9
:1049B00008B10124EAE73B68012219895868FDF72C
:1049C00036FB4FF47A710020FFF79EFE08B10124F8
:1049D000DCE73B68002219895868FDF728FB386836
:1049E0004FF47A7301220DF10F010068FFF7E2FE28
:1049F00008B10124CAE73B6818684FF47A73009342
:104A00000023BDF828202946FFF740FF044608B1DF
:104A10000124BBE73B68012219895868FDF707FBB1
:104A2000B4E700BFF0010020FEE7FEE7FEE7FEE787
:104A3000FEE770477047704708B5FDF76DF908BD90
:104A400082B00A4B1A6E42F001021A661A6E02F028
:104A500001020092009A9A6D42F080529A659B6D15
:104A600003F080530193019B02B070470010024095
:104A700010B5A2B00446882200216846FBF718FC56
:104A800022680D4B9A4201D022B010BD4FF4003382
:104A900000934FF4007321936846FEF719F938B973
:104AA000064AD2F8903043F40043C2F89030EBE766
:104AB000FFF748FCF4E700BF002800400010024068
:104AC00000B589B0002303930493059306930793DD
:104AD0000268144B9A4202D009B05DF804FB03F55A
:104AE00060431A6E42F480521A661A6E02F48052C3
:104AF0000192019ADA6C42F00102DA64DB6C03F095
:104B000001030293029BE0230393022304930323F4
:104B100006930523079303A94FF09040FDF780F912
:104B2000DAE700BF0030014010B5AAB0044600210A
:104B300025912691279128912991882203A8FBF796
:104B4000B7FB2268184B9A4201D02AB010BD02234D
:104B5000039303A8FEF7BCF810BB144B9A6D42F404
:104B600000329A659A6D02F400320192019ADA6C71
:104B700042F00102DA64DB6C03F001030293029B52
:104B80000C232593022326930023279303232893A2
:104B90000723299325A94FF09040FDF741F9D4E769
:104BA000FFF7D0FBD9E700BF0044004000100240EF
:104BB000034AD2F8883043F47003C2F88830704753
:104BC00000ED00E0DFF834D0FFF7F2FF0C480D49AC
:104BD0000D4A002302E0D458C4500433C4188C4258
:104BE000F9D30A4A0A4C002301E013600432A242BE
:104BF000FBD3FBF729FBFFF7ABFCFEE700800120AE
:104C000000000020700000203051000870000020DB
:104C1000F4010020FEE70000F8B500BFF8BC08BCB6
:104C20009E467047F8B500BFF8BC08BC9E4670476A
:104C30001B5B303B33326D00494E464F203A20001B
:104C4000526573657474696E67204C52313131302E
:104C50002E2E2E20000000001B5B306D0000000097
:104C6000444F4E450D0A000053657474696E672009
:104C70007570205443584F206D6F64652E2E2E2082
:104C8000000000001B5B303B33316D004552524F3A
:104C9000523A20004661696C656420746F20736528
:104CA00074205443584F206D6F64650D0A00000056
:104CB00047657474696E67204C523131313020760B
:104CC000657273696F6E2E2E2E2000004C523131AA
:104CD000313020626F6F746C6F616465722068613F
:104CE0007264776172652076657273696F6E3A20BF
:104CF00025640D0A000000004C5231313130206231
:104D00006F6F746C6F6164657220747970653A209E
:104D10004C52313131300D0A000000004C5231311B
:104D2000313020626F6F746C6F61646572207479CA
:104D300070653A204C52313132300D0A00000000CB
:104D40004C523131313020626F6F746C6F61646529
:104D50007220747970653A204C52313132310D0A2B
:104D6000000000004C523131313020626F6F746CA2
:104D70006F61646572206669726D77617265207615
:104D8000657273696F6E3A2025642E25640D0A00E2
:104D90000D0A4661696C656420746F206765742034
:104DA0004C523131313020626F6F746C6F616465C9
:104DB000722076657273696F6E0D0A0047657474B0
:104DC000696E672057692D46692076657273696F31
:104DD0006E2E2E2E2000000057692D466920666930
:104DE000726D776172652076657273696F6E3A20B5
:104DF00025642E25640D0A004661696C6564207483
:104E00006F206765742057692D4669207665727337
:104E1000696F6E0D0A00000047657474696E672043
:104E20004C52313131302043686970204555492E4C
:104E30002E2E200043686970204555493A202530C0
:104E400032583A253032583A253032583A253032E5
:104E5000583A253032583A253032583A25303258AF
:104E60003A253032580D0A004661696C6564207439
:104E70006F20676574204C523131313020436869AE
:104E800070204555490D0A0047657474696E6720A6
:104E90004C52313131302074656D706572617475BA
:104EA00072652E2E2E2000004C523131313020748C
:104EB000656D706572617475726520697320746FB9
:104EC0006F20686967680D0A000000005443584F5E
:104ED000206D6F6465206973206D61796265206E55
:104EE0006F742073657420757020636F72726563D0
:104EF000746C790D0A0000004C523131313020744D
:104F0000656D70657261747572653A2025642E2531
:104F10006420C2B0430D0A000D0A4661696C6564E5
:104F200020746F20676574204C5231313130207409
:104F3000656D70657261747572650D0A0000000020
:104F400025730A0050414E49430000002D2D2D2DA0
:104F50002D2D2D2D2D2D2D2D2D2D2D2D2D2D2D2D81
:104F60002D2D2D2D2D2D2D2D2D0D0A0D0A0000007E
:104F70003261203D2025640D0A0000004572726FE9
:104F8000725F48616E646C657200000054696D6503
:104F90006F7574206F636375726564207768696CE0
:104FA000652077616974696E6720666F722042556B
:104FB000535920746F206265636F6D65204C4F57A5
:104FC0000D0A000054696D656F7574206F63637519
:104FD000726564207768696C652077616974696EB1
:104FE0006720666F72204255535920746F206265A6
:104FF000636F6D6520484947480D0A0054696D6527
:105000006F7574206F636375726564207768696C6F
:10501000652077616974696E6720666F72205350EE
:105020004920746F206265636F6D652072656164ED
:105030007920666F72207472616E736D6973736923
:105040006F6E0D0A0000000054696D656F75742065
:105050006F636375726564207768696C652077613A
:105060006974696E6720666F722053504920746FAF
:10507000206265636F6D6520726561647920666F7B
:105080007220726563657074696F6E0D0A000000AE
:1050900000000000000000000102030406070809E8
:1050A0000000000001020304A0860100400D03007F
:1050B000801A060000350C0040420F0080841E005C
:1050C00000093D0000127A000024F40000366E0151
:1050D0000048E801006CDC02232D302B200000008A
:1050E000686C4C00656667454647000030313233D6
:1050F00034353637383941424344454600000000D4
:10510000303132333435363738396162636465663D
:08511000000000000000000097
:08511800B0C8FF7F0100000098
:08512000290200080000000054
:08512800010200080000000074
:10513000040000200000000000000000000000004B
:10514000000000000000000000000000000000005F
:10515000000000000000000000000000000000004F
:10516000000000000000000000000000000000003F
:10517000000000000000000000000000000000002F
:10518000000000000000000000000000000000001F
:1051900000000000010000001000000000093D00B8
:0400000508004BC5DF
:00000001FF
