:020000040800F2
:10000000007F0010616A0008B16A00087D5C00088A
:10001000B16A0008B16A0008B16A00080000000077
:10002000000000000000000000000000B16A0008AD
:10003000B16A000800000000B16A0008155C000801
:10004000B16A0008B16A0008B16A0008895E000858
:10005000B16A0008B16A0008955800089B5800086A
:10006000A1580008A7580008AD580008B16A000858
:10007000B16A0008B16A0008B16A0008B16A0008F4
:10008000B16A0008B16A0008B16A0008B16A0008E4
:10009000B16A0008B16A0008B16A0008B3580008E4
:1000A000B16A0008B16A0008B16A0008B16A0008C4
:1000B000B16A0008B16A0008B16A0008B16A0008B4
:1000C000B16A0008B16A0008B16A0008B16A0008A4
:1000D000B16A0008B16A0008B16A0008B16A000894
:1000E000DB580008B16A0008B16A0008B16A00086C
:1000F000B16A0008B16A0008B16A0008B16A000874
:10010000B16A0008B16A0008B16A0008B16A000863
:10011000B16A0008B16A0008B16A0008B16A000853
:10012000B16A0008B16A0008B16A0008B16A000843
:100130005D660008B16A0008B16A0008B16A00088B
:10014000B16A00083963000861630008B16A0008F9
:10015000B16A0008B16A0008B16A0008B16A000813
:10016000B16A0008B16A0008B16A0008B16A000803
:10017000B16A0008B16A0008B16A00080000000016
:08018000B16A0008B16A000831
:1001C0000348044B834202D0034B03B118477047E6
:1001D000600200206002002000000000054806497F
:1001E0000B1AD90F01EBA301491002D0034B03B145
:1001F00018477047600200206002002000000000E5
:1002000010B5064C237843B9FFF7DAFF044B13B15E
:100210000448AFF300800123237010BD600200206A
:1002200000000000A49B010808B5044B1BB1044961
:100230000448AFF30080BDE80840CFE700000000AD
:1002400064020020A49B010810EE102AC2F3C753D9
:100250007F3B162B22F0004128DC002B18DB1A49CB
:1002600019410A4221D0DFED197A70EE277AF5EEB6
:10027000C07AF1EE10FA18DD002A04DA4FF400001B
:1002800040FA03F31A4422EA010300EE103A7047E1
:10029000DFED0E7A70EE277AF5EEC07AF1EE10FA05
:1002A00003DD002A08DB9FED0A0A7047B1F1FF4F1A
:1002B000FBD330EE000A7047FFEE007A002918BF2A
:1002C000B0EE670A704700BFFFFF7F00CAF24971B6
:1002D0000000000070B50D4E0D4D761BB61006D017
:1002E000002455F8043B01349847A642F9D1094E41
:1002F000094D761B19F056FCB61006D0002455F8AF
:10030000043B01349847A642F9D170BD7029020818
:10031000702902087429020870290208032A70B59E
:1003200015D940EA010C1CF0030F04460B4621D1FD
:10033000194620460E680568B54204F1040403F12D
:10034000040317D1043A032A20461946F0D8541E54
:10035000A2B100F1FF3C013901E0C3180CD01CF838
:1003600001EF11F8012F9645A4EB0C03F5D0AEEB8D
:10037000020070BD541EECE7184670BD104670BDFB
:10038000844641EA000313F003036DD1403A41D3A0
:1003900051F8043B40F8043B51F8043B40F8043B5F
:1003A00051F8043B40F8043B51F8043B40F8043B4F
:1003B00051F8043B40F8043B51F8043B40F8043B3F
:1003C00051F8043B40F8043B51F8043B40F8043B2F
:1003D00051F8043B40F8043B51F8043B40F8043B1F
:1003E00051F8043B40F8043B51F8043B40F8043B0F
:1003F00051F8043B40F8043B51F8043B40F8043BFF
:1004000051F8043B40F8043B51F8043B40F8043BEE
:10041000403ABDD2303211D351F8043B40F8043B8E
:1004200051F8043B40F8043B51F8043B40F8043BCE
:1004300051F8043B40F8043B103AEDD20C3205D39E
:1004400051F8043B40F8043B043AF9D2043208D096
:10045000D2071CBF11F8013B00F8013B01D30B8808
:1004600003806046704700BF082A13D38B078DD0E6
:1004700010F003038AD0C3F10403D21ADB071CBFB8
:1004800011F8013B00F8013B80D331F8023B20F822
:10049000023B7BE7043AD9D3013A11F8013B00F85B
:1004A000013BF9D20B7803704B7843708B788370E3
:1004B00060467047830730B548D0541E002A3FD0AD
:1004C000CAB2034601E0013C3AD303F8012B9D0771
:1004D000F9D1032C2DD9CDB245EA05250F2C45EADB
:1004E000054536D9A4F1100222F00F0C03F1200EBD
:1004F000E6444FEA121C03F1100242E9045542E9B6
:10050000025510327245F8D10CF1010214F00C0FB3
:1005100003EB021204F00F0C13D0ACF1040323F030
:1005200003030433134442F8045B9342FBD10CF001
:1005300003042CB1CAB21C4403F8012B9C42FBD12A
:1005400030BD64461346002CF4D1F9E70346144647
:10055000BFE71A46A446E0E708B410B5002A9DB0EC
:10056000044633DB4FF40273ADF814300291069168
:1005700020AB17D0013A4FF6FF7104920792ADF805
:1005800016101F9A019302A900F056FB421C01DAD3
:100590008B232360029B00221A701DB0BDE810401F
:1005A00001B070474FF6FF7104920792ADF8161034
:1005B0001F9A019302A900F03FFB431C01DA8B2331
:1005C00023601DB0BDE8104001B070478B2303606D
:1005D0004FF0FF30F5E700BF0CB410B51F4B0029FA
:1005E0001C689CB035DB4FF40273ADF814300290F8
:1005F00006901FAB18D001394FF6FF720491079196
:10060000ADF8162002A91E9A0193204600F014FBB3
:10061000421C01DA8B232360029B00221A701CB05B
:10062000BDE8104002B070474FF6FF720491079189
:10063000ADF8162002A91E9A0193204600F0FCFA9C
:10064000431C01DA8B2323601CB0BDE8104002B0CC
:1006500070478B2323604FF0FF30F5E70000002048
:10066000A2EB0300704700BF02780B78012A28BF75
:100670009A42F5D16DE9044540EA0104CDE90267EB
:100680006FF0000C4FEA447212B380EA010414F0D8
:10069000070F6AD100F0070420F0070004F00305FB
:1006A00021F007014FEAC505F0E8042314F0040F18
:1006B000F1E804670CFA05F462EA040266EA04064B
:1006C0000AD063EA0403624667EA0407664603E069
:1006D000F0E80423F1E8046782FA4CF582EA0604A4
:1006E000A4FA8CF46CBB83FA4CF583EA0705A5FAEF
:1006F0008CF595B950E9022351E9026782FA4CF56D
:1007000082EA0604A4FA8CF483FA4CF583EA07051E
:10071000A5FA8CF52543DBD09CB92DBAB5FA85F442
:1007200024F0070427FA04F1DDE9026723FA04F351
:1007300003F0FF0001F0FF01FDE80445A0EB01001C
:10074000704724BAB4FA84F424F0070426FA04F1BA
:10075000DDE9026722FA04F202F0FF0001F0FF0176
:10076000FDE80445A0EB0100704714F0030F3CD1F5
:1007700010F0030428D150F8082B51F8083B82FAF6
:100780004CF582EA0305A5FA8CF55DB950F8042C06
:1007900051F8043C82FA4CF582EA0305A5FA8CF57F
:1007A000002DE8D02DBAB5FA85F424F0070423FA19
:1007B00004F122FA04F202F0FF0001F0FF01FDE86B
:1007C0000445A0EB010070474FEAC40420F0030089
:1007D00050F8082B21F0030151F8083B0CFA04F4FF
:1007E00062EA040263EA0403C9E710F003041AD0C2
:1007F000A1EB040120F00300E40750F8042B06D01D
:100800000FD28B785FFAA2F4E41A06D12BB1CB7821
:100810005FFAB2F4E41A00D11BB920465DF8104B20
:10082000704701F1040150F8042BCC0721F00301BB
:1008300051F8043B48D824D222F07F4482FA4CF588
:1008400094EA1325A5FA8CF50AD165B951F8043B51
:1008500084EA0204B4EB036F0ED150F8042BEBE7EB
:100860004FEA132355E035F07F454DD10878FDE878
:100870000445C0F1000070474FEA126203F0FF0325
:1008800047E002EA1C4482FA4CF594EA1345A5FAC3
:100890008CF50AD165B951F8043B84EA0204B4EB43
:1008A000034F0CD150F8042BEBE74FEA134330E031
:1008B00015EA1C4528D10B884FEA124229E04FEA7D
:1008C000124203EA1C4324E002F0FF0482FA4CF5D2
:1008D00094EA1365A5FA8CF50AD165B951F8043B81
:1008E00084EA0204B4EB032F09D150F8042BEBE7A0
:1008F0004FEA13630DE015F0FF0F05D10B684FEAC7
:10090000122223F07F4304E04FF00000FDE804458D
:10091000704712BA1BBA82FA4CF482EA0304A4FAB2
:100920008CF5B5FA85F402FA04F203FA04F34FEAFF
:100930001260FDE80445A0EB136070470000000062
:1009400090F800F06DE9024520F007016FF0000C0F
:1009500010F0070491F820F040F049804FF00004B7
:100960006FF00700D1E9002391F840F000F1080092
:1009700082FA4CF2A4FA8CF283FA4CF3A2FA8CF3CA
:100980004BBBD1E9022382FA4CF200F10800A4FA31
:100990008CF283FA4CF3A2FA8CF3E3B9D1E9042385
:1009A00082FA4CF200F10800A4FA8CF283FA4CF3BC
:1009B000A2FA8CF37BB9D1E9062301F1200182FA76
:1009C0004CF200F10800A4FA8CF283FA4CF3A2FA7C
:1009D0008CF3002BC6D0002A04BF04301A4612BA8A
:1009E000B2FA82F2FDE8024500EBD2007047D1E98D
:1009F000002304F00305C4F100004FEAC50514F01C
:100A0000040F91F840F00CFA05F562EA05021CBFEC
:100A100063EA050362464FF00004A9E770B50B4E88
:100A20009AB004466FF00045CDE9044513460094A2
:100A30000A463068064C02956946039400F0FCF8BB
:100A4000009B00221A701AB070BD00BF0000002089
:100A50000802FFFF10B59AB06FF00044CDE904140E
:100A6000009102946946044C039400F0E5F8009B61
:100A700000221A701AB010BD0802FFFF2DE9F047DE
:100A80008F689F420C461D46164638D88246888994
:100A900010F4906F0ED108683D462A46314600F0AA
:100AA00027FCA2682368D21B2B44A260236000208D
:100AB000BDE8F0874B69096903EB4308236808EB3D
:100AC000D878A3EB01096B1C4FEA68084B444345F7
:100AD000424684BF98464246430513D511465046C8
:100AE00000F0E4FC074608B321694A46FFF748FCDA
:100AF000A38923F4906343F08003A38107E008688F
:100B00001F46CAE7504600F02BFD074650B107EBE1
:100B10000900A8EB09032761C4F81480A3602060D2
:100B20002F46BAE72169504600F05EFC0C23CAF854
:100B30000030A38943F040034FF0FF30A381B7E7B3
:100B40002DE9F04F936883B09146002B6ED0176863
:100B50008D6880460C460868083744E0A38913F482
:100B6000906F2ED0D4E90415A0EB010A05EB4505E2
:100B700005EBD5750AEB06006D100130A8422A4638
:100B800084BF05462A465B0537D51146404600F02E
:100B90008DFC00283BD0524621690190FFF7F0FB05
:100BA000A289019B22F4906242F08002A281A5EB0F
:100BB0000A0203EB0A006561A260236120603546EA
:100BC000B2465946524600F093FBA068D9F8081087
:100BD0002368451B8E1B03EB0A00A5602060C9F843
:100BE00008601EB3083757E902B6002EFAD0B542A6
:100BF000AA46B3D93546B246E3E7404600F0B0FC1A
:100C000003460028D3D12169404600F0EDFB0C23B8
:100C1000C8F80030A389002243F040034FF0FF30B2
:100C2000A381C9E9012203B0BDE8F08F0020C9F813
:100C3000040003B0BDE8F08F2DE9F04F92468A8999
:100C400015069DB0884681461C4603D50A69002AD0
:100C500000F0EF80002209929AF800307E4D039454
:100C600020228DF8292030228DF82A200126002B01
:100C700072D0544603E014F8013F002B76D0252BA8
:100C8000F9D1B4EB0A0B74D12278002A64D0002386
:100C90004FF0FF32CDE90523049307938DF85330CD
:100CA0001A93013404E0049A06FA03F313430493FD
:100CB000A246052214F8011B284600F0C9FA431B7E
:100CC0000028F0D1049BD80644BF20228DF8532081
:100CD00019079AF8001044BF2B228DF853202A29B7
:100CE00054D1039A11680432002903927CDB0791E6
:100CF0009AF801100AF1010A2E2959D0574C032203
:100D0000204600F0A5FA40B1049B001B402404FAE1
:100D100000F0034304930AF1010A1AF8011B50483A
:100D20008DF82810062200F093FA002862D04D4B6F
:100D3000002B52D003AA00924B4B424604A94846CE
:100D4000AFF3008007467A1C06D0099B3B44099309
:100D50009AF80030002B8CD1B8F80C305B0654BFE9
:100D600009984FF0FF301DB0BDE8F08FB4EB0A0BCF
:100D7000F2D05B46524641464846FFF77FFE0130BF
:100D8000EAD0099B22785B4409937EE7A1F1300207
:100D9000092AB1D8079B1AF8011F03EB830302EB62
:100DA0004303A1F13002092AF5D92E290793A5D1D1
:100DB0009AF801102A2927D1039B9AF802101A6881
:100DC00005920433002A0AF102000393B8BF4FF0E2
:100DD000FF338246B8BF059390E7039B073323F0A8
:100DE000070308330393B0E7494243F00203079136
:100DF00004937DE703AA00921B4B424604A9484690
:100E000000F0CAF807469EE7A1F130020023092A44
:100E100005930AF1010A3FF671AF1AF8011F03EBBF
:100E2000830302EB4303A1F13002092AF5D90593AC
:100E300064E7402100F03AFBC8F80000C8F8100051
:100E400018B14022C8F8142004E70C23C9F8003078
:100E50004FF0FF3087E700BF2C2902083429020831
:100E600038290208000000007D0A00082DE9F84F2B
:100E700092461F460A698B68DDF828909A42B8BFEF
:100E80001A46CAF8002091F843300C46064613B1C2
:100E90000132CAF80020226891065DD5DAF80030E8
:100EA0000233CAF80030226812F0060F11461ED134
:100EB000E168CB1A002BD8BF114618DD04F1190BDD
:100EC0004FF0000805E0E568DAF80030ED1A454516
:100ED0000CDD01235A4639463046C847013008F137
:100EE0000108F0D14FF0FF30BDE8F88F216894F889
:100EF0004330003B18BF01238A060AD5E1185A1C6B
:100F0000302081F84300224494F8451082F84310C1
:100F1000023304F1430239463046C8470130E1D07C
:100F2000236803F00603042B1DD0A36822699342B3
:100F300025DD4FF000089B1A98441A34002501E083
:100F400045451CDA0123224639463046C847013060
:100F500005F10105F4D1C5E712F0060F12D0003BF0
:100F600018BF0123D5E7DAF80030E1682269C91A11
:100F7000A368934221EAE178DDDC0029DDDC002072
:100F8000BDE8F88FE168DAF80030CB1A002BD8BF43
:100F9000114693DCABE700BF2DE9F0470C4684B067
:100FA0009046227E0C990746994604F14300002A98
:100FB00033D0A2F15803DDB2202D67D8202B65D89D
:100FC000DFE813F0DE006400640064006400640085
:100FD00064006400640064006400A3006E006400A8
:100FE0006400640064006E006400640064006400D7
:100FF00021007F00C00064006400AE0064007F0038
:1010000064006400E50023681A0640F104810B685F
:1010100062691D1D0D601B681A60002382462361F2
:10102000CDF80090434603AA21463846FFF71EFF3D
:10103000013020D02369524641463846C847013026
:1010400019D02368E068039E9B0719D5831B002BEA
:1010500016DD04F1190A002504E0E068039E831BF5
:10106000AB420DDD0123524641463846C8470130A8
:1010700005F10105F1D14FF0FF3004B0BDE8F08774
:10108000B042B8BF304604B0BDE8F087012384F811
:101090004220236104F1420A002384F84330BFE771
:1010A00023681A0602D45E0600F1C1800D682A6822
:1010B00004350D601546002A6BDBDFF884C10A2673
:1010C00010E023681D0640F19C800B681D1D0D601B
:1010D0001D68DFF86CC16F2A0CBF08260A260023A2
:1010E00084F843306268A260002A7FDB236823F023
:1010F00004032360002D5BD1002A79D18246082E9B
:1011000065D0A0EB0A0020618AE70B68012218680D
:1011100004330B6004F1420A84F842002261BBE709
:101120000B686268181D0860D3F800A000215046C3
:1011300000F08EF8002800F08180A0EB0A006060CB
:101140002061A9E7236843F0200323607822DFF8B9
:10115000F4C084F845200A68151D0D601D0643D4AF
:10116000590641D51588DE0744BF43F020032360AC
:10117000002D44D1236823F0200323601026AEE71E
:10118000582384F84530DFF8B8C02368E3E72368C4
:10119000DCE76268A2602D21002AC5F1000584F811
:1011A000431002DB23F004032360DFF894C00A2617
:1011B0008246B5FBF6F306FB13512A461CF80110D4
:1011C0000AF8011DB2421D46F3D2082E99D12368B8
:1011D000D90796D5626823699A4292DC30230AF8CF
:1011E000013C0AF1FF3A8CE71568BCE7002DDFD11E
:1011F0009CF8003084F8423004F1420A7FE7102660
:101200006DE713F0400F0B6803F104050D600CBF90
:101210001D681D885DE713F0400F0B68626903F1DC
:1012200004050D601B6814BF1A801A60F5E60A6891
:10123000B2F9005004320A602A463CE760687FE752
:1012400040290208542902080000000000000000A4
:1012500001F0FF01102A2BDB10F0070F08D010F867
:10126000013B013A8B422DD010F0070F42B3F6D16B
:10127000F0B441EA012141EA014122F007047FF084
:1012800000070023F0E80256083C85EA010586EADB
:10129000010685FA47F5A3FA87F586FA47F6A5FA17
:1012A00087F68EB9EED1F0BC01F0FF0102F0070223
:1012B00032B110F8013B013A83EA010313B1F8D1CE
:1012C0000020704701387047002D06BF35460338AF
:1012D000073815F0010F07D1013015F4807F02BFE8
:1012E000013015F4C03F0130F0BC0138704700BF39
:1012F00088420DD98B1883420AD900EB020CBAB18F
:10130000624613F801CD02F801CD9942F9D1704738
:101310000F2A0ED8034602F1FF3C4AB10CF1010C32
:10132000013B8C4411F8012B03F8012F6145F9D1E1
:10133000704740EA01039B0750D1A2F1100370B53A
:1013400001F1200C23F00F0501F1100E00F1100443
:10135000AC441B095EF8105C44F8105C5EF80C5C51
:1013600044F80C5C5EF8085C44F8085C5EF8045CC9
:1013700044F8045C0EF1100EE64504F11004E9D1C6
:10138000013312F00C0F01EB031102F00F0400EB1C
:10139000031327D0043C24F003064FEA940C1E44A8
:1013A0001C1F8E465EF8045B44F8045FB442F9D11A
:1013B0000CF1010402F0030203EB840301EB84014E
:1013C00002F1FF3C4AB10CF1010C013B8C4411F8D5
:1013D000012B03F8012F6145F9D170BD02F1FF3CEB
:1013E00003469BE72246EBE7002958D030B551F879
:1013F000043C83B0002BA1F10404B8BFE4180190B1
:1014000000F0E8F8284A0198136833B1A3420DD9D7
:10141000216804EB010C63452FD06360146003B0B6
:10142000BDE8304000F0D8B8A34210D81A465B6837
:10143000002BF9D1116802EB010C644519D02FD3B0
:101440006360546003B0BDE8304000F0C5B8116877
:1014500002EB010CA44516D022D8216804EB010C44
:101460006345EDD11D685B682944C4E900135460ED
:10147000D5E7236819441160D1E71D685B682944EA
:10148000C4E90013CAE7246821445418A342116038
:10149000C5D1D3E900432144C2E90013BFE7704737
:1014A0000C230360BBE700BF7C020020F8B5CD1C15
:1014B00025F0030508350C2D38BF0C25002D0646F8
:1014C00023DBA94221D8254F00F084F83A6822B3E3
:1014D000144603E063682246FBB11C4623685B1B8D
:1014E000F8D40B2B15D8636894420CBF3B60536053
:1014F000304600F071F804F10B00231D20F00700C6
:10150000C21A01D01B1AA350F8BD0C23336000206F
:10151000F8BD23601C442560EAE77968C9B1294613
:10152000304600F045F8431C0CD0C41C24F00304E2
:10153000A04205D0211A304600F03AF8013001D01F
:101540002560D5E70C233046336000F045F80020D5
:10155000F8BD304600F02CF87860E0E77C0200200F
:10156000F8B51446F9B1CAB106460D4600F036F892
:10157000A04202D32F463846F8BD21463046FFF739
:1015800095FF07460028F6D022462946FEF7F8FECA
:1015900030462946FFF728FF3846F8BD2746FFF7B3
:1015A00023FF3846F8BDBDE8F8401146FFF77EBF7F
:1015B00038B5074D0022044608462A6000F018F8A6
:1015C000431C00D038BD2B68002BFBD0236038BDF6
:1015D00084020020704700BF704700BF51F8040C20
:1015E0000028A0F10400BCBF0B58C018704700BF12
:1015F000044A05491368002B08BF0B4618441060C5
:1016000018467047880200200000001081F0004159
:1016100002E000BF83F0004330B54FEA41044FEAD7
:10162000430594EA050F08BF90EA020F1FBF54EA72
:10163000000C55EA020C7FEA645C7FEA655C00F00E
:10164000E2804FEA5454D4EB5555B8BF6D420CDDDF
:101650002C4480EA020281EA030382EA000083EA62
:10166000010180EA020281EA0303362D88BF30BD02
:1016700011F0004F4FEA01314FF4801C4CEA113158
:1016800002D0404261EB410113F0004F4FEA0333B7
:101690004CEA133302D0524263EB430394EA050F42
:1016A00000F0A780A4F10104D5F1200E0DDB02FAB1
:1016B0000EFC22FA05F2801841F1000103FA0EF245
:1016C000801843FA05F359410EE0A5F120050EF10B
:1016D000200E012A03FA0EFC28BF4CF0020C43FA3C
:1016E00005F3C01851EBE37101F0004507D54FF049
:1016F000000EDCF1000C7EEB00006EEB0101B1F599
:10170000801F1BD3B1F5001F0CD349085FEA3000DE
:101710004FEA3C0C04F101044FEA445212F5800FE9
:1017200080F09A80BCF1004F08BF5FEA500C50F186
:10173000000041EB045141EA050130BD5FEA4C0C69
:10174000404141EB0101013C28BFB1F5801FE9D2C6
:1017500091F0000F04BF01460020B1FA81F308BFE9
:101760002033A3F10B03B3F120020CDA0C3208DDB5
:1017700002F1140CC2F10C0201FA0CF021FA02F190
:101780000CE002F11402D8BFC2F1200C01FA02F100
:1017900020FA0CFCDCBF41EA0C019040E41AA2BF25
:1017A00001EB0451294330BD6FEA04041F3C1CDAED
:1017B0000C340EDC04F11404C4F1200220FA04F00D
:1017C00001FA02F340EA030021FA04F345EA0301B7
:1017D00030BDC4F10C04C4F1200220FA02F001FA79
:1017E00004F340EA0300294630BD21FA04F02946FB
:1017F00030BD94F0000F83F4801306BF81F4801194
:101800000134013D4EE77FEA645C18BF7FEA655C06
:1018100029D094EA050F08BF90EA020F05D054EAD8
:10182000000C04BF1946104630BD91EA030F1EBFDD
:101830000021002030BD5FEA545C05D140004941E1
:1018400028BF41F0004130BD14F580043CBF01F5D4
:10185000801130BD01F0004545F0FE4141F47001BA
:101860004FF0000030BD7FEA645C1ABF1946104695
:101870007FEA655C1CBF0B46024650EA013406BF96
:1018800052EA033591EA030F41F4002130BD00BF55
:1018900090F0000F04BF0021704730B54FF4806412
:1018A00004F132044FF000054FF0000150E700BF93
:1018B00090F0000F04BF0021704730B54FF48064F2
:1018C00004F1320410F0004548BF40424FF00001DF
:1018D0003EE700BF42004FEAE2014FEA31014FEA22
:1018E00002701FBF12F07F4393F07F4F81F0605171
:1018F000704732F07F4208BF704793F07F4F04BFBC
:1019000041F40021704730B54FF4607401F0004598
:1019100021F000411CE700BF50EA010208BF7047F8
:1019200030B54FF000050AE050EA010208BF7047E9
:1019300030B511F0004502D5404261EB41014FF452
:10194000806404F132045FEA915C3FF4D8AE4FF05A
:1019500003025FEADC0C18BF03325FEADC0C18BF3D
:10196000033202EBDC02C2F1200300FA03FC20FA8E
:1019700002F001FA03FE40EA0E0021FA02F11444DB
:10198000BDE600BF70B54FF0FF0C4CF4E06C1CEAF4
:1019900011541DBF1CEA135594EA0C0F95EA0C0F65
:1019A00000F0DEF82C4481EA030621EA4C5123EAD8
:1019B0004C5350EA013518BF52EA033541F4801107
:1019C00043F4801338D0A0FB02CE4FF00005E1FBBA
:1019D00002E506F00042E0FB03E54FF00006E1FB04
:1019E00003569CF0000F18BF4EF0010EA4F1FF0447
:1019F000B6F5007F64F5407404D25FEA4E0E6D4187
:101A000046EB060642EAC62141EA55514FEAC52097
:101A100040EA5E504FEACE2EB4F1FD0C88BFBCF513
:101A2000E06F1ED8BEF1004F08BF5FEA500E50F1C4
:101A3000000041EB045170BD06F0004646EA01018A
:101A400040EA020081EA0301B4EB5C04C2BFD4EBBC
:101A50000C0541EA045170BD41F480114FF0000EB5
:101A6000013C00F3AB8014F1360FDEBF002001F023
:101A7000004170BDC4F10004203C35DA0C341BDC9D
:101A800004F11404C4F1200500FA05F320FA04F06F
:101A900001FA05F240EA020001F0004221F00041A3
:101AA00010EBD37021FA04F642EB06015EEA430E16
:101AB00008BF20EAD37070BDC4F10C04C4F1200546
:101AC00000FA04F320FA05F001FA04F240EA0200F9
:101AD00001F0004110EBD37041F100015EEA430ECA
:101AE00008BF20EAD37070BDC4F1200500FA05F2EA
:101AF0004EEA020E20FA04F301FA05F243EA020369
:101B000021FA04F001F0004121FA04F220EA020077
:101B100000EBD3705EEA430E08BF20EAD37070BDBD
:101B200094F0000F0FD101F00046400041EB01019D
:101B300011F4801F08BF013CF7D041EA060195F07F
:101B4000000F18BF704703F00046520043EB030339
:101B500013F4801F08BF013DF7D043EA0603704726
:101B600094EA0C0F0CEA135518BF95EA0C0F0CD031
:101B700050EA410618BF52EA4306D1D181EA030177
:101B800001F000414FF0000070BD50EA410606BF71
:101B90001046194652EA430619D094EA0C0F02D1B6
:101BA00050EA013613D195EA0C0F05D152EA0336FB
:101BB0001CBF104619460AD181EA030101F0004119
:101BC00041F0FE4141F470014FF0000070BD41F062
:101BD000FE4141F4780170BD70B54FF0FF0C4CF43C
:101BE000E06C1CEA11541DBF1CEA135594EA0C0F5B
:101BF00095EA0C0F00F0A7F8A4EB050481EA030EA8
:101C000052EA03354FEA013100F088804FEA03338E
:101C10004FF0805545EA131343EA12634FEA02225C
:101C200045EA111545EA10654FEA00260EF000411D
:101C30009D4208BF964244F1FD0404F5407402D26F
:101C40005B084FEA3202B61A65EB03055B084FEA00
:101C500032024FF480104FF4002CB6EB020E75EBFD
:101C6000030E22BFB61A754640EA0C005B084FEA25
:101C70003202B6EB020E75EB030E22BFB61A7546A2
:101C800040EA5C005B084FEA3202B6EB020E75EBED
:101C9000030E22BFB61A754640EA9C005B084FEA65
:101CA0003202B6EB020E75EB030E22BFB61A754672
:101CB00040EADC0055EA060E18D04FEA051545EA61
:101CC00016754FEA06164FEAC30343EA52734FEA0A
:101CD000C2025FEA1C1CC0D111F4801F0BD141EA83
:101CE00000014FF000004FF0004CB6E711F4801FE8
:101CF00004BF01430020B4F1FD0C88BFBCF5E06FC8
:101D00003FF6AFAEB5EB030C04BFB6EB020C5FEAD7
:101D1000500C50F1000041EB045170BD0EF0004E2C
:101D20004EEA113114EB5C04C2BFD4EB0C0541EA5E
:101D3000045170BD41F480114FF0000E013C90E65B
:101D400045EA060E8DE60CEA135594EA0C0F08BF1F
:101D500095EA0C0F3FF43BAF94EA0C0F0AD150EA1E
:101D600001347FF434AF95EA0C0F7FF425AF1046B1
:101D700019462CE795EA0C0F06D152EA03353FF4D9
:101D8000FDAE1046194622E750EA410618BF52EA56
:101D900043067FF4C5AE50EA41047FF40DAF52EA2A
:101DA00043057FF4EBAE12E74FEA4102B2F1E043A4
:101DB00024BFB3F5001CDCF1FE5C0DD901F0004C32
:101DC0004FEAC0024CEA5070B2F1004F40EB830082
:101DD00008BF20F00100704711F0804F21D113F1AE
:101DE0003872BCBF01F00040704741F480114FEAE7
:101DF0005252C2F11802C2F1200C10FA0CF320FA70
:101E000002F018BF40F001004FEAC1234FEAD3238C
:101E100003FA0CFC40EA0C0023FA02F34FEA4303F6
:101E2000CCE77FEA625307D150EA01331EBF4FF07F
:101E3000FE4040F44000704701F0004040F0FE409A
:101E400040F40000704700BF53B94AB9002908BFE9
:101E500000281CBF4FF0FF314FF0FF3000F074B985
:101E6000ADF1080C6DE904CE00F006F8DDF804E0F1
:101E7000DDE9022304B070472DE9F047089D0446D0
:101E80008E46002B4DD18A42944669D9B2FA82F22D
:101E900052B101FA02F3C2F1200120FA01F10CFA69
:101EA00002FC41EA030E94404FEA1C48210CBEFBA1
:101EB000F8F61FFA8CF708FB16E341EA034306FB2A
:101EC00007F199420AD91CEB030306F1FF3080F0B9
:101ED0001F81994240F21C81023E63445B1AA4B206
:101EE000B3FBF8F008FB103344EA034400FB07F7A8
:101EF000A7420AD91CEB040400F1FF3380F00A81E9
:101F0000A74240F207816444023840EA0640E41BDD
:101F100000261DB1D4400023C5E900433146BDE889
:101F2000F0878B4209D9002D00F0EF800026C5E92B
:101F3000000130463146BDE8F087B3FA83F6002E43
:101F40004AD18B4202D3824200F2F980841A61EBBB
:101F5000030301209E46002DE0D0C5E9004EDDE7D9
:101F600002B9FFDEB2FA82F2002A40F09280A1EBC1
:101F70000C014FEA1C471FFA8CFE0126200CB1FB16
:101F8000F7F307FB131140EA01410EFB03F088420F
:101F900008D91CEB010103F1FF3802D2884200F29C
:101FA000CB804346091AA4B2B1FBF7F007FB10112E
:101FB00044EA01440EFB00FEA64508D91CEB0404CC
:101FC00000F1FF3102D2A64500F2BB800846A4EB27
:101FD0000E0440EA03409CE7C6F12007B34022FA12
:101FE00007FC4CEA030C20FA07F401FA06F31C4341
:101FF000F9404FEA1C4900FA06F3B1FBF9F8200C4E
:102000001FFA8CFE09FB181140EA014108FB0EF093
:10201000884202FA06F20BD91CEB010108F1FF3AE3
:1020200080F08880884240F28580A8F102086144EF
:10203000091AA4B2B1FBF9F009FB101144EA0141FD
:1020400000FB0EFE8E4508D91CEB010100F1FF34A8
:102050006CD28E456AD90238614440EA0840A0FB40
:102060000294A1EB0E01A142C846A64656D353D016
:102070005DB1B3EB080261EB0E0101FA07F722FA3A
:1020800006F3F1401F43C5E9007100263146BDE863
:10209000F087C2F12003D8400CFA02FC21FA03F3C6
:1020A000914001434FEA1C471FFA8CFEB3FBF7F047
:1020B00007FB10360B0C43EA064300FB0EF69E426C
:1020C00004FA02F408D91CEB030300F1FF382FD205
:1020D0009E422DD9023863449B1B89B2B3FBF7F6AD
:1020E00007FB163341EA034106FB0EF38B4208D986
:1020F0001CEB010106F1FF3816D28B4214D9023EC7
:102100006144C91A46EA004638E72E46284605E7E4
:102110000646E3E61846F8E64B45A9D2B9EB0208B5
:1021200064EB0C0E0138A3E74646EAE7204694E745
:102130004046D1E7D0467BE7023B614432E7304678
:1021400009E76444023842E7704700BFC20710B590
:10215000044603D50121212003F056FBA30705D532
:10216000BDE810400121202003F04EBB10BDC20786
:1021700010B5044603D50021212003F045FBA30739
:1021800005D5BDE810400021202003F03DBB10BD67
:102190000120704702207047C0B209B1FFF7D6BFD7
:1021A000FFF7E5BF38B5C4B21546204639B1FFF791
:1021B000CDFF4FF47A70684303F0C0FB2046BDE8C2
:1021C0003840FFF7D4BF08B50121152003F01CFBF0
:1021D000BDE808400121102003F016BB08B500211E
:1021E000152003F011FBBDE808400021102003F08A
:1021F0000BBB0121152003F007BB0021152003F0C4
:1022000003BB0120704701230B707047064B03602E
:10221000064B4360064B8360064BC360064B03616D
:10222000064B4361704700BFE40C4E0C7C2E0C0D36
:10223000CC295410BC34760C3831660DBA04E2094E
:1022400008B500F0A7F9002008BD00002DE9F04F07
:10225000AA4BAB4AAB49AC48DFF82C83A74CDFF85C
:102260002C93BDB004F0DDF80DF1130105A805F0C5
:10227000E3FD9DF81510192900F23C81DFE811F00B
:102280001A006200750090009D00CE00D600360155
:102290003A0138013A013A013A013A013A013A0168
:1022A0003A013A013A013A013A01D800E300F90053
:1022B00016012101954804F0B4F8204604F0B1F865
:1022C0009349002005F06AFC9249002005F03EFC8D
:1022D0009149002005F08AFC0121002005F0AEFCA8
:1022E000002005F03FFD0221002005F0C9FE00207E
:1022F00005F0B8FE002005F00FFF0121002005F0D9
:10230000F9FE0121002005F099FE0021084605F0A4
:10231000DDFE0021084605F0C7FE0221002005F081
:1023200079FE00220121104605F04EFEFFF730FF36
:102330000121FFF731FF9DF81330002B94D13DB000
:10234000BDE8F08F754804F06CF8204604F069F899
:102350000423002200930221714B104605F052FD28
:102360004FF4E16005F004FEE5E76E4804F059F82B
:10237000204604F056F8FFF70BFF0021FFF70CFF93
:10238000FFF708FFFA220121FFF70CFF664A03213D
:10239000002005F08FFC0321002005F073FCDFE72F
:1023A0009DF81810614804F03CF8204604F039F814
:1023B0005F4804F036F8204620E05E4D5E485F4EF0
:1023C0005F4FDFF890A1DFF8C8B104F02AF820468B
:1023D00004F027F82A465B4B5948314605F090FD3A
:1023E0002979594804F01DF832785849584804F0C2
:1023F00018F800253378AB4203D8564804F011F89A
:1024000099E72B0703D115B1504604F00AF817F8E5
:10241000011B584604F005F80135EBE74E4804F07F
:1024200000F8204603F0FDFF4C48C2E74C48C0E7E7
:102430004C4803F0F6FF204603F0F3FF24A90020E8
:1024400005F0E2FD77E7484803F0EBFF204603F094
:10245000E8FFFFF79DFEFA220121FFF7A3FE03A983
:10246000002005F0D4FD78220121002005F0ACFD0C
:1024700061E73E4803F0D5FF204603F0D2FF07A9ED
:10248000002005F0FAFD264BBDF81E209DF81E1019
:102490001A80374803F0C5FF9DF81F10354803F038
:1024A000C0FF0B99344803F0BCFF44E7334803F006
:1024B000B8FF204603F0B5FF0DA9002005F000FE8F
:1024C00039E72F4803F0ADFF204603F0AAFFFFF7DE
:1024D0005FFEFA220121FFF765FE04A9002005F046
:1024E000F2FD3C21002005F0DFFD24E7254860E7F0
:1024F00048465EE7404603F094FF5CE7009E010813
:10250000059E01081C9E0108249E01082B9E0108BF
:1025100098A20108A0A2010888A201084F9E010804
:102520008C020020739E010878A20108989E010881
:10253000C29E010890020020E29E01089203002042
:10254000A002002093030020099F0108239F010897
:10255000349F0108E3A301084D9F0108749F0108FF
:10256000979F0108BA9F0108E79F010815A001087D
:102570004DA0010861A0010875A0010882A0010812
:10258000AFA00108DDA0010833A1010806A10108E0
:10259000479F010837B503F0F5F903F009FA2C4815
:1025A00005F06AFA03F0F0F92A4803F03AFF2A48E6
:1025B00003F037FF01A9002005F04BF828B12748A8
:1025C00003F02FFF244803F02CFF9DF80530012B6A
:1025D0000CD1BDF80620B2F5806F18D8204840F223
:1025E000014103F01EFF1C4803F01BFF9DF805305E
:1025F000022B0CD1BDF80620B2F5007F07D8194890
:1026000040F2012103F00DFF134803F00AFF9DF88B
:102610000520BDF80610144803F003FF0E4803F030
:1026200000FF44F6206505F081FA044603F0AAF99C
:1026300005F086FA38B904F027F8AC42204628BFE6
:10264000284603F07FFA04F01FF803F09DF9EAE74B
:102650004D22000853A10108009E010881A1010834
:10266000B6A1010800A201084AA201080F49D1F849
:10267000883043F47003C1F888300D4B1A6800208D
:1026800042F001021A6098601A6822F0A85222F4FF
:1026900010221A604FF48052DA601A6822F4802205
:1026A0001A6098614FF000638B60704700ED00E0A6
:1026B0000010024038B5044690B1437903F0FF02A0
:1026C00013B9027103F056FC0223637123681A6880
:1026D00042F004021A605B685B0603D50423637151
:1026E00001200AE001F084F805462368586810F0DC
:1026F000040003D101226271A06038BD01F078F8B6
:10270000401B0228F1D9042363710223A360E7E789
:1027100010B5044678B103681A6822F00C021A60FA
:102720005A6822F060025A6003F05CFC002060717D
:102730002071A06010BD0120FCE72DE9F041037974
:10274000012B04460F462AD0427901239A42037195
:10275000D5B220D10223437101F04AF880462268A5
:10276000566816F0010608D09368E3603B600123C9
:1027700063710025002323710AE001F039F8A0EB12
:1027800008000228EBD9012363710223A36026719C
:102790002846BDE8F081042282601D46EAE7022552
:1027A000F6E7000010B50A4B44F620621B68B3FB45
:1027B000F2F34FF47A725343026800201468013B2D
:1027C00008BF032031EA040401D0002BF6D110BD6C
:1027D0006400002070B50446002847D090F83630D9
:1027E00003F0FF021BB980F8352003F0CDFD022372
:1027F000216884F836306568CA686069012D4FF633
:10280000FF7308BF22F00602984218BF22F460420C
:102810000DB922F0D802164E1640A26845EA02030E
:10282000226A1343626A1343A26A13433343CDB946
:10283000E26925692A4313434FF6FF7290421CBF99
:10284000A26910430B4A18BF03439142CB6008BFF3
:10285000226BE36A08BF13430B62012384F836300E
:10286000002070BD012DE7D1E268E4E70120F8E720
:10287000F8F119FF007C00407047704770477047BF
:1028800070477047704703681A68D10710B504464F
:1028900006D59A68D20703D501225A60FFF7ECFFEC
:1028A00023681A68900707D59A68910704D5022211
:1028B0005A602046FFF7E1FF23681A68520707D5E0
:1028C0009A68500704D504225A602046FFF7D6FFC5
:1028D00023681A68110707D59A68120704D50822D9
:1028E0005A602046FFF7CBFF23681A68D00607D549
:1028F0009A68D10604D510225A602046FFF7C0FF1F
:1029000023681A68920607D59A68900604D5202293
:102910005A602046FFF7B5FF23681A68510607D5AD
:102920009A68520604D540225A602046FFF7AAFF53
:1029300010BD00002DE9F843044672B64B4A036807
:10294000934222D002F5C052934224D00025474A38
:102950009E68DF685969D3F81890D3F820809342B5
:102960001FD002F5C052934264D071BBB9F1000F81
:102970003FD123681A6922F001021A619E60DF606C
:10298000C3F8208062B6BDE8F883394AD2F888508F
:1029900005F44025DBE7364AD2F8885005F44015A7
:1029A000D5E7334A906B40F000409063906B20F085
:1029B0000040906311B9B9F1000FDAD0D2F8880065
:1029C00020F44020C2F8880081B11A6942F0010267
:1029D0001A61204659610821FFF7E4FE23680328A5
:1029E0004FF0080208BF84F836005A60B9F1000FB2
:1029F00012D023681A6942F001021A611021C3F84B
:102A000018902046FFF7CEFE236803284FF01002EF
:102A100008BF84F836005A602368144A93421BD0DA
:102A200002F5C0529342A4D1114AD2F8883023F45F
:102A3000401316E00E4AD06B40F02000D063D06BFC
:102A400020F02000D06311B9B9F1000F91D0D2F875
:102A5000880020F44010B5E7054AD2F8883023F406
:102A600040231D43C2F8885083E700BF007C00402C
:102A70000010024010B50223044680F83630FFF7FC
:102A800059FF94F83630032BD8B208D02268D368A7
:102A900023F40023D360012384F83630002010BDD6
:102AA00038B5022380F83630044603681F481546BF
:102AB0001F4A9342026A0CBF42F0010242F0020236
:102AC0000262DA6842F40022DA601A6942F0010216
:102AD0001A6110225A60204699611146FFF762FE82
:102AE000032801D1032038BD2368082159602046FE
:102AF0005D61FFF757FE0328F4D02046FFF71AFF69
:102B000094F83630032BEDD023689A6842F0010226
:102B10009A601A6942F001021A611A6942F00402CD
:102B20001A61012384F836300020DCE700040140FC
:102B3000007C00400223026810B580F83630104B4C
:102B40009A4203F5084304461A6A0CBF22F00102B8
:102B500022F002021A62FFF7EDFE94F83630032BE2
:102B6000D8B20CD02368DA6822F40022DA609A68BE
:102B700022F001029A60012384F83630002010BD53
:102B8000007C0040026838B5D36823F0A003D3600E
:102B9000044600F02DFE05462368DB689B0601D540
:102BA000002038BD00F024FE401BB0F57A7FF3D939
:102BB0000320F6E7F8B50368DC6814F04004054626
:102BC00018D14FF0FF32DA6000F012FE03270646FC
:102BD0002B68DB685B0601D4032C01D12046F8BDCD
:102BE00000F006FE801BB0F57A7F84BF85F8217067
:102BF0000324EDE70024F1E7104BDA6822F08002AD
:102C000010B5DA609A689206044606D4FFF7BAFF58
:102C100010B1032084F8210010BD9A6822F0200230
:102C20009A60FFF7AFFF10B1032084F82100034A38
:102C3000936843F020039360EEE700BF0028004054
:102C400038B5044600283FD090F8213003F0FF0249
:102C50001BB980F8202003F01DF9022384F82130ED
:102C60002368CA225A6253225A622046FFF7A2FF03
:102C700048BB236820699A6822F4E00222F04002EF
:102C80009A60626899680243A06902430A439A60A5
:102C9000E2681A611A69A16842EA01421A61204693
:102CA000FFF7AAFF78B923686569DA6C22F003029E
:102CB000DA64E269D96C2A430A43DA64FF225A6271
:102CC000012384F8213038BD0120FCE700230928C6
:102CD00003D840EA0310C0B270470A380133C0B2CB
:102CE000F5E72DE9F04190F82030012B06460F461C
:102CF00090464FF0020354D080F82130012203683F
:102D000080F82020CA225A6253225A62FFF752FFEB
:102D100070BB316838787C78BD788A68B8F1000F6C
:102D200032D112F0400208BFFA70FFF7CFFF02461F
:102D30002046FFF7CBFF04462846FFF7C7FFFD7884
:102D400040EA855545EA024242EA042303F07F3314
:102D500023F0FE430B608B6823F480238B60D7E95C
:102D600003308A68034313438B603046FFF744FF08
:102D70003368FF225A6210B9012386F821300023FC
:102D800086F82030BDE8F08112F0400208BFFA70EA
:102D9000240244EA0044F87844EA050343EA8053F5
:102DA000D4E71846EEE72DE9F04190F82030012BEA
:102DB00006464FF002033FD0012086F8200086F837
:102DC00021300D78C8784C7891F802806D03AABB49
:102DD000E30603D524F010040A344C70FFF776FFA5
:102DE00007464878FFF772FF04464046FFF76EFF3C
:102DF00040EA050242EA074545EA04243368CA224C
:102E00005A6253225A623046FFF7D4FE40B9326804
:102E100024F07F4424F0C00454603046FFF7ECFEF9
:102E20003368FF225A6210B9012386F8213000234B
:102E300086F82030BDE8F0811846FBE745EA0045FA
:102E400045EA080343EA0424D8E7030903EB8303B4
:102E500000F00F0000EB4300C0B2704738B50368C4
:102E6000986A486018691B68C0F30E00C3F3062512
:102E700003F07F048860C3F30540C3F380530870F8
:102E80004D708C70CB7052B9FFF7DFFF0870284689
:102E9000FFF7DBFF48702046FFF7D7FF8870002060
:102EA00038BD38B503685B68C3F30740C3F3042536
:102EB00003F03F04C3F34233C8704D708C700B7045
:102EC00052B9FFF7C2FFC8702846FFF7BEFF48702F
:102ED0002046FFF7BAFF8870002038BD2DE9F04189
:102EE00090F82030012B04460E4615464FF00200A4
:102EF00035D0012384F82030236884F82100CA22C9
:102F00005A6253225A629A6822F480629A60D868A0
:102F1000C0B260F49060D860DB685B0621D523689E
:102F20001C4A5E61996821F0070129439960116884
:102F300041F480111160916841F4801191609A68A8
:102F400042F480429A609A6842F480629A60FF225A
:102F50005A620020012384F8213084F82000BDE863
:102F6000F08100F045FC80462368DF6817F0040715
:102F7000D5D100F03DFCA0EB0800B0F57A7FF3D985
:102F80002368FF2203205A6284F8210084F820700D
:102F9000E5E700BF0004014070B590F82030012B38
:102FA00004464FF0020330D080F82130012203683C
:102FB00080F82020CA225A6253225A629A6822F468
:102FC00080629A609A6822F480429A6000F010FC55
:102FD00006462268D56815F0040508D0FF23536221
:102FE000012384F82130002384F820300DE000F024
:102FF000FFFB801BB0F57A7FEBD92368FF225A6272
:10300000032384F8213084F82050184670BD70479F
:103010000A4B4FF4801210B55A610268D3685B0501
:10302000044606D5D368DBB263F49063D360FFF740
:10303000EEFF012384F8213010BD00BF00040140E1
:1030400090F82030012B4FF0020312D080F821308D
:103050000368CA225A6253225A629A6842F02002D6
:103060009A60FF225A62012380F82130002380F801
:10307000203018467047F8B50446002879D0436AD6
:10308000002B4FD14268B2F5827F00D0C36194F823
:103090005D3003F0FF0223B984F85C20204603F082
:1030A0001FF82268E168022384F85D301368B1F5E7
:1030B000E06F23F0400313604FF000035BD84FF440
:1030C000805500D0A3626368A768A069A66A07F468
:1030D000044703F482733B43276907F002073B432D
:1030E000676907F001073B4300F400773B43E7695A
:1030F00007F038073B43276A07F080073B4306F495
:1031000000573B43B6F5005F136011D1236B6BBBD7
:10311000B1F5E06F0AD902232363136843F4006317
:10312000136005E00023C0E90433B0E70123236303
:10313000636A676B03F0100307F008073B4301F471
:103140007061000C194300F004000143B6F5005F04
:1031500008BFA38D45EA010555604FF0000008BF88
:1031600013610123206684F85D30F8BD022BDFD1A6
:10317000D3E70120F9E71D46B1F5706FA1E710B55F
:10318000044680B10268022380F85D30136823F0A2
:103190004003136002F0FAFF0020206684F85C0010
:1031A00084F85D0010BD0120FCE738B5054698B1F4
:1031B0002423436703681A68002422F001021A607E
:1031C0001C605C609C6003F00DFAEC6785F8704051
:1031D0006C672046AC6738BD0120FCE770B504463B
:1031E00003682169A2681D68C0690A4361690A43CE
:1031F0009049024329400A431A605A68E16822F460
:1032000040520A435A608C4AA16993421CBF226A09
:1032100011439A6822F430620A439A60874A9342C3
:1032200017D1874BD3F8883003F00303013B022BFF
:1032300000F2D080834AD35CB0F5004F40F0998013
:10324000082B22D8DFE803F0DAC99321CF2121210E
:10325000DE007D4A934206D1794B7C4AD3F8883010
:1032600003F00C03E7E77A4A934219D1744BD3F881
:10327000883003F03003202B00F0B88007D8002BF3
:1032800000F0B980102B00F0AB8001204EE0302B15
:10329000FBD1B0F5004F00F0B5804FF4004083E063
:1032A0006C4A93420FD1664BD3F8883003F0C003C9
:1032B000802B00F09B8004D8002B00F09C80402BDA
:1032C000E1E7C02BE4E7644A934212D15C4BD3F8A8
:1032D000883003F44073B3F5007F00F0878005D891
:1032E000002B00F08880B3F5807FCCE7B3F5407FFA
:1032F000CEE7514A9342C8D1514BD3F8883003F4FA
:103300004063B3F5006F15D006D85BB1B3F5806F9D
:10331000BBD100F0C3FA07E0B3F5406FB5D14FF46D
:10332000004008E000F022FE28B900200023C4E994
:10333000183370BD4948626802EB42038342A4D847
:10334000B0EB023FA1D8510800258C464FF480769F
:103350002946E0FB06C12B466046FEF775FD404B53
:10336000A0F540729A4290D82368D860DDE73B48C8
:1033700048E0082B89D801A252F823F0A1330008B5
:10338000C9330008F33300088B320008CF3300083C
:103390008B3200088B3200088B3200089B32000809
:1033A00000F0E4FD0028C0D0626800EB5203B3FBDC
:1033B000F2F39BB2A3F110014FF6EF7291423FF688
:1033C00064AF2268D360B0E700F0E2FDEAE700F006
:1033D00065FAE7E7B0F5004FF6D100F0D9FD0FE050
:1033E000B0F5004FF3D100F059FA09E0B0F5004F05
:1033F000BDD01A48D8E7B0F5004FD1D100F0B6FDE6
:10340000002892D06268530803EB4000B0FBF2F052
:1034100083B2A3F110014FF6EF7291423FF635AF40
:1034200020F00F00226880B2C3F342031843D0603B
:103430007BE700BFF369FFEF0080004000380140E8
:1034400000100240F0A2010800440040F3A201086D
:1034500000480040004C0040005000400024F400B0
:10346000FFFC0F00436ADA0710B506D50168846ACD
:103470004A6822F4003222434A609C0706D501685C
:10348000C46A4A6822F4803222434A60590706D54A
:103490000168046B4A6822F4802222434A601A07BA
:1034A00006D50168446B4A6822F4004222434A6010
:1034B000DC0606D50168846B8A6822F480522243B8
:1034C0008A60990606D50168C46B8A6822F40052A6
:1034D00022438A605A060FD50168046C4A6822F4B8
:1034E00080122243B4F5801F4A6005D14A68446CBB
:1034F00022F4C00222434A601B0606D50268816C92
:10350000536823F400230B43536010BD2DE9F041B1
:10351000DDF8188004460E4615461F462268D3691A
:1035200036EA03030CBF01230023AB4201D0002085
:103530001AE0B8F1FF3FF2D000F05AF9C01B404545
:103540002068036802D8B8F1000F0FD123F4D073BC
:103550000360836823F00103836020236367A3670C
:10356000002384F870300320BDE8F0815A07D5D5D8
:10357000C3691B05D2D54FF400630362036823F4CB
:10358000D0730360836823F00103836020236367A3
:10359000A367E367E4E72DE9FF419846436F202BDB
:1035A00004460E4617464DD1002949D0002A47D07F
:1035B00090F87030012B45D0012380F87030002541
:1035C0002123C567436700F013F9A268A4F850707F
:1035D000B2F5805F0346A4F8527003D122690AB99C
:1035E00035461646002284F87020B4F85220CDF8F3
:1035F000008092B23AB940212046FFF787FF50B9C8
:103600002023636708E00022802120460393FFF710
:103610007DFF039B18B1032004B0BDE8F081216851
:103620005EB935F8022BC2F308020A85B4F85220BD
:10363000013A92B2A4F85220D7E716F8012BF4E72A
:103640000120E9E70220E7E730B50446002585B010
:10365000C56700F0CDF8226812681107034614D43C
:1036600022681268520709D56FF07E4200924FF42B
:10367000800100222046FFF749FF98B9202300204F
:10368000636784F87000A3670DE06FF07E420092DC
:1036900003902A464FF400112046FFF737FF039BA3
:1036A0000028DDD0032005B030BD10B5044640B37E
:1036B000436F1BB980F8703002F002FF22682423A8
:1036C0006367136823F0010313602046FFF786FD4C
:1036D000012816D0636A13B12046FFF7C3FE2368A2
:1036E0005A6822F490425A609A6822F02A029A603C
:1036F0001A6842F0010220461A60BDE81040FFF748
:10370000A3BF012010BD38B5044608B303684CF6CA
:10371000CC421A6045F255521A6042685A6082687B
:103720009A6000F065F805462268D3684BB91069C5
:10373000E16888420ABF4AF6AA2111611160184661
:1037400038BD00F055F8401B3028EDD90320F7E7CD
:103750000120F5E703684AF6AA221A6000207047A4
:1037600038B50F4B0546187808B9012038BD0D4A09
:103770004FF47A73B3FBF0F31068B0FBF3F001F091
:10378000C3FC04460028F0D10F2DEED8024629468E
:103790004FF0FF3001F064FC034B20461D60E5E76D
:1037A00068000020640000206C000020094A1368B3
:1037B00043F4807310B50320136001F03FFC002038
:1037C000FFF7CEFF044618B902F02BFA204610BDD1
:1037D0000124FBE700200240034A044B11681B78D8
:1037E0000B441360704700BF940300206800002062
:1037F000014B1868704700BF940300204FF0E0228F
:10380000136923F00203136170474FF0E02213693C
:1038100043F002031361704737B51E4DAB6DDA00FC
:10382000044618D501F0E6FBB0F5007F23D1802CCB
:1038300029D9A02C8CBF02200120174A136823F03D
:10384000070303431360136803F00703181A18BF34
:10385000012003B030BDAB6D43F08053AB65AB6D61
:1038600003F080530193019B01F0C4FBAB6D23F087
:103870008053AB65D8E7802C07D808D0A4F170033B
:1038800058425841D9E70020D7E70320D5E7022066
:10389000D3E700BF0010024000200240224B9A688C
:1038A000D96812F00C0205D00C2A15D101F00301E1
:1038B000012918D119681D48090755BFD3F894107C
:1038C0001968C1F30321C1F3031150F821004AB371
:1038D0000C2A09D000207047042A22D0082A144854
:1038E00018BF002070470020DA6802F00302022AA5
:1038F00015D00F49032A08BF0846D968DA68C2F311
:1039000006224243D868C0F34160C1F3021101307E
:1039100001314000B2FBF1F2B2FBF0F07047054814
:10392000EBE70448704700BF00100240C0A2010846
:1039300000127A000024F4002DE9F743054618B977
:10394000012003B0BDE8F083924C0368A668E768E5
:10395000D80606F00C0607F003073DD51EB10C2E65
:1039600066D1012F64D12368990702D5AB69002B7A
:10397000E6D02368286A1A0756BFD4F89430236823
:103980001B0903F0F00398423BD9FFF745FF0028DD
:10399000D6D1236843F00803236023682A6A23F002
:1039A000F003134323606368EA6923F47F4343EA27
:1039B00002236360FFF772FFA368774AC3F3031320
:1039C000D35C03F01F03D840744B1860744B186825
:1039D000FFF7C6FE0028B4D12B68D9075FD42B6847
:1039E0009A0700F19E802B68190700F1DB802B6895
:1039F0005A0700F10181AB6A002B40F06A81002078
:103A00009FE7236843F008032360236823F0F00353
:103A1000034323606368EA6923F47F4343EA022394
:103A20006360002EC6D1FFF7F7FE0028C2D087E7FB
:103A3000AB691BB3236843F001032360FFF7D8FE93
:103A4000804623689B0711D5236843F00803236051
:103A500023682A6A23F0F003134323606368EA694A
:103A600023F47F4343EA02236360B5E7FFF7C0FE18
:103A7000A0EB08000228E4D9032062E7236823F0C2
:103A800001032360FFF7B4FE804623689807A3D59F
:103A9000FFF7AEFEA0EB08000228F6D9ECE7082EEF
:103AA00003D00C2E08D1032F06D123689B0396D593
:103AB0006B68002B93D143E76B68B3F5803F10D15F
:103AC000236843F480332360FFF792FE8046236827
:103AD000980384D4FFF78CFEA0EB08006428F6D985
:103AE000CAE7B3F5A02F04D1236843F480232360F1
:103AF000E6E7226822F480322260226822F48022E3
:103B00002260002BE0D1FFF773FE80462368990303
:103B10007FF565AFFFF76CFEA0EB08006428F5D9D0
:103B2000AAE7042E03D00C2E10D1022F0ED1236849
:103B30005A0503D5EB68002B3FF402AF63682A698E
:103B400023F0F85343EA026363604CE7EB687BB110
:103B5000236843F480732360FFF74AFE0746236817
:103B60005B05EBD4FFF744FEC01B0228F7D983E7BF
:103B7000236823F480732360FFF73AFE0746236827
:103B800058057FF530AFFFF733FEC01B0228F6D98A
:103B900072E700BF00100240A8A2010864000020E4
:103BA0006C0000206B699BB1D4F8943043F00103A2
:103BB000C4F89430FFF71CFE0746D4F894309B07F6
:103BC0003FF515AFFFF714FEC01B0228F5D953E7E8
:103BD000D4F8943023F00103C4F89430FFF708FEC2
:103BE0000746D4F8943098077FF501AFFFF700FE41
:103BF000C01B0228F5D93FE7A36DD90029D4A36DD6
:103C000043F08053A365A36D03F080530193019BA0
:103C10004FF00108894F3B68DA051DD5AB68012BD1
:103C20002BD1D4F8903043F00103C4F89030FFF763
:103C3000DFFD41F288390746D4F89030980742D525
:103C4000B8F1000F3FF4D7AEA36D23F08053A36506
:103C5000D1E64FF00008DDE73B6843F480733B603A
:103C6000FFF7C6FD81463B68DB05D7D4FFF7C0FDF3
:103C7000A0EB09000228F6D9FEE6052B06D1D4F800
:103C8000903043F00403C4F89030CAE7D4F8902091
:103C900022F00102C4F89020D4F8902022F004020F
:103CA000C4F89020002BC2D1FFF7A2FD41F2883961
:103CB0000746D4F890309907C2D5FFF799FDC01B8D
:103CC0004845F6D9D8E6FFF793FDC01B4845B3D960
:103CD000D2E6022B40F08F80E368EA6A03F003012A
:103CE000914224D1296B03F070020139B2EB011F1C
:103CF0001DD1696B03F4FE42B2EB012F17D1AA6B01
:103D0000073A03F4003118BF012291420FD1EA6B48
:103D1000520803F4C001013AB1EB425F07D12A6CAB
:103D2000520803F0C063013AB3EB426F4AD00C2E45
:103D30003FF406AE23685A013FF502AE2368DB006C
:103D40003FF5FEAD236823F080732360FFF750FD3D
:103D5000064623689F012FD4E268394B1340EA6A74
:103D600013436A6B43EA02232A6B013A43EA0213C4
:103D7000AA6B120943EA4243EA6B5208013A43EA4A
:103D800042532A6C5208013A43EA4263E3602368D3
:103D900043F080732360E36843F08073E360FFF7D0
:103DA00027FD0546236898013FF529AEFFF720FD62
:103DB000401B0228F6D95FE6FFF71AFD801B022898
:103DC000C7D959E6236899013FF519AE236843F036
:103DD00080732360E36843F08073E360FFF708FDBE
:103DE000054623689A013FF50AAEFFF701FD401B27
:103DF0000228F6D940E60C2E3FF4A2AD236823F04A
:103E000080732360236813F0205F02BFE36823F010
:103E10000303E360E36823F0887323F48033E360F3
:103E2000FFF7E6FC054623689B017FF5E8ADFFF749
:103E3000DFFC401B0228F6D91EE600BF00700040E0
:103E40008C809DF92DE9F0410D46044610B9012002
:103E5000BDE8F081404A136803F007038B422AD380
:103E60002368D90732D421688A075BD43A4A136899
:103E700003F00703AB425DD811F0040F374D64D156
:103E80000B0706D5AB68226923F4605343EAC203EB
:103E9000AB60FFF703FDAB68314AC3F30313BDE822
:103EA000F041D35C03F01F03D8402E4B18602E4B1B
:103EB0001868FFF755BC136823F007030B43136022
:103EC000136803F007038B42C1D1C9E76268234E30
:103ED000032A33681AD113F0007FB8D0B36823F0F7
:103EE00003031343B360FFF783FC41F288380746AE
:103EF000B368626803F00C03B3EB820FB3D0FFF733
:103F000077FCC01B4045F3D90320A1E7022A02D168
:103F100013F4003FE1E712B913F0020FDDE713F4E9
:103F2000806FDAE70D4AA068936823F0F00303433B
:103F300093609BE7136823F007032B431360136818
:103F400003F00703AB4282D196E7AB68E26823F443
:103F5000E0631343AB6093E700200240001002408F
:103F6000A8A20108640000206C000020054B064A4E
:103F70009B68C3F30223D35C044A106803F01F0359
:103F8000D840704700100240B8A201086400002029
:103F9000054B064A9B68C3F3C223D35C044A1068EE
:103FA00003F01F03D840704700100240B8A2010878
:103FB000640000201F2303602E4B1A6851034BD569
:103FC0004FF4A02242601A6802F0010282615A682E
:103FD000C2F30722C2611A6802F0F00202621A6894
:103FE00002F48072C2605A68C2F304620261D3F8BC
:103FF0009020520737D505228260D3F8942002F032
:1040000001024261002242621A6812F0807F14BFEE
:10401000022201228262DA6802F00302C262DA68D6
:10402000C2F3021201320263DA68C2F3062242636B
:10403000DA68C2F3415201325200C263DA68C2F355
:104040004162013252000264DB6813F4003F14BF86
:1040500011230723836370471A6812F4803218BF54
:104060004FF48032AEE7D3F8902012F0010218BF6F
:104070000122C1E7001002400F2303600B4B9A6836
:1040800002F0030242609A6802F0F00282609A68CD
:1040900002F4E062C2609B68DB0803F4E063036142
:1040A000034B1B6803F007030B60704700100240CE
:1040B00000200240F8B5434C0368E26805469007CB
:1040C0000E4629D0E26802F003029A4278D1002A13
:1040D00076D0E3686A68C3F30213013393426FD169
:1040E000236823F080632360FFF782FB0746236881
:1040F0001A0130D4AB681F02A6B3012E4DD12A6934
:1041000021695208531E21F4C00222F4FE423A43B0
:1041100042EA4352226130E0022B11D0032B13D02C
:10412000012B4DD1226812F0020F49D0E0686A6875
:1041300020F07300013A184340EA0210E060CFE734
:10414000226812F4806FF0E722689103EED42268AF
:1041500012F4802FE9E7FFF74BFBC01B0228C6D9FA
:104160000320F8BD2169EB6821F41F3121F440716F
:104170001B09394341EA43412161236843F08063CD
:104180002360FFF735FB064623681B0112D5236920
:10419000AA69134323610020E3E76B6922695B0886
:1041A000591E22F0C06323F4FE433B4343EA4163BC
:1041B0002361E2E7FFF71CFB801B0228E4D9CFE76D
:1041C0000120CEE700100240F8B53C4C0368E268DD
:1041D000054690070E4627D0E26802F003029A4295
:1041E00069D1002A67D0E3686A68C3F30213013318
:1041F000934260D1236823F080532360FFF7F8FADD
:10420000074623689A002ED4AB68180296B36369F8
:10421000296923F0C063490823F4FE4301390343AD
:1042200043EA4163636130E0022B11D0032B13D0CA
:10423000012B40D1226812F0020F3CD0E0686A687E
:1042400020F07300013A184340EA0210E060D1E721
:10425000226812F4806FF0E722689103EED422689E
:1042600012F4802FE9E7FFF7C3FAC01B0228C8D970
:104270000320F8BD6269EB6822F41F3222F4407219
:104280001B09024342EA43426261236843F08053C0
:104290002360FFF7ADFA064623689B0005D56369E6
:1042A0006A69134363610020E3E7FFF7A1FA801B0B
:1042B0000228F1D9DCE70120DBE700BF0010024053
:1042C0002DE9F347066816F40066044609D0416EEE
:1042D000B1F5000F22D013D831B3B1F5800F2AD039
:1042E00001262368D80409D5A16EB1F1007F2CD036
:1042F00026D881B3B1F1807F70D00126354639E0F0
:10430000B1F5400FECD13B4A616ED2F8883023F40E
:1043100040030B43C2F888300026E2E7354AD368F1
:1043200043F48033D360EEE70430FFF7C3FE064664
:104330000028D6D1E7E700212030FFF745FFF6E758
:10434000B1F1407FD9D1354609E02A4AD36843F418
:104350008033D360F7E7201DFFF7ACFE0546002D44
:1043600042D1244AA16ED2F8883023F040730B4327
:10437000C2F888302368990340F15E811D4FBB6D00
:10438000DA0033D4BB6D43F08053BB65BB6D03F0E3
:1043900080530193019B4FF00108DFF85C90D9F83E
:1043A000003043F48073C9F80030FFF721FA8246E9
:1043B000D9F80030DB0521D53DBBD7F8903013F498
:1043C000407340F00F81D7F89030D4F8842023F464
:1043D00040731343C7F89030354616E0002104F1CE
:1043E0002000FFF7F1FEB9E72E46C3E74FF00008C3
:1043F000D3E700BF0010024000700040FFF7F8F95B
:10440000A0EB0A000228D3D90325B8F1000F03D08E
:10441000BB6D23F08053BB652368DA0708D59D493F
:10442000A06BD1F8882022F003020243C1F8882053
:104430009F0708D59749E06BD1F8882022F00C023D
:104440000243C1F888205E0708D59249206CD1F854
:10445000882022F030020243C1F88820180708D5CE
:104460008C49606CD1F8882022F0C0020243C1F868
:104470008820D90608D58749A06CD1F8882022F475
:1044800040720243C1F888209A0608D58149E06C41
:10449000D1F8882022F440620243C1F888209F05A9
:1044A00008D57C49E06DD1F8882022F440220243EF
:1044B000C1F888205E0508D57649206ED1F888209D
:1044C00022F440120243C1F88820580608D57149E9
:1044D000206DD1F8882022F440520243C1F8882090
:1044E000190608D56B49606DD1F8882022F4404246
:1044F0000243C1F88820DA0508D56649A06DD1F8D5
:10450000882022F440320243C1F888209B0410D551
:10451000604AE16ED2F8883023F040630B43B1F17A
:10452000006FC2F8883040F08980D36843F480136C
:10453000D36023681F0310D5564A216FD2F8883004
:1045400023F040630B43B1F1006FC2F8883040F0B4
:104550008180D36843F48013D36023685E030FD552
:104560004C4A616FD2F8883023F040630B43B1F1BD
:10457000006FC2F8883079D1D36843F48013D360D8
:104580002368580412D54349A26FD1F8883023F02C
:1045900040531343B2F1805FC1F8883071D10221DA
:1045A000201DFFF787FD002818BF0546226811046B
:1045B00008D53849E06FD1F8883023F080430343B1
:1045C000C1F88830D30309D5324AD4F88010D2F824
:1045D000883023F000430B43C2F88830284602B0ED
:1045E000BDE8F087D4F8842093423FF4ECAED7F8CE
:1045F0009020D7F8903043F48033C7F89030D7F844
:10460000903022F4407123F48033D007C7F8903003
:10461000C7F890107FF5D7AEFFF7EAF841F2883976
:104620000546D7F8903099073FF5CDAEFFF7E0F893
:10463000401B4845F5D9E7E63546EDE6B1F1806F18
:104640007FF477AF0121201DFFF734FD002818BF4C
:1046500005466EE7B1F1806F7FF47FAF0121201D29
:10466000FFF728FD002818BF054676E7B1F1806FF7
:1046700086D10121201DFFF71DFD002818BF05462A
:104680007EE7B2F1005F91D1022104F12000FFF733
:104690009BFD88E7001002404D4B03604D4B10B569
:1046A000DC6804F003044460D968C1F302110131ED
:1046B00081601A69C2F30622C2601A69520B02F0C5
:1046C0001002073202611A69C2F3415201325200EC
:1046D00042611A69C2F34162C0E9084101325200E5
:1046E00082615A69C2F3062282625A69520B02F051
:1046F00010020732C2625A69C2F3416201325200AB
:104700000263D3F8882002F003028263D3F8882082
:1047100002F00C02C263D3F8882002F03002026477
:10472000D3F8882002F0C0024264D3F8882002F453
:1047300040728264D3F8882002F44062C264D3F8E5
:10474000882002F440520265D3F8882002F44042E7
:104750004265D3F8882002F440328265D3F888207D
:1047600002F44022C265D3F8882002F440120266A7
:10477000D3F8882002F440024266D3F8882002F081
:1047800040728266D3F8902002F44072C0F8842010
:10479000D3F8882002F04062C266D3F8882002F085
:1047A00040620267D3F8882002F040624267D3F883
:1047B000882002F040528267D3F8882002F08042BD
:1047C000C267D3F8883003F00043C0F8803010BDD2
:1047D000FFFF0F0000100240094A536943F4802391
:1047E00010B55361EFF3108272B600235C581C5071
:1047F0000433B3F5807FF9D182F3108810BD00BF78
:1048000000200240064B5A69002ABFBF054A9A6041
:1048100002F188329A60BABF5869C00F0020704711
:104820000020024023016745034A536943F00043D7
:1048300053610020704700BF0020024070B505465C
:10484000FEF7D6FF104C06462369DB030BD4206924
:104850004CF2FA3202400FD00C494B6813434B60C4
:104860000120226170BD6A1CEED0FEF7C1FF801BE3
:10487000A842E9D30320F5E7206910F00100F1D048
:10488000012323611046EDE7002002407000002064
:104890002DE9F843254C99462378012B06460F460F
:1048A000904641D001234CF250302370FFF7C6FFF1
:1048B000054630BB60601E48026812F4806217BF74
:1048C0000368227723F4806303601CBF02232377ED
:1048D000E6B9436943F001034361C7F80080BFF3C1
:1048E0006F8F0126C7F804904CF25030FFF7A6FFF7
:1048F000054626B10E4A536923EA0606566100F0C2
:104900004DF8002323702846BDE8F883731E012B61
:1049100001D90026E8E741463846FFF75DFF022E41
:10492000F7D14FF48026DFE70225ECE77000002086
:1049300000200240094B10F0010F1EBF5A6942F0DF
:1049400004025A61820742BF5A6942F400425A6126
:10495000024A536943F48033536170470020024098
:104960000D4B5A6911F0010F14BF22F4006242F49A
:1049700000625A615A69C00022F4FF6200F4FF60CD
:10498000104358615A6942F002025A615A6942F46E
:1049900080325A61704700BF002002401348037FF5
:1049A000DAB203F0FD03012B0CD1114B196841F46D
:1049B00000611960196821F400611960196841F4F7
:1049C00000711960931E012B0CD8094B1A6842F430
:1049D00080521A601A6822F480521A601A6842F4EF
:1049E00080621A6000230377704700BF70000020C8
:1049F000002002402DE9F047354D2B78012B06466B
:104A0000884662D001274CF250302F70FFF716FF16
:104A1000044640BB2F4B68601A6812F4007F1A6886
:104A200026D022F400721A601A68510506D51A6859
:104A300022F480621A6003232B7700E02F7733681B
:104A4000012B1FD17068FFF775FF4CF25030FFF754
:104A5000F5FE204A536923F4004323F0040304467F
:104A60005361FFF79BFF00232B702046BDE8F087C2
:104A7000520505D51A6822F480621A600223DBE72A
:104A80002877DCE74FF0FF33C8F80030B768DFF86D
:104A90004490DFF844A0D6E902321344BB42E0D987
:104AA00071683846FFF75CFF4CF25030FFF7C6FEE6
:104AB000D9F8143003EA0A03C9F8143018B1C8F859
:104AC00000700446CDE70137E5E70224CDE700BFDB
:104AD000700000200020024005F8FFFF2DE9F74F8D
:104AE000DFF8B091694D00230A6832FA03F402D16D
:104AF00003B0BDE8F08F4FF0010A0AFA03FA1AEA90
:104B0000020200F0B4804C6824F0100E4FEA430813
:104B100003260EF1FF3706FA08F6012F6FEA0606A4
:104B200011D8876807EA060CCF6807FA08F747EA42
:104B30000C078760476827EA0A0CC4F300179F40F8
:104B400047EA0C07476004F0030CBCF1030F08D1DF
:104B5000C76A27EA0A0AC4F3C0079F4047EA0A0760
:104B6000C762C76807EA060A8F6807FA08F747EAC4
:104B70000A07BEF1020FC76016D14FEAD30A00EB55
:104B80008A0A03F0070BDAF820704FEA8B0B4FF01C
:104B90000F0E0EFA0BFE27EA0E0E0F6907FA0BF73F
:104BA00047EA0E07CAF8207007680CFA08FC3E4076
:104BB0004CEA06060660E60059D5D9F8606046F072
:104BC0000106C9F86060D9F8606023F0030707F1B7
:104BD000804706F0010607F58037019603F0030EC3
:104BE000019EBE684FEA8E0E4FF00F0C0CFA0EFCC1
:104BF000B0F1904F26EA0C0C3BD0254EB0423AD093
:104C000006F58066B04238D006F58066B04236D0F0
:104C100006F58066B04234D006F58066B04232D0E8
:104C200006F58066B0420CBF0626072606FA0EF689
:104C300046EA0C06BE602E68D74314F4803F0CBFD2
:104C40003E4016432E606E6814F4003F0CBF3E4099
:104C500016436E60AE6814F4801F0CBF3E401643CE
:104C6000AE60EE68A40254BF3E401643EE600133CE
:104C70003AE70026DAE70126D8E70226D6E7032638
:104C8000D4E70426D2E70526D0E700BF00040140A0
:104C900000040048001002402DE9F04F424CDFF8BC
:104CA00010B100234FF0010A4FF00F0831FA03F260
:104CB00001D1BDE8F08F0AFA03F616EA010765D0C4
:104CC00023F0030505F1804505F5803503F0030C5D
:104CD000AA684FEA8C0C08FA0CF9B0F1904F09EA77
:104CE000020E55D0314A904254D002F58062904273
:104CF00052D002F58062904250D002F5806290421C
:104D00004ED002F5806290424CD058450CBF06222E
:104D1000072202FA0CF2724513D1226822EA070236
:104D20002260626822EA07026260A26822EA070241
:104D3000A260E26822EA0702E260AA6822EA0902A7
:104D4000AA60056803275A0007FA02F223FA07F758
:104D5000154300EB8707056003F00705D7F820C06F
:104D6000AD0008FA05F52CEA05053D62856825EADF
:104D700002058560456825EA06054560C56825EA9F
:104D80000202C260C26A22EA0606C66201338DE7E9
:104D90000022BEE70122BCE70222BAE70322B8E7FD
:104DA0000422B6E70522B4E70004014000040048ED
:104DB000001800480369194214BF01200020704701
:104DC0000AB181617047816270470000044A5169ED
:104DD000014208B502D0506100F09AFD08BD00BF45
:104DE00000040140F0B5002858D005682C4B9D42C6
:104DF0004FF0140140D82B4B2B44B3FBF1F32A495D
:104E00009B00022280F82520D0E9026207692C6805
:104E100032433A4347693A4387693A43C7693A4359
:104E2000076A24F4FF4424F070043A432243B6F5A1
:104E3000804FC0E910132A6015D0446803F01C03AA
:104E40000F229A4004FA03F3174CA1426FEA0202C0
:104E500019D1D1F8A8402240C1F8A820D1F8A82043
:104E60001343C1F8A83000230122C36380F8243023
:104E700080F825201846F0BD0C4B2B44B3FBF1F312
:104E80000B499B00BDE7D4F8A8140A40C4F8A82435
:104E9000D4F8A8241343C4F8A834E4E70120EAE7CF
:104EA00007040240F8FFFDBF00000240F8FBFDBF11
:104EB0000004024010B500283DD001680B6823F0C3
:104EC00001030B601D4B99424FF014022CD81C4B70
:104ED0001C4C0B44B3FBF2F39B000022C0E91043CF
:104EE0000A6003F01C030121994061600F2101FA5F
:104EF00003F314498C420CBFD4F8A810D1F8A8448D
:104F00006FEA03030BBF0B402340C4F8A830C1F87D
:104F1000A834C263C0E90B22C0E90D2280F8252025
:104F200080F82420002010BD074B084C0B44B3FB35
:104F3000F2F39B00D1E70120F5E700BF0704024030
:104F4000F8FFFDBF00000240F8FBFDBF0004024077
:104F5000016C426C036870B402F01C020E681D689C
:104F60000424944034420ED015F0040F0BD01A687C
:104F700092065EBF1A6822F004021A60036B4C604E
:104F800073B370BC184702249440344212D015F019
:104F9000020F0FD01A68950606D41A6822F00A028A
:104FA0001A60012380F8253000234C6080F82430FB
:104FB000C36AE5E708249440344211D02C070FD58A
:104FC0001C6824F00E041C60012303FA02F24A60FC
:104FD000C36380F82530002380F82430436BCFE78B
:104FE00070BC7047024A136843F4807313607047C3
:104FF00000700040024B186800F4C060704700BFAA
:10500000007000400B4A136823F0070343F00203CB
:105010001360094B1A69012842F004021A6105D194
:1050200030BF1A6922F004021A61704740BF20BFE6
:1050300020BFF6E70070004000ED00E00749CA68B5
:1050400022F4E0620302120403F4E063120C13433F
:1050500043F0BF6343F40033CB60704700ED00E0E2
:10506000164B30B5DC68C4F30224C4F10705231DD8
:10507000042D28BF0425062B4FF0FF338CBF033CC3
:10508000002403FA05F521EA0501A34022EA030200
:10509000A140002841EA0203ACBF00F16040084A89
:1050A0004FEA0313B8BF00F00F00DBB2AABF00F550
:1050B0006140135480F8003330BD00BF00ED00E0C4
:1050C00014ED00E0002808DB0123420900F01F0076
:1050D00003FA00F0014B43F82200704700E100E0C2
:1050E00000280DDB4309012200F01F0002FA00F046
:1050F0002033044A42F82300BFF34F8FBFF36F8F72
:10510000704700BF00E100E00138B0F1807F0BD2B2
:105110004FF0E023054A5861F02182F82310002067
:10512000072298611A6170470120704700ED00E086
:10513000704708B5FFF7FCFF08BD00F027BC00F082
:1051400067BE00F070BE07B5CDE9002101466A4692
:10515000002001F0B9F803B05DF804FB002001F075
:10516000D7B808B500F038FBBDE80840002001F0D2
:10517000DDB808B500F018FBBDE80840002001F0DC
:10518000CFB8000010B50C4611461A4605281CD8A9
:10519000DFE800F003080A0F14161448BDE81040B9
:1051A00000F0CAB91248F9E704F1006000F5FE20EA
:1051B000F4E704F1006000F59620EFE70D48EDE715
:1051C00004F1006000F5C820E8E70B490B4801F046
:1051D00028F90B4801F025F90A4801F022F908489E
:1051E00001F01FF9BDE8104000F0D0BB00F807083F
:1051F00000E8070800E007089BA3010800A30108D6
:10520000009E01081CA3010837B514460D461A4636
:10521000052832D8DFE800F003101943222B0121C2
:105220002048019200F0F4F8019A1E48214603B08C
:10523000BDE8304000F02CB901211B48019200F07C
:10524000E7F8019A18482146F1E701211748019231
:1052500000F0DEF8019A15482146E8E701211448DC
:10526000019200F0D5F8019A11482146DFE705F1D7
:105270000060214600F5C820D9E70E490E4801F02C
:10528000D0F80E4801F0CDF80D4801F0CAF80B48EF
:1052900001F0C7F803B0BDE8304000F077BB03B0C1
:1052A00030BD00BF00F8070800E8070800F0070855
:1052B00000E007087EA3010800A30108009E010882
:1052C0001CA30108052808B50B46114607D103F1B8
:1052D000006000F5C820BDE8084000F099B8084912
:1052E000084801F09EF8084801F09BF8074801F0D3
:1052F00098F8054801F095F8BDE8084000F046BB75
:1053000055A3010800A30108009E01081CA3010881
:1053100010B5084CF229234628BFF221217013F85A
:10532000012B01461846FBF72BF8012384F8F330D4
:1053300010BD00BF007F0010014B93F8F3007047D1
:10534000007F00100CB470B5C6B04AAC03900D4697
:10535000FB22002107A854F8046B0691FBF7AAF87A
:10536000039B0095104AFF2106A8FBF735F906AB11
:105370002246C5B2314653FA80F00594FBF74EFB46
:105380002844C1B206A8FFF7C3FF06A9074801F0E9
:1053900048F8074801F045F800F0F8FA46B0BDE8D3
:1053A000704002B0704700BF2EA3010836A3010869
:1053B000009E010800F0C2BD034B1422C3E9011096
:1053C00018461A7000F0CCB898030020142000F0A2
:1053D0003BBA70477047052070477047FF20704701
:1053E000012070470FB407B504A951F8040B0191CF
:1053F00001F004F803B05DF804EB04B070470A2034
:10540000704700F001B870474FF40060704700002B
:10541000F0B587B000230446019304F178450E46A9
:10542000FFF7F0F9164B4FF40042B5F5801F1A61F3
:105430004FEAD52706D31348214600F0F2FF124861
:1054400000F0EFFFED0CCDE9047600240135029465
:10545000039501A902A8FFF7CDFA0134E4B240B1E7
:10546000042CF6D1094800F0DCFF074800F0D9FF12
:10547000FEE7042CF6D0FFF7D7F9012007B0F0BD06
:1054800000200240BAA30108009E0108E5A301081C
:1054900053072DE9F74F14461CBF22F007040834C8
:1054A00004EB000B80468A46FFF7ACF9214B4FF422
:1054B0000042BBF1016F1A6139D84FF0000909EBC6
:1054C0000801594505D3FFF7AFF9204603B0BDE801
:1054D000F08F00230AEB09071A46184617F8015BFC
:1054E000A3F12006C3F1200C05FA06F625FA0CFC00
:1054F0009D40AD1846EA0C0603F1080340EB060692
:10550000402B2A463046E9D100272A463346002060
:105510000191FFF7BDF90137FFB218B1042F0199CE
:10552000F3D1FEE7042FFCD009F10809C7E70024F6
:10553000CBE700BF0020024082B000238DF8073087
:105540000A44401A914201D102B070474358DBB27D
:105550008DF807309DF8073001F8013BF2E70000B5
:1055600038B183682BB10378024A03F00F0342F885
:1055700023007047A403002070B590F90050044642
:105580008EB0AB01164605F00F05012202FA05F5B3
:1055900062680A92A2680B9203F470530022CDE96C
:1055A0000C2203F190400995002B2FD103F1804389
:1055B00003F50433DA6C42F00102DA64DB6C03F0C9
:1055C00001030393039B0190CAB2A9B2FFF7F8FB52
:1055D00009A90198FFF782FA6368514A23F4001180
:1055E000914203D002F5801293426CD13046FFF70E
:1055F000B7FF237803F00F03092B00F28980DFE85F
:1056000003F05A646B72798080808080B3F5806F7C
:105610000DD103F1804303F50333DA6C42F002024B
:10562000DA64DB6C03F002030493049BCBE7B3F56D
:10563000006F0DD103F1804303F50233DA6C42F0C1
:105640000402DA64DB6C03F004030593059BBAE7FC
:10565000B3F5406F0DD103F1804303F50133DA6CEC
:1056600042F00802DA64DB6C03F008030693069B41
:10567000A9E7B3F5805F0DD103F1804303F5003353
:10568000DA6C42F01002DA64DB6C03F0100307936B
:10569000079B98E7B3F5E05F95D103F1804303F5ED
:1056A000FA33DA6C42F08002DA64DB6C03F08003D8
:1056B0000893089B87E7002206201146FFF7D0FCDD
:1056C0000620FFF7FFFC0EB070BD00220720114638
:1056D000FFF7C6FC0720F4E7002208201146FFF779
:1056E000BFFC0820EDE7002209201146FFF7B8FCB7
:1056F0000920E6E700220A201146FFF7B1FC0A2044
:10570000DFE7002217201146FFF7AAFC1720D8E791
:10571000002228201146FFF7A3FC2820D1E700BF74
:10572000000011107FB50022891A8DF804004FF097
:10573000010318BF012101A8CDE90232CDE90422FD
:10574000FFF71AFF07B05DF804FB0000F0B5154C39
:1057500006468C4696461D4694E80F008DB003AF72
:10576000103487E80F0094E807006B4683E80700D1
:105770000CAB03EB8E0E8DF81C605EF8243C089396
:105780000CAB03EB8C0C2A465CF8303C09930023ED
:10579000CDE90A3305B12E70002107A8FFF7ECFE12
:1057A0000DB0F0BDC09B010808B50620FFF78AFCCC
:1057B0000720FFF787FC0820FFF784FC0920FFF78C
:1057C00081FC0A20FFF77EFC1720FFF77BFCBDE879
:1057D00008402820FFF776BC08B50620FFF780FCBC
:1057E0000720FFF77DFC0820FFF77AFC0920FFF770
:1057F00077FC0A20FFF774FC1720FFF771FCBDE867
:1058000008402820FFF76CBC00F00F020123800144
:10581000934000F470500A1E18BF012299B200F1A3
:105820009040FFF7CDBA08B5012100F00F038001C9
:10583000994000F4705089B200F19040FFF7BAFA35
:10584000003818BF012008BD00F00F00104B0928D8
:1058500018D8DFE800F005090B0E11141414141405
:105860004022C3F8802170478022FAE74FF480720B
:10587000F7E74FF40072F4E74FF48062F1E74FF47A
:105880000002EEE74FF48072C3F88421704700BF36
:1058900000E100E00120FFF799BA0220FFF796BA75
:1058A0000420FFF793BA0820FFF790BA1020FFF703
:1058B0008DBA08B52020FFF789FA4020FFF786FA55
:1058C0008020FFF783FA4FF48070FFF77FFABDE87E
:1058D00008404FF40070FFF779BA08B54FF48060C4
:1058E000FFF774FA4FF40060FFF770FA4FF480503E
:1058F000FFF76CFA4FF40050FFF768FA4FF480405E
:10590000FFF764FABDE808404FF40040FFF75EBAC5
:1059100078B90246084B53F8223063B19A6852B105
:105920005868104740080128DAB203F10103F9D1A1
:10593000F0E70023F7E77047A403002080B485B0A8
:1059400000AF78607B684FF47A7202FB03F30C4A75
:1059500082FB03129210DB17D31ABB600023FB609B
:1059600003E000BFFB680133FB60FA68BB689A4242
:10597000F7D300BF00BF1437BD465DF8047B704706
:10598000B975790772B6704762B6704772B6BFF3E1
:105990004F8F0549054BCA6802F4E0621343CB60A0
:1059A000BFF34F8F00BFFDE700ED00E00400FA05F4
:1059B00070B5BCB0FDF7FAFE4422002108A8FAF742
:1059C00079FD5A4D1422002102A8FAF773FD8822AE
:1059D00000211AA8FAF76EFDFFF704FBD5F8903006
:1059E00023F01803C5F890300E23012208934FF4DA
:1059F0008073CDE90A2310220123CDE90C23022272
:105A00000223CDE9122301220A23CDE91423022621
:105A10000722022308A8CDE916231896FDF78CFF6C
:105A200070B14349434800F0FCFC434800F0F9FCE6
:105A3000424800F0F6FC404800F0F3FCFFF7A6FFF8
:105A40000F220323CDE90223069000220023042124
:105A500002A8CDE90423FEF7F5F90028E1D14FF4BF
:105A600080733B934FF440214FF44013CDE9311341
:105A7000334A29904FF0806337930223CDE91A23EC
:105A800001220C23CDE91C2307220423CDE91E2388
:105A90001AA802224FF48013CDE92023FEF710FC50
:105AA00004460028BDD1AB6D43F08053AB65AB6DB0
:105AB00003F080530193019BAB6843F40043AB6058
:105AC00000F0D2FD00F0BAFC01210820FFF72AFE09
:105AD0002346224621461320FFF738FE23460122A3
:105AE00031461420FFF732FE20460121FFF71AFE4F
:105AF00021461020FFF716FE21462120FFF712FE57
:105B000021462020FFF70EFE21461520FFF70AFE52
